:020000040800F2
:10A00000E885002049A3000811D300084DCA0008C4
:10A01000F5D2000875B8000885E9000800000000C6
:10A0200000000000000000000000000019A200086D
:10A030004DC1000800000000D1A2000835A30008AF
:10A0400063A3000863A3000863A3000863A30008D8
:10A0500063A3000863A300084DC3000863A30008BE
:10A0600063A3000863A3000863A3000855BF0008AA
:10A0700063A3000863A3000863A3000863A30008A8
:10A0800063A3000863A3000863A3000863A3000898
:10A090003DE9000863A3000863A3000863A3000868
:10A0A00063A3000863A3000863A3000863A3000878
:10A0B00063A3000801E3000869E3000863A3000844
:10A0C00063A3000863A3000863A3000863A3000858
:10A0D00063A30008DDE500082DE7000863A300087E
:10A0E00063A3000863A3000863A3000863A3000838
:10A0F00063A3000863A3000863A3000863A3000828
:10A1000000000000000000000000000063A3000841
:10A1100051E5000863A3000863A3000863A30008D7
:10A1200063A3000863A3000863A3000863A30008F7
:10A1300063A3000863A30008000000000000000003
:10A1400063A3000863A3000863A3000800000000E5
:10A1500000000000000000000000000000000000FF
:10A16000000000000000000063A3000863A30008D3
:10A1700063A30008000000000000000000000000D1
:10A180000000000063A30008DFF820D000F066FDA7
:10A19000AFF3008005F03CFB0021034805F030FCE4
:10A1A00005F048FBFEE70000E81F0108E8850020F5
:10A1B00080F309887047EFF309807047684680F3A1
:10A1C000098804480078C00714BF0220032080F3E8
:10A1D00014887047D41F0108DFF818C0EFF3058317
:10A1E0001B0618BF6047EFF31483DB0708BF604707
:10A1F00000DF7047A5FB0008DFF818C0EFF3058308
:10A200001B0618BF6047EFF31483DB0708BF6047E6
:10A2100000DF704789FD0008EFF30980816911F8BC
:10A22000021CE1BB90E80F1010B5E047BDE81040FC
:10A23000EFF3098C8CE80700214B93E8060091426C
:10A2400008BF704741B91EF0100F16D11D490868AC
:10A2500020F00100086010E01EF0100F06BF2CED8A
:10A26000108A0120002081F825002CE9F00FC1F8A8
:10A2700028C00CB406F024F90CBC1A60D2F828C02F
:10A28000BCE8F00F92F8250000280EBF6FF0020E18
:10A290006FF0120EBCEC108A8CF30988704710B571
:10A2A000094A1268914209D8084C54F8214090E8B4
:10A2B0000F10A047EFF3098C8CE80F0010BD0000D1
:10A2C0002401002034EF00E0B4B30008B4B3000868
:10A2D00010B505F07DFFBDE81040154B93E8060072
:10A2E000914208BF7047EFF3098C1EF0100F06BFB4
:10A2F0002CED108A0120002081F825002CE9F00FB8
:10A30000C1F828C00CB406F0DBF80CBC1A60D2F817
:10A3100028C0BCE8F00F92F8250000280EBF6FF0AF
:10A32000020E6FF0120EBCEC108A8CF30988704795
:10A330002401002010B506F08BF9CCE710B505F02C
:10A340001DFC06F085F9C6E7064880470648004729
:10A35000FEE7FEE7FEE7FEE7FEE7FEE7FEE7FEE7D5
:10A36000FEE7FEE791E2000889A100082DE9F05F11
:10A370000546002092469B46884606468146402474
:10A380001BE0284641464746224600F020FB534644
:10A390005A46C01A914110D311461846224600F081
:10A3A00007FB2D1A67EB01084F46224601200021CA
:10A3B00000F0FEFA17EB00094E41201EA4F1010443
:10A3C000DFDC484631462A464346BDE8F09F40EA76
:10A3D00001039B0703D009E008C9121F08C0042A23
:10A3E000FAD203E011F8013B00F8013B521EF9D20A
:10A3F0007047D2B201E000F8012B491EFBD2704732
:10A400000022F6E710B513460A4604461946FFF740
:10A41000F0FF204610BD421C10F8011B0029FBD1A3
:10A42000801A704730B505460020034600E05B1CEB
:10A43000934205D2EC5CC85C201A01D1002CF6D105
:10A4400030BD00000FB400B58DB010A909900B907D
:10A4500000914FF0FF300A9000200C9005480690C4
:10A46000054807906A4609A80F9900F0E7FA0DB071
:10A470005DF814FB59AA000877AA00082DE9FF5FD0
:10A480001D464FF0FF3BD5E9014691465F464FF030
:10A490000008A9697F1C01988847296A8246884775
:10A4A0000028F6D1BAF1FF3F0CD024F4C064002E8E
:10A4B00019DD600614D5BAF12B0F09D0BAF12D0FB2
:10A4C0000ED103E0584604B0BDE8F09F44F4806428
:10A4D000A9697F1C01988847761E8246002E02DDFE
:10A4E000BAF1300F03D0B9F1000F26D032E0A969DC
:10A4F000761E44F400747F1C019888478246002E23
:10A5000005DDBAF1780F06D0BAF1580F03D0B9F1D2
:10A51000000F10D01EE0B9F1000F02D0B9F1100FFA
:10A5200018D1A969761E24F400747F1C019888470D
:10A530008246102002E0082000E00A20814609E05F
:10A5400008FB0908A969761E44F400747F1C019871
:10A5500088478246002E05DD4946504600F059FAEC
:10A560000028EDDAE96901988847A00502D46FF068
:10A570000100A8E7E00725D1600613D5600502D5E4
:10A58000C8F1000000E0404629680A1D2A600968F9
:10A59000220501D5087015E0220701D5088011E0D9
:10A5A00008600FE02868011D29600068210502D5B8
:10A5B00080F8008006E0210702D5A0F8008001E0C5
:10A5C000C0F8008038467EE72DE9FE4F804681EADC
:10A5D0000300C00F0C46009021F0004123F000451D
:10A5E000B8EB0200A94105D24046214690461C46E0
:10A5F0000B46024623F00040104347D0270DC7F317
:10A600000A00C3F30A510290401A019040286BDA05
:10A61000C3F3130040F4801B0098924620B100233E
:10A62000D2EB030A63EB0B0B01985946C0F14002D1
:10A63000504600F0BDF906460D4650465946019A6F
:10A6400000F0D5F910EB08006141002487EA1152AF
:10A6500084EAE7731A4340D0009A62B3019A012A50
:10A660004FEA075215DC001B61EB02014FF000427C
:10A6700002EA0752CDE90042001C41F58011324642
:10A680002B4600F09DFA03B0BDE8F08F404621460E
:10A69000F9E7001B61EB0201001C41F58013001873
:10A6A0005B412018A2F5001747EB030140EAD57083
:10A6B000B6196D4111E06D084FEA360645EAC075DE
:10A6C0004FEA0752001B61EB0201001C41F58011AB
:10A6D00049084FEA30000019514132462B4603B079
:10A6E000BDE8F04F00F05DBA009801224000002361
:10A6F000D0EB020263EBE073009821464FEAE0746E
:10A70000B8EB000061EB0401E9E783F000435BE78D
:10A7100081F0004158E72DE9FE4F81EA030404F07F
:10A72000004421F0004100944FF0000B23F000435F
:10A7300050EA01045ED052EA03045BD0C3F30A542A
:10A74000C1F30A552C44A4F2F3340194A0FB025443
:10A75000C1F3130141F48011C3F3130343F48013D5
:10A7600001FB024400FB034E840A970A44EA815429
:10A7700047EA8357A4FB076802958D0A05FB078506
:10A780004FEA932C04FB0C542705029D4FEA065810
:10A7900047EA1637B5EB08056EEB070C870E920EED
:10A7A00047EA811742EA8312A7FB0201B6EB0B01CD
:10A7B00064EB00042B0D43EA0C335E1844EB1C5091
:10A7C000DA465146E7FB0201C5F313044FEA0B33A7
:10A7D00043EA14534FEA0432019C43EA0603A4F10E
:10A7E0000C040294009CCDE900B400F0E9F903B038
:10A7F000BDE8F08F00200146F9E72DE9F04D81EA30
:10A80000030404F0004B21F0004514464FF0000A09
:10A8100023F0004150EA050220D054EA01021DD085
:10A82000C5F30A570246C5F31303C1F31300C1F37E
:10A830000A5640F4801543F48013A7EB0608101B5A
:10A84000D64608F2FD3873EB050002D308F1010883
:10A8500001E092185B41B8F1000F03DA00200146D5
:10A86000BDE8F08D00204FF48011064684460EE0CE
:10A87000171B73EB050705D3121B63EB0503064398
:10A880004CEA010C49084FEA300092185B4150EA4B
:10A890000107EDD152EA030012D082EA040083EAF4
:10A8A0000501084305D0101BAB4106D2012200234D
:10A8B00006E000224FF0004302E06FF00102531067
:10A8C0001AEB06004CEB085110EB0A0041EB0B01B0
:10A8D000BDE8F04D00F065B90EB5C10F80EAE0703B
:10A8E0000844CA07002140F233438DE80E000A46AF
:10A8F0000B4600F065F903B000BD0EB540F23341E0
:10A9000002910021CDE900110A460B4600F058F9EA
:10A9100003B000BDC1F30A5210B5C1F3130140F2F8
:10A92000FF3341F480119A4201DA002010BD40F259
:10A9300033439A42A2F2334203DC524200F047F81A
:10A9400010BD904010BD000030B5041E71F1000430
:10A9500004DB4FF00044404264EB0101141E73F12C
:10A96000000405DB1C464FF00043524263EB040336
:10A970008B4208BF824230BD01F0004330B421F069
:10A98000004150EA010206D00A0DA2F56072C1F33F
:10A990001301002A02DC30BC00207047440F44EA57
:10A9A000C104C100E01830BC00EBC25000F0C2B8D6
:10A9B000202A04DB203A00FA02F10020704791407F
:10A9C000C2F1200320FA03F3194390407047202A74
:10A9D00004DB203A21FA02F00021704721FA02F349
:10A9E000D040C2F120029140084319467047202A06
:10A9F00006DBCB17203A41FA02F043EAE07306E0A7
:10AA000041FA02F3D040C2F12002914008431946B6
:10AA100070473A2800D2303820F02002412A01D372
:10AA2000A2F13700884201D34FF0FF307047000099
:10AA3000026811441378016018467047D1600449D8
:10AA400051610449116200211161114600F01EB9E3
:10AA500031AA000881AC0008426842B1016811F8CF
:10AA6000013B23B1521EC0E9001218467047012174
:10AA7000C160881E704742685AB1C368016843B913
:10AA800083688B4205D0491E521CC0E90012002089
:10AA900070474FF0FF3070470FB4002300B589B006
:10AAA0000CA900910B996FF00042CB601E4B0693EE
:10AAB0001E4B07930423CDE901321D4A089202463A
:10AAC0006B46002000F00EFB09B05DF814FB70B57A
:10AAD00086B006464FF0FF300091CDE9010100201D
:10AAE00015460C4604903246694604A8FFF7D4FF89
:10AAF00002460498211825B108B1084600E0204616
:10AB00002860049800280DD0002A02DD00988842B1
:10AB100008D0081B0094CDE901043246694604A818
:10AB2000FFF7BAFF06B070BD59AA000877AA00085F
:10AB300081AC00080029A8BF7047401C490008BF2D
:10AB400020F00100704710B4B0FA80FC00FA0CF05D
:10AB500050EA010404BF10BC704749B1CCF1200495
:10AB600021FA04F411FA0CF118BF01212143084322
:10AB7000A3EB0C01CB1D4FEA00614FEA102042BF4E
:10AB8000002010BC704700EBC35010440029A4BF44
:10AB900010BC7047401C490008BF20F0010010BCE9
:10ABA000704710B5141E73F1000408DA401C41F11F
:10ABB000000192185B411A4301D120F0010010BD41
:10ABC0002DE9F04D92469B4611B1B1FA81F202E0B7
:10ABD000B0FA80F220329046FFF7EAFE04460F46B4
:10ABE00040EA0A0041EA0B0153465A46084313D093
:10ABF000114653EA010019D0C8F140025046FFF750
:10AC0000E6FE05460E46504659464246FFF7D0FE40
:10AC1000084305D0012004E020463946BDE8F08D08
:10AC20000020054346EAE0762C4337430A98630543
:10AC3000E40AA0EB08000022FD0A44EA47540A3067
:10AC400002D500200146E9E7010510196941DDE957
:10AC5000084500196941BDE8F04DA2E7064C074DD3
:10AC600006E0E06840F0010394E8070098471034DC
:10AC7000AC42F6D3FFF78CFAB0200108D0200108CF
:10AC8000C0B24FF4F05100F049BB00002DE9F34F82
:10AC90008BB04FF0000801F10C000C464FF0010B97
:10ACA00046460DF1080A019062690121019890471A
:10ACB000051E2DD0252D2CD0216A8847C0B1626990
:10ACC000012101989047216A88470028F7D1411E49
:10ACD00062690198904700E0761CA1690B9888474B
:10ACE000216A88470028F7D1E1690B988847DBE79C
:10ACF000A1690B9888470746A84201D1761CD3E783
:10AD0000E1690B9888477F1C02D1B8F1000F6FD022
:10AD100047E1002762693D463946019890472A2855
:10AD200004D162690121019890470125DFF88892DA
:10AD30006269012101989047A0F130010A290AD2E5
:10AD40004F45E5DC07EB870100EB4107303FDFD4DF
:10AD500045F01005ECE7E90601D46FF000476C28D8
:10AD60000AD04C2814D0682815D06A280DD0742831
:10AD70001CD07A281AD01DE0626901210198904701
:10AD80006C2802D045F0040514E045F002050DE002
:10AD900045F020050AE06269012101989047682882
:10ADA00002D045F0080505E045F40065626901211F
:10ADB00001989047C4E9015765283DD019DC58280F
:10ADC0007AD00CDC452837D004DC252826D0412851
:10ADD00031D131E046282FD047282CD12CE05B28F8
:10ADE00077D0612828D063287CD0642823D15AE00A
:10ADF000D1E06F2848D008DC66281DD067281BD01A
:10AE0000692821D06E2816D127E0702845D07328F4
:10AE100068D0752847D078280DD14DE0A1690B98EE
:10AE20008847054625283FF469AFE1690B988847B4
:10AE30006D1C3FF46AAFB4E023466A466FF0010030
:10AE40000B9900F04FF99FE045F040006060A807C3
:10AE500023464FF0000236D43EE0E8077FF447AFC8
:10AE60002068011D21600068290501D506701BE7D7
:10AE7000290701D5068017E7A90703D5F117C0E90F
:10AE8000006111E706600FE745F040006060A80729
:10AE900023464FF0080216D41EE040F60E0125EAC4
:10AEA0000100606016E045F040006060A80723469E
:10AEB0004FF00A0207D40FE045F040006060A80799
:10AEC00008D5234610226FF001000B99AFF30080E4
:10AED0005AE007E0234610226FF001000B99FFF7BC
:10AEE000CDFA51E04FF000094F464B46632802D09F
:10AEF0005B2807D041E02079C00601D40120A06082
:10AF000001273AE062690121019890475E2805D146
:10AF10004FF001096269494601989047216939B9A2
:10AF200000210A46534643F82120491C0829FADB30
:10AF3000B0B3216969B9C11700EBD16253110AEBB3
:10AF4000830122F01F02821A01200B689040034304
:10AF50000B6062690121019890475D28E8D1B9F141
:10AF6000000F09D00020514651F82020D24341F86B
:10AF70002020401C0828F7DB02AB224600976FF028
:10AF800001000B99AFF3008000280CDA401C08D1B7
:10AF9000BBF1000F05D04FF0FF300DB0BDE8F08FD2
:10AFA000FFE74046F9E7E90701D108F10108064447
:10AFB0004FF0000B78E60000CCCCCC0C2DE9FF4F15
:10AFC000087883B09946FF2805D0491C2D2804D065
:10AFD0000024002008E000200BE00124F9E700EB4A
:10AFE000800003EB4000491C0B78FF2BF7D104B124
:10AFF000404200230293147819461D462D2C01D09F
:10B000002B2C04D1521C2D2C13D000240294AA46C0
:10B010001478FF2C0FD00A25A3FB057801FB0581CE
:10B020004FF0000C03FB0C11521CE3194AEB010119
:10B03000EEE70124EAE7814453EA010002D019F562
:10B04000C87F06DA03980021C0E9001107B0BDE807
:10B05000F08F0025AE4E2F46DFF8B882184600F07C
:10B0600071F9CDE90001B9F1000002DAC9F100047B
:10B0700000E004460023A74A1AEB030B42EB045AF4
:10B0800012E0E00707D02A46334638464146FFF72C
:10B0900042FB074688462A46334610461946FFF7C4
:10B0A0003AFB05460E466410002CEAD1DDE90001AA
:10B0B000B9F1000F5A46534606DAFFF79EFB3A46AF
:10B0C0004346FFF79AFB05E0FFF725FB3A46434668
:10B0D000FFF721FB029A0AB181F00041039AC2E90D
:10B0E0000001B3E72DE9FF4F1F468DB0D7E90146B8
:10B0F0004FF0FF382E2045464FF000090B90B969FC
:10B100006D1C0E988847396A824688470028F6D118
:10B11000BAF1FF3F0AD024F4D064002E11DDBAF159
:10B120002B0F08D0BAF12D0F0BD102E0404611B021
:10B130008DE744F48064B9696D1C0E988847824697
:10B14000761E6946600501D52D2000E02B208DF884
:10B15000000001F1010B0DF1200809E0B9696D1C37
:10B160000E98884782460F9844F40074761E056056
:10B17000002E02DDBAF1300FF0D00B998A453ED196
:10B1800044F0800406E00F99681CA9F1010944F419
:10B1900000740860B9696D1C761E0E988847824657
:10B1A0003028F0D02BE00B998A4505D1200603D436
:10B1B00044F08004761E18E0504603F09CFC08B36F
:10B1C0000DF11301761E44F400748B4508D2AAF1E8
:10B1D00030000BF8010B200607D5A9F1010003E0B0
:10B1E000200602D409F101008146A00502D50F997D
:10B1F000681C0860B9696D1C0E9888478246002E4D
:10B20000D1DC53E0002E51DDBAF1650F02D0BAF166
:10B21000450F4BD1A00549D5B9696D1C24F4407484
:10B22000761E0E9888478246002E0CDD2B2804D00F
:10B23000BAF12D0F07D144F48074B9696D1C0E98D2
:10B2400088478246761EE00501D52D2100E02B219E
:10B2500008F8011BCDF82C8021E00DF12901761EA4
:10B2600044F4007488450CD2AAF1300010F0FF00BD
:10B2700088F8000002D10B99884509D908F1010826
:10B2800006E0E00501D5244801E042F20F70814656
:10B29000B9696D1C0E98884782460F980560002E8C
:10B2A00004DD504603F027FC0028D6D1F9690E983A
:10B2B0008847FF208BF8000088F8000000200690E7
:10B2C00007904B466A4608A906A8FFF777FEA00537
:10B2D00002D46FF001002AE714F0240F0AD0E0072F
:10B2E00014D1DDE906123868031D3B600068C0E92F
:10B2F00000120BE0DDE90601FFF73EFB0146E00727
:10B3000004D13868021D3A600068016028460EE7E3
:10B31000000014400000F03FF1D8FFFF7F2801D962
:10B32000002208E0064A02EB5002C007127800D162
:10B33000120902F00F0201209040084070470000FF
:10B34000222001080EB540F2334202920022CDE9DC
:10B3500000221346FFF734FC03B000BD70B58C1813
:10B3600010F8015B15F0070301D110F8013B2A1119
:10B3700006D110F8012B03E010F8016B01F8016B06
:10B380005B1EF9D12B0705D40023521E0DD401F802
:10B39000013BFAE710F8013BCB1A921C03E013F8CB
:10B3A000015B01F8015B521EF9D5A142D8D3002000
:10B3B00070BD0000000000000029816802D041F04B
:10B3C000010101E041F0020181607047F0B54FF0EA
:10B3D000A043104E104C114D984201D0A04202D112
:10B3E000D3F8082300E02A683240D1E900673E43E1
:10B3F000D1E9027C47EA0C37097C3E4346EA012149
:10B400001143984201D0A04202D1C3F80813F0BD05
:10B410002960F0BDE010FCFF00010050080700505B
:10B420000029C16802D041F0010101E021F00101D1
:10B43000C1607047C26822F00202C260C2680A435B
:10B44000C2607047014600208968002900DA0120A7
:10B4500070470246002012680A4200D0012070475F
:10B4600030B5C3680C4A1340D1E900242243D1E926
:10B4700002452C4322430C6922434C6922438C69C8
:10B4800022431A43C260026B097F22F00F02491E59
:10B490001143016330BD000007C0FFFDF0B59BB054
:10B4A0004FF4887002F00AF90121084602F016F9FB
:10B4B0000121080702F012F901214FF4202002F0C7
:10B4C0000DF903208DF864000120002418908DF8F8
:10B4D000674018A94FF0904001F004FA0B20189033
:10B4E00018A9464801F0FEF9454D284600F056FDE2
:10B4F000444800904448CDE901048020CDE904404F
:10B5000080000690800004260790ADF80C60202093
:10B510000890C001CDE909046946284600F0C8FD3D
:10B520000BA800F015F94FF0A0470121384600F0B4
:10B530001AF90A2004F060F9E906384600F0F6F836
:10B54000384600F0FBF83846FFF77CFF0028FAD1B8
:10B550000720CDE913044FF4004015900220169007
:10B560000A208DF85C0013A93846FFF72FFF4FF42F
:10B570000050CDE90B040D940E940F941094119487
:10B580008DF848600BA93846FFF76AFF03230122B4
:10B590000621384600F074F80323022207213846BA
:10B5A00000F06EF803231A460921384600F068F8C7
:10B5B000032304220121384600F062F802213846B4
:10B5C000FFF738FF01220221284600F069FD012122
:10B5D0003846FFF725FF01213846FFF7EDFE012130
:10B5E0003846FFF736FF0028F9D00121284600F041
:10B5F000C9FC384600F0A7F81BB0F0BD00080048B1
:10B600000800024040000050181A00202DE9F047C1
:10B610000F460646002590462C4640211748FEF767
:10B62000EFFEDFF85890A9F1440101EB88080DE026
:10B63000022000F025FD0028FAD0022000F096FC40
:10B64000D8F8101029F81410641CE4B2B442EFD3F7
:10B6500031460A4800F0C6F878084946A6EB57027A
:10B6600004E031F81030401C1D44C0B28242F8DCC6
:10B67000F01BB5FBF0F080B2BDE8F0874C1A00205B
:10B6800030B51F24052A0AD2056B02EB4202520094
:10B690009440A54301FA02F42543056326E00A2AF3
:10B6A0000BD2456B521F02EB420252009440A5435D
:10B6B00001FA02F42543456318E00F2A0BD2856B8B
:10B6C0000A3A02EB420252009440A54301FA02F406
:10B6D000254385630AE0C56B0F3A02EB4202520034
:10B6E0009440A54301FA02F42543C56309290DD905
:10B6F00082690A3901EB4101072284698A40944337
:10B70000846182698B401A43826130BD42694A1E5E
:10B7100002EB42043822A2404469944344614269E6
:10B7200001EB41018B401A43426130BD826822F037
:10B730008042826082680A4382607047816841F07B
:10B74000004181607047816841F004018160704769
:10B750000021016041608160C160016141618161DE
:10B76000012101777047826822F0405282600029EF
:10B77000816802D041F0805101E041F000518160C8
:10B78000704700002DE9F0410E46154987B2DFF8F9
:10B790004C80C87800252C4628F81070401CC0B298
:10B7A000C870102801D30020C87010210B4800F089
:10B7B00019F80620424632F8101011B1641CE4B2A8
:10B7C0000D44401CC0B20A28F5D3A54204D3B5FBF2
:10B7D000F4F03080BDE8F0813780FBE7181B0020D3
:10B7E0003C00002070B5491E002632460CE000EBFC
:10B7F000420430F812306588AB4203D920F8125069
:10B8000063800126521CD2B28A42F0DB012EEBD0BB
:10B8100070BD00002DE9F0410E46154987B2DFF8F2
:10B820004C80887800252C4628F81070401CC0B247
:10B830008870102801D30020887010210B48FFF772
:10B84000D1FF0620424632F8101011B1641CE4B258
:10B850000D44401CC0B20A28F5D3A54204D3B5FB61
:10B86000F4F03080BDE8F0813780FBE7D81A002083
:10B870003C00002001A001F00BFFFEE7427573467B
:10B8800061756C745F48616E646C657200000000E5
:10B8900010B503F0C7FE012819D04FF0E0214FF09A
:10B8A0008040C1F88001BFF34F8FBFF36F8F084C0A
:10B8B00000220121204602F087FD0021204602F0EF
:10B8C0006DFDA115BDE81040024801F0B6B810BDED
:10B8D000000800400008004810B503F0A3FE01284E
:10B8E00011D04FF0E0214FF08040C1F80001064C2C
:10B8F00001221146204602F067FD2046BDE81040B7
:10B90000012102F04BBD10BD0008004030B50823F6
:10B9100010240422B1F5007F1DD010DC202929D08D
:10B9200007DC012921D0042922D0082900D1C460D4
:10B9300030BD402920D0B1F5807FF9D10BE0002542
:10B94000B1F5004F06D008DCB1F5806F03D0B1F53A
:10B95000006FEDD18561426030BDB1F5803F0DD003
:10B96000B1F5003FF8D1446030BD0549816030BD7C
:10B97000C36030BD036130BD046130BD436030BD84
:10B98000010101002DE9F041064601218AB0480479
:10B9900001F0A4FE0121480601F0ACFE374F384605
:10B9A00000F06EF84FF0904809220B21404601F05C
:10B9B0002DF809220C21404601F028F84FF4C05020
:10B9C000079002208DF8200003208DF8210000242C
:10B9D0008DF8224001258DF8235007A9404600F03C
:10B9E00081FF684600F0DAF90820FA2E03D0B6F598
:10B9F000FA7F03D005E0ADF8000002E00421ADF8C5
:10BA000000108DF806408DF807408DF804000720DF
:10BA10008DF802408DF8050002948DF803406946C8
:10BA2000384600F0FBF88DF816408DF817408DF879
:10BA30001850ADF80C40ADF81040ADF80E40ADF820
:10BA40001240ADF814408DF8195003A800F024F806
:10BA500001220221384600F0D9F814208DF8240084
:10BA6000FF208DF825008DF826008DF8275009A8B5
:10BA700001F058FC0AB0BDE8F0810000006400400D
:10BA800010B501214C06204601F040FE2046BDE8DD
:10BA90001040002101F03ABEF0B5827A2F4D01210D
:10BAA00091402A6842F001022A602C4E1C3632680E
:10BAB0008A433260294A047B294B0C32A4B91468AA
:10BAC0008C4314604488C78844EA0744877A03EBB0
:10BAD000C707C7F840460488878844EA0744877A3E
:10BAE00003EBC707C7F84446047B012C12D1146846
:10BAF0000C431460847A026803EBC4044FEA3242B8
:10BB0000C4F84026847A426803EBC4034FEA324209
:10BB1000C3F84426114AC37A121D002B136806D0BD
:10BB20000B4313600D4A0389143213B104E08B43B5
:10BB3000F7E713688B4313600389012B02D1136865
:10BB40000B431360407B012802D13068084330600A
:10BB5000286820F001002860F0BD00000066004069
:10BB6000006000400246002053690B424AD0B1F504
:10BB7000807F3BD013DC08292ED007DC012926D09A
:10BB8000022927D004293DD1D0682BE0102925D0E7
:10BB9000202926D0402935D11069102130E0B1F597
:10BBA000004F2BD00BDCB1F5007F22D0B1F5806FB8
:10BBB00022D0B1F5006F25D19069702120E0B1F558
:10BBC000803F11D0B1F5003F1CD15068E5E7906887
:10BBD0000D4915E0D06802E0D068DEE71069032166
:10BBE0000EE0106908210BE05068FBE79069012125
:10BBF00006E09069022103E0906900E050680421AA
:10BC000000F0A2B97047000001010100002A42695A
:10BC100001D00A4300E08A434261704738B50024EE
:10BC20000094026822F002020260026842F00102FF
:10BC300002606FF07F4201E05B1C00934368DB070A
:10BC400002D1009B9342F7D14368DB073ED08B794A
:10BC5000012B03683CD023F080030360CB79012BD8
:10BC6000036838D023F0400303600B7A012B03688C
:10BC700034D023F0200303604B7A012B036830D0CB
:10BC800023F0100303608B7A012B03682CD023F080
:10BC900008030360CB7A012B036828D023F0040348
:10BCA00003608B78CD789B0743EA05630D7943EAFF
:10BCB00005434D79098843EA0553491E0B43C36187
:10BCC000016821F001010160009415E0002038BDF9
:10BCD00043F08003C1E743F04003C5E743F020038E
:10BCE000C9E743F01003CDE743F00803D1E743F081
:10BCF0000403D5E7491C00914168C90702D00099A7
:10BD00009142F7D14068C007E0D1012038BD10B59D
:10BD100000EB0113D3F8B04114F004041472D3F80B
:10BD2000B04133D0E4085460D3F8B04104F00204C9
:10BD30005472D3F8B44104F00F049472D3F8B441B0
:10BD4000240AD474D3F8B841D472D3F8B841240A81
:10BD50001473D3F8B841240C5473D3F8B841240EAB
:10BD60009473D3F8BC41D473D3F8BC41240A14743F
:10BD7000D3F8BC41240C5474D3F8BC311B0E93741B
:10BD800039B1016941F02001016110BD640D1460F9
:10BD9000CAE7C16841F02001C16010BD0021817176
:10BDA000C171017241728172C1728170C1700321CF
:10BDB00001710221417101210180704730B50246B5
:10BDC000002093685B0108D49068000101D5012030
:10BDD00003E09068C00044D5022002EB0012D2F8C4
:10BDE000803103F00103C2F880310B7AC3B3D2F87B
:10BDF00080414D681C434B7A43EAC5031C43C2F89B
:10BE000080418B7A03F00F038B72D2F8843123F0D8
:10BE10000F03C2F88431D2F884318C7A2343C2F8FC
:10BE20008431CB7A8C7B0D7B43EA04634C7B240406
:10BE300044EA05242343C2F88831CB7B8C7C43EA57
:10BE400004634C7C097C240444EA01210B43C2F8BE
:10BE50008C31D2F8801141F00101C2F8801130BD5F
:10BE600001E00420FBE7D2F880314C7A23430C88B0
:10BE700043EA4453C2F88031C3E70000094810B5D3
:10BE8000C07A022803D0012801D0002010BD002173
:10BE9000054803F0B5FD054900288861F6D001206A
:10BEA00010BD000098090020981F01089000002094
:10BEB0007CB5064600200D460446009001900629F8
:10BEC00016DB70196A4630F8020CADF804000AA1BE
:10BED00001A8FEF7B7FA0022AD1E03E0B05C521CC9
:10BEE000044412B2AA42F9DB0099E0B2814201D0C7
:10BEF00000207CBD01207CBD2578000070B5064681
:10BF00004FF0FF300023084D0BE0F25C5040002260
:10BF1000040E521C55F82440042A84EA0020F7DB62
:10BF20005B1C8B42F1DB70BD341A010810B5024670
:10BF30000020044C03E012F8013B4340E05C491E42
:10BF4000F9D210BD341E0108024600200A4200D07A
:10BF50000120704710B5022000F092F8002804D0AC
:10BF6000BDE81040022000F001B810BDC10002D5AC
:10BF70000249086070470249486070470404024063
:10BF8000000002400029016802D041F0010102E0F6
:10BF90004FF6FE72114001607047000001684FF6D5
:10BFA000FE72114001600021016041608160C1604A
:10BFB0003149314A0839904203D1486840F00F00B6
:10BFC00006E02D4A1432904204D1486840F0F00057
:10BFD00048607047284A2832904203D1486840F4AC
:10BFE0007060F5E7244A3C32904203D1486840F43F
:10BFF0007040EDE7204A5032904203D1486840F447
:10C000007020E5E71C4A6432904203D1486840F44E
:10C010007000DDE7184A7832904203D1486840F05A
:10C020007060D5E7154A111F904203D1086840F0AF
:10C030000F0006E0114A1432904204D1086840F023
:10C04000F000086070470D4A2832904203D108681A
:10C0500040F47060F5E7094A3C32904203D1086829
:10C0600040F47040EDE7054A50329042EAD108684A
:10C0700040F47020E5E70000080002400804024098
:10C0800002460020D10001D5034900E003490968B8
:10C09000114200D00120704700040240000002401D
:10C0A000002A026801D00A4300E08A430260704718
:10C0B00030B5026847F6F0739A430C6A8B682343E5
:10C0C000D1E904452C4323438C692343CC692343A2
:10C0D0004C6A23438C6A2343134303608A8942607A
:10C0E0000A6882604968C16030BD000010B502F086
:10C0F0005FFF0021024803F083FC0249486010BD45
:10C10000B01F0108C40000200E48016821F08071B2
:10C110000160016841F0807101600B48016821F005
:10C1200001010160016841F00101016000214160ED
:10C1300000BF00BF00BF406808B100207047012069
:10C1400070470000FCED00E0001000E001A001F0ED
:10C150009FFAFEE744656275674D6F6E5F48616EDA
:10C16000646C65720000000001B508484168084A27
:10C17000084B1268B2FBF3F2009B53439A1A0093E8
:10C1800043685B1A9342FBD308BD0000001000E037
:10C190000801002040420F002DE9F0410A4E4FF403
:10C1A000805500242946304600F049FC4FF47A7748
:10C1B000384603F021FB641C0A2CF9DB2946304683
:10C1C000BDE8F04100F039BC0008004870B50178C6
:10C1D000414C01F0010121740178C1F34001617506
:10C1E0000178C1F38001A1750178C1F3C0016174C8
:10C1F0000178C1F30011A1740178C1F34011E17419
:10C200004178217581786173C27822730279A273B3
:10C210004279E273C279FF2A0FD1827902F00102DA
:10C22000E2758279C2F3400222768279C2F38002FB
:10C2300062768279C2F3C002A2760289837A52BA08
:10C24000120442EA0322C37A234D1A4362608289B0
:10C25000837B52BA1204C07B42EA032202431C359C
:10C26000A260E87A884204D0E97200221B4800F0FC
:10C270000DFAA87A217B884204D0A97200221848BE
:10C2800000F004FA287BA17B884204D029730022A5
:10C29000144800F0FBF9687BE17B884204D06973A5
:10C2A0000022114800F0F2F9616839B1286888422B
:10C2B00004D000220D48296000F0E8F9A1680029A7
:10C2C00009D06868884206D06960BDE870400022E5
:10C2D000074800F0DBB970BD7C09002000D80308D6
:10C2E00000B8030800C0030800C8030800E0030802
:10C2F00000E8030870B5134D04461021284600F0ED
:10C300009EFB0A2003F078FA0F4EAC21304602F073
:10C310003DF90021304602F039F92146304602F05D
:10C3200035F9AC34E0B24042C1B2304602F02EF9E9
:10C330000A2003F061FA2846BDE87040102100F0A1
:10C340007CBB0000001400480044004070B5002091
:10C3500000F044F800282DD0174C0025256117481F
:10C36000807A022801D020B11FE0A069401CA061A2
:10C370001BE001214FF0904000F058FB002820887E
:10C3800002D0A08025800CE0608025806088A18894
:10C390000144608840F24C425043B0FBF1F0193840
:10C3A000E060E068002800DAE560BDE87040002049
:10C3B00000F006B870BD0000301A00209809002077
:10C3C00000F01F0201219140034A20F01F00104499
:10C3D000C0F8141470470000000001400146074BEC
:10C3E00021F01F021A440020D2F8142401F01F0388
:10C3F000012199400A4200D001207047000001400D
:10C40000F0B50368867903F01F050124384A04FA61
:10C4100005F123F01F03002E63D0364D2B44D3F8D3
:10C4200000648E43C3F80064036823F01F012944AD
:10C43000D1F8046403F01F0304FA03F39E43C1F828
:10C4400004640368017923F01F06164431440E6822
:10C4500003F01F0304FA03F31E430E60016821F08A
:10C460001F032B44D3F8086401F01F0104FA01F103
:10C470008E43C3F80864016821F01F032B44D3F8EE
:10C480000C6401F01F0704FA07F18E43C3F80C6433
:10C49000417910290BD0036823F01F001044084491
:10C4A000016803F01F02944021430160F0BD016860
:10C4B00021F01F022A44D2F8083401F01F0104FAC7
:10C4C00001F10B43C2F80834006820F01F01294431
:10C4D000D1F80C2400F01F0084402243C1F80C2442
:10C4E000F0BD00791A44104402688A430260F0BD2E
:10C4F00000040140000001400149C860704700008D
:10C500000020024070B505464FF43026304600F05A
:10C510007BF8042810D1094C206940F0020020610A
:10C520006561206940F040002061304600F06CF801
:10C53000216921F00201216170BD0000002002404C
:10C5400008490420CA68D20701D001207047CA6890
:10C55000D20601D502207047C9684907FBD50320E0
:10C5600070470000002002400248016941F080014C
:10C570000161704700200240F8B5064600204FF4E4
:10C58000302700900D46384600F03EF8042815D1BB
:10C590000B4C206940F0010020613580384600F0E6
:10C5A00033F8042806D1B61C290C00963180384691
:10C5B00000F02AF8216921F001012161F8BD000095
:10C5C0000020024010B5002306E050F82340FF2C65
:10C5D00005D8CC545B1C9BB29342F6D310BD00200F
:10C5E000C85410BD0068704704480169090603D5A6
:10C5F0000349416003494160704700000020024048
:10C6000023016745AB89EFCD00B50346FFF798FFDF
:10C6100002E0FFF795FF5B1E012803D0002B00D13D
:10C62000052000BD002BF4D1FAE72DE9F0410646C4
:10C630001746884600244FF43020FFF7E5FF042812
:10C6400002D00120BDE8F08102F05EFDFFF7CCFFD3
:10C650003420FFF751FF06F1FF00FFF753FF0546B7
:10C6600004280CD109E018F8041006EB8400FFF749
:10C6700083FF0546042802D1641CBC42F3D3FFF7B4
:10C6800073FF02F0A9FE2846DCE7000070B50646FD
:10C6900014460D464FF43020FFF7B6FF04282CD186
:10C6A00002F032FDFFF7A0FF3420FFF725FF3046F0
:10C6B000FFF728FF042805D0FFF756FFBDE87040BC
:10C6C00002F08ABE29463046FFF756FFFFF74CFFBF
:10C6D00002F082FE002C10D04FF47A7003F08CF838
:10C6E000BFF34F8F05480168054A01F4E06111432B
:10C6F0000160BFF34F8F00BFFDE770BD0CED00E0A0
:10C700000400FA0570B50C4D00242246094B2D7922
:10C710000CE013F81260864206D103EB42067678ED
:10C720008E4201D1012403E0521CD2B2AA42F0D3BE
:10C73000204670BD48350020900000207FB50121C3
:10C74000480400F0CBFF002401258DF80C40029531
:10C750008DF80F4002A94FF0904000F0C3F801217E
:10C76000084600F0DFFF0021084601F071F90A4891
:10C7700000948DF80440807A58B108208DF80500A7
:10C780008DF806506846FFF73BFE062002F02FF9B1
:10C790007FBD1020F2E70000980900200D4900221B
:10C7A0008878012808D1C878401CC0B2C8701E28FB
:10C7B00002D98A700A80CA708879012808D1C8799C
:10C7C000401CC0B2C8711E2802D98A718A80CA7101
:10C7D000704700007C00002070B504462DED028BF0
:10C7E00082B000780E4641F26705FA2802D16078DF
:10C7F000FA2818D0062235A12046FDF713FE10B303
:10C80000711E2046FFF792FBA11911F8011C884206
:10C8100004D1A088002801DB002800D1012002B04B
:10C82000BDEC028B70BD0521204602F0B4FB61799E
:10C830008142F3D1E1782079414040EA0120411E54
:10C84000A942E9D3EAE7607A2E2801D00020E6E782
:10C85000204604F083F92046FDF7DDFD01B22046B5
:10C86000FFF726FB0028D9D000200190D4F806005D
:10C8700000906089ADF804009FED168A684602F0CA
:10C88000DFF851EC100BFEF777F800EE100A1249B2
:10C8900010EE100ADFED110A884201DDB0EE600AE9
:10C8A000B5EEC00AF1EE10FA01D2B0EE480A9FEDE3
:10C8B0000C1A20EE010A80EE201ABDEEC10A10EE1D
:10C8C000100A411EA942A9D280B2A5E72A524656B3
:10C8D00030310000000000000000C8420000C842E3
:10C8E00000F07F45F0B50022012603250C6806FA0A
:10C8F00002F31C409C422BD10C79012C01D0022C5C
:10C9000013D18768540005FA04FC27EA0C078760F6
:10C910004F79A74084682743876084889C4384803C
:10C9200084888B7993401C4384800768530005FA00
:10C9300003F4A74307600F79D0F800C09F4047EA8F
:10C940000C070760C768A743CC799C403C43C46090
:10C95000521C102ACAD3F0BD2DE9FC5F01214FF40F
:10C96000402000F0BBFE01248DF8044000278DF824
:10C970000670DFF890B08DF807404FF003084FF0D5
:10C9800040098DF8058069465846CDF80090FFF7BC
:10C99000A9FF4021584600F052F8DFF86CA0A6032A
:10C9A000694650460096FFF79DFF3146504600F01D
:10C9B00046F86503694650460095FFF793FF294600
:10C9C000504600F03CF82002009069465846FFF7B8
:10C9D00089FF8DF804708DF807408DF80580694651
:10C9E0005046CDF80090FFF77DFF69465846009607
:10C9F000FFF778FF694658460095FFF773FFBDE8DB
:10CA0000FC9F000000080048000400484B07DB0EB4
:10CA10009A40C90810B500EB8100016A0F249C40C0
:10CA2000A1430162016A1143016210BD0246002068
:10CA3000128A0A4200D00120704701857047816147
:10CA400070470AB1816170470185704707A000F007
:10CA50001FFEBFF34F8F0A4801680A4A01F4E061E4
:10CA600011430160BFF34F8F00BFFDE7486172645F
:10CA70004661756C745F48616E646C65720000009D
:10CA80000CED00E00400FA0502494AF6AA2008600D
:10CA9000704700000030004010B502F047FE01F082
:10CAA000D9F802F0DBFA00F0A9FD00F007F8FFF773
:10CAB000E5F9BDE81040FFF719BB000010B5FFF71E
:10CAC0004BFF0C48407B012812D0002201210A486C
:10CAD00002F0CAFF0949886010B1962102F0DAFF1E
:10CAE00002F068FD0221BDE81040032001F0D8BA31
:10CAF00010BD000098090020A81F0108B800002000
:10CB0000014600200B2911D2DFE801F006100810C1
:10CB10000A100C100E101500A8200AE0B92008E039
:10CB2000C22006E0F52004E0F72002E018B1FA2860
:10CB300001D0FFF7DFBBFA20FBE70000F8B50446A1
:10CB40000278A34E0120002586F830007A2A7ED094
:10CB500049DC562A7BD026DC442A78D012DC2C2AE9
:10CB600075D008DC212A72D0222A70D0292A6ED0F2
:10CB70002B2A6DD16BE03E2A69D0402A67D0412A2A
:10CB8000F7D164E04A2A62D006DC452A5FD0462A03
:10CB90005DD0472AEDD15AE0532A58D0542A58D0B4
:10CBA000552AE6D153E0662A69D00BDCA2F159027E
:10CBB0000C2A4DD2DFE802F04B4C4B5963634C4CCE
:10CBC0004C634C636C2A5AD006DC692A57D06A2A17
:10CBD00055D06B2ACDD152E06E2A52D06F2A36D072
:10CBE000792AC6D133E0C42A79D013DCA2F1A80295
:10CBF0001C2ADED2DFE802F04FE9E957E957575720
:10CC0000E9E9E9E9E9E957575759E95757576DE90C
:10CC100073E97773F42A62D010DCEB2A5FD006DC6C
:10CC2000CB2A40D0E92A5AD0EA2A11D157E0EC2A7F
:10CC300055D0ED2A53D0F32A0AD150E0F53A082A0C
:10CC400006D2DFE802F081C24C4C4CA24C4C0225CB
:10CC5000BBE06078022540F2253110FB01F04FF473
:10CC60007A71B0FBF1F0B070AFE06078022500EBB4
:10CC700080000A21B0FBF1F086F82800A5E001252C
:10CC8000A3E060780225203800EB8000092190FBAA
:10CC9000F1F0706099E0B4F80100032532214843B7
:10CCA00080B2F06291E003258FE00325B4F8010023
:10CCB000FDF723FE9FED471B53EC112BFDF72BFDDA
:10CCC0009FED461B53EC112BFDF797FDC6E90601BE
:10CCD0007BE0B4F8010003258008308075E06078BF
:10CCE000801CC5B271E06078801CC5B28D426CD2E8
:10CCF00002203C4F25E03C4949783970215C401CBA
:10CD0000C6B27970A05D00F00F00B870A05DC0F3EE
:10CD10000010F870A05DC0F38012BA60A05DC30976
:10CD2000FB6003D0761CF6B2A05D00E000203874F2
:10CD30002AB938690090D7E9000101F0E5F9761CBD
:10CD4000F0B2A842D7D340E06078811CCDB204286D
:10CD50003BD1A0786179E27840EA01602179090449
:10CD600041EA02210843FDF7C8FD9FED201B53EC6B
:10CD7000112BFDF7D0FC9FED1F1B53EC112BFDF782
:10CD8000CAFCFDF7C7FDF0601FE06078811CCDB2E2
:10CD900004281AD1A0786179E27840EA016021790B
:10CDA000090441EA02210843FDF7A7FD9FED131B8B
:10CDB00053EC112BFDF7AFFC9FED121B53EC112B25
:10CDC000FDF7A9FCFDF7A6FD70612846F8BD00003F
:10CDD000D03300208A027D224F92FA3F00000000EB
:10CDE00000408F4034280020480000207250C24C80
:10CDF000DBBFF93F9A9999999999B93F00000000D2
:10CE00000000C03F639CBF0985480E402DE9F041FA
:10CE1000924D04462DED028B012085F83000904F95
:10CE200061684FF6E9623970C1F31120C1F3016105
:10CE30003861F970811A904272D03EDC4FF6CA62B6
:10CE4000A0EB0201904251D021DC00F6FD70B0F55C
:10CE500080307DD001287CD0A0F56060BE3828D11C
:10CE6000E07AA17B227B40EA0160617B090441EA10
:10CE700002210843FDF730FD9FED7A1B53EC112B87
:10CE8000FDF7BBFC41EC100B9FED781BC9E01629A8
:10CE900077D01B290DD1E07AA17B227B40EA01608B
:10CEA000617B090441EA02210843142190FBF1F05F
:10CEB0002861BDEC028BBDE8F08109297ED00BDC36
:10CEC00005295FD00829F4D1A089000AA870C828D4
:10CED00000D90020A870ECE70E295FD01329E8D113
:10CEE000207B00EB8000C0002881E2E7E07A810926
:10CEF0003972C0F301117972C0F38101B97200F087
:10CF00000300F872A07A0228D3D9801EC11700EB63
:10CF10009170C0F387060025102E2FD910262DE022
:10CF20008DE0022000EB8500C0B22044417B027BF3
:10CF30004909090441EA0222C17A0A437A61417B24
:10CF400001F01F017970807B00F07F03BB7001E06E
:10CF500030E01BE04748826001734373397A017007
:10CF6000797A4170B97A8170F97AC1704038C36CAE
:10CF7000416C006C01F0A4F86D1CEDB2B542D0D349
:10CF800097E73EE0E07A2838686092E7E089A0F50C
:10CF90007F41FF398DD0C00828808AE7B4F80F00A0
:10CFA000322148434FF6E851884200D9E86AE862E6
:10CFB0007FE703E0607B85F828007AE734F80D0FFF
:10CFC000FDF79BFC9FED2C8B53EC182BFDF7A3FB7F
:10CFD000C5E906016088FDF790FC53EC182BFDF7BE
:10CFE0009AFB41EC100B9FED261B85ED080B53ECD3
:10CFF000112BFDF7A9FCC3D19FED230B85ED080B89
:10D0000057E7E07BA17C227C40EA0160617C090457
:10D0100041EA02210843FDF75FFC41EC100B9FED54
:10D020001C1B51EC100B53EC112BFDF774FB41EC66
:10D03000100B87ED080BFDF76DFCE86039E7E07B2E
:10D04000A17C227C40EA0160617C090441EA022162
:10D05000084300EBD070401068612AE7D03300200D
:10D06000900000200000000000408F400000000001
:10D070000000144068350020000000000000603F00
:10D080000000000000006040000000000000000000
:10D09000000000000000C03F0C4A10B504231372CA
:10D0A0000B4B43EA0020506003209072D172080AB3
:10D0B0001073080C507311460648FEF77FFE0428D3
:10D0C00001D0012010BD002010BD0000A8330020B9
:10D0D000F90000180064004070B56E4D6E4C687D1C
:10D0E00010B1012821D110E0287D48B1A87D012888
:10D0F00014D0E08890B1022810D0042812D10DE09D
:10D10000E08858B102280DD108E0608808280CD2C8
:10D11000DFE800F00408040804080408002000F018
:10D12000D5F802E0002000F0BDF85C480078012846
:10D13000287C03D0A8B1012816D105E001280CD124
:10D14000608801280DD008E0608808280CD2DFE84C
:10D1500000F00804080408040804012000F0A2F804
:10D1600002E0012000F0B2F8687C70B101280FD114
:10D17000608808280CD2DFE800F0040804080408DE
:10D180000408022000F0A2F802E0022000F08AF871
:10D1900043480025007B90B33F4E761C30780B2827
:10D1A00062D2DFE800F00646131922464E2D3959A7
:10D1B0005D00FEF76DFB57E0032855D102E0FEF756
:10D1C0008BFB51E0FEF764FB35704DE0A088002832
:10D1D000F5D0012832D1ECE7E0880721B0FBF1F26D
:10D1E00001FB12000028EAD0E3E7E0880028E6D03F
:10D1F0000228E4D00428E2D00628E0D0D9E733E0C2
:10D20000E0880928D5D2DFE800F006050605060506
:10D2100006050600CDE7D2E7E0880B28C9D2DFE893
:10D2200000F0070607060706070607060700C0E71F
:10D23000C5E7A0880028C2D00128C0D00228BED0EF
:10D24000BAE7A08806280FD2DFE800F0050405043D
:10D250000503B7E7ADE7B2E7E0880A28B2D0AEE74A
:10D26000E0880028ABD0A4E76088401C6080A088DC
:10D27000401CA080E088401CE080E088462800D95F
:10D28000E5806088072800D96580A088072800D934
:10D29000A58070BD7C090020B8000020400000205F
:10D2A0009809002030B10749012806D0022807D18B
:10D2B000000304E04020044901E04FF4804008608E
:10D2C00070470000180400481808004830B10749AA
:10D2D000012806D0022807D1000304E040200449B9
:10D2E00001E04FF4804008807047000028040048A7
:10D2F0002808004801A000F0CBF9FEE74D656D4D10
:10D30000616E6167655F48616E646C657200000004
:10D3100001A000F0BDF9FEE74E4D495F48616E6423
:10D320006C65720030B50F23C27801780125F2B127
:10D33000144A126801F1E02102F4E062C2F5E062F1
:10D34000120AC2F10404D3404278A24084781C40FF
:10D350001443220181F80024007800F01F018D4061
:10D360004009800000F1E020C0F8005130BD01F01C
:10D370001F0085404809800000F1E020C0F880517E
:10D3800030BD00000CED00E02DE9F04104462DED2C
:10D39000028B0068A0F2DF70102873D8634E4FF044
:10D3A0000108634F86F83080207B432801D047284E
:10D3B00016D1607B002865D0032502280DD90021F5
:10D3C00087F80680B981801EF87106E06019017B3C
:10D3D000C07A00F0C7FEAD1CEDB2E07AA842F5D8E5
:10D3E000B879012813D1F979002508EB9100B989A2
:10D3F000884207D80BE06019017BC07A00F0B2FECA
:10D40000AD1CEDB2F87900F00700A842F3D8B88956
:10D41000401CB8814548E17A2838212902D02229C8
:10D4200006D00CE0E16840F85C1F218A818004E0AE
:10D43000E16840F8631F218A8180A17C8171207B93
:10D44000412811D049281DD1607B49281AD1207C60
:10D4500006F8310F607C7070A07CB070BDEC028B60
:10D46000BDE8F04100F028BB607B11280AD012DC37
:10D470000C2837D00ADC012804D0052802D1A07B73
:10D4800028387060BDEC028BBDE8F0810D28F9D121
:10D49000A07BB070F6E731282BD016DC1428F1D031
:10D4A0002F28EFD1A07BFDF728FA9FED221B53EC2C
:10D4B000112BFDF730F99FED211B53EC112BFDF7DC
:10D4C0009CF9FDF727FA3081DCE7422817D0A6281F
:10D4D000D8D104F10E0001F045FD0A21B0FBF1F0B6
:10D4E0007067CFE7E07BA17B00EB012080083080F4
:10D4F000C8E7E07BA17B00EB0120F060C2E7E07BA6
:10D50000FDF7FBF941EC180BA07BFDF7F6F99FED59
:10D510000D1B53EC112BFDF7FEF853EC182BFDF708
:10D5200053F8FDF7F7F9F062ACE70000D0330020C4
:10D5300090000020000000000000594000000000A2
:10D5400000E06F4000000000000070402DE9FC4149
:10D5500001214FF4602000F0C1F801208DF8040093
:10D5600000218DF806108DF807000320214E8DF85C
:10D5700005004FF40064694630460094FFF7B2F9A5
:10D5800021463046FFF75BFA1B4F64006946384678
:10D590000094FFF7A7F921463846FFF74EFAE4104A
:10D5A000694638460094FFF79DF921463846FFF753
:10D5B00044FAA501694638460095FFF793F92946D4
:10D5C0003846FFF73AFA02204FF09045009069463E
:10D5D0002846FFF787F902212846FFF72EFA694609
:10D5E00030460094FFF77EF921463046FFF727FAD0
:10D5F000BDE8FC8100040048000800483EB5002159
:10D600001F4802F0FDF91F490028886036D0FDF759
:10D6100045FFFFF79BFF1C48807A022801D00028B5
:10D620002CD10121022000F065F81D2001F0DFF966
:10D6300048F6D24001900120ADF800000020ADF87E
:10D6400008001020114CADF802006946204600F099
:10D65000C5FE0021204600F011FF0121204600F008
:10D6600099FE01221146204600F0AEFE012120461F
:10D6700000F094FEBDE83E40FFF760B83EBD0000FC
:10D68000241A01083C0000209809002000040040F2
:10D690002DE9F0410646FCF7BEFE85B20024064F98
:10D6A00005E0315D384600F071FF641CA4B2AC4265
:10D6B000F7D3BDE8F0810000003801400649020FB1
:10D6C000CA6A02D022F4785201E022F4F872CA62E7
:10D6D000CA6A0243CA62704700100240044A002925
:10D6E000516901D0014300E081435161704700005E
:10D6F00000100240044A0029D16901D0014300E032
:10D700008143D1617047000000100240044A0029A3
:10D71000116901D0014300E08143116170470000AD
:10D7200000100240044A0029916901D0014300E041
:10D73000814391617047000000100240044A0029B3
:10D74000D16801D0014300E08143D16070470000FF
:10D75000001002402DE9F04FB94B00215A68B94C36
:10D7600012F00C0203D0042A01D0082A01D0046070
:10D7700012E059685A6801F470114FF0020512F472
:10D78000803F05EB91413ED0DA6A02F00F02521C55
:10D79000B4FBF2F2514301605A689A461F460F23C8
:10D7A000DFF8A49203EA121219F80230026822FA92
:10D7B00003F646607D684FF0070808EA152519F85A
:10D7C00005C026FA0CF58560D7F804C008EADC2C01
:10D7D00019F80CC026FA0CF6C660D7F82C804FF06A
:10D7E0001F0BDFF864E20BEA181909F00F080EF1BD
:10D7F000100E3EF818705FEAC96807D537B1B1FB63
:10D80000F7F7076103E0914A5143C4E70261DAF890
:10D810002C800BEA582909F00F083EF818705FEACF
:10D82000C96804D51FB1B1FBF7F7476100E0426159
:10D83000DAF8308057465FEAC86801D4846100E0B6
:10D840008261D7F830805FEA886801D4C46100E063
:10D85000C261D7F830805FEA486801D4046200E012
:10D860000262D7F830805FEAC85808D58A4206D1EC
:10D870009C4504D14FEA4108C0F8248000E046628C
:10D88000D7F830805FEAC84808D58A4206D19C455F
:10D8900004D14FEA4108C0F8288000E08662D7F83A
:10D8A00030805FEA885808D58A4206D19C4504D169
:10D8B0004FEA4108C0F82C8000E0C662D7F83080FB
:10D8C0005FEA485808D58A4206D19C4504D14FEA00
:10D8D0004108C0F84C8000E0C664D7F830805FEAA9
:10D8E000085808D58A4206D19C4504D14FEA410820
:10D8F000C0F8508000E00665D7F830805FEA8848BD
:10D9000008D58A4206D19C4504D14FEA4108C0F8A7
:10D91000548000E00665D7F830805FEA084806D5F5
:10D920008A4204D19C4502D14900816500E08665A8
:10D93000396B8B074FF400410ED03B6B03F00303B0
:10D94000012B0BD03B6B03F00303022B08D03B6B86
:10D95000DB439B0706D006E0866304E0826302E0B7
:10D96000816300E084633B6B13F4403F0FD03B6B5B
:10D97000C3F30143012B0CD03B6BC3F30143022BD8
:10D9800009D03B6BC3F30143032B06D006E0C5630C
:10D9900004E0C26302E0C16300E0C4633B6B13F4C4
:10D9A000402F0FD03B6BC3F38143012B0CD03B6B5B
:10D9B000C3F38143022B09D03B6BC3F38143032B99
:10D9C00006D006E0056404E0026402E0016400E0C1
:10D9D00004643B6B13F4401F0FD03B6BC3F3015344
:10D9E000012B0CD03B6BC3F30153022B09D03B6BD3
:10D9F000C3F30153032B06D006E0456404E0426400
:10DA000002E0416400E044643B6B13F4400F11D02A
:10DA10003B6BC3F38153012B0ED03A6BC2F381529F
:10DA2000022A0BD0396BC1F38151032900D18464E0
:10DA3000BDE8F08F8564FBE78264F9E78164F7E76E
:10DA40000010024000127A00CC00002000093D00C6
:10DA500010B58A0721F003040649120F21440F2351
:10DA60008C6893409C438C608B68904003438B6030
:10DA700010BD0000000001400D4A30B440F2DF73D9
:10DA8000136000235360537213720824947209B117
:10DA9000022400E00124D472107351739373D37382
:10DAA00013745374937430BC01490248FEF786B96D
:10DAB000A8330020006400400B484FF4FC610822AA
:10DAC0000160002141604172017282723022C27293
:10DAD000017341738173C173017441748174014690
:10DAE0000248FEF76BB90000A83300200064004034
:10DAF0002DE9F0410A4F0D4606464FF0FF31386AD6
:10DB000001F072FF002404E0305D00F01BF8641C9B
:10DB1000A4B2AC42F8D3386ABDE8F04101F058BF76
:10DB20000800002070B50D460646FEF7FFF90446D2
:10DB300029463046FFF7DCFF2046BDE8704000F084
:10DB400001B800000146014800F020BD0038014046
:10DB50002DE9F041884606460024FCF75CFC124F94
:10DB600085B2611E386A01F03FFF04E0305DFFF7C7
:10DB7000E9FF641CA4B2AC42F8D3B8F1040F08D298
:10DB8000DFE808F002040C100D2000E00A20FFF787
:10DB9000D9FF386ABDE8F04101F01ABF0D20FFF748
:10DBA000D1FFF3E71A20F2E70800002010B50121A9
:10DBB0004C0488B02046FFF791FD01212046FFF775
:10DBC0008DFD01218803FFF7ADFD02208DF80400D3
:10DBD00000208DF806008DF8070003208DF8050061
:10DBE00020124FF09044009069462046FEF77AFEDE
:10DBF000072209212046FEF709FF4FF480610091BA
:10DC000069462046FEF76EFE07220A212046FEF7EF
:10DC1000FDFE02A800F086FE4FF461300A4C02902F
:10DC200002A9204600F01CFE01220849204600F00F
:10DC300003FE0121204600F097FD05492020C1F890
:10DC4000000108B010BD00000038014005010500CA
:10DC500004E000E010B50121174801F0A3FE174CC5
:10DC6000002120621448001D01F06EFEE0601248A1
:10DC700000210C3001F02EFE206100281BD00E4840
:10DC80000021183001F0BCFE6061002813D00A4862
:10DC90000021283001F0B4FEA06100280BD0064816
:10DCA0000021383001F0ACFEE061002803D0BDE86F
:10DCB0001040FFF77BBF10BDDC19010808000020F1
:10DCC0002DE9F041044600783E26844D0A463E2860
:10DCD00044D00E2282A12046FCF7A4FB002878D075
:10DCE000082283A12046FCF79DFB002872D0062263
:10DCF00082A12046FCF796FB00286CD0062281A169
:10DD00002046FCF78FFB002866D005227FA1204625
:10DD1000FCF788FB4FF0904500287CD006227DA1BF
:10DD20002046FCF77FFB002876D006227BA1204608
:10DD3000FCF778FB002870D104217AA0FFF7F2FEEF
:10DD400002212846FEF77BFE4FF47A6001F054FD75
:10DD50002846BDE8F0410221FEF76FBE6378911EB0
:10DD600072484FF4FA77062B57D2DFE803F0B50379
:10DD7000080E143BA01CBDE8F041FEF727BAA01C1A
:10DD8000BDE8F04189B200F0BDBCA01CBDE8F04187
:10DD900089B200F0C9BB6188121F4DBA95423CD1CF
:10DDA000BD423AD22A464D490746FEF70BFC291FD1
:10DDB000201DFEF7A3F80646291F4848FEF79EF8E7
:10DDC00086420CD02A46211D3846FEF72EFC012142
:10DDD00003E047E051E05CE064E055A03EE0012153
:10DDE00059A03BE061882E704CBA0B216970211D4F
:10DDF0008AB25B49FEF7E6FB21465948FEF77EF8FA
:10DE00000146574810FA84F2128852BA130410FAE5
:10DE100084F2927802E04EE054E05DE043EA0222B0
:10DE200010FA84F0C0780243914215D1A81C221D3B
:10DE30004B49FCF7CCFAA41DA4B221462748FEF7B3
:10DE400075F82855641CA1B22448FFF751FE3846E6
:10DE5000BDE8F04101F0D0BC012142A0BDE8F04195
:10DE6000FFF776BE04212FA0FFF75CFEBDE8F0416E
:10DE7000012211464348FEF709BC2E706E705620F1
:10DE8000A8701620E870BDE8F04104211348FFF7A0
:10DE900049BE042123A0FFF745FEBDE8F04105205F
:10DEA00001F094BA04211FA0FFF73CFEBDE8F04149
:10DEB000052001F0CDB804211AA0FFF733FE4FF47E
:10DEC0007A7043E7042117A0FFF72CFE2846BDE82F
:10DED000F0410221FEF7B3BDBDE8F081E80B002060
:10DEE000474F544F5F424F4F545F4D4F44450000E2
:10DEF00056455253494F4E3F000000005245424F95
:10DF00004F5400004241544F4646000043414D4F9C
:10DF10004E00000043414D4F4646000043414D52E4
:10DF2000535400003E3E4F4B0000000000B0030879
:10DF300023232353544F52455F464C4153485F447B
:10DF400041544123232300002323234441544120EF
:10DF50004E4F204348414E474523232300000000F5
:10DF6000E80D00202A2A2A494E56414C49442043B4
:10DF700052432046524F4D20464C4153482A2A2AAC
:10DF80000000000000F80308074A064B9188585427
:10DF9000491C88B29080B0F5007F01D300209080AA
:10DFA00070470000A80900200800002030B5134C7D
:10DFB00000200146124B257906E003EB0012401CBD
:10DFC000916011735173C0B2A842F6D30C489FED13
:10DFD0000D0B7838217180ED080BC16280ED060BC6
:10DFE000018101804161C1608170016180F8281068
:10DFF000416080F83010617130BD00009000002059
:10E000004834002000000000000000000CB5002291
:10E01000214800920192016841F4803101604FF47F
:10E02000A043016801F4003101910099491C00915D
:10E03000019911B900999942F3D10168890329D551
:10E040000121164A01911221116041684160416825
:10E050004160416841F480614160416821F47C1174
:10E060004160416841F4E8114160016841F080710C
:10E07000016001688901FCD5416821F0030141601C
:10E08000416841F0020141604168C1F38101022908
:10E09000FAD10CBD01920CBD0010024000200240DC
:10E0A00000280AD0012808D0022806D0032804D16D
:10E0B000024A00209080501C01707047B800002078
:10E0C000F0B505460E4614001F464FF0000016D06E
:10E0D000284601F09FF90146012810D0094B084855
:10E0E0001A7900EB0210521CC7600560C0E9016498
:10E0F000D0B21871102801D3002018710846F0BD65
:10E1000048340020900000200FB4002038B59DF85E
:10E11000111000291FD0089804AC009094E80F005B
:10E1200001F09AF90446012815D00C4DA878102862
:10E1300010D00B4900EB800001EB8000142204A9F1
:10E14000FCF745F9A878401CC0B2A870102801D38C
:10E150000020A870204638BC5DF814FB4800002061
:10E16000482800202DE9F0470500A0B00C464FF0EC
:10E17000000068D0FF2D66D0002C64D0FF2C62D048
:10E180002846FEF7BFFA064601285CD0DFF8F0A06B
:10E190003A499AF8040001F8105001EB4000402180
:10E1A00044706846FCF72CF923462A4635A1684698
:10E1B00000F0F8FB9DF801C04320422133223223B6
:10E1C000312430255027ACF1300C4FF05509BCF10B
:10E1D000170F2CD2DFE80CF00C0F1215181D222798
:10E1E0003A3D2B2B2B2B2B2B2B404346494C4F00DE
:10E1F0008DF800700AE08DF800700CE08DF800706A
:10E200000EE08DF8007010E08DF800008DF80150E0
:10E210000DE08DF800008DF8014008E08DF8000059
:10E220008DF8013003E08DF800008DF801209AF898
:10E230000400801CC0B28AF80400102802D3002019
:10E240008AF80400304620B0BDE8F0878DF8001051
:10E25000DCE78DF80010DEE78DF80010E0E78DF8C0
:10E260000010E2E78DF80090D0E78DF80090D2E73B
:10E270008DF80090D4E78DF80090D6E7483500205F
:10E280009000002050253032782530327800000090
:10E29000154810B5016841F4700101601348016828
:10E2A00041F0010101604168114A1140416001687B
:10E2B000104A11400160016821F480210160416829
:10E2C00021F4FE014160C16A21F00F01C162016BBE
:10E2D000094A1140016300218160FFF797FE02495E
:10E2E00006488039086010BD88ED00E0001002404B
:10E2F0000CC07FF8FFFFF6FECCFC00FF00A000087A
:10E3000010B5174C0121204600F052F8002826D005
:10E310000121204600F03EF812480188491C018086
:10E3200002884EF6602300219A4201D90180C16023
:10E330000269521C0261026943F698239A4202D98B
:10E340000161C16081604269521C4261426940F2D0
:10E35000E7339A4203D3826982608161416110BDD3
:10E3600000040040301A002010B5084C012120465E
:10E3700000F01EF8002808D00121204600F00AF81D
:10E380000348018881F48071018010BD00080040BD
:10E3900014080048C94389B2016170470029018807
:10E3A00002D041F0010101E021F00101018070473C
:10E3B000024600201369D2680B4202EA010202D031
:10E3C000002A00D001207047002AC26801D00A4309
:10E3D00002E0C94389B20A40C260704770B5028842
:10E3E0001C4C1D4D1D4EA0420CD0A8420AD0B0F1CD
:10E3F000804F07D01A4B984204D01A4B984201D054
:10E40000B04203D122F070034A881A43164B984257
:10E4100006D0164B984203D022F440730A891A435F
:10E4200002804A68C2620A880285A0420CD0A842D3
:10E430000AD00F4A904207D00E4A904204D00E4AAA
:10E44000904201D0B04201D1498901860121416148
:10E4500070BD0000002C014000340140005001401C
:10E46000000400400008004000100040001400407C
:10E47000004001400044014000480140002901885B
:10E4800002D041F0040101E021F004010180704755
:10E4900030B501210446CD0489B02846FFF71EF9A6
:10E4A00001212846FFF726F902218DF804100021EA
:10E4B0008DF806108DF8071003208DF805006812FE
:10E4C000164D009069462846FEF70CFA05220A21EF
:10E4D0002846FEF79BFA4FF40060009069462846F4
:10E4E000FEF700FA05220B212846FEF78FFA02A854
:10E4F00000F018FA02940A4C02A9204600F0B0F984
:10E5000001220849204600F097F90121204600F039
:10E510002BF9342000F078FA09B030BD000800482B
:10E52000004C0040050105002DE9F0410D4606466E
:10E530000024064F05E0315D384600F027F8641CE2
:10E54000A4B2AC42F7D3BDE8F0810000004C00401B
:10E5500010B50C4C0A49204600F051F900280DD0A6
:10E56000204600F0D7F9C1B207480172806900283F
:10E5700004D0BDE81040002201F008BA10BD000030
:10E5800005010500004C0040480000202DE9F04145
:10E590000E46074601F084F904460E484CF250310D
:10E5A0004CF25032008848430B490988514300EB34
:10E5B00021458021384600F01BF920B901F070F99F
:10E5C000001BA842F5D331463846BDE8F04100F0C3
:10E5D000A5B90000CC1F0108CE1F010810B50C4CD6
:10E5E0000A49204600F00BF900280DD0204600F023
:10E5F00091F9C1B207488170C068002804D0BDE815
:10E600001040002201F0C2B910BD00000501050054
:10E610000038014008000020F0B5044689B001210F
:10E620004FF48400FFF75AF801214804FFF762F81D
:10E6300002208DF8040000258DF8065004208DF886
:10E64000075003264FF0904700908DF8056069460B
:10E650003846FEF747F9072202213846FEF7D6F979
:10E660000820009069463846FEF73CF9072203214E
:10E670003846FEF7CBF902A800F054F91B48C07ADF
:10E6800003282ED002941A4C02A9204600F0E8F884
:10E6900001221849204600F0CFF8002216492046F2
:10E6A00000F0CAF80121204600F05EF8262000F0B4
:10E6B000ABF901248DF804408DF8065010200F4D61
:10E6C0008DF8074000908DF8056069462846FEF7F2
:10E6D00009F910212846FEF7B0F90948047009B07D
:10E6E000F0BD4FF416500290CDE7000098090020CD
:10E6F0000044004005010500070107000014004820
:10E70000480000202DE9F0410D4606460024064F42
:10E7100005E0315D3846FFF739FF641CA4B2AC4216
:10E72000F7D3BDE8F08100000044004010B50C4C68
:10E730000A49204600F063F800280DD0204600F07A
:10E74000E9F8C1B20748C171C069002804D0BDE82A
:10E750001040002201F01AB910BD000005010500AB
:10E7600000440040480000200029016802D041F028
:10E77000010101E021F0010101607047174910B566
:10E7800088420AD101218C032046FEF7D7FF20469C
:10E79000BDE810400021FEF7D1BF1149884202D1E7
:10E7A00001214C0410E00F49884202D101218C0460
:10E7B0000AE00D49884202D10121CC0404E00B4952
:10E7C00088420AD101210C052046FEF79FFF204612
:10E7D000BDE810400021FEF799BF10BD0038014090
:10E7E0000044004000480040004C00400050004001
:10E7F00002460020D2690A4200D00120704730B59D
:10E8000001250024C1F3072305FA01F2012B0FD0E3
:10E81000022B0FD083684FEA1141C069134205FAF9
:10E8200001F500EA050001D000B10124204630BD09
:10E830000368F0E74368EEE710B50123C1F307244E
:10E840008B40022C02D0032C02D002E0001D00E01D
:10E85000083001680AB1194300E09943016010BD16
:10E8600030B50446006897B00D4620F001002060E6
:10E87000606820F44051A86808436060206841F255
:10E880000C618843EA68696811432A6902431143AD
:10E890002160A06820F4407168690843A060684660
:10E8A000FEF758FF1748844201D10E990FE0164831
:10E8B000844201D10F990AE01448844201D1109991
:10E8C00005E01348844201D1119900E012992068B3
:10E8D000000400D549002A68B1FBF2F0B1FBF2F365
:10E8E00002FB1311B1EB520F00D3401C2168090445
:10E8F00005D5C0F342014FF6F07210400843A081E5
:10E9000017B030BD003801400044004000480040CE
:10E91000004C0040808CC0F308007047C1F3080130
:10E92000018570474FF416510160002141600C22AF
:10E930008160C0E9031241617047000010B50F4CBF
:10E9400002212046FDF70EF920B10D4A0021204694
:10E95000FDF7DDF90A48007A10B1042804D006E07A
:10E960000748FEF711FD02E00548FEF74FFA204682
:10E97000BDE810400221FCF7C9BF00000064004060
:10E98000BC33002001A0FEF783FEFEE755736167EC
:10E99000654661756C745F48616E646C65720000F9
:10E9A000FEF79ABB0FB4084B10B504A902AA03984E
:10E9B00000F0A8F8044602A9002000F0CEFA204694
:10E9C00010BC5DF814FB00005BEF000800280DDBB5
:10E9D00000F01F02012191404009800000F1E02079
:10E9E000C0F88011BFF34F8FBFF36F8F70470028BF
:10E9F00009DB00F01F02012191404009800000F175
:10EA0000E020C0F800117047002809DB00F01F0269
:10EA1000012191404009800000F1E020C0F8001180
:10EA20007047002809DB00F01F02012191404009D6
:10EA3000800000F1E020C0F80011704700000000E5
:10EA400030B583B0044600F017F89FED090B05467A
:10EA50008DED000B002221466846FCF738F8284669
:10EA600000F020F89DED000B03B030BD0000000069
:10EA7000000000000000000001480068704700002E
:10EA80004401002002E008C8121F08C1002AFAD180
:10EA900070477047002001E001C1121F002AFBD11E
:10EAA00070470000014908607047000044010020E1
:10EAB00010B5002A06DA22F00042D21D22F0070328
:10EAC000102203E0D21C22F003030C2213B19C1885
:10EAD0008C4201D9012010BD024401448360C0E989
:10EAE0000021C91AD018884202D810600246F9E7FE
:10EAF0000020106010BD30380A2801D20120704774
:10EB0000002070472DE9FF4F8DB00F4605460026C7
:10EB100006E025280BD0DDE90F1290476D1C761C0E
:10EB200028780028F5D111B03046BDE8F08F0024D8
:10EB3000A246A1460122E94900E0044315F8013F3D
:10EB4000203B02FA03F00842F7D128782A2810D097
:10EB50006FF02F022878A0F13001092914D80AEBB0
:10EB60008A0102EB410144F0020400EB010A6D1C32
:10EB7000F0E701CF5FEA000A03D544F40054CAF17C
:10EB8000000A44F002046D1C28782E2817D115F8CD
:10EB9000010F44F004042A280ED06FF02F022878C9
:10EBA000A0F1300109290AD809EB890102EB4101E2
:10EBB00000EB01096D1CF2E757F8049B6D1C2878E7
:10EBC0006C280FD006DC4C2817D068280DD06A2896
:10EBD00014D104E0742810D07A280FD10DE044F449
:10EBE00000140AE044F4801401E044F4401469780D
:10EBF000814202D104F580146D1C6D1C28786E28AA
:10EC00001ED00CDC632830D004DC00288BD05828C0
:10EC100011D19FE0642867D069280CD164E0732883
:10EC20002DD004DC6F2872D0702804D194E07528B0
:10EC30006ED078286DD0DDE90F129047761C4BE13D
:10EC4000C4F30250022806D0032809D0042801CFBB
:10EC500009D0066040E101CFF117C0E900613BE156
:10EC600001CF068038E1067036E117F8040B8DF805
:10EC7000000000208DF80100EB46012003E057F86A
:10EC800004BB4FF0FF3061074FF0000102D40DE0EC
:10EC900008F10101884649450FDA8045F8DB1BF889
:10ECA00008100029F4D108E008F1010188468142EA
:10ECB000FADB1BF808100029F6D1DDE90F23AAEBD7
:10ECC00008008146214600F031F9304400EB080687
:10ECD00004E0DDE90F121BF8010B9047B8F10108C1
:10ECE000F7D221464846F2E00A21C4F302524FF01F
:10ECF000000B0891022A04D001CFC117032A09D0C2
:10ED00000AE0FF1D27F00707F7E8020108E02CE002
:10ED10001EE01FE000B2C117042A01D140B2C117A2
:10ED2000021E71F1000206DA0023D0EB030063EB50
:10ED300001012D2202E0220504D52B228DF824208A
:10ED4000012203E0E20701D02022F7E7904653E0DA
:10ED50000A210BE0102109E010214FF0000B44F0D4
:10ED600004044FF00809089103E008214FF0000B5C
:10ED70000891C4F30252022A04D001CF0021032AD1
:10ED800006D006E0FF1D27F00707F7E8020103E0C1
:10ED900080B2042A00D1C0B24FF0000822072BD560
:10EDA0002A78702A07D0DDF820C08CF0100C5CEABD
:10EDB0000B0C05D00EE040228DF82420012208E043
:10EDC00050EA010306D030238DF824308DF8252039
:10EDD00002229046089B83F0080353EA0B030BD1F1
:10EDE00050EA010201D1620706D530228DF82420B5
:10EDF0004FF00108A9F101092A78582A04D038A255
:10EE00000B9208AA0A920BE03AA2F9E75B46089A2D
:10EE1000FBF7ACFA0B9B9B5C0A9A521E0A9213708A
:10EE200050EA0102F2D10A98ADEB000000F1200B8C
:10EE3000600702D524F4803401E04FF00109D94580
:10EE400002DDA9EB0B0000E0002000EB0B014144C8
:10EE50000890AAEB010AE00306D4DDE90F2321465E
:10EE6000504600F063F806444FF0000908E009A995
:10EE700011F80900DDE90F12904709F10109761C2C
:10EE8000C145F4DBE0030CD5DDE90F2321465046F4
:10EE900000F04CF8064404E0DDE90F123020904702
:10EEA000761C0899481E08900029F5DC08E00A98AD
:10EEB0000A990078491C0A91DDE90F129047761CE7
:10EEC000BBF10001ABF1010BF1DC21465046DDE95D
:10EED0000F2300F019F806446D1C21E609280100F3
:10EEE00030313233343536373839616263646566C0
:10EEF0000000000030313233343536373839414282
:10EF000043444546000000002DE9F0410446002539
:10EF10001E461746880404D405E039462020B04731
:10EF20006D1C641EF9D52846BDE8F0812DE9F0413D
:10EF3000044600251E469046C80301D5302700E050
:10EF40002027880404D505E041463846B0476D1CAB
:10EF5000641EF9D52846BDE8F0810A68531C0B6091
:10EF600010707047C278002141EA0261827841EA5C
:10EF700002414278007841EA02210843704710B507
:10EF800000231A4603E0845C521C234492B28A4256
:10EF9000F9D398B210BD10B500231A4603E0845C83
:10EFA000521C234492B28A42F9D3D8B210BD000059
:10EFB0001CB501218804FEF791FB0C4C0022802136
:10EFC0002046FDF73EFD01218DF80410002280202F
:10EFD0008DF8062000908DF8071003208DF80500AD
:10EFE00069462046FDF77EFC1CBD00000004004879
:10EFF00008480068C0010BD507480068C00707D063
:10F00000054880380068002802DA044901200870A9
:10F0100070470000FCED00E0800E00E038010020A9
:10F020004FF06042D36F002BFCD0036BD367D36FDC
:10F03000002BFCD0C07840EA0120A2F87C00704789
:10F040004FF06041CA6F002AFCD081F87C00704705
:10F0500001494870704700003C00002070B5002155
:10F06000264800F071FC264C0021A061234808309E
:10F0700000F06AFCE06121480021103000F0C0FC83
:10F080002062002839D01D480021203000F0B8FC53
:10F090006062002831D01B4DE87A032817D1174849
:10F0A0000021503000F016FC2063002825D01348C2
:10F0B0000021303000F0A4FCA06200281DD00F48D1
:10F0C0000021403000F09CFCE062002815D00B4885
:10F0D00000220121083800F0C7FC606128B14FF41C
:10F0E0007A7100F0D7FC002807D12868FFF794FA5E
:10F0F0006868BDE87040FFF7CBB970BD3C1F0108E0
:10F10000480000209809002010B52520FFF75EFC7C
:10F1100000210948FFF728FB2620FFF757FC0021B4
:10F120000648FFF721FB3420FFF750FCBDE81040F4
:10F1300000210348FFF718BB00380140004400409D
:10F14000004C004010B5114C002280212046FDF7F4
:10F1500078FC4FF41670FDF707F801228021204655
:10F16000FDF76FFC6420FCF7FFFF80212046FDF7D0
:10F170005DFC4FF4FA710028084603D0FCF7F4FF59
:10F18000002010BDFCF7F0FF012010BD0004004876
:10F1900010B5104C002280212046FDF752FC0220C1
:10F1A000FCF7E2FF012280212046FDF74AFC0A20FD
:10F1B000FCF7DAFF80212046FDF738FC00284FF0ED
:10F1C0003A0003D0FCF7D0FF012010BDFCF7CCFFC4
:10F1D000002010BD0004004870B500252C46FFF744
:10F1E000D7FFA0402843641CE4B2C5B2082CF6D374
:10F1F000284670BDFEB5054600F052FB04463B486C
:10F200003B493B4A008848433A490988514300EB4F
:10F210002146FFF797FF20B900F042FB001BB042E8
:10F22000F7D3CC2000F084F8442000F071F864207B
:10F23000FCF79AFFFFF786FF20B900F031FB001BB7
:10F24000B042F7D3CC2000F073F8BE2000F060F895
:10F250006420FCF789FF00246E46FFF7BDFF3055A0
:10F26000641CE4B2092CF8D3092368460021425CEF
:10F270005AB1FF2A09D0082100F08EF89DF8081035
:10F28000814209D04FF0FF30FEBD491CC9B29942FE
:10F29000EDD36FF00100FEBDBDF800001F21B1EB02
:10F2A000D02F09D1C043401C80B2FBF726FB41ECB4
:10F2B000100B9FED111B05E0FBF71FFB41EC100B42
:10F2C0009FED0F1B51EC100B53EC112BFBF723FAA6
:10F2D000FBF752FB0C49884202D00C49884202D10C
:10F2E0006FF00200FEBD28600020FEBDCC1F0108AB
:10F2F00040420F00CE1F0108000000000000B0BF18
:10F30000000000000000B03F0000AA420000FE42E2
:10F3100010B5044600F00CF8442C06D1034C8021B3
:10F320002046FDF783FB0028F9D010BD00040048FB
:10F330002DE9F04106460125164F00F0010000249A
:10F3400000284FF000024FF0800138460BD0FDF747
:10F3500078FB0320FCF708FF012280213846FDF7E7
:10F3600070FB5A200AE0FDF76CFB5A20FCF7FCFE0C
:10F37000012280213846FDF764FB0320FCF7F4FEF0
:10F380006806050E641CE4B206EA0500082CD7D313
:10F39000BDE8F0810004004830B50446002010E0CC
:10F3A00014F8013B082280EA030515F0010F4FEA2B
:10F3B000500001D080F08C005B08521E12F0FF025A
:10F3C000F1D1491EC9B2EBD230BD0000014908702D
:10F3D000704700003C00002010B501210A48FFF7EB
:10F3E000C3F92520FFF71DFB01210848FFF7BCF9F1
:10F3F0002620FFF716FB01210548FFF7B5F9BDE808
:10F4000010403420FFF70DBB00380140004400409D
:10F41000004C0040F0B5DDB2C3F307270D4B0020D0
:10F4200001460B4C1E7910E004EB0113D3F808C021
:10F43000944508D193F80CC0AC4504D15B7BBB422A
:10F4400001D10120F0BD491CC9B2B142ECD3F0BDDD
:10F450004834002090000020F0B50246D3B2C2F339
:10F46000072EC2F3074C114A059C002001460E4DA1
:10F47000E7B2967814E001EB810215F822409C4235
:10F480000CD105EB82025478744507D19478644519
:10F4900004D1127CBA4201D10120F0BD491CC9B28D
:10F4A000B142E8D3F0BD0000482800204800002009
:10F4B000F8B50020ADF80000024614214020FCF70A
:10F4C000A5F840F6E441484340F6FF75B0FBF5F07F
:10F4D0003249334C484343F2C82190FBF1F020807D
:10F4E00020882188C0EBC00040006427B0FBF7F003
:10F4F00008442080208800F52F702080606940F645
:10F50000E4414843B0FBF5F04FF4FA51484340F66C
:10F51000E446B0FBF6F0E080022214214020FCF724
:10F5200075F86946FCF776F9BDF8000031464843A6
:10F53000B0FBF5F080B241F27C514843B0FBF6F0ED
:10F5400060806088618800EB4000B0FBF7F0084401
:10F5500060801448807A012807D004F1280102282D
:10F5600019D0002819D1C86816E0032214214020C0
:10F57000FCF74CF86946FCF705F9BDF8000040F6C9
:10F58000E4414843B0FBF5F080B24FF4FA514843F0
:10F59000B0FBF6F000E08868A080F8BD68B9010013
:10F5A000081A0020980900200148007870470000E0
:10F5B000B90000203EB501210420FEF79BF8174852
:10F5C000017B4FF47A7005290FD2DFE801F00E03BA
:10F5D00006090C0040F2145007E04FF4966004E076
:10F5E00040F24C4001E040F21A4001900D20ADF88D
:10F5F00000000020ADF808001020094CADF8020012
:10F6000069462046FEF7EAFE00212046FEF736FF57
:10F6100001212046FEF7BEFE3EBD000098090020F5
:10F620000008004003490878FF2801D10020087035
:10F6300070470000B80000200EB5802200B109B16B
:10F6400010460AE001780129FAD101A900F034F846
:10F65000042801D0002000E01020DDE9011203B0F1
:10F6600000BD70B50D46040003D012B92078012802
:10F6700001D0802070BD204600F058FC28B12946FA
:10F68000204600F044F8002070BD812070BD10B508
:10F6900000F0CAFB10B10178022901D0802010BD12
:10F6A0004188A1F57F42FF3A03D000F037F80020EF
:10F6B00010BD812010BD000010B5044680890028CF
:10F6C00024D0608904EB800000690860606840B164
:10F6D0006078022805D10021204600F0C7FD00F027
:10F6E000B5FD04F10C0000BFD0E85F1F491E8AB2CF
:10F6F000C0E8512F0029F7D16089401C80B2608199
:10F70000E189884201D100206081042010BD10B53C
:10F7100000F0ACFDBDE8104000F098BD10B5002130
:10F7200000F0A4FDBDE8104000F090BD70B5184E8B
:10F730003046FCF757FF174C4FF41655206028B998
:10F740002946002230462560FCF7A0FF124E3046C5
:10F75000FCF748FF606028B9294600223046656002
:10F76000FCF794FF0D48FCF73DFF20730C48FCF7B5
:10F7700039FF20810B48FCF735FF60730A48FCF71E
:10F7800031FFE0720948FCF72DFFA07270BD000048
:10F7900000E003089809002000E8030800C00308FF
:10F7A00000D0030800C8030800D8030800B8030805
:10F7B000002400F02DF8FDF76FF900F03BF80D4D37
:10F7C0004FF47A774FF41676384600F015F8FDF7C7
:10F7D0005BF9687E01280AD1B4FBF6F006FB104005
:10F7E00028B909210320FEF75BFC641CA4B200F0D9
:10F7F00029F9E9E77C090020EFF3058109B18220AE
:10F800007047DFF808C000DF704700008B0B01086D
:10F81000EFF3058008B182207047EFF31480C00732
:10F8200003D0DFF80CC000DF704701F0B7B900006B
:10F830009D0B010888B0EFF3058010B1822008B05D
:10F840007047EFF3148010F00301134806D001292C
:10F850001BD0022911D0032919D113E008A981F383
:10F8600009880078C0070BD05FF0020080F314888D
:10F87000BFF34F8FBFF36F8F09E00078C00706D149
:10F880000320F3E70078C00701D0FF20D7E7DFF8B7
:10F890000CC000DFD3E70000D41F01080D0C0108E5
:10F8A000EFF3058008B100207047DFF808C000DFE3
:10F8B00070470000550C0108EFF3058212B10122D8
:10F8C00001F04EBB0022DFF808C000DF70470000E7
:10F8D000610F0108EFF305820AB100207047EFF3D2
:10F8E0001482D20702D1044A52781AB1DFF80CC050
:10F8F00000DF704701F0CAB91C0100208D0C01081F
:10F90000EFF3058212B1012201F056BB0022DFF8AD
:10F9100008C000DF70470000B90F010810B530B112
:10F92000006800F027F8102800D1202010BD8020AA
:10F9300010BD20B129B10068002200F027B8802056
:10F940007047862070470000EFF305820AB100205F
:10F950007047EFF31482D20702D1044A52781AB1E9
:10F96000DFF80CC000DF704701F0B1B91C010020C6
:10F97000CF0C0108EFF305820AB1FFF75DBEDFF897
:10F9800008C000DF70470000F30C0108EFF30583A7
:10F990000BB1FFF766BEDFF808C000DF704700005C
:10F9A0002D0D0108EFF305820AB100207047EFF337
:10F9B0001482D20702D1044A52781AB1DFF80CC07F
:10F9C00000DF704701F0CDB91C010020630D010874
:10F9D000EFF3058109B1FFF75ABEDFF808C000DF79
:10F9E00070470000870D0108EFF3058212B14FF058
:10F9F000FF307047DFF804C000DF7047AF0D01082B
:10FA0000EFF305820AB100207047EFF31482D207AA
:10FA100002D1044A52781AB1DFF80CC000DF7047F7
:10FA200001F0DEB91C010020E10D0108DFF80CC077
:10FA300000DFDFF80CC000DFFEE700004D0E01081C
:10FA4000690E0108EFF3058008B182207047DFF8E6
:10FA500008C000DF70470000A10E0108DFF804C0F5
:10FA600000DF7047AB0E0108EFF305830BB10020F8
:10FA70007047EFF31483DB0702D1044B5B781BB1B3
:10FA8000DFF80CC000DF704701F01CBA1C01002039
:10FA9000C50E0108EFF305820AB182207047DFF836
:10FAA00008C000DF70470000FD0E0108094C4FF050
:10FAB000FF3529462068FFF75DFF02460846102AF9
:10FAC000F7D1FFF7CBFF0028F3D002460846904756
:10FAD000EFE7000004010020012806D0022806D02C
