:020000040800F2
:10A00000088F0020B1A30008B9A30008BBA3000873
:10A01000BDA30008BFA30008C1A300080000000002
:10A0200000000000000000000000000081A2000805
:10A03000C5A300080000000039A300089DA3000884
:10A04000CBA30008CBA30008CBA30008CBA3000838
:10A05000CBA30008CBA300083DC90008CBA3000890
:10A06000CBA30008CBA30008CBA30008CBA3000818
:10A07000CBA30008CBA30008CBA30008CBA3000808
:10A08000CBA30008CBA30008CBA30008CBA30008F8
:10A09000CBA300081DC50008CBA30008CBA3000874
:10A0A000CBA30008CBA30008CBA30008CBA30008D8
:10A0B000CBA30008CBA30008CBA30008CBA30008C8
:10A0C000CBA30008CBA30008CBA30008CBA30008B8
:10A0D000CBA30008B1E20008D9E30008CBA3000835
:10A0E000CBA30008CBA30008CBA30008CBA3000898
:10A0F000CBA30008CBA30008CBA30008CBA3000888
:10A10000CBA30008CBA30008CBA30008CBA3000877
:10A1100025E20008CBA30008A1E00008E5E0000864
:10A12000CBA30008CBA30008CBA30008CBA3000857
:10A1300000F002F800F04FF80AA090E8000C82440A
:10A140008344AAF10107DA4501D100F044F8AFF2E7
:10A15000090EBAE80F0013F0010F18BFFB1A43F005
:10A16000010318473895000058950000103A24BFA5
:10A1700078C878C1FAD8520724BF30C830C144BF6C
:10A1800004680C60704700000023002400250026AE
:10A19000103A28BF78C1FBD8520728BF30C148BF4A
:10A1A0000B607047782900F0DB81002070471FB5F5
:10A1B00008F036FE00F094FD04000020002108F0B5
:10A1C000CFF8401C60600020002108F0DFF8E0605C
:10A1D0001FBD10B510BD00F053FF1146FFF7E7FF9C
:10A1E0000FB400F00BF80FBC05F09AFB00F044FB35
:10A1F00003B4FFF7EEFF03BC00F03CFF04B005F032
:10A2000037FC0448002105F02BFD05F043FC00F06D
:10A2100033FB00007035010880F309887047EFF3C5
:10A2200009807047684680F3098804480078C007B1
:10A2300014BF0220032080F31488704730350108D2
:10A24000DFF818C0EFF305831B0618BF6047EFF374
:10A250001483DB0708BF604700DF70473D0001083B
:10A26000DFF818C0EFF305831B0618BF6047EFF354
:10A270001483DB0708BF604700DF70472102010835
:10A28000EFF30980816911F8021CE1BB90E80F101F
:10A2900010B5E047BDE81040EFF3098C8CE80700EB
:10A2A000214B93E80600914208BF704741B91EF068
:10A2B000100F16D11D49086820F00100086010E059
:10A2C0001EF0100F06BF2CED108A0120002081F82F
:10A2D00025002CE9F00FC1F828C00CB406F0E4FB0F
:10A2E0000CBC1A60D2F828C0BCE8F00F92F8250028
:10A2F00000280EBF6FF0020E6FF0120EBCEC108A39
:10A300008CF30988704710B5094A1268914209D840
:10A31000084C54F8214090E80F10A047EFF3098C47
:10A320008CE80F0010BD0000E800002034EF00E0D2
:10A330002CC300082CC3000810B506F03DFABDE898
:10A340001040154B93E80600914208BF7047EFF3A9
:10A35000098C1EF0100F06BF2CED108A0120002082
:10A3600081F825002CE9F00FC1F828C00CB406F0E4
:10A370009BFB0CBC1A60D2F828C0BCE8F00F92F826
:10A38000250000280EBF6FF0020E6FF0120EBCEC1D
:10A39000108A8CF309887047E800002010B506F099
:10A3A0004BFCCCE710B505F0DDFC06F045FCC6E73C
:10A3B0000948804709480047FEE7FEE7FEE7FEE759
:10A3C000FEE7FEE7FEE7FEE7FEE7FEE70448054995
:10A3D000054A064B7047000051E0000831A1000813
:10A3E00008870020088F0020088B0020088B0020A1
:10A3F00000487047A486002053EA020C00F06980F0
:10A400002DE9F04B4FF00006002B1FBFB3FA83F588
:10A4100003FA05F424FA05F65E4012BF1643B2FAB9
:10A4200082F502FA05F4C5F120051EBF22FA05FCEB
:10A4300044EA0C04203556EA044C4FEA144418BF91
:10A44000641C4FF000084FF00009904271EB030CC0
:10A4500039D3002919BFB1FA81F701FA07F6B0FA2A
:10A4600080F700FA07F6C7F120071EBF20FA07FCA5
:10A4700046EA0C062037B6FBF4FCA7EB0507103FB5
:10A4800007F01F0BCBF120060CFA0BFB2CFA06F69B
:10A4900044BFB3460026202FA4BF5E464FF0000BFA
:10A4A0005BEA060C08BF4FF0010B19EB0B09ABFB85
:10A4B000027C48EB0608C01B06FB02CC0BFB03CC5E
:10A4C00071EB0C01C1E70B46024641464846BDE828
:10A4D000F08B13B54FF000004FF00001AFF3008098
:10A4E000BDE81C40704700000FB41CB5074B06AA1E
:10A4F0007B4469460090059800F043FB00206946C4
:10A5000000F052FB1CBC5DF814FB0000B506000017
:10A5100070B5044685690068C10601D5302600E0A3
:10A520002026C00707D070BDD4E9012130469047EE
:10A53000206A401C20626D1EF6D570BD70B50446C1
:10A5400085690078C00707D170BDD4E901212020BA
:10A550009047206A401C20626D1EF6D570BD000039
:10A5600070B504460D4621461068AFF3008021887F
:10A57000090502D50F4A7A4402E00E4A7A440E32A7
:10A58000002104F1240305E000F00F060009965DA8
:10A590005E54491C0028F7D120780023000704D519
:10A5A000702D02D009B1022311322046BDE870405F
:10A5B00000F089BA069000002DE9F05F8946044654
:10A5C0004FF0000ADFF824B1FB44C0F820A0204679
:10A5D000E168884700287DD0252806D0D4E90121EC
:10A5E0009047206A401C2062F1E700255F46204624
:10A5F000E16888472028064607DB312E05D2B819C6
:10A6000010F8200C08B10543F1E7A80701D525F0A3
:10A610000405C4F81CA00027C4F818A02A2E09D0ED
:10A62000304604F086F838B304EB8708303EC8F8AB
:10A63000186019E059F8041B204604EB8702916169
:10A64000E1688847012F064618D1E069002820DA22
:10A6500025F020051DE0D8F8180000EB800006EB7F
:10A6600040003038C8F818002046E16888470646A0
:10A6700004F05FF80028EED1012F0AD02E2E08D169
:10A680002046E16888477F1C0646022F45F02005DA
:10A69000C4DBA069002803DA404245F00105A0614F
:10A6A000E80701D025F01005A6B1A6F14100192850
:10A6B00002D8203645F400654A46314620462560DA
:10A6C0004D46FFF76FFD60B1012807D0ED1D25F065
:10A6D000070000E007E000F1080978E705F1040948
:10A6E00075E730467AE7206ABDE8F09FDC8F00000E
:10A6F0000FB400B58DB010A9099000910B904FF0E8
:10A70000FF300A9000200C900648784406900648D6
:10A7100078446A4607900F9909A800F05FFA0DB0D7
:10A720005DF814FBEF040000070500002DE9FF5F52
:10A730001D464FF0FF3B91464FF000085F46D5E9BC
:10A740000146A96901987F1C8847296A8246884783
:10A750000028F6D1BAF1FF3F0CD0002E24F4C064DB
:10A7600019DD600614D5BAF12B0F09D0BAF12D0FFF
:10A770000ED103E0584604B0BDE8F09F44F4806475
:10A78000A96901987F1C8847761E8246002E02DD4B
:10A79000BAF1300F03D0B9F1000F26D032E0A96929
:10A7A000761E01987F1C44F400748847002E824670
:10A7B00005DDBAF1780F06D0BAF1580F03D0B9F120
:10A7C000000F10D01EE0B9F1000F02D0B9F1100F48
:10A7D00018D1A969761E01987F1C24F4007488475B
:10A7E0008246102002E0082000E00A20814609E0AD
:10A7F000A96908FB0908761E01987F1C44F40074BF
:10A8000088478246002E05DD4946504600F0D1F9C2
:10A810000028EDDAE96901988847A00502D46FF0B5
:10A820000100A8E7E00725D1600613D5600502D531
:10A83000C8F1000000E0404629680A1D2A60096846
:10A84000220501D5087015E0220701D5088011E026
:10A8500008600FE02868011D29600068210502D505
:10A8600080F8008006E0210702D5A0F8008001E012
:10A87000C0F8008038467EE710B50446AFF300808C
:10A880002046BDE81040FFF7B3BC10B5431C02E002
:10A8900010F8011B71B18107FAD14FF0013202C8E3
:10A8A0008C1A8C4314EAC211F9D0C01A0A0603D0DC
:10A8B000C01E10BDC01A10BD0A0401D0801E10BDFC
:10A8C0000902FCD0401E10BD40EA010370B59B0791
:10A8D0002ED14FF00136042A2AD308C810C99D1B77
:10A8E0009D43121F15EAC61517D0D8B2E1B2401A1F
:10A8F00050EA056110D198B2A1B2401A50EA054160
:10A900000AD123F07F4024F07F41401A50EA05210C
:10A9100002D1180EA0EB146070BDA342DBD018BAB0
:10A9200021BA884201D9012070BD4FF0FF3070BDBF
:10A930000AB9002070BD10F8013B11F8014B63B15A
:10A94000A3420AD1521E08D010F8013B11F8014B66
:10A950001BB1A34201D1521EEDD1181B70BD032AB9
:10A9600040F2308010F0030C00F0158011F8013B2C
:10A97000BCF1020F624498BF11F801CB00F8013B13
:10A9800038BF11F8013BA2F1040298BF00F801CBD7
:10A9900038BF00F8013B11F0030300F02580083AAE
:10A9A000C0F0088051F8043B083A51F804CBA0E805
:10A9B0000810F5E7121D5CBF51F8043B40F8043B5A
:10A9C000AFF30080D20724BF11F8013B11F801CB8F
:10A9D00048BF11F8012B24BF00F8013B00F801CB60
:10A9E00048BF00F8012B704710B5203AC0F00B802B
:10A9F000B1E81850203AA0E81850B1E81850A0E883
:10AA00001850BFF4F5AF5FEA027C24BFB1E81850DC
:10AA1000A0E8185044BF18C918C0BDE810405FEA4C
:10AA2000827C24BF51F8043B40F8043B08BF7047C8
:10AA3000D20728BF31F8023B48BF11F8012B28BFCD
:10AA400020F8023B48BF00F8012B70474FF000028E
:10AA500000B5134694469646203922BFA0E80C5014
:10AA6000A0E80C50B1F12001BFF4F7AF090728BFEF
:10AA7000A0E80C5048BF0CC05DF804EB890028BF6B
:10AA800040F8042B08BF704748BF20F8022B11F094
:10AA9000804F18BF00F8012B704770477047704710
:10AAA00010B500F01DF9001D10BD00BFB578000005
:10AAB00010B500F01AF9006810BD10B5044600F09A
:10AAC00014F9046010BD2DE9F0470D4699469246F1
:10AAD000044600F124080168880604D5E06921F0E5
:10AAE0001001216000E00120A84201DD471B00E0C9
:10AAF0000027A1697A1902EB0900081AA0612078E1
:10AB0000C00602D42046FFF703FD002608E0D4E982
:10AB100001211AF806009047206A401C761C20622A
:10AB20004E45F4DB2078C0060AD52046FFF7F0FC3E
:10AB300006E0D4E9012130209047206A401C2062C1
:10AB4000381EA7F10107F4DC07E0D4E9012118F869
:10AB500005009047206A401C2062281EA5F10105CF
:10AB6000F3DC2046FFF7EAFC2078000602D502203D
:10AB7000BDE8F0870120FBE701694A1C0261087803
:10AB8000704700B58FB0CDE901310021059105492D
:10AB90007944CDE9031011466846FFF70DFD0FB06B
:10ABA00000BD0000E5FFFFFF0A6802F8010B0A6024
:10ABB00070473A2800D2303820F02002412A01D3D1
:10ABC000A2F13700884201D34FF0FF3070470000F8
:10ABD000026811441378016018467047D160054936
:10ABE000794451610449794411620021116111468F
:10ABF00000F086B8EDFFFFFF05010000426842B19A
:10AC0000016811F8013B23B1521EC0E90012184639
:10AC100070470121C160881E704742685AB1C368FD
:10AC2000016843B983688B4205D0491E521CC0E9B4
:10AC30000012002070474FF0FF3070470FB4002320
:10AC400000B589B00CA900910B99CB60214B7B44D6
:10AC50000693214B7B44079304236FF00042CDE918
:10AC600001321E4A7A446B4608920246002008F0E0
:10AC700044F909B05DF814FB70B506464FF0FF309B
:10AC800015460C46324686B00091CDE90101694671
:10AC90000020049004A8FFF7D1FF02460498211871
:10ACA00025B108B1084600E0204628600498002835
:10ACB0000DD0002A02DD0098884208D03246081BD9
:10ACC00069460094CDE9010404A8FFF7B7FF06B078
:10ACD00070BD0000ABFFFFFFC3FFFFFF8700000058
:10ACE00010B5FFF785FB203010BD03F0E9BC10B5AF
:10ACF0000446FFF7D5FE0068005D00F0010010BDBE
:10AD00002DE9F34F4FF0000A0C4656468DB0012056
:10AD10000C9001F10C000B9062690B980121904797
:10AD2000051E2DD0252D2CD0216A8847C0B162691F
:10AD30000B9801219047216A88470028F7D1626962
:10AD4000411E0B98904700E0761CA1690D9888473A
:10AD5000216A88470028F7D1E1690D988847DBE729
:10AD6000A1690D988847A842074601D1761CD3E710
:10AD7000E1690D9888477F1C02D1BAF1000F6FD0AE
:10AD80006CE162690B9800273D46394690472A28B6
:10AD900004D162690B98012190470125DFF8D08228
:10ADA00062690B9801219047A0F130010A290AD26B
:10ADB0004745E5DC07EB870100EB4107303FDFD477
:10ADC00045F01005ECE7E90601D46FF000476C2868
:10ADD0000AD04C2814D0682815D06A280DD07428C1
:10ADE0001CD07A281AD01DE062690B980121904787
:10ADF0006C2802D045F0040514E045F002050DE092
:10AE000045F020050AE062690B9801219047682807
:10AE100002D045F0080505E045F4006562690B982D
:10AE200001219047C4E9015765283DD019DC582815
:10AE30007AD00CDC452837D004DC252826D04128E0
:10AE40009ED131E046282FD0472899D12CE05B28AD
:10AE500077D0612828D063287CD0642823D15AE099
:10AE6000F7E06F2848D008DC66281DD067281BD083
:10AE7000692821D06E2816D127E0702845D0732884
:10AE800068D0752847D078280DD14DE0A1690D987C
:10AE90008847252805463FF469AFE1690D98884742
:10AEA0006D1C3FF46AAFD9E00D9923466A466FF0F6
:10AEB000010008F022F8C6E045F0400023464FF0BC
:10AEC00000026060A80736D43EE0E8077FF447AF91
:10AED0002068011D21600068290501D506701BE767
:10AEE000290701D5068017E7A90703D5F117C0E99F
:10AEF000006111E706600FE745F0400023464FF080
:10AF000008026060A80716D41EE040F60E0125EA8C
:10AF10000100606016E045F0400023464FF00A0251
:10AF20006060A80707D40FE045F040006060A80704
:10AF300008D5234610220D996FF00100AFF3008071
:10AF400081E007E0102223460D996FF00100FFF722
:10AF5000EDFB78E04FF0000963284F46C8464B46AA
:10AF6000CB4602D05B2807D039E02079C00601D457
:10AF70000120A060012732E06269D4F80CB00B9880
:10AF8000012190475E2807D14FF0010949466269C7
:10AF9000D4F80CB00B989047216939B900210A46C2
:10AFA00003AB43F82120491C0829FADBD8B32169F7
:10AFB00049B308F1010862690B98012190475D28A7
:10AFC000F4D1B9F1000F09D0002003A951F82020D5
:10AFD000D24341F82020401C0828F7DB03AB20694E
:10AFE000002820794FEA40701ED05B462246CDF8FB
:10AFF0000080CDE901970D9900286FF0010020DA5B
:10B00000AFF300801FE0C11703AA00EBD1614B1121
:10B0100021F01F0102EB8302411A136801208840CE
:10B0200003431360C7E719E00D99224600286FF02B
:10B030000100009702DAAFF3008004E0AFF3008074
:10B0400001E0AFF3008000280ADA401C06D10C981A
:10B0500020B14FF0FF300FB0BDE8F08F5046FAE757
:10B06000E90701D10AF1010A064400200C9053E6D9
:10B07000CCCCCC0C01491820ABBEFEE72600020068
:10B080007546FFF7B5F9AE4605006946534620F010
:10B090000700854618B020B5FFF798F9BDE82040B5
:10B0A0004FF000064FF000074FF000084FF0000B84
:10B0B00021F00701AC46ACE8C009ACE8C009ACE837
:10B0C000C009ACE8C0098D46704700002DE9FF4F6C
:10B0D00006468BB00878FF2806D0491C2D2805D0DD
:10B0E00000244FF0000908E000200CE00124F8E7FC
:10B0F00009EB8903491C00EB43090878FF28F7D1C5
:10B1000014B1C9F100008146107800252C46AA46EA
:10B1100029462D2801D02B2804D1521C2D2813D0CC
:10B12000002082468B461078FF280FD04FF0000C8D
:10B130000A21521CA5FB017804FB018105FB0C11BF
:10B14000C5194BEB0104EEE70120EAE700210846B0
:10B150004FF00000BAF1000F02D000EB8000400871
:10B16000C0F38157012F01DD4FF0FF370E9955EAEB
:10B17000040009EB01080BD04FF0020918F5FA7F23
:10B1800016DA4FEACA70002F706008DD012007E070
:10B190004FEACA70C6E900B00FB0BDE8F08F0020DA
:10B1A0003060FFF7A2FDC0F800901821084616E0B5
:10B1B000B8F5FA7F18DD002F02DAF748784401E08D
:10B1C000F6487844D0E90010C6E9001040EACA7099
:10B1D0007060FFF78AFDC0F80090142108460FB098
:10B1E000BDE8F04F07F026BE002108464FF00000F2
:10B1F000B8F10001099002DAC7F1000200E03A4616
:10B2000001DAC8F1000106A800F01EFA06AB93E8C7
:10B21000070003AB83E8070044F23E005BEA040149
:10B220000090584604D144F21E012C465D46009120
:10B23000210C0904014306D10099240444EA154471
:10B240002D041039009104F07F41014306D100998B
:10B25000240244EA15642D020839009104F070417B
:10B26000014306D10099240144EA15742D01091FF8
:10B27000009104F04041014306D10099A40044EA42
:10B280009574AD00891E009104F00041084304D17B
:10B2900000986D196441401E00904FF001033A463A
:10B2A0006846B8F1000FCDE9014503A902DD00F0C1
:10B2B00006FF01E000F0D9FEBAF1000F04460D468A
:10B2C00001D084F00044002108464FF000000999A5
:10B2D00040F2FF77484010F00C0F07D124F00040F7
:10B2E000284303D0C4F30A50B84212D1FFF7FDFC43
:10B2F000C0F80090C4F30A50B8420AD1A848784474
:10B30000D0E90010C6E9001004F000410843706065
:10B3100042E7C6E900543FE72DE9FF4F1F464FF0D3
:10B32000000A4FF0FF38454691B0D7E90146CDF805
:10B330003CA0FFF7D5FCC0680168405C1090B9697B
:10B3400012986D1C8847396A814688470028F6D1D3
:10B35000B9F1FF3F0AD0002E24F4D06411DDB9F119
:10B360002B0F08D0B9F12D0F0BD102E0404615B0DC
:10B3700013E744F48064B96912986D1C8847761EFF
:10B380008146600504A901D52D2000E02B20002E68
:10B3900001F1010B0DF130088DF810003FDDB9F11E
:10B3A000690F08D0B9F1490F05D0B9F16E0F02D07D
:10B3B000B9F14E0F1CD13B4601A8009580E8500220
:10B3C000DDE912126FF0020007F09BFDC11CCED127
:10B3D0000EE0B96912986D1C884781461398761E55
:10B3E00044F4007405600F98401C002E0F9016DD89
:10B3F000B9F1300FEDD0B9F1780F02D0B9F1580F93
:10B400000DD10F9801280AD13B46CDE90054DDE962
:10B410001212001F029607F072FDC11CA7D11099ED
:10B4200089453ED144F0800406E01399681CAAF1D6
:10B43000010A44F400740860B9696D1C1298761E04
:10B44000884730288146F0D02BE01099894505D1F6
:10B45000200603D4761E44F0800418E0484603F02A
:10B4600068F908B3761E0DF123018B4544F400748E
:10B4700008D2A9F130000BF8010B200607D5AAF17C
:10B48000010003E0200602D40AF101008246A00573
:10B4900002D51399681C0860B96912986D1C884719
:10B4A0008146002ED1DC53E0002E51DDB9F1650F4D
:10B4B00002D0B9F1450F4BD1A00549D5B9696D1C32
:10B4C0001298761E24F440748847002E81460CDDC5
:10B4D0002B2804D0B9F12D0F07D144F48074B96939
:10B4E00012986D1C8847761E8146E00501D52D21F6
:10B4F00000E02B2108F8011BCDF8008021E0761E2A
:10B500000DF13901884544F400740CD2A9F13000E2
:10B5100010F0FF0088F8000002D10099884509D991
:10B5200008F1010806E0E00501D51E4801E042F2FD
:10B530000F708246B96912986D1C8847814613982E
:10B540000560002E04DD484603F0F3F80028D6D14C
:10B55000F96912988847FF2053468BF8000088F855
:10B56000000000200A900B9004AA0CA90AA8FFF77B
:10B57000ADFDA00502D46FF00100F8E614F0240F31
:10B5800012D0E0071CD13868DDE90A12031D3B60C8
:10B590000068C0E9001213E004850000F684000092
:10B5A000BA830000F1D8FFFF0AA9684603F074F8D7
:10B5B000E00705D13868009A011D39600068026013
:10B5C0002846D4E64FF0013C50F8042B51F8043BD8
:10B5D0009A4221D1A2EB0C03934313EACC1317D167
:10B5E00050F8042B51F8043B9A4215D1A2EB0C03FE
:10B5F000934313EACC130BD150F8042B51F8043BBE
:10B600009A4209D1A2EB0C03934313EACC13DBD08B
:10B610004FF00000704700BFD01A01BAB1FA81F1B3
:10B6200001F0180122FA01F0CB40C1F12001DBB298
:10B63000C0B2C01A2CFA01F3D11A914311EAC31116
:10B64000E6D17047704700002DE9F0478146164665
:10B650008AB0354878440DC88DE80D0032487844EA
:10B66000801C03AC0DC884E80D0041F69B300844F3
:10B67000372190FBF1F290FBF1F5A5F1800501FB7C
:10B6800012041B3C02D56442012000E00020DFF8D8
:10B6900098A080460027FA44AAF1BE0A0EE0E0070F
:10B6A0000AD03246684607EB470101230AEB8101C5
:10B6B00000F0F0FC8DE8070064107F1C002CEED138
:10B6C000194F7F44AE3F19E0E80715D007EB04108F
:10B6D0000DF1180A90E80E008AE80E00C068F042EA
:10B6E00001D1981908903246012306A903A800F059
:10B6F000D1FC03AB83E807006D10641C002DE3D17F
:10B700004FF0010332466946B8F1000F03A802D09A
:10B7100000F096FC01E000F0BDFCC9E90001C9F8A9
:10B7200008200AB0BDE8F087E07F00002DE9FF4F58
:10B730001F464FF03C0987B04FF00042DDE914107E
:10B7400001F10108DDF858A002EA40500390002002
:10B7500005908346054604460490B969461E08983C
:10B760008847AAF1010A0290BAF1000F3BDD029866
:10B770002E2815D01021FFF71CFA00282EDB4FF0E1
:10B78000010B0599014317D0B9F1000F0BDB4A46B5
:10B79000C11700F0F5F905430C43A9F1040905E0D0
:10B7A000012004900BE008B145F00105012005904F
:10B7B000049820B9361D02E0049800B1361FB9691B
:10B7C000089808F101088847BBF1000FAAF1010AA7
:10B7D0000290C9D00999C1F80080C5E70298702885
:10B7E00008D0502806D0F96908988847BBF1000FA7
:10B7F00014D04FE0002002900120BBF1000F049014
:10B8000009D0B969089808F101088847AAF1010927
:10B81000B9F1000F07DCF969089888476FF001005B
:10B820000BB0BDE8F08F2B2804D02D280CD14FF0A1
:10B83000FF300490B969089808F101088847A9F118
:10B840000109B9F1000FE6DD411CE4D00A21FFF740
:10B85000B0F90028DFDB029908F1010801EB810152
:10B8600000EB41000290B969089888470A21FFF768
:10B87000A0F9099AA9F10109B9F1000FC2F80080F5
:10B8800001DD0028E7DAF9690898884704990298E9
:10B8900000FB016655EA040004D004F040410900B1
:10B8A00002D006E0039898E0A40044EA9574AD0045
:10B8B000B61E04F00041080002D16D196441761EE5
:10B8C000159810F0240F03D04FF00B095C4803E0EB
:10B8D0004FF028096FF07D008246564507DAAAEB43
:10B8E00006018944B9F1410F01DD4FF04109012002
:10B8F0000021A9F1010200F043F9024628400B465D
:10B900002140084301D0012100E00021501E029196
:10B9100043F1FF3128402140084301D0012000E0DD
:10B9200000200299834651EA0B014FD000210846BE
:10B930004FF00000039900F4400039B100EB8000A3
:10B940004FF4400100EBD07001EA6000801501283F
:10B9500002DD4FF0FF3000E013D0401C36D00298DB
:10B9600060B3BBF1000F0CD14A460120002100F06A
:10B9700007F928402140084301D0012000E00020C1
:10B98000E0B101204A46002100F0FAF803464019D0
:10B990000A4661412D1A8C4111D3B9F1400F09DDDE
:10B9A000159810F0240F02D0AAF1340603E0AAF192
:10B9B000170600E0761C00254FF0004406E05B1EF1
:10B9C00042F1FF3220EA030521EA0204CAF1010034
:10B9D000B04206DA1B49039808430190002000900A
:10B9E0000EE0039AC4F3D321E80A0A43164940EA59
:10B9F00044500A433146CDE90002684602F055FE44
:10BA0000159810F0240F0BD01598C00715D1386881
:10BA1000DDE90012031D3B600068C0E900120CE084
:10BA200002A8694602F038FE1598C00705D13868AB
:10BA3000029A011D3960006802604046F0E600008D
:10BA400002FCFFFF0000F07F0000F03F2DE9FF4FF8
:10BA500092461D4685B04FF00041DDE9124BDDE90D
:10BA600014727F1E01EA4B50414940F0FF4940EA01
:10BA70000108002122F020004928049102D04E281C
:10BA800028D04CE03BA0012607C88DE80700A96933
:10BA90000698641C88477F1E014606D41DF80600E0
:10BAA00018B121F0200181420BD0E969069888473E
:10BAB000032E34D0082E32D06FF0010009B0BDE85B
:10BAC000F08F761C032E01D0082EE0D1601CCAF83E
:10BAD0000000DCE7A9690698641C88477F1E2AD409
:10BAE00020F02000412826D1A9690698641C8847C7
:10BAF0007F1E20D420F020004E281CD1A969069872
:10BB0000641C88477F1E48F4002849F48009CAF85D
:10BB1000004001D4282806D0E969069888475FEAE2
:10BB2000CB7012D022E0A9690698641C88477F1E5A
:10BB300001D4002803DAE96906988847BCE7292878
:10BB4000F1D1641CCAF80040E9E71BF0240F07D0CC
:10BB500028680499031D2B600068C0E9001805E0FF
:10BB60002868021D2A600068C0F800902046A5E7FA
:10BB70000000F07F494E46494E49545900000000EC
:10BB8000B2F120030AD5C2F1200301FA02F120FA32
:10BB900003F300FA02F041EA0301704700FA03F1EF
:10BBA0004FF00000704720F07F4C80EA030023F044
:10BBB0007F47ACEB070303F57C5300F0004003F133
:10BBC000FF032DE980494FEA154B09B44FEA1443AE
:10BBD00025EA0B4E24EA03480FF2042606EB13274E
:10BBE00049083E785FEA320203FB0667C7F50007A3
:10BBF00007FB06F64FEA54374FEAD64606F102062F
:10BC000007FB066CCCF1005C4FEA1C472CEA074CA2
:10BC100007FB06F40CFB06F504EB15464FEA9616F7
:10BC200034BF00204FF000404FEAD13706FB07FC3D
:10BC30004FEA1C4C0CFB0BF7D21B03FB0CF761EB20
:10BC400007010CFB0EF7B0EB074072EB17420CFB41
:10BC500008F734BFA2EB0742B2EB074261EB174192
:10BC60004FEA0C444FEA910706FB07FC4FEA1C4CD5
:10BC70000CFB0BF7B0EBC74072EB573203FB0CF732
:10BC800034BFA2EBC742B2EBC74261EB57310CFBAA
:10BC90000EF7B0EBC70072EB57720CFB08F734BF1E
:10BCA000A2EBC702B2EBC70261EB5771039F4FEAE9
:10BCB000816141EA921104EBCC044FEAD1374FEA9B
:10BCC000826206FB07FC42EA90124FEA80604FEA6C
:10BCD0001C4C0CFB0BF7D21B03FB0CF761EB0701B1
:10BCE0000CFB0EF7B0EB074072EB17420CFB08F7AA
:10BCF00034BFA2EB0742B2EB074261EB17414FEAB8
:10BD00008C554FEA910704EB9C2406FB07FC4FEA95
:10BD10001C4C0CFB0BF7B0EBC74072EB573203FB2C
:10BD20000CF734BFA2EBC742B2EBC74261EB57310D
:10BD30000CFB0EF7B0EBC70072EB57720CFB08F769
:10BD400034BFA2EBC702B2EBC70261EB577115EB30
:10BD50004C254FEA816141EA92114FEA82624FEA33
:10BD6000D13742EA901206FB07FC44F100044FEA87
:10BD700080604FEA1C4C0CFB0BF7D21B03FB0CF74B
:10BD800061EB07010CFB0EF7B0EB074072EB1742BB
:10BD90000CFB08F734BFA2EB0742B2EB074261EBA2
:10BDA000174115EB1C154FEA813141EA92414FEAE8
:10BDB000823242EA90424FEA80304FEA0C7644F1F8
:10BDC000000448EA03434EEA0B484FF0000EB2EB82
:10BDD000080C71EB030724BF624639464EEB0E0E8A
:10BDE0004FF0000B0018524149414BEB0B0BB2EBEB
:10BDF000080C71EB03077BF1000B24BF6246394648
:10BE00004EEB0E0E4FF0000B0018524149414BEB28
:10BE10000B0BB2EB080C71EB03077BF1000B24BF9B
:10BE2000624639464EEB0E0E51EA020718BF46F045
:10BE3000010616EB0E7655F1000254F1000103D510
:10BE4000BDE88901BDE80088BDE88901BDE800487A
:10BE5000B619524141EB0101A3F101037047808003
:10BE60007F7E7D7C7B7A7978777676757473727154
:10BE700071706F6E6E6D6C6C6B6A6A69686867660C
:10BE800066656464636362616160605F5F5E5E5D9E
:10BE90005D5C5C5B5B5A5A59595858575756565512
:10BEA00055555454535352525251515050504F4F74
:10BEB0004F4E4E4D4D4D4C4C4C4B4B4B4A4A4A49C4
:10BEC0004949484848474747474646464545454407
:10BED00044444443434343424242424141410000BF
:10BEE00046EA0646A3F570534FEA164646EA42561E
:10BEF0004FEAD22242EA415210B54FEAD121A3F1D2
:10BF0000010300F02FF820F0004000F1020C00F0D7
:10BF1000004701EB00501146BCF5006F40EA0700F6
:10BF200000D210BDBAF1000F0AD01CB503B44FF017
:10BF300004004FF004014FF000000FBCBDE81040BA
:10BF40004FF00001BBF1010FB9BF04484FF0FF31C2
:10BF50000348002140EA070010BD00BFFFFFEF7F4C
:10BF60000000F07F002B9C4630D477002BD01CB50E
:10BF70004FEA370703B44FF010004FF01001BAF149
:10BF8000000F06D0BCF1000FDCBF40F0080040F00D
:10BF900008014FF000000FBCBDE810400BF1010B91
:10BFA000BBF1010F08BF5FEA170722BF12F10102C0
:10BFB00011F101014FF0004143F1000300F0004096
:10BFC00043EA00007047F9D35708D0E746EA06462F
:10BFD00013F1400F4FEA16461FDD13F1200FDFBFAC
:10BFE00016430A46002120335B42BED0C3F120072E
:10BFF00046EA064602FA07F74FEA164646EA0706F9
:10C00000C3F1200722FA03F201FA07F721FA03F13C
:10C010004FF0000342EA0702A7E746EA020646EAB3
:10C0200006464FEA164646EA0106BCBF46EA064601
:10C03000360C4FF000034FF000024FF0000194E780
:10C040002DE9804C9A46934670B491E8380007C8B1
:10C0500031EA400C48BF34EA430C03D5FFF7A3FD97
:10C06000FFF780FFF0BCBDE8008C2DE9804C9A46BC
:10C07000934670B491E8380007C831EA400C48BFD5
:10C0800034EA430C03D5FFF78EFDFFF729FFF0BC20
:10C09000BDE8008C2DE9804C9A46934670B491E837
:10C0A000380007C810F0804F08BF13F0804F03D14D
:10C0B00000F01AF8FFF756FFF0BCBDE8008C2DE940
:10C0C000804C9A46934670B491E8380007C810F047
:10C0D000804F08BF13F0804F03D100F005F8FFF741
:10C0E000FFFEF0BCBDE8008C20F07F4780EA030033
:10C0F00023F07F4C07EB0C03A3F57C5300F00040CA
:10C10000A3F1FE0392F0000F00F0B38095F0000F52
:10C1100000F077802DE901494FEA11404FEA1446BB
:10C1200021EA004800FB06FC24EA064708FB06F665
:10C1300007FB08F800FB07F718EB06484CEB164C1A
:10C140004FEA124B18EB07484FEA15464CEB1740E5
:10C1500022EA0B4E0BFB06FC25EA06470EFB06F611
:10C1600007FB0EFE0BFB07F71EEB064E4CEB164CC7
:10C170004FF000061EEB074E4CEB174B18EB0B086D
:10C1800040F1000018EB0E0B58EB000840F10000E6
:10C190008F1A4FF000013CBFC943661B14BFB5EBBB
:10C1A000040C00213CBFC943F61B4FEA17444EEA7A
:10C1B0008E0E27EA04454FEA1C4704FB07622CEA6F
:10C1C000074C05FB07F70CFB05F604FB0CFC16EB14
:10C1D000074642EB174216EB0C4642EB1C421BEBA8
:10C1E000060658EB0202414146EA9E0601D5BDE82B
:10C1F0000189B619524141EB0101A3F10103BDE8E8
:10C2000001894FEA14454FEA114724EA054621EA1D
:10C21000074C05FB07F406FB07F70CFB06F105FBD3
:10C220000CFC11EB074144EB17444FEA124711EBAA
:10C230000C4144EB1C4422EA074C05FB07F206FBC9
:10C2400007F70CFB06F605FB0CFC16EB074642EB6A
:10C25000174216EB0C4642EB1C456A1854F10001DC
:10C2600048BF7047B619524141EB0101A3F10103E8
:10C27000704795F0000F37D04FEA11424FEA14474C
:10C2800021EA024624EA074C02FB07F106FB07F706
:10C290000CFB06F402FB0CFC14EB074441EB1741CA
:10C2A0004FEA154714EB0C4441EB1C4125EA074CBF
:10C2B00002FB07F506FB07F70CFB06F602FB0CFC7E
:10C2C00016EB074645EB174516EB0C4645EB1C42B3
:10C2D000121951F1000148BF7047B619524141EBA4
:10C2E0000101A3F1010370474FEA14454FEA1147DA
:10C2F00024EA054621EA074C05FB07F106FB07F790
:10C300000CFB06F24FF0000605FB0CFC12EB07429B
:10C3100041EB174112EB0C4251EB1C4148BF7047F7
:10C32000921841EB0101A3F10103704700000000E6
:10C3300010B540F2026003F057FE40F2046003F0D3
:10C3400053FE40F2096003F04FFE012003F01EFD92
:10C350000B2301220021164803F08EF901231A460F
:10C360000021144803F088F9002002F097FA124CDB
:10C370000021204602F04AFA01221146204602F02E
:10C380000CFA4FF460220121204602F06CFA0122DF
:10C390001146204602F04CFA204602F041FA0A20EB
:10C3A00003F05AFB2046BDE8104002F0E7B9000058
:10C3B0000010014000080140002401402DE9F04137
:10C3C00087B216480E46DFF85080C17800252C460B
:10C3D00028F81170491CC9B2C170102901D300217D
:10C3E000C17010210C4800F01BF806204FEA08012C
:10C3F00031F8102012B1641CE4B21544401CC0B2E4
:10C400000A28F5D3A54204D3B5FBF4F03080BDE88B
:10C41000F0813780FBE70000E01900205400002085
:10C4200070B5491E002422460DE000BF00EB420516
:10C4300030F812306E88B34203D920F812606B8056
:10C440000124521CD2B28A42F0DB012CEAD070BD2A
:10C450002DE9F04187B216480E46DFF8508081780A
:10C4600000252C4628F81170491CC9B2817010298A
:10C4700001D30021817010210C48FFF7D1FF062065
:10C480004FEA080131F8102012B1641CE4B21544DF
:10C49000401CC0B20A28F5D3A54204D3B5FBF4F082
:10C4A0003080BDE8F0813780FBE70000A019002054
:10C4B0005400002010B503F06DF9012810D036208B
:10C4C00003F06AFA074C0121204605F0E9F92046FD
:10C4D00005F092F9A115BDE81040034803F096B8A5
:10C4E00010BD0000001000400010014010B503F026
:10C4F00051F901280ED001221146362003F058FAD6
:10C50000054C0121204605F0CFF92046BDE810403A
:10C5100005F077B910BD00000010004010B50E4CBA
:10C520000C4A0121204602F041FB0A48017A11B170
:10C53000042904D006E0074801F000F802E00548AD
:10C5400000F080FD2046BDE810404CF2C20102F030
:10C5500023BB0000F43200200064004070B50546A3
:10C5600088B040F2197003F03FFD40F2026003F022
:10C570003BFD4FF4C06003F037FD294C4FF40063DE
:10C5800003224821204603F077F8A3140322182140
:10C59000204603F071F800221146152003F008FA36
:10C5A000204E304602F0FAF900248DF814408DF840
:10C5B000154004208DF8160003208DF81C400694C9
:10C5C0008DF81D408DF81700B5F5FA7F02D0FA2DD1
:10C5D00002D004E00C2000E01820ADF81E0005A9F0
:10C5E000304602F055FA0121ADF80A40ADF80C4092
:10C5F000ADF80040ADF80440ADF80E10ADF80240C3
:10C60000ADF80640ADF808108DF81010684602F03D
:10C61000D7F91021304602F0BBFA08B070BD000017
:10C620000008014000640040094810B5C07A0228A3
:10C6300003D0012801D0002010BD0021054803F0DF
:10C640000FFB05490028C861F6D0012010BD00008D
:10C6500070220020FC340108A00000207CB50646B2
:10C6600000200C46054600900190062916DB301983
:10C670006A4630F8020CADF804000AA101A8FEF7E2
:10C6800037F80021A41E03E0705C491C054409B280
:10C69000A142F9DB0099E8B2814201D000207CBDC3
:10C6A00001207CBD2578000070B506464FF0FF30B4
:10C6B0000022084C0BE0B35C58400023050E5B1CC5
:10C6C00054F82550042B85EA0020F7DB521C8A42DF
:10C6D000F1DB70BDFC30010810B502460020054BAF
:10C6E00004E000BF12F8014B4440185D491EF9D226
:10C6F00010BD0000FC2F010810B502F0FBFA00216C
:10C70000024803F0ADFA0249486010BD0C3501083B
:10C71000C80000200E48016821F0807101600168A6
:10C7200041F0807101600B48016821F00101016056
:10C73000016841F0010101600021416000BF00BFBC
:10C7400000BF406808B1002070470120704700001A
:10C75000FCED00E0001000E0084A01B5516808480F
:10C76000084B0068B0FBF3F0009B4343181A00939A
:10C7700053685B1A8342FBD308BD0000001000E041
:10C78000DC00002040420F002DE9F0410A4E4FF43A
:10C79000805500242946304602F03AFF4FF47A775C
:10C7A000384603F059F9641C0A2CF9DB2946304657
:10C7B000BDE8F04102F02ABF0010014070B50178D9
:10C7C000414C01F0010121740178C1F34001617510
:10C7D0000178C1F38001A1750178C1F3C0016174D2
:10C7E0000178C1F30011A1740178C1F34011E17423
:10C7F0004178217581786173C27822730279A273BE
:10C800004279E273C279FF2A0FD1827902F00102E4
:10C81000E2758279C2F3400222768279C2F3800205
:10C8200062768279C2F3C002A2760289837A52BA12
:10C83000120442EA0322C37A234D1A4362608289BA
:10C84000837B52BA1204C07B42EA032202431C35A6
:10C85000A260E87A884204D0E97200221B4800F006
:10C86000E5F8A87A217B884204D0A97200221848F2
:10C8700000F0DCF8287BA17B884204D029730022D9
:10C88000144800F0D3F8687BE17B884204D06973D8
:10C890000022114800F0CAF8616839B1286888425E
:10C8A00004D000220D48296000F0C0F8A1680029DA
:10C8B00009D06868884206D06960BDE870400022EF
:10C8C000074800F0B3B870BD5422002000D8030818
:10C8D00000B8030800C0030800C8030800E003080C
:10C8E00000E8030870B5134D04462021284602F0E5
:10C8F0008FFE0A2003F0B0F80F4EAC21304601F055
:10C90000AFFC0021304601F0ABFC2146304601F07F
:10C91000A7FCAC34E0B24042C1B2304601F0A0FC0A
:10C920000A2003F099F82846BDE87040202102F063
:10C930006DBE0000000801400044004070B50120B9
:10C9400002F01AFC00282CD0164C00252561164850
:10C95000807A022801D020B11EE0A069401CA061AD
:10C960001AE00121114802F0D7FE0028208802D0E9
:10C97000A08025800CE0608025806088A18801442B
:10C98000608840F24C425043B0FBF1F01938E0604F
:10C99000E068002800DAE560BDE87040012002F0A0
:10C9A000E5BB70BD84190020702200200008014002
:10C9B00010B5002307E000BF50F82340FF2C05D836
:10C9C000CC545B1C9BB29342F6D310BD0020C854DC
:10C9D00010BD006870472DE9F04115460E46074628
:10C9E000002402F027FA02F0D1FC40F2053002F0F8
:10C9F00067FC4FF4417002F063FC40F2023002F039
:10CA00005FFC384602F07EFC48B906E0315D07EB7A
:10CA1000840002F0D7FC641CA4B2AC42F6D302F04E
:10CA20005DFCBDE8F04102F061BB000070B514464A
:10CA30000D46064602F0FEF902F0A8FC40F2053071
:10CA400002F03EFC4FF4417002F03AFC40F202303A
:10CA500002F036FC304602F055FC28B102F03EFCF4
:10CA6000BDE8704002F042BB2946304602F0AAFC05
:10CA700002F034FC02F03AFB002C10D04FF47A7034
:10CA800002F0EAFFBFF34F8F05480168054A01F441
:10CA9000E06111430160BFF34F8F00BFFDE770BD40
:10CAA0000CED00E00400FA0570B50B4B05460020C4
:10CAB0001C790246094B0CE013F81260AE4206D115
:10CAC00003EB420676788E4201D1012070BD521CE4
:10CAD000D2B2A242F0D370BDA0000020803400206A
:10CAE0000D4800218278012A08D1C278521CD2B2A6
:10CAF000C2701E2A02D981700180C1708279012A18
:10CB000008D1C279521CD2B2C2711E2A02D98171D7
:10CB10008180C171704700003400002070B5044668
:10CB20002DED028B82B000780E4641F26705FA289F
:10CB300002D16078FA2818D0062235A12046FDF7E8
:10CB4000C3FE10B3711E2046FFF7C6FDA11911F8F0
:10CB5000011C884204D1A088002801DB002800D1F4
:10CB6000012002B0BDEC028B70BD0521204601F012
:10CB700009FF61798142F3D1E0782179484041EAA7
:10CB80000020411EA942E9D3EAE7607A2E2801D0AD
:10CB90000020E6E7204604F0D5FA2046FDF775FEB2
:10CBA00001B22046FFF75AFD0028D9D0002001909D
:10CBB000D4F8060000906089ADF804009FED168A55
:10CBC000684601F0C5FC51EC100B05F0F5FB00EEDA
:10CBD000100A124910EE100ADFED110A884201DD39
:10CBE000B0EE600AB5EEC00AF1EE10FA01D2B0EE76
:10CBF000480A9FED0C1A20EE010A80EE201ABDEEC5
:10CC0000C10A10EE100A411EA942A9D280B2A5E7BE
:10CC10002A52465630310000000000000000C84291
:10CC20000000C84200F07F452DE9F04140F2046465
:10CC3000204603F0D9F9651E284603F0D5F92846A9
:10CC400003F0D2F9204603F0CFF9284603F0CCF9DF
:10CC5000204603F0C9F9204603F0C6F91E4E4023D2
:10CC600003221021304602F007FD4021304602F039
:10CC7000CFFC1A4F4FF4804423460322102138463C
:10CC800002F0FAFC2146384602F0C2FC65102B4641
:10CC900003221021384602F0EFFC2946384602F004
:10CCA000B7FCA31103221021304602F0E5FC40231B
:10CCB00003224821384602F0DFFC234603224821A4
:10CCC000304602F0D9FC2B463046BDE8F041032245
:10CCD000482102F0D1BC000000100140000C0140CE
:10CCE00010B502F0DBFD00F0C3FE02F04DF800F0DD
:10CCF00071FD00F007F8FFF797FCBDE81040FFF763
:10CD0000FBBC000010B5FFF78FFF0C48407B0128EB
:10CD100012D002F007FD00220121094802F0D4FFE1
:10CD20000849C86010B1962102F0E4FF0221BDE875
:10CD30001040032001F094B810BD000070220020C4
:10CD40009C2F010844000020092811D2DFE800F0E0
:10CD50000510071009100B100D00A82006E0B920DF
:10CD600004E0C22002E0F52000E0F720FFF7BABDA2
:10CD7000FA20FBE7F8B50446A34E0078012200250F
:10CD800086F830207A287ED049DC56287BD026DCF5
:10CD9000442878D012DC2C2875D008DC212872D0E9
:10CDA000222870D029286ED02B286DD16BE03E2828
:10CDB00069D0402867D04128F7D164E04A2862D082
:10CDC00006DC45285FD046285DD04728EDD15AE0E3
:10CDD000532858D0542858D05528E6D153E0662817
:10CDE00069D00BDCA0F159000C284DD2DFE800F02F
:10CDF0004B4C4B5963634C4C4C634C636C285AD07E
:10CE000006DC692857D06A2855D06B28CDD152E06E
:10CE10006E2852D06F2836D07928C6D133E0C42886
:10CE200079D013DCA0F1A8001C28DED2DFE800F0E6
:10CE30004FE9E957E9575757E9E9E9E9E9E9575768
:10CE40005759E95757576DE973E97773F42862D05A
:10CE500010DCEB285FD006DCCB2840D0E9285AD084
:10CE6000EA2811D157E0EC2855D0ED2853D0F3280B
:10CE70000AD150E0F538082806D2DFE800F081C278
:10CE80004C4C4CA24C4C0225BBE06078022540F291
:10CE9000253110FB01F04FF47A71B0FBF1F0B07066
:10CEA000AFE06078022500EB80000A21B0FBF1F0D2
:10CEB00086F82800A5E00125A3E060780225203847
:10CEC00000EB8000092190FBF1F0706099E0B4F86C
:10CED000010003253221484380B2F06291E003252E
:10CEE0008FE00325B4F8010005F02CFD9FED471BF2
:10CEF00053EC112B05F076FD9FED461B53EC112BE7
:10CF000005F048FBC6E906017BE0B4F80100032503
:10CF10008008308075E06078801CC5B271E0607870
:10CF2000801CC5B28D426CD202203C4E25E03C49AB
:10CF300049783170215C401CC7B27170E05D00F02F
:10CF40000F00B070E05DC0F30010F070E05DC0F362
:10CF50008012B260E05DC309F36003D07F1CFFB2B2
:10CF6000E05D00E0002030742AB930690090D6E915
:10CF7000000100F0A9FF7F1CF8B2A842D7D340E01F
:10CF80006078811CCDB204283BD1A0786179E27829
:10CF900040EA01602179090441EA0221084305F0D1
:10CFA000D1FC9FED201B53EC112B05F01BFD9FEDD9
:10CFB0001F1B53EC112B05F015FD05F07FFCF060F5
:10CFC0001FE06078811CCDB204281AD1A078617965
:10CFD000E27840EA01602179090441EA022108432C
:10CFE00005F0B0FC9FED131B53EC112B05F0FAFC80
:10CFF0009FED121B53EC112B05F0F4FC05F05EFCC9
:10D0000070612846F8BD0000083300208A027D22A6
:10D010004F92FA3F0000000000408F40E40D0020D6
:10D02000000000207250C24CDBBFF93F9A999999D9
:10D030009999B93F000000000000C03F639CBF0900
:10D0400085480E402DE9F041934E04462DED028BAC
:10D05000012086F83000914D61684FF6E962297031
:10D06000C1F31120C1F301616861E970811A904236
:10D070007ED03EDC4FF6CA62A0EB0201904251D056
:10D0800021DC00F6FD70B0F5803072D0012871D03F
:10D09000A0F56060BE3828D1E07AA17B227B40EA0F
:10D0A0000160617B090441EA0221084305F033FC79
:10D0B0009FED7B1B53EC112B05F06CFA41EC100B30
:10D0C0009FED791BCAE0162976D01B290DD1E07A95
:10D0D000A17B227B40EA0160617B090441EA0221D5
:10D0E0000843142190FBF1F03061BDEC028BBDE8E8
:10D0F000F08109297FD00BDC05295ED00829F4D105
:10D10000A089000AB070C82800D90020B070ECE7F0
:10D110000E295FD01329E8D1207B00EB8000C000EE
:10D120003081E2E7E07A81096972C0F30111A972E6
:10D13000C0F38101E97200F003002873A07A02288D
:10D14000D3D9801EC11700EB9170C0F3870700266A
:10D15000102F2ED91027022000EB8600C0B22044E9
:10D16000417B027B4909090441EA0222C17A02E0BB
:10D1700082E03CE025E00A43AA61417B01F01F0107
:10D180006970807B00F07F034948AB708260017357
:10D190004373697A0170A97A4170E97A8170297BB9
:10D1A000C1704038C36C416C006C00F069FE761CA5
:10D1B000F6B2BE42CFD398E740E0E07A28387060FC
:10D1C00093E7E0892861A0F57F41FF398DD0C00841
:10D1D00030808AE7B4F80F00322148434FF6E85117
:10D1E0002861884200D9F06AF0627EE703E0607B44
:10D1F00086F8280079E734F80D0F05F0A3FB9FEDC2
:10D200002D8B53EC182B05F0EDFBC6E90601608869
:10D2100005F098FB53EC182B05F0E4FB41EC100BE8
:10D220009FED261B86ED080B53EC112B05F00AFB36
:10D23000C1D19FED240B86ED080B56E7E07BA17C66
:10D24000227C40EA0160617C090441EA0221084332
:10D2500005F061FB41EC100B9FED1C1B51EC100B1A
:10D2600053EC112B05F0BEFB41EC100B85ED080BC8
:10D2700005F024FBF06038E7E07BA17C227C40EAEB
:10D280000160617C090441EA0221084300EBD0708F
:10D290004010706129E7000008330020A000002042
:10D2A0000000000000408F4000000000000014401B
:10D2B000A0340020000000000000603F00000000DB
:10D2C00000006040000000000000000000000000BE
:10D2D0000000C03F0C4A10B5042313720B4B43EA05
:10D2E0000020506003209072D172080A1073080C5D
:10D2F00050731146064801F0A1FC042801D001201A
:10D3000010BD002010BD0000E0320020F900001820
:10D310000064004070B56F4D6F4C687D10B10128FE
:10D3200021D110E0287D48B1A87D012814D02089A2
:10D3300090B1022810D0042812D10DE0208958B1F4
:10D3400002280DD108E0A08808280CD2DFE800F000
:10D350000408040804080408002000F0D9F802E0DA
:10D36000002000F0BFF85D4800780128287C03D039
:10D37000A8B1012816D105E001280CD1A088012808
:10D380000DD008E0A08808280CD2DFE800F00804DF
:10D39000080408040804012000F0A4F802E00120B9
:10D3A00000F0B6F8687C50B101280FD1A088082899
:10D3B0000CD2DFE800F00408040804080408022086
:10D3C00000F0A6F802E0022000F08CF844480025A6
:10D3D000007B98B3404EB61C30780B2863D2DFE850
:10D3E00000F00647141A23474F2E3A5A5E00FFF703
:10D3F00061F858E0032856D103E000BFFFF776F844
:10D4000051E0FFF757F835704DE0E0880028F5D07F
:10D41000012832D1EBE720890721B0FBF1F201FBB3
:10D4200012000028EAD0E2E720890028E6D002288E
:10D43000E4D00428E2D00628E0D0D8E733E0208901
:10D440000928D4D2DFE800F0060506050605060522
:10D450000600CCE7D2E720890B28C8D2DFE800F02D
:10D46000070607060706070607060700BFE7C5E722
:10D47000E0880028C2D00128C0D00228BED0B9E779
:10D48000E08806280FD2DFE800F005040504050354
:10D49000B7E7ACE7B2E720890A28B2D0AEE7208927
:10D4A0000028ABD0A3E7A088401CA080E088401CE7
:10D4B000E0802089401C20812089462800D92581D0
:10D4C000A088072800D9A580E088072800D9E58032
:10D4D00070BD0000542200204400002058000020AD
:10D4E0007022002040B1084A012808D0022809D142
:10D4F0000103104602F08AB840210448FAE74FF4CD
:10D500008041F6E770470000000C01400010014028
:10D5100040B1084A012808D0022809D10103104669
:10D5200002F076B840210448FAE74FF48041F6E76C
:10D5300070470000000C0140001001402DE9F0414F
:10D5400004462DED028B0068A0F2DF70102879D818
:10D55000664E0127664D86F83070207B4FF000083C
:10D56000432801D0472818D1607B00286AD00321C6
:10D57000297202280DD9AF71A5F80E80801EE871BE
:10D5800007E02044017BC07A00F0CCFC287A801CA4
:10D590002872E17A287A8142F3D8A879012816D135
:10D5A00085F80880E879E98907EB9000884208D877
:10D5B0000DE02044017BC07A00F0B4FC287A801C86
:10D5C0002872E87900F00701287A8142F1D8E889C9
:10D5D000401CE8814548E17A2838212902D02229D7
:10D5E00006D00CE0E16840F85C1F218A818004E0ED
:10D5F000E16840F8631F218A8180A17C8171207BD2
:10D60000412811D049281DD1607B49281AD1207C9E
:10D6100006F8310F607C7070A07CB070BDEC028B9E
:10D62000BDE8F04100F05EB9607B11280AD012DC41
:10D630000C2837D00ADC012804D0052802D1A07BB1
:10D6400028387060BDEC028BBDE8F0810D28F9D15F
:10D65000A07BB070F6E731282BD016DC1428F1D06F
:10D660002F28EFD1A07B05F06DF99FED221B53EC25
:10D67000112B05F0B7F99FED211B53EC112B04F092
:10D6800089FF05F01BF93081DCE7422817D0A62876
:10D69000D8D104F10E0001F05CF90A21B0FBF1F0E1
:10D6A0007067CFE7E07BA17B00EB01208008308032
:10D6B000C8E7E07BA17B00EB0120F060C2E7E07BE4
:10D6C00005F040F941EC180BA07B05F03BF99FED0C
:10D6D0000D1B53EC112B05F085F953EC182B04F0BE
:10D6E0009DFE05F0EBF8F062ACE700000833002087
:10D6F000A0000020000000000000594000000000D1
:10D7000000E06F4000000000000070402DE9F04193
:10D7100040F20464204602F067FC651E284602F0D1
:10D7200063FC204602F060FC204602F05DFCA01E77
:10D7300002F05AFC284602F057FC234E4FF40064D6
:10D74000234603221021304601F096FF2146304641
:10D7500001F05EFF1D4F640023460322102138466E
:10D7600001F08AFF2146384601F050FFE4102346BD
:10D7700003221021384601F07FFF2146384601F090
:10D7800045FFA5012B4603221021384601F074FF06
:10D790002946384601F03AFF0D4D0223032210219D
:10D7A000284601F069FF0221284601F02FFF234699
:10D7B00003221021304601F05FFF21463046BDE8CC
:10D7C000F04101F025BF0000000C014000100140B5
:10D7D000000801401FB500212D4802F041FA2D49F3
:10D7E0000028886052D0FEF7A3FDFFF78FFF2A487C
:10D7F000807A022801D0002848D140F2057002F05A
:10D80000F3FB264C204603F0BBFF0120ADF80000DF
:10D81000002148F6D240ADF80C10ADF80210ADF87A
:10D82000041002908DF80E106946204603F0EEFFBA
:10D8300001221146372002F0BBF80121204604F0F6
:10D8400033F8204603F0DDFF40F2026002F0CCFB2B
:10D850004FF4C06002F0C8FB0123032204211048EA
:10D8600001F00AFF00220221062002F0A1F80021A7
:10D87000084601F0D5FE02220021012001F042FC01
:10D8800004B00120BDE8104001F070BC1FBD0000D5
:10D89000A42F010854000020702200200014004032
:10D8A000000801400D4A30B440F2DF7313600023DA
:10D8B0005360537213720824947209B1022400E079
:10D8C0000124D472107351739373D373137453740C
:10D8D000937430BC0149024801F0B0B9E032002035
:10D8E000006400400B484FF4FC61082201600021F5
:10D8F00041604172017282723022C27201734173BF
:10D900008173C1730174417481740146024801F04E
:10D9100095B90000E0320020006400402DE9F0419C
:10D920000A4E0D4607464FF0FF31306A02F08CF97F
:10D93000002404E0385D00F01BF8641CA4B2AC4283
:10D94000F8D3306ABDE8F04102F072B968000020F7
:10D9500070B50D460646FEF7BFFE04462946304622
:10D96000FFF7DCFF2046BDE8704000F001B8000082
:10D970000146014800F074BC003801402DE9F04137
:10D980000D4680460024FCF780FF124F86B2611ED0
:10D99000386A02F059F905E018F80400FFF7E8FFCB
:10D9A000641CA4B2B442F7D3042D08D2DFE805F01A
:10D9B00002040C100D2000E00A20FFF7D9FF386A9E
:10D9C000BDE8F04102F034B90D20FFF7D1FFF3E7D5
:10D9D0001A20F2E76800002010B540F202642046E9
:10D9E00002F002FB204602F0FFFA40F20E6002F065
:10D9F000FBFA1D4C4FF4007303221821204601F05E
:10DA00003BFE231503220421204601F035FE174C6E
:10DA1000204603F08FFF4FF46131204603F056FF9C
:10DA20000021204603F0E4FF0021204603F0FCFF24
:10DA30000021204603F0EAFF0421204603F0E0FF26
:10DA40000821204603F0EAFF204603F09FFF002252
:10DA50001146252001F0ACFF2046BDE8104040F201
:10DA6000053103F0A3BF0000000801400038014069
:10DA700010B50121174802F0C5F8174C00212062AB
:10DA80001448001D02F090F8E060124800210C30AC
:10DA900002F050F8206100281BD00E4800211830F9
:10DAA00002F0DEF86061002813D00A480021283017
:10DAB00002F0D6F8A06100280BD0064800213830CB
:10DAC00002F0CEF8E061002803D0BDE81040FFF777
:10DAD00083BF10BDB42F0108680000202DE9F0417C
:10DAE000054600783E26864C3E2843D0112285A16B
:10DAF0002846FCF7E9FE00287DD0082286A12846AA
:10DB0000FCF7E2FE002877D0062286A12846FCF723
:10DB1000DBFE002871D0062284A12846FCF7D4FE43
:10DB200000286BD0052283A12846FCF7CDFE834C4C
:10DB300000287DD0062282A12846FCF7C5FE0028D9
:10DB400077D0062280A12846FCF7BEFE002871D1BE
:10DB500004217FA0FFF7FCFE0221204601F058FDC2
:10DB60004FF47A6001F078FF2046BDE8F0410221D1
:10DB700001F04CBD6B788A1E77484FF4FA77062B7C
:10DB800058D2DFE803F0BB03080E1441A81CBDE81F
:10DB9000F041FEF713BEA81CBDE8F04191B200F0C1
:10DBA00007BCA81CBDE8F04191B200F027BB6A8811
:10DBB000091F54BA8C4202D0012168A060E0BC4227
:10DBC00002D301216AA05BE022464D490746FEF7D9
:10DBD000EFFE211F281DFEF767FD0646211F48485E
:10DBE000FEF762FD86420CD02246291D3846FEF71C
:10DBF000F2FE012103E047E051E05CE064E061A057
:10DC00003EE0012165A03BE0698826704DBA0B21FA
:10DC10006170291D8AB26749FEF7CAFE2946654828
:10DC2000FEF742FD634A014612FA85F0008802E0E1
:10DC300053E059E062E040BA030412FA85F08078BC
:10DC400043EA002012FA85F2D2781043814215D1BE
:10DC5000A01C2A1D5749FCF782FEAD1DADB2294616
:10DC60002748FEF739FD60556D1CA9B22448FFF71F
:10DC700055FE3846BDE8F04101F0EEBE01214EA050
:10DC8000BDE8F041FFF77ABE042131A0FFF760FE46
:10DC9000BDE8F041012211464F48FEF7C7BE26708D
:10DCA00066705620A0706620E070BDE8F041042147
:10DCB0001348FFF74DBE042125A0FFF749FEBDE83C
:10DCC000F041052001F00CBA042121A0FFF740FE2D
:10DCD000BDE8F041052001F051B804211CA0FFF778
:10DCE00037FE4FF47A703DE7042119A0FFF730FEAC
:10DCF0002046BDE8F041022101F08ABCBDE8F08178
:10DD0000C024002047445F474F544F5F424F4F5459
:10DD10005F4D4F444500000056455253494F4E3F1A
:10DD2000000000005245424F4F5400004241544F02
:10DD30004646000043414D4F4E00000000080140A0
:10DD400043414D4F4646000043414D52535400005D
:10DD50003E3E4F4B0000000000B003087E7E7E492F
:10DD60004E56414C494420444154417E7E7E000041
:10DD70002A2A2A494E56414C494420444154412ABA
:10DD80002A2A000023232353544F52455F464C4117
:10DD900053485F4441544123232300002323234459
:10DDA000415441204E4F204348414E4745232323B1
:10DDB00000000000C02600202A2A2A494E56414C65
:10DDC0004944204352432046524F4D20464C415334
:10DDD000482A2A2A0000000000F80308074A064BD8
:10DDE00091885854491C88B29080B0F5007F01D3C7
:10DDF00000209080704700008022002068000020F2
:10DE000030B5134B002108461C79124D07E000BFC6
:10DE100005EB0112491C906010735073C9B2A14206
:10DE2000F6D30C499FED0C0B7839187181ED080B76
:10DE3000C86281ED060B088108804861C86088705F
:10DE4000086181F82800486081F83000587130BDC1
:10DE5000A00000208033002000000000000000002F
:10DE600000280AD0012808D0022806D0032804D1AF
:10DE7000024A0020D080901C0170704744000020AE
:10DE8000F0B505460E4614001F464FF0000016D0B0
:10DE9000284601F083F90146012810D00948084BB3
:10DEA000027903EB0213521CDF601D60C3E90164B9
:10DEB000D2B20271102A01D3002202710846F0BDCD
:10DEC00080330020A00000200FB4002038B59DF85A
:10DED000111000291FD0089804AC009094E80F009E
:10DEE00001F07EF90546012815D00C4CA0781028C9
:10DEF00010D00B4900EB800001EB8000142204A934
:10DF0000FCF772FDA078401CC0B2A070102801D3AD
:10DF10000020A070284638BC5DF814FB00000020EB
:10DF2000F80D00202DE9F0470500A0B00C464FF099
:10DF3000000068D0FF2D66D0002C64D0FF2C62D08A
:10DF40002846FEF7B1FD064601285CD0DFF8F0A0B8
:10DF50003A489AF8041000F8115000EB41004021B3
:10DF600044706846FCF772FD23462A4635A1684690
:10DF7000FCF7BAFA9DF801C0432042213322322334
:10DF8000312430255027ACF1300C4FF05509BCF14D
:10DF9000170F2CD2DFE80CF00C0F1215181D2227DA
:10DFA0003A3D2B2B2B2B2B2B2B404346494C4F0020
:10DFB0008DF800700AE08DF800700CE08DF80070AC
:10DFC0000EE08DF8007010E08DF800008DF8015023
:10DFD0000DE08DF800008DF8014008E08DF800009C
:10DFE0008DF8013003E08DF800008DF801209AF8DB
:10DFF0000400801CC0B28AF80400102802D300205C
:10E000008AF80400304620B0BDE8F0878DF8001093
:10E01000DCE78DF80010DEE78DF80010E0E78DF802
:10E020000010E2E78DF80090D0E78DF80090D2E77D
:10E030008DF80090D4E78DF80090D6E7803400206A
:10E04000A0000020502530327825303278000000C2
:10E050000F4810B5016841F4700101600D48016876
:10E0600041F00101016000214160C16201680A4A7A
:10E07000114001604FF41F018160016821F480218B
:10E08000016003F0EBFA024904488039086010BDD2
:10E0900088ED00E000100240FFFFF6FE00A000083F
:10E0A00010B50D4C0121204603F006FC00280DD0D0
:10E0B0000121204603F0FCFB084C09484FF4807115
:10E0C000627822B101F0A4FA0020607010BD01F066
:10E0D0009DFA0120F9E700000010004044000020F4
:10E0E0000010014010B5174C0121204603F0E4FB5D
:10E0F000002826D00121204603F0DAFB12480188CF
:10E10000491C018002884EF6602300219A4201D901
:10E110000180C1600269521C0261026943F69823C2
:10E120009A4202D90161C16081604269521C426118
:10E13000426940F2E7339A4203D382698260816187
:10E14000416110BD001400408419002070B50446E0
:10E1500040F2046001F048FF40F2137001F044FF08
:10E16000244D4FF4806303221821284601F084FADD
:10E17000EB1403220421284601F07EFA1E4D2846A6
:10E1800003F0D8FB2146284603F0A0FB00212846D7
:10E1900003F02EFC0021284603F046FC002128460F
:10E1A00003F034FC0421284603F02AFC0821284609
:10E1B00003F034FC284603F0E9FB0022114634202A
:10E1C00001F0F6FB40F20531284603F0EFFB052194
:10E1D000284600F045F80521284600F041F80521C1
:10E1E000284600F03DF82846BDE87040052100F0C3
:10E1F00037B8000000100140004C00402DE9F0410C
:10E200000D4606460024064F05E0315D384600F015
:10E2100027F8641CA4B2AC42F7D3BDE8F08100003B
:10E22000004C004010B50C4C0A49204603F0C9FBD5
:10E2300000280DD0204603F075FBC1B207480172DB
:10E240008069002804D0BDE81040002201F0CEBC57
:10E2500010BD000005030500004C00400000002038
:10E260002DE9F0410E46074601F04AFC04460E48EF
:10E270004CF250314CF25032008848430B49098827
:10E28000514300EB21450721384603F084FB20B9B8
:10E2900001F036FC001BA842F5D331463846BDE8F4
:10E2A000F04103F043BB0000283501082A3501087E
:10E2B00010B50C4C0A49204603F083FB00280DD012
:10E2C000204603F02FFBC1B207488170C0680028C8
:10E2D00004D0BDE81040002201F088BC10BD000051
:10E2E00005030500003801406800002070B50546B0
:10E2F00040F20264204601F077FE40F2117001F016
:10E3000073FE204601F070FE254C202303221021CD
:10E31000204601F0B1F92021204601F079F90423CB
:10E3200003221821204601F0A7F908230322042123
:10E33000204601F0A1F91B4C204603F0FBFA1A48D5
:10E34000C07A032828D02946204603F0BFFA0021CE
:10E35000204603F04DFB0021204603F065FB002121
:10E36000204603F053FB0421204603F049FB08211B
:10E37000204603F053FB204603F008FB0022114621
:10E38000262001F015FB40F20531204603F00EFB7C
:10E3900006490120087070BD4FF41651D4E7000003
:10E3A00000080140004400407022002000000020CE
:10E3B0002DE9F0410D4606460024064F05E0315D8B
:10E3C0003846FFF74DFF641CA4B2AC42F7D3BDE85A
:10E3D000F08100000044004010B50C4C0A49204672
:10E3E00003F0EFFA00280DD0204603F09BFAC1B2EB
:10E3F0000748C171C069002804D0BDE81040002260
:10E4000001F0F4BB10BD000005030500004400400E
:10E4100000000020FEF77EBF00280DDB00F01F0289
:10E42000012191404009800000F1E020C0F88011F6
:10E43000BFF34F8FBFF36F8F7047002809DB00F0E9
:10E440001F02012191404009800000F1E020C0F846
:10E45000001170470000000030B52DED048B81B035
:10E46000B0EE408AF0EE608A6A4651EC180B00F07C
:10E47000E3FF00989FED329B7E300090002821DC66
:10E4800053EC192B51EC180B04F0DCF91AD00021D5
:10E4900040F608004FF00000044651EC180B03F062
:10E4A0008BFF08EE100A40F6080004EA00014FF066
:10E4B0000000B5EEC08AF1EE10FA04BF0220FCF7AE
:10E4C000FCFA2DE00098FF2830DB002108464FF0D1
:10E4D000000000F4400553EC192B51EC180B04F02C
:10E4E0007FFB8CBF002401240220FCF7E6FA9FED9D
:10E4F000168A4DB1002C0CBF4FF400004FF4800081
:10E50000A84218BF9FED118A042108464FF0000071
:10E51000002C01BFB1EE480A01B0BDEC048B30BD48
:10E52000B0EE480A01B0BDEC048B30BD51EC180BC5
:10E5300003F042FF01B000EE100ABDEC048B30BDC9
:10E5400000000000000000000000807FFFFF7F7FD0
:10E5500030B583B00446FCF7ABFA9FED090B0546D6
:10E560008DED000B002221466846FCF785FB28460E
:10E57000FCF7A3FA9DED000B03B030BD00000000D6
:10E58000000000000000000030B540F2FF742DEDE7
:10E59000048BF0EE608A18EE901A85B0B0EE408AD7
:10E5A0009FED2B9B05468DED008B34EA115147D032
:10E5B00053EC192B51EC180B04F044F940D02A46C7
:10E5C00051EC180B04F06BFC41EC180B18EE900AA0
:10E5D0008DED008B34EA10501CD053EC192B51EC0C
:10E5E000180B04F02FF92BD10220FCF766FA00F08B
:10E5F00043F810EE901A18EE900A8DED020B8DED97
:10E60000008B61F31E0003909DED020B05B0BDEC85
:10E61000048B30BD0220FCF750FA00F01DF810EE1C
:10E62000901A18EE900A8DED020B8DED008B61F3C0
:10E630001E0003909DED020B05B0BDEC048B30BDB8
:10E6400005B0B0EE480AF0EE680ABDEC048B30BDB0
:10E6500000000000000000009FED050B10B553EC1A
:10E66000102B51EC100B04F0BDF941EC100B10BD58
:10E6700000000000000000709FED050B10B553EC8A
:10E68000102B51EC100B04F0ADF941EC100B10BD48
:10E69000000000000000001010B5044691ED000BD2
:10E6A000FFF7DAFE84ED000A10BD10B5044690EDC8
:10E6B000000B0846FFF768FF84ED000B10BD00005B
:10E6C000074810B5007848B102F070FC30B1054938
:10E6D00000EB400001EB4010603810BD024810BD57
:10E6E000E1000020607F0020A486002010B5002AF1
:10E6F00006DA22F00042D21D22F00703102203E0C6
:10E70000D21C22F003030C2213B19C188C4201D9B5
:10E71000012010BD024401448360C0E90021C91AF0
:10E72000D018884202D810600246F9E70020106035
:10E7300010BD30380A2801D20120704700207047F0
:10E7400005490978002905D000684FF6FF71DFF808
:10E750000CC000DF70470000E10000204107010805
:10E7600004490978002903D00068DFF80CC000DFF5
:10E7700070470000E100002069060108816841F04F
:10E780000801816081680907FCD4816841F00401B7
:10E79000816081684907FCD470471205A2F5801298
:10E7A00001290BD0022908D1816B21F4401181632A
:10E7B00002F44011826B114381637047C16A21F4F6
:10E7C0007001C16202F47001C26A1143C1627047F4
:10E7D00010B50D4C024601230021204600F06AF8D6
:10E7E0000121204600F0A8F80221204600F04FF851
:10E7F0000028F9D00221204600F045F82046BDE867
:10E80000104000F096B80000002401400029816803
:10E8100002D041F4006101E021F4006181607047A1
:10E820008168C90703D1816841F0010181607047A7
:10E83000002A4FEAC1720AD01AB1826842F48012EB
:10E84000826089070ED5816841F4004109E01AB160
:10E85000826822F480128260890703D5816821F4DE
:10E86000004181607047012909D0022906D18168E1
:10E8700021F4E041816081681143816070478168C3
:10E8800021F46021F6E702688A430260704702467D
:10E89000002012680A4200D00120704704490A682B
:10E8A00022F470220A600A6802430A60704700007E
:10E8B0000424014070B51F24062909D2456B01EBE1
:10E8C0008106B440A54302FA06F12943416318E0EA
:10E8D0000C290AD2056B891F01EB81018C40A543ED
:10E8E00002FA01F42C4304630BE0102909D2C56A33
:10E8F0000C3901EB8106B440A54302FA06F1294325
:10E90000C16207240A2A08D2016902EB420294403C
:10E91000A14393400B43036170BD122AFCD2C1682E
:10E920000A3A02EB42029440A14393400B43C36076
:10E9300070BDC06C80B27047CA0703D0826842F4D1
:10E9400080028260890703D5816841F400118160EB
:10E950007047C278002141EA0261827841EA0241AF
:10E960004278007841EA02210843704710B500233D
:10E970001A4603E0845C521C234492B28A42F9D3C3
:10E9800098B210BD10B500231A4603E0845C521CF7
:10E99000234492B28A42F9D3D8B210BD074910B5C8
:10E9A000884209D140F21944204601F039FB204643
:10E9B000BDE8104001F026BB10BD0000006400401F
:10E9C000F0B5827A012191402F4A136843F0010388
:10E9D00013602D4B1C331C688C431C602A4DC68968
:10E9E0002A4C0C35B6B92E688E432E60C6884788EF
:10E9F0003604C7EA0606478904EBC707C7F840662E
:10EA0000868807883604C7EA0606478904EBC707E5
:10EA1000C7F84466C689012E16D12E680E432E60B3
:10EA2000058846882D04C6EA0505468904EBC60616
:10EA3000C6F840568588C6882D04C6EA050546896D
:10EA400004EBC604C4F844560F4C8589241D002DE0
:10EA500025680DD00D4325600B4C05891434002D1D
:10EA6000256807D00D432560007C012804D006E00E
:10EA70008D43F0E78D43F6E7186808431860106887
:10EA800020F001001060F0BD006600400060004012
:10EA900070B54FF6FF7305681A46002425F002058D
:10EAA0000560056845F00105056000E0521E4568F7
:10EAB000ED0701D1002AF9D14268D20748D04A783F
:10EAC0004FF0407505EA02620D784FF4702642EA75
:10EAD00085728D7806EA05452A43CD784FF4E00625
:10EAE00006EA05552A434D896D1EC5F309052A43DB
:10EAF000C2610A79012A02682CD022F080020260E9
:10EB00004A79012A026828D022F0400202608A79FC
:10EB1000012A026824D022F020020260CA79012A68
:10EB2000026820D022F0100202600A7A012A0268EC
:10EB30001CD022F008020260497A0129016818D02D
:10EB400021F004010160016821F00101016014E07D
:10EB500000241BE042F08002D1E742F04002D5E7FA
:10EB600042F02002D9E742F01002DDE742F008024D
:10EB7000E1E741F00401E5E75B1E4168C90701D008
:10EB8000002BF9D14068C00700D00124204670BD99
:10EB900042690A434261704700EB11300268C1F3D9
:10EBA0008413012199400A430260704710B500EBBD
:10EBB0000113D3F8B04114F004041472D3F8B04137
:10EBC00034D0E408C2F80440D3F8B04104F00204A1
:10EBD0005472D3F8B44104F00F049472D3F8B441E2
:10EBE000240AD474D3F8B841D472D3F8B841240AB3
:10EBF0001473D3F8B841240C5473D3F8B841240EDD
:10EC00009473D3F8BC41D473D3F8BC41240A147470
:10EC1000D3F8BC41240C5474D3F8BC311B0E93744C
:10EC200039B1016941F02001016110BD640D14602A
:10EC3000CAE7C16841F02001C16010BD30B502468D
:10EC4000002093685B0108D49068000101D5012081
:10EC500003E09068C00041D5022002EB0012D2F818
:10EC6000803103F00103C2F880310B7AABB3D2F8E4
:10EC700080414D681C434B7A43EAC5031C43C2F8EC
:10EC8000804100BFD2F8843123F00F03C2F88431F1
:10EC9000D2F884318C7A2343C2F88431CB7A8C7BCE
:10ECA0000D7B43EA04634C7B240444EA052423439C
:10ECB000C2F88831CB7B8C7C43EA04634C7C097CB2
:10ECC000240444EA01210B43C2F88C31D2F88011AC
:10ECD00041F00101C2F8801130BD01E00320FBE7E3
:10ECE000D2F880314C7A23430C8843EA4453C2F86B
:10ECF0008031C7E710B540F2036001F075F9064CAA
:10ED0000802303221021204600F0B6FC2046BDE8F7
:10ED10001040802100F07CBC000C014008480068D5
:10ED2000C0010BD507480068C00707D005488038E8
:10ED30000068002802DA04490120087070470000CA
:10ED4000FCED00E0800E00E0040100204FF0604286
:10ED5000D36F002BFCD0036BD367D36F002BFCD099
:10ED6000C07840EA0120A2F87C0070474FF0604173
:10ED7000CA6F002AFCD081F87C00704701494870B6
:10ED8000704700005400002070B50021264800F0B4
:10ED90000BFF264C0021A0612348083000F004FF3F
:10EDA000E06121480021103000F05AFF2062002865
:10EDB00039D01D480021203000F052FF6062002849
:10EDC00031D01B4DE87A032817D117480021503065
:10EDD00000F0B0FE2063002825D013480021303019
:10EDE00000F03EFFA06200281DD00F4800214030F7
:10EDF00000F036FFE062002815D00B480022012108
:10EE0000083800F061FF606128B14FF47A7100F0BA
:10EE100071FF002807D12868FFF768FA6868BDE825
:10EE20007040FFF793B970BD402F0108000000202B
:10EE30007022002010B52520FFF7EEFA2620FFF7FC
:10EE4000EBFABDE810403420FFF7E6BA10B5114CDC
:10EE500000228021204600F0DDFB4FF41670FDF704
:10EE60007BFC01228021204600F0D4FB6420FDF7CA
:10EE700073FC8021204600F04FFC4FF4FA7100280B
:10EE8000084603D0FDF768FC002010BDFDF764FCC8
:10EE9000012010BD000C014010B5104C0022802153
:10EEA000204600F0B7FB0220FDF756FC012280212E
:10EEB000204600F0AFFB0A20FDF74EFC80212046E3
:10EEC00000F02AFC00284FF03A0003D0FDF744FC84
:10EED000012010BDFDF740FC002010BD000C0140DA
:10EEE00070B500254FEA0504FFF7D6FFA040284380
:10EEF000641CE4B2C5B2082CF6D3284670BD0000ED
:10EF0000FEB5054600F0FCFD04463D483D493D4A3E
:10EF1000008848433C490988514300EB214600BF23
:10EF2000FFF794FF20B900F0EBFD001BB042F7D3D0
:10EF3000CC2000F087F8442000F074F86420FDF73E
:10EF40000BFC00BFFFF782FF20B900F0D9FD001BCA
:10EF5000B042F7D3CC2000F075F8BE2000F062F884
:10EF60006420FDF7F9FB00244FEA0D06FFF7B8FF18
:10EF70003055641CE4B2092CF8D3092269460020FC
:10EF80000B5C63B1FF2B0AD00821684600F08EF8B5
:10EF90009DF80810814209D04FF0FF30FEBD401CA3
:10EFA000C0B29042ECD36FF00100FEBDBDF800008E
:10EFB0001F21B1EBD02F09D1C043401C80B203F018
:10EFC000C1FC41EC100B9FED111B05E003F0BAFCF6
:10EFD00041EC100B9FED0F1B51EC100B53EC112B60
:10EFE00003F000FD03F0E8F90C49884202D00C4917
:10EFF000884202D16FF00200FEBD28600020FEBDF5
:10F000002835010840420F002A35010800000000A1
:10F010000000B0BF000000000000B03F0000AA42A6
:10F020000000FE4210B5044600F00CF8442C06D156
:10F03000034C8021204600F06FFB0028F9D010BD62
:10F04000000C01402DE9F04104460126164F00F066
:10F050000100002500284FF000024FF080013846E3
:10F060000BD000F0D7FA0320FDF776FB01228021B8
:10F07000384600F0CFFA5A200AE000F0CBFA5A20C6
:10F08000FDF76AFB01228021384600F0C3FA032015
:10F09000FDF762FB7006060E6D1CEDB204EA060079
:10F0A000082DD7D3BDE8F081000C014030B50446EF
:10F0B000002011E014F8013B5FF0080280EA03052C
:10F0C00015F0010F4FEA500001D080F08C005B0872
:10F0D000521E12F0FF02F1D1491EC9B2EAD230BD70
:10F0E00001490870704700005400002010B5252029
:10F0F000FFF7A3F92620FFF7A0F9BDE81040342060
:10F10000FFF79BB9F0B5184D2B6883432B602E1D7C
:10F11000336883433360331D1C6884431C601C1DAB
:10F1200027688743276011B1012907D103E02968C7
:10F130000143296002E031680143316052B1012A84
:10F140000ED0022A05D119680143196021680143D4
:10F150002160F0BD19680143196021688143F7E718
:10F1600019688143F1E7000000040140014908608B
:10F17000704700001404014006490968064A01422C
:10F18000126802EA000202D00AB101207047002092
:10F19000704700001404014000040140F0B50E4C1B
:10F1A0000020014625790D4CDEB2C3F3072710E09D
:10F1B00004EB0113D3F808C0944508D193F80CC0B0
:10F1C000B44504D15B7BBB4201D10120F0BD491C99
:10F1D000C9B2A942ECD3F0BDA000002080330020CA
:10F1E000F0B50546144ADDF814C0002093780146B6
:10F1F000124AECB2C5F30726C5F307470CF0FF0E21
:10F2000017E000BF01EB810512F825C0A4450ED11F
:10F2100002EB850595F801C0B44508D195F802C008
:10F22000BC4504D12D7C754501D10120F0BD491CA0
:10F23000C9B29942E6D3F0BD00000020F80D0020CD
:10F2400000B5034600F008F85B1E012802D1002B30
:10F25000F8D1042000BD000008490020CA68D20788
:10F2600001D001207047CA68D20601D5032070473B
:10F27000C9684907FBD50220704700000020024002
:10F2800000B5034600F008F85B1E012802D1002BF0
:10F29000F8D1042000BD000008490020CA6CD20744
:10F2A00001D001207047CA6CD20601D503207047F7
:10F2B000C96C4907FBD502207047000000200240BE
:10F2C000054901EB90110A6800F01F0301209840E6
:10F2D00002430A60704700000020024007480169AD
:10F2E00041F08001016106490988B1F5007F03D929
:10F2F000016D41F08001016570470000002002406F
:10F30000E0F7FF1F70B505461D481E4C4FF47026F0
:10F310000088B0F5007F02D91B48854215D23046DF
:10F32000FFF78EFF00280FD1206940F00200206116
:10F330006561206940F0400020613046FFF780FFA2
:10F34000216921F00201216170BD3046FFF798FF6D
:10F350000028F9D1206D40F0020020656565E06964
:10F36000800700D56561206D40F040002065304683
:10F37000FFF786FF216D21F00201216570BD0000BD
:10F38000E0F7FF1F00200240FFFF0708094801695E
:10F39000094A0B06094901D542604160084B1B88A8
:10F3A000B3F5007F04D9036D1B0601D542644164A7
:10F3B000704700000020024023016745AB89EFCD74
:10F3C000E0F7FF1FF0B505461748184C0E460088B9
:10F3D0004FF47027B0F5007F02D91548854211D24D
:10F3E0003846FFF72DFF00280BD1206940F00100BF
:10F3F00020612E603846FFF723FF216921F00101CB
:10F400002161F0BD3846FFF73BFF0028F9D1206DA0
:10F4100040F0010020652E603846FFF731FF216D76
:10F4200021F001012165F0BDE0F7FF1F002002403F
:10F43000FFFF07080000000010B582B01446CDE9B8
:10F4400000010023009A2360194B21F000409842EC
:10F450002ADA024328D0B0F5801FA8BF226810DA4C
:10F460009FED150B53EC102B9DED000B51EC100B89
:10F4700003F0B8FACDE900016FF0350221F0004049
:10F4800022600F4B6FF31E5103EB2050104420609D
:10F4900041F0FF5040F0005001909DED000B00BF87
:10F4A00002B051EC100B10BD9DED000BF8E7000011
:10F4B0000000F07F0000000000000000000050434A
:10F4C00002FCFFFF30B5124A104B45F255551C4661
:10F4D0001560D568641E05F0010502D0002DF8D135
:10F4E00000E04DB95160D1685B1E01F0020102D00D
:10F4F0000029F8D102E009B1002030BDC0F30B00B3
:10F5000090604AF6AA201060012030BDFFFF0F0076
:10F510000030004002494AF6AA2008607047000007
:10F520000030004002494CF6CC40086070470000B3
:10F5300000300040F8B50020ADF800000A20FFF7C9
:10F5400047F940F6E441484340F6FF75B0FBF5F05B
:10F550002849294C484343F2C82190FBF1F0208010
:10F56000208800F52F7020800B20FFF731F940F63E
:10F57000E4414843B0FBF5F04FF4FA51484340F6FC
:10F58000E44690FBF6F0E0800D20FFF721F9694694
:10F59000FCF75EFFBDF8000031464843B0FBF5F0D4
:10F5A00080B241F27C514843B0FBF6F060801348D2
:10F5B000807A012807D004F11401022817D000280E
:10F5C00017D1C86814E00020FFF702F96946FCF77C
:10F5D000F5FEBDF8000040F6E4414843B0FBF5F00D
:10F5E00080B24FF4FA514843B0FBF6F000E088686F
:10F5F000A080F8BD68B901007019002070220020B9
:10F6000001480078704700004600002041617047C3
:10F61000016170470AB101617047416170470000A4
:10F6200010B58A07140F0F23A340124AA0400429E3
:10F6300006D291689943916091680143916010BD31
:10F64000082906D2D1689943D160D1680143D160BD
:10F6500010BD0C2906D2116999431161116901434A
:10F66000116110BD51699943516151690143516163
:10F6700010BD000000000140F0B501F00F04CD0600
:10F6800002D5042A18D01443002501225FF00F0789
:10F6900002FA05F61E421AD006684FEA850C07FAF0
:10F6A0000CFE26EA0E0604FA0CFE4EEA060E282987
:10F6B00008D0482908D008E0C26B44F003041A437C
:10F6C000C263E1E7436100E00361C0F800E06D1C44
:10F6D000ADB2082DDCD3082502FA05F61E4216D07D
:10F6E00046684FEA850EAEF1200E07FA0EFC26EAB8
:10F6F0000C0604FA0EFC4CEA060C282902D0482914
:10F7000002D002E0436100E00361C0F804C06D1C58
:10F71000ADB2102DE0D3F0BD8068084000D00120CC
:10F72000704700001FB540F2047000F05DFC174CFC
:10F73000204602F025F81620ADF8000000211448FC
:10F74000ADF80210ADF80410007B4FF47A72052872
:10F750000FD2DFE800F00E0306090C0040F214524D
:10F7600007E04FF4966204E040F24C4201E040F2C0
:10F770001A424FF48070ADF80C008DF80E10029212
:10F780006946204602F042F81FBD0000001000400C
:10F790007022002003490878FF2801D1002008705A
:10F7A00070470000440000200EB5802200B109B16E
:10F7B00010460AE001780129FAD101A900F034F8D5
:10F7C000042801D0002000E01020DDE9011203B080
:10F7D00000BD70B50D46040003D012B92078012891
:10F7E00001D0802070BD204600F0ECFD28B12946F4
:10F7F000204600F044F8002070BD812070BD10B597
:10F8000000F05EFD10B10178022901D0802010BD0A
:10F810004188A1F57F42FF3A03D000F037F800207D
:10F8200010BD812010BD000010B50446808900285D
:10F8300024D0608904EB800000690860606840B1F2
:10F840006078022805D10021204601F003F800F07D
:10F85000F1FF04F10C0000BFD0E85F1F491E8AB21F
:10F86000C0E8512F0029F7D16089401C80B2608127
:10F87000E189884201D100206081042010BD10B5CB
:10F8800000F0E8FFBDE8104000F0D4BF10B5002143
:10F8900000F0E0FFBDE8104000F0CCBF70B5184E9E
:10F8A0003046FDF796F8174C4FF41655206028B9EE
:10F8B0002946002230462560FDF7B8F8124E304642
:10F8C000FDF787F8606028B9294600223046656058
:10F8D000FDF7ACF80D48FDF77CF820730C48FDF7F8
:10F8E00078F820810B48FDF774F860730A48FDF73B
:10F8F00070F8E0720948FDF76CF8A07270BD000066
:10F9000000E003087022002000E8030800C003089C
:10F9100000D0030800C8030800D8030800B8030893
:10F920000024204600F05CFA00F0A2F84FF47A754B
:10F93000284600F091F84FF41066304600F0E0FAE7
:10F94000304600F0EBFA0128FAD106218002FFF7D9
:10F95000B9FDFFF7DFFDFFF7E5FDFDF7C1F900F0A9
:10F9600099F80C4E4FF41677284600F075F8FFF71B
:10F97000D1FD707E01280AD1B4FBF7F007FB1040DF
:10F9800028B909210320FEF76BFA641CA4B200F029
:10F9900089F9E9E75422002000F01F02012191407B
:10F9A0004009800000F1E020C0F88011704700009D
:10F9B000F0B5234B0646002518680F462C46C0F3C9
:10F9C000022007281AD01868C0F30220062817D092
:10F9D0001868C0F3022005280DD01868C0F3022073
:10F9E000042810D01868C0F3022003280ED04FF46A
:10F9F000A06000F027F802252C4608E0042406E069
:10FA00000125032403E00325012400E00425C5F1BA
:10FA100004008740C4F104010F20C840104038435F
:10FA200006F1E021000181F8000406F01F01012029
:10FA300088407109890001F1E021C1F80001F0BDA1
:10FA40000CED00E0024908430249086070470000DD
:10FA50000000FA050CED00E0EFF3058109B182200A
:10FA60007047DFF808C000DF70470000731101081D
:10FA7000EFF3058008B182207047EFF31480C007D0
:10FA800003D0DFF80CC000DF704701F07BBB000043
:10FA90008511010888B0EFF3058010B1822008B00D
:10FAA0007047EFF3148010F00301134806D00129CA
:10FAB0001BD0022911D0032919D113E008A981F321
:10FAC00009880078C0070BD05FF0020080F314882B
:10FAD000BFF34F8FBFF36F8F09E00078C00706D1E7
