:020000040800F2
:10A00000505E00208DA3000895A3000897A30008C8
:10A0100099A300089BA300089DA30008000000006E
:10A020000000000000000000000000005DA2000829
:10A03000A1A300080000000015A3000879A30008F0
:10A04000A7A30008A7A30008A7A30008A7A30008C8
:10A05000A7A30008A7A3000811AF0008A7A3000842
:10A06000A7A30008A7A30008A7A30008A7A30008A8
:10A07000A7A30008A7A30008A7A30008A7A3000898
:10A08000A7A30008A7A30008A7A30008A7A3000888
:10A09000A7A30008CDAC0008A7A30008A7A3000849
:10A0A000A7A30008A7A30008A7A30008A7A3000868
:10A0B000A7A30008A7A30008A7A30008A7A3000858
:10A0C000A7A30008A7A30008A7A30008A7A3000848
:10A0D000A7A3000889BD0008A7A30008A7A300083C
:10A0E00015AF0008A7A30008A7A30008A7A30008AE
:10A0F000A7A30008A7A30008A7A30008A7A3000818
:10A10000A7A30008A7A30008A7A30008A7A3000807
:10A11000A7A30008A7A300088DBC0008D1BC0008B5
:10A12000A7A30008A7A30008A7A30008A7A30008E7
:10A1300000F002F800F03CF80AA090E8000C82441D
:10A140008344AAF10107DA4501D100F031F8AFF2FA
:10A15000090EBAE80F0013F0010F18BFFB1A43F005
:10A1600001031847D45D0000F45D0000103A24BFDD
:10A1700078C878C1FAD8520724BF30C830C144BF6C
:10A1800004680C60704700000023002400250026AE
:10A19000103A28BF78C1FBD8520728BF30C148BF4A
:10A1A0000B6070471FB505F0A5FB1FBD10B510BDB6
:10A1B00000F0C4FA1146FFF7F5FF0FB400F00CF8F9
:10A1C0000FBC02F001FD00F07CF903B4FFF7EEFFD5
:10A1D00003BC00F0ADFA000004B002F0DFFD04485B
:10A1E000002102F0D3FE02F0EBFD00F06AF900005E
:10A1F000DCFE000880F309887047EFF309807047A0
:10A20000684680F3098804480078C00714BF02201C
:10A21000032080F3148870479CFE0008DFF818C004
:10A22000EFF305831B0618BF6047EFF31483DB07CA
:10A2300008BF604700DF7047A5D30008DFF818C0EB
:10A24000EFF305831B0618BF6047EFF31483DB07AA
:10A2500008BF604700DF704789D50008EFF3098029
:10A26000816911F8021CE1BB90E80F1010B5E047BE
:10A27000BDE81040EFF3098C8CE80700214B93E810
:10A280000600914208BF704741B91EF0100F16D169
:10A290001D49086820F00100086010E01EF0100F52
:10A2A00006BF2CED108A0120002081F825002CE942
:10A2B000F00FC1F828C00CB403F0AAFD0CBC1A6062
:10A2C000D2F828C0BCE8F00F92F8250000280EBF95
:10A2D0006FF0020E6FF0120EBCEC108A8CF309883E
:10A2E000704710B5094A1268914209D8084C54F8D1
:10A2F000214090E80F10A047EFF3098C8CE80F0085
:10A3000010BD00008C00002034EF00E088A700089A
:10A3100088A7000810B503F003FCBDE81040154BFA
:10A3200093E80600914208BF7047EFF3098C1EF0D6
:10A33000100F06BF2CED108A0120002081F82500A7
:10A340002CE9F00FC1F828C00CB403F061FD0CBC7F
:10A350001A60D2F828C0BCE8F00F92F82500002857
:10A360000EBF6FF0020E6FF0120EBCEC108A8CF371
:10A37000098870478C00002010B503F011FECCE76F
:10A3800010B502F085FE03F00BFEC6E709488047D2
:10A3900009480047FEE7FEE7FEE7FEE7FEE7FEE7C7
:10A3A000FEE7FEE7FEE7FEE704480549054A064BDF
:10A3B000704700003DBC000831A100085056002045
:10A3C000505E0020505A0020505A0020004870472C
:10A3D000EC55002053EA020C00F069802DE9F04BA7
:10A3E0004FF00006002B1FBFB3FA83F503FA05F404
:10A3F00024FA05F65E4012BF1643B2FA82F502FA5D
:10A4000005F4C5F120051EBF22FA05FC44EA0C0440
:10A41000203556EA044C4FEA144418BF641C4FF030
:10A4200000084FF00009904271EB030C39D300296A
:10A4300019BFB1FA81F701FA07F6B0FA80F700FA0E
:10A4400007F6C7F120071EBF20FA07FC46EA0C06F4
:10A450002037B6FBF4FCA7EB0507103F07F01F0BF6
:10A46000CBF120060CFA0BFB2CFA06F644BFB346E0
:10A470000026202FA4BF5E464FF0000B5BEA060CBF
:10A4800008BF4FF0010B19EB0B09ABFB027C48EB4B
:10A490000608C01B06FB02CC0BFB03CC71EB0C01C6
:10A4A000C1E70B46024641464846BDE8F08B13B56E
:10A4B0004FF000004FF00001AFF30080BDE81C40FA
:10A4C000704710B50446AFF300802046BDE8104049
:10A4D000FFF77BBE10B5431C02E010F8011B71B101
:10A4E0008107FAD14FF0013202C88C1A8C4314EA6A
:10A4F000C211F9D0C01A0A0603D0C01E10BDC01A7E
:10A5000010BD0A0401D0801E10BD0902FCD0401EFF
:10A5100010BD40EA010370B59B072ED14FF0013604
:10A52000042A2AD308C810C99D1B9D43121F15EA8F
:10A53000C61517D0D8B2E1B2401A50EA056110D161
:10A5400098B2A1B2401A50EA05410AD123F07F40E7
:10A5500024F07F41401A50EA052102D1180EA0EBE9
:10A56000146070BDA342DBD018BA21BA884201D969
:10A57000012070BD4FF0FF3070BD0AB9002070BDE2
:10A5800010F8013B11F8014B63B1A3420AD1521EEE
:10A5900008D010F8013B11F8014B1BB1A34201D1C7
:10A5A000521EEDD1181B70BD032A40F2308010F00E
:10A5B000030C00F0158011F8013BBCF1020F62445E
:10A5C00098BF11F801CB00F8013B38BF11F8013BEF
:10A5D000A2F1040298BF00F801CB38BF00F8013B9C
:10A5E00011F0030300F07180083AC0F0088051F8C0
:10A5F000043B083A51F804CBA0E80810F5E7121D17
:10A600005CBF51F8043B40F8043BAFF30080D20735
:10A6100024BF11F8013B11F801CB48BF11F8012B01
:10A6200024BF00F8013B00F801CB48BF00F8012B24
:10A6300070474FF000020429C0F0128010F0030CA4
:10A6400000F01B80CCF1040CBCF1020F18BF00F825
:10A65000012BA8BF20F8022BA1EB0C0100F00DB8D4
:10A660005FEAC17C24BF00F8012B00F8012B48BF32
:10A6700000F8012B70474FF0000200B513469446D6
:10A680009646203922BFA0E80C50A0E80C50B1F14A
:10A690002001BFF4F7AF090728BFA0E80C5048BF5E
:10A6A0000CC05DF804EB890028BF40F8042B08BFFC
:10A6B000704748BF20F8022B11F0804F18BF00F8F8
:10A6C000012B704770477047704710B5203AC0F0B3
:10A6D0000B80B1E81850203AA0E81850B1E81850A3
:10A6E000A0E81850BFF4F5AF5FEA027C24BFB1E8E0
:10A6F0001850A0E8185044BF18C918C0BDE8104051
:10A700005FEA827C24BF51F8043B40F8043B08BF59
:10A710007047D20728BF31F8023B48BF11F8012B20
:10A7200028BF20F8023B48BF00F8012B704700000B
:10A7300001491820ABBEFEE7260002007546FFF770
:10A7400045FEAE4605006946534620F007008546A3
:10A7500018B020B5FFF728FEBDE820404FF00006F6
:10A760004FF000074FF000084FF0000B21F00701F9
:10A77000AC46ACE8C009ACE8C009ACE8C009ACE83C
:10A78000C0098D46704770470000000010B540F2C8
:10A79000026002F0BFFD40F2046002F0BBFD40F237
:10A7A000096002F0B7FD012002F086FC0B230122B4
:10A7B0000021134802F0AEF8002001F049FC114CD2
:10A7C0000021204601F0FCFB01221146204601F049
:10A7D000BEFB4FF460220121204601F01EFC012245
:10A7E0001146204601F0FEFB204601F0F3FB0A2053
:10A7F00002F0C8FA2046BDE8104001F099BB000005
:10A80000001001400024014070B5491E002422467A
:10A810000DE000BF00EB420530F812306E88B34205
:10A8200003D920F812606B800124521CD2B28A42F4
:10A83000F0DB012CEAD070BD2DE9F04187B216485B
:10A840000E46DFF85080C17900252C4628F811709B
:10A85000491CC9B2C171102901D30021C171102155
:10A860000C48FFF7D1FF06204FEA080131F810200D
:10A8700012B1641CE4B21544401CC0B20A28F5D3DE
:10A88000A54204D3B5FBF4F03080BDE8F0813780F9
:10A89000FBE70000360100201800002010B54FF043
:10A8A0008044204604F05DFA092002F06BFA20464D
:10A8B00004F052FA042002F065FA204604F051FA3E
:10A8C000012002F05FFA204604F046FA012002F06F
:10A8D00059FA204604F045FA012002F053FA2046C6
:10A8E00004F03AFA022002F04DFA204604F039FA58
:10A8F000012002F047FA204604F02EFA022002F06E
:10A9000041FA204604F02DFA012002F03BFA2046DD
:10A9100004F022FA022002F035FA204604F021FA6F
:10A92000012002F02FFA204604F016FA012002F06E
:10A9300029FA204604F015FA012002F023FA2046F5
:10A9400004F00AFA012002F01DFA204604F009FA88
:10A95000012002F017FA204604F0FEF9012002F06F
:10A9600011FA204604F0FDF9012002F00BFA20460E
:10A9700004F0F2F9012002F005FA204604F0F1F9A2
:10A98000012002F0FFF9204604F0E6F9022002F06F
:10A99000F9F9204604F0E5F9012002F0F3F9204628
:10A9A00004F0DAF9012002F0EDF9204604F0D9F9BB
:10A9B000012002F0E7F9204604F0CEF9012002F070
:10A9C000E1F9204604F0CDF9012002F0DBF9204640
:10A9D00004F0C2F9012002F0D5F9204604F0C1F9D3
:10A9E000012002F0CFF9204604F0B6F9022002F06F
:10A9F000C9F9204604F0B5F9012002F0C3F9204658
:10AA000004F0AAF9022002F0BDF9204604F0A9F9E9
:10AA1000012002F0B7F9204604F09EF9022002F06E
:10AA2000B1F9204604F09DF9012002F0ABF920466F
:10AA300004F092F9022002F0A5F9204604F091F901
:10AA4000012002F09FF9204604F086F9012002F06F
:10AA500099F9204604F085F9012002F093F9204687
:10AA600004F07AF9022002F08DF9204604F079F919
:10AA7000012002F087F9204604F06EF9012002F06F
:10AA800081F9204604F06DF9012002F07BF920469F
:10AA900004F062F9022002F075F9204604F061F931
:10AAA000012002F06FF9204604F056F9012002F06F
:10AAB00069F9204604F055F9012002F063F92046B7
:10AAC00004F04AF9022002F05DF9204604F049F949
:10AAD000012002F057F9204604F03EF9012002F06F
:10AAE00051F9204604F03DF9012002F04BF92046CF
:10AAF00004F032F9022002F045F9204604F031F961
:10AB0000012002F03FF9204604F026F9022002F06D
:10AB100039F9204604F025F9012002F033F92046E6
:10AB200004F01AF9012002F02DF9204604F019F979
:10AB3000012002F027F9204604F00EF9022002F06D
:10AB400021F9204604F00DF9012002F01BF92046FE
:10AB500004F002F9012002F015F9204604F001F991
:10AB6000012002F00FF9204604F0F6F8022002F06E
:10AB700009F9204604F0F5F8012002F003F9204617
:10AB800004F0EAF8012002F0FDF8204604F0E9F8AC
:10AB9000012002F0F7F8204604F0DEF8022002F06F
:10ABA000F1F8204604F0DDF8012002F0EBF8204631
:10ABB00004F0D2F8012002F0E5F8BDE810401E20B4
:10ABC00002F0E0B870B50421214801F0F3FE214CF9
:10ABD00000250028A07914D0401E092803D8E5706C
:10ABE0002079401C2071A571E078401CC0B2E07053
:10ABF00028281DD921790120012905D0042912D046
:10AC000014E0401CA071EFE71349CA7B012A00D170
:10AC1000CD73124B1E221A70257005226271104AE4
:10AC20001070487402E020700F206071E57025718B
:10AC3000607900280BD0401E607100F02FF8607919
:10AC4000012804D86571BDE8704000F00BB870BDF4
:10AC50000010014000000020C8090020180000205A
:10AC60002C01002010B501F0E3FE012810D03620A1
:10AC700002F028F8074C0121204604F0C1F82046D4
:10AC800004F06AF8A115BDE81040034801F012BEB7
:10AC900010BD0000001000400010014010B501F090
:10ACA000C7FE01280ED001221146362002F016F808
:10ACB000054C0121204604F0A7F82046BDE81040CD
:10ACC00004F04FB810BD00000010004010B50A4C51
:10ACD000084A0121204601F02FFB0648007A10B9EE
:10ACE000044800F025FC2046BDE810404CF2C201AB
:10ACF00001F018BB541A00200064004070B50546EE
:10AD000088B040F2197002F005FB40F2026002F0D8
:10AD100001FB4FF4C06002F0FDFA294C4FF40063D0
:10AD200003224821204601F0F5FDA3140322182137
:10AD3000204601F0EFFD00221146152001F0CEFF64
:10AD4000204E304601F0F0F900248DF814408DF8C3
:10AD5000154004208DF8160003208DF81C40069441
:10AD60008DF81D408DF81700B5F5FA7F02D0FA2D49
:10AD700002D004E00C2000E01820ADF81E0005A968
:10AD8000304601F04BFA0121ADF80A40ADF80C4015
:10AD9000ADF80040ADF80440ADF80E10ADF802403B
:10ADA000ADF80640ADF808108DF81010684601F0B7
:10ADB000CDF91021304601F0B1FA08B070BD0000A5
:10ADC000000801400064004010B50021044802F072
:10ADD000DDF804490028886000D0012010BD000083
:10ADE00078FE00086C00002070B506464FF0FF307A
:10ADF0000022084C0BE0B35C58400023050E5B1C9E
:10AE000054F82550042B85EA0020F7DB521C8A42B7
:10AE1000F1DB70BD78FA000810B502460020054B42
:10AE200004E000BF12F8014B4440185D491EF9D2FE
:10AE300010BD000078F900082DE9F047104E4FF4DE
:10AE4000805500242946304601F036FDDFF8348075
:10AE5000EF103946404601F02DFD4FF47A7948460F
:10AE600001F090FF641C0A2CF9DB2946304601F002
:10AE700021FD39464046BDE8F04701F01DBD000008
:10AE800000100140000C014070B501781D4C01F02C
:10AE9000010104F11C0521740178C1F340016175C1
:10AEA0000178C1F38001A1750178C1F3C00161741B
:10AEB0000178C1F30011A1740178C1F34011E1746C
:10AEC0004178217581786173C17821730279A27309
:10AED00040792076012801D10020E873A87A8842C1
:10AEE00004D0A9720022084800F072F8287BA17BE8
:10AEF000884206D02973BDE870400022034800F064
:10AF000067B870BDAC09002000B8030800C0030892
:10AF10007047000070B54FF40055284601F03EFB25
:10AF20000B4C28B1A1882846491CA18001F030FBB8
:10AF30004FF48045284601F031FB002807D0E18816
:10AF40002846491CE180BDE8704001F021BB70BD7E
:10AF50002C01002010B5002307E000BF50F823406B
:10AF6000FF2C05D8CC545B1C9BB29342F6D310BD8A
:10AF70000020C85410BD006870472DE9F041154607
:10AF80000E460746002401F0B1FA01F0BFFB40F283
:10AF9000053001F055FB4FF4417001F051FB40F2D8
:10AFA000023001F04DFB384601F06CFB48B906E079
:10AFB000315D07EB840001F0C5FB641CA4B2AC4218
:10AFC000F6D301F04BFBBDE8F04101F0A1BA00005F
:10AFD00070B514460D46064601F088FA01F096FB5E
:10AFE00040F2053001F02CFB4FF4417001F028FBDA
:10AFF00040F2023001F024FB304601F043FB28B15F
:10B0000001F02CFBBDE8704001F082BA29463046C1
:10B0100001F098FB01F022FB01F07AFA002C10D02D
:10B020004FF47A7001F0AEFEBFF34F8F0548016810
:10B03000054A01F4E06111430160BFF34F8F00BF87
:10B04000FDE770BD0CED00E00400FA052DE9F041CC
:10B0500040F20464204602F05DF9651E284602F0C5
:10B0600059F9284602F056F9204602F053F92846CD
:10B0700002F050F9204602F04DF9204602F04AF95C
:10B08000204602F047F9214E40230322102130468A
:10B0900001F040FC4021304601F00EFC1C4F4FF403
:10B0A0008044234603221021384601F033FC214618
:10B0B000384601F001FC65102B460322102138466A
:10B0C00001F028FC2946384601F0F6FBA3110322C3
:10B0D0001021304601F01EFC40230322482138464F
:10B0E00001F018FC234603224821304601F012FCEF
:10B0F0002B4603224821304601F00CFC3046BDE8C7
:10B10000F04104230322482101F004BC0010014057
:10B11000000C01400020704770B588B040F202601A
:10B1200002F0F8F84FF4C06002F0F4F801230322B3
:10B130001821224801F0EEFB4FF4E06002F0EAF83B
:10B140004FF08046304603F0CBFD0024012540F24D
:10B150002A60ADF810500690ADF81C40ADF81240D2
:10B16000ADF814408DF81E4004A9304603F0FEFDF2
:10B17000ADF80440ADF808400095ADF80640ADF8D4
:10B180000A40ADF80C406A460021304603F060FCEE
:10B1900040F215320021304603F06BFD60220021A1
:10B1A000304603F03FFD00221146304603F070FDAB
:10B1B000304603F047FC08B070BD000000080140B5
:10B1C0002DE9F04140F20264204602F0A3F8204647
:10B1D00002F0A0F82C4C022303221021204601F09B
:10B1E00099FB0221204601F065FB01230322102177
:10B1F000204601F08FFB0121204601F05BFB40F26D
:10B200000466304602F086F8371F384602F082F8AE
:10B210001E4D6414234603220421284601F07AFBC4
:10B2200000220221282001F059FD0D21022001F009
:10B2300045FB01220021204601F076F9204601F06D
:10B24000A7F9304602F066F8384602F063F8640069
:10B25000234603220421284601F05CFB0022022140
:10B26000282001F03BFD0E21022001F027FB0122E6
:10B270000021204601F058F9204601F089F9BDE887
:10B28000F041FFF749BF00000008014000100140F5
:10B2900010B501F051FC00F06BFB00F09DFA00F0DE
:10B2A00005F8BDE81040FFF78FBD000010B5FFF7AF
:10B2B000CDFE01F085FB002201210F4801F09AFE2E
:10B2C0000E4C606110B1962101F0AAFE0A480122DD
:10B2D0001146083001F08EFE206138B1322101F0B4
:10B2E0009FFE18B1012106A000F0C4FA0221BDE8BA
:10B2F0001040032000F092BC00F90008000000207C
:10B300004572726F72212053746172742042757499
:10B31000746F6E2054696D65720000002DE9F04174
:10B32000674F6848684C397C002511B1012905D068
:10B3300009E0022101F0BEFA657004E001216170AC
:10B34000022101F0B9FA614E614C707D10B1012803
:10B3500021D110E0307D48B1B07D012814D0A08902
:10B3600090B1022810D0042812D10DE0A08958B164
:10B3700002280DD108E0208908280CD2DFE800F06F
:10B380000408040804080408002000F0BBF802E0E8
:10B39000002000F0A1F84F4800780128307C03D04D
:10B3A000A8B1012816D105E001280CD12089012877
:10B3B0000DD008E0208908280CD2DFE800F008044E
:10B3C000080408040804012000F086F802E00120C7
:10B3D00000F098F8707C50B101280FD1208908281E
:10B3E0000CD2DFE800F00408040804080408022076
:10B3F00000F088F802E0022000F06EF8387B98B385
:10B40000334EF61D3078072842D2DFE800F0042ED4
:10B41000141A232E3600207830BB00BFFFF722FC21
:10B4200036E0032834D102E0FFF738FC30E0FFF7C4
:10B4300019FC35702CE060890028F5D0012819D15D
:10B44000ECE7A0890721B0FBF1F201FB1200002814
:10B45000EAD0E3E7A0890028E6D00228E4D0042857
:10B46000E2D00628E0D0D9E712E060890028DBD0DE
:10B470000128D9D00228D7D0D3E76089062807D27F
:10B48000DFE800F0050405040503D0E7C6E7CBE7D5
:10B490002089401C20816089401C6081A089401C5B
:10B4A000A081A089502800D9A5812089072800D92A
:10B4B00025816089072800D96581BDE8F0810000F9
:10B4C000C8090020000801402C010020AC09002020
:10B4D000000000202400002040B1084A012808D0C4
:10B4E000022809D10103104601F0E4B940210448C3
:10B4F000FAE74FF48041F6E770470000000C014086
:10B500000010014040B1084A012808D0022809D1A2
:10B510000103104601F0D0B940210448FAE74FF486
:10B520008041F6E770470000000C01400010014028
:10B530002DE9F041714C0027DFF8C48184F8487090
:10B540000126054684F8406098F8020001281ED1C3
:10B55000E87A212802D022280AD018E06748E96852
:10B56000283840F87B1F298A8180A97C81710EE0F0
:10B570006248E9685830C0F80210298AC180A97C65
:10B58000017288F8027088F8006088F80160A87B72
:10B59000F12802D1E97B90290BD0697BF12915D0E4
:10B5A000F02932D0FA293CD033294DD0DD2969D099
:10B5B0006CE05248297C50300170697C4170A97C54
:10B5C000817088F8026000F037FC5FE0212802D02B
:10B5D00024280BD05AE0697C61F30700297C61F3D1
:10B5E0000F20E97B61F31740606109E0697C61F33A
:10B5F0000700297C61F30F20E97B61F31740A0610C
:10B6000084F8487084F8406040E0262802D027285B
:10B6100003D03BE0287C206238E0287C84F83800A6
:10B6200034E0C12832D1287C20713648297C827AC6
:10B63000914201D9267000E0277084F8487084F8A0
:10B6400040600521C17221E0362804D037280BD094
:10B650003B2810D01AE084F84960E87B122801D01A
:10B66000E77013E0E67011E0E87B122801D0677004
:10B670000CE066700AE0E87B202801D0A77005E0A6
:10B68000A67003E0092801D1E87B20722868A0F5A4
:10B69000C061293920D1A87B302806D1E87B072852
:10B6A00003D100F0ADFB88F80360E87A212813D1BC
:10B6B00098F8031001290FD1298ADFED130A00EE53
:10B6C000101AB8EE400A20EE200ABCEEC00A10EEB6
:10B6D000101A217288F8037094F849100B48012958
:10B6E00002D00772BDE8F0812178E27863781143D7
:10B6F000A2781A4311430172F4E70000681A00208F
:10B700006C000020C80900200000803C2C010020B3
:10B710002DE9F04140F20464204601F0FBFD651E76
:10B72000284601F0F7FD204601F0F4FD204601F027
:10B73000F1FDA01E01F0EEFD284601F0EBFD234EC9
:10B740004FF40064234603221021304601F0E2F852
:10B750002146304601F0B0F81D4F64002346032215
:10B760001021384601F0D6F82146384601F0A2F8FB
:10B77000E410234603221021384601F0CBF821467D
:10B78000384601F097F8A5012B46032210213846D0
:10B7900001F0C0F82946384601F08CF80D4D02231F
:10B7A00003221021284601F0B5F80221284601F0B5
:10B7B00081F8234603221021304601F0ABF82146E0
:10B7C0003046BDE8F04101F077B80000000C0140C0
:10B7D000001001400008014010B500210B4801F0A5
:10B7E000D5FB0B4C002820610FD0084800211030F9
:10B7F00001F0CCFB6061002807D0FEF7C7FFFFF720
:10B8000087FFBDE81040FFF7DBBC10BD10F9000852
:10B81000180000202DE9F0410A4E0D4607464FF072
:10B82000FF31306A01F0A6FB002404E0385D00F02F
:10B830001BF8641CA4B2AC42F8D3306ABDE8F041F6
:10B8400001F08CBB3800002070B50D460646FFF7AE
:10B85000E3FA044629463046FFF7DCFF2046BDE800
:10B86000704000F001B800000146014800F064BAE1
:10B87000003801402DE9F0410D4680460024FEF7D6
:10B8800029FE144F86B2611E386A01F073FB05E091
:10B8900018F80400FFF7E8FF641CA4B2B442F7D321
:10B8A000042D08D2DFE805F0020410140D2000E09A
:10B8B0000A20FFF7D9FF4FF4967001F063FA386A57
:10B8C000BDE8F04101F04ABB0D20FFF7CDFFEFE7E7
:10B8D0001A20EEE73800002010B540F2026420463E
:10B8E00001F018FD204601F015FD40F20E6001F058
:10B8F00011FD1D4C4FF4007303221821204601F066
:10B9000009F8231503220421204601F003F8174CFF
:10B91000204603F0BFFA4FF46131204603F086FA67
:10B920000021204603F014FB0021204603F02CFBED
:10B930000021204603F01AFB0421204603F010FBEF
:10B940000821204603F01AFB204603F0CFFA00221C
:10B950001146252001F0C2F92046BDE8104040F212
:10B96000053103F0D3BA000000080140003801405F
:10B9700010B50121174801F0DBFA174C00212062B5
:10B980001448001D01F0A6FAE060124800210C30B6
:10B9900001F066FA206100281BD00E480021183003
:10B9A00001F0F4FA6061002813D00A480021283021
:10B9B00001F0ECFAA06100280BD0064800213830D5
:10B9C00001F0E4FAE061002803D0BDE81040FFF781
:10B9D00083BF10BD30F90008380000202DE9F04188
:10B9E000054600783E265E4C3E2824D011225DA1FB
:10B9F0002846FEF78EFD00287ED008225EA128464C
:10BA0000FEF787FD002878D006225EA12846FEF7C3
:10BA100080FD002872D006225CA12846FEF779FD41
:10BA200000286CD104215BA0FFF70EFFBDE8F041B8
:10BA3000052000F055BD6A7858484FF4FA77062A79
:10BA40005DD2DFE802F08A038A8A082AA81CBDE8D2
:10BA5000F041FFF719BA6A88091F54BA8C427CD1A9
:10BA6000BC427AD222463E490746FFF773FA211FAD
:10BA7000281DFFF7B9F90646211F3948FFF7B4F929
:10BA8000864207D02246291D3846FFF776FA012163
:10BA900043A03EE0012148A03BE0698826704DBAF2
:10BAA0000B216170291D8AB24949FFF753FA2946D3
:10BAB0004748FFF799F9464A12FA85F1098849BAC9
:10BAC0000B0412FA85F1897843EA012112FA85F212
:10BAD000D278114388421AD1A01C2A1D3C49FEF796
:10BAE00063FDAD1DADB229461D48FFF795F96055C0
:10BAF0006D1CA9B21A4803E00FE019E024E02CE025
:10BB0000FFF788FE3846BDE8F04101F03BB901215E
:10BB100030A0BDE8F041FFF7ADBE04211DA0FFF746
:10BB200093FEBDE8F041012211463248FFF750BABA
:10BB3000267066705620A0707120E070BDE8F0415C
:10BB400004210748FFF780BE042112A0FFF77CFE06
:10BB5000BDE8F041052000F0D5BCBDE8F081000053
:10BB60001C0C002047445F474F544F5F424F4F54D7
:10BB70005F4D4F444500000056455253494F4E3FDC
:10BB8000000000005245424F4F5400004241544FC4
:10BB9000464600003E3E4F4B0000000000D0030828
:10BBA00023232353544F52455F464C4153485F442F
:10BBB00041544123232300002323234441544120A3
:10BBC0004E4F204348414E474523232300000000A9
:10BBD0001C0E00202A2A2A494E56414C4944204333
:10BBE00052432046524F4D20464C4153482A2A2A60
:10BBF0000000000000F80308074A064B91885854DB
:10BC0000491C88B29080B0F5007F01D3002090805D
:10BC100070470000DC0900203800002000280AD00E
:10BC2000012808D0022806D0032804D1024A0020A7
:10BC30005081D01D01707047000000200F4810B5E2
:10BC4000016841F4700101600D48016841F0010193
:10BC5000016000214160C16201680A4A114001602F
:10BC60004FF41F018160016821F48021016002F01E
:10BC70008DFE024904488039086010BD88ED00E05F
:10BC800000100240FFFFF6FE00A0000810B50D4CAA
:10BC90000121204603F0C0F800280DD001212046E4
:10BCA00003F0B6F8084C09484FF48071A27822B12D
:10BCB00000F002FE0020A07010BD00F0FBFD01208E
:10BCC000F9E70000001000400000002000100140D3
:10BCD00010B5174C0121204603F09EF8002826D00D
:10BCE0000121204603F094F812480188491C018084
:10BCF00002884EF6602300219A4201D90180C1607A
:10BD00000269521C0261026943F698239A4202D9E1
:10BD10000161C16081604269521C4261426940F226
:10BD2000E7339A4203D3826982608161416110BD29
:10BD300000140040100100202DE9F0410E46074696
:10BD400001F074F804460E484CF250314CF2503277
:10BD5000008848430B490988514300EB21450721DE
:10BD6000384603F0C8F820B901F060F8001BA8427B
:10BD7000F5D331463846BDE8F04103F087B80000FE
:10BD800094FE000896FE000810B50C4C0A492046A7
:10BD900003F0C7F800280DD0204603F073F8C1B2B5
:10BDA00007488170C068002804D0BDE81040002218
:10BDB00001F0B2B810BD00000503050000380140D5
:10BDC00038000020FFF7AABA30B40B4C08252060D9
:10BDD0000020606060722072A5720325E5722173F5
:10BDE0006273A373E07320746074A074214630BC46
:10BDF000024800F0E9BA0000401A00200064004048
:10BE00000B4840F2A96108220160002141604172A3
:10BE1000017282723022C2720173012242738173F5
:10BE2000C1730174417481740146024800F0CCBAB8
:10BE3000401A0020006400400B4840F28161082253
:10BE40000160002141604172017282723023C3722D
:10BE50000273F12242738173C1730174417481745E
:10BE60000146024800F0B0BA401A002000640040C9
:10BE700000280DDB00F01F020121914040098000E5
:10BE800000F1E020C0F88011BFF34F8FBFF36F8F38
:10BE90007047002809DB00F01F0201219140400992
:10BEA000800000F1E020C0F80011704710B5002AB2
:10BEB00006DA22F00042D21D22F00703102203E02E
:10BEC000D21C22F003030C2213B19C188C4201D91E
:10BED000012010BD024401448360C0E90021C91A59
:10BEE000D018884202D810600246F9E7002010609E
:10BEF00010BD000005490978002905D000684FF6FB
:10BF0000FF71DFF80CC000DF7047000085000020E3
:10BF1000A9DA000804490978002903D00068DFF88D
:10BF20000CC000DF7047000085000020D1D9000858
:10BF3000816841F00801816081680907FCD481684B
:10BF400041F00401816081684907FCD47047120503
:10BF5000A2F5801201290BD0022908D1816B21F4AE
:10BF60004011816302F44011826B11438163704779
:10BF7000C16A21F47001C16202F47001C26A114306
:10BF8000C162704710B50D4C0246012300212046C6
:10BF900000F06AF80121204600F0A8F802212046AE
:10BFA00000F04FF80028F9D00221204600F045F8B3
:10BFB0002046BDE8104000F096B800000024014083
:10BFC0000029816802D041F4006101E021F40061A0
:10BFD000816070478168C90703D1816841F0010120
:10BFE00081607047002A4FEAC1720AD01AB1826894
:10BFF00042F48012826089070ED5816841F40041C5
:10C0000009E01AB1826822F480128260890703D5A0
:10C01000816821F4004181607047012909D002291B
:10C0200006D1816821F4E04181608168114381601B
:10C030007047816821F46021F6E702688A43026054
:10C0400070470246002012680A4200D00120704763
:10C0500004490A6822F470220A600A6802430A60EE
:10C06000704700000424014070B51F24062909D23E
:10C07000456B01EB8106B440A54302FA06F1294362
:10C08000416318E00C290AD2056B891F01EB81017D
:10C090008C40A54302FA01F42C4304630BE0102901
:10C0A00009D2C56A0C3901EB8106B440A54302FAF6
:10C0B00006F12943C16207240A2A08D2016902EB6A
:10C0C00042029440A14393400B43036170BD122A86
:10C0D000FCD2C1680A3A02EB42029440A143934069
:10C0E0000B43C36070BDC06C80B27047CA0703D0F9
:10C0F000826842F480028260890703D5816841F436
:10C1000000118160704730B5002308E0C45CCD5C4D
:10C11000AC4202D04FF0FF3030BD5B1C9BB293426B
:10C12000F4D3002030BD0000074910B5884209D182
:10C1300040F21944204601F009F92046BDE81040BC
:10C1400001F0F6B810BD000000640040F0B5827A3E
:10C15000012191402F4A136843F0010313602D4BD6
:10C160001C331C688C431C602A4DC6892A4C0C3534
:10C17000B6B92E688E432E60C68847883604C7EA53
:10C180000606478904EBC707C7F840668688078814
:10C190003604C7EA0606478904EBC707C7F84466B2
:10C1A000C689012E16D12E680E432E60058846885A
:10C1B0002D04C6EA0505468904EBC606C6F84056B6
:10C1C0008588C6882D04C6EA0505468904EBC604A1
:10C1D000C4F844560F4C8589241D002D25680DD0C8
:10C1E0000D4325600B4C05891434002D256807D0BC
:10C1F0000D432560007C012804D006E08D43F0E764
:10C200008D43F6E7186808431860106820F00100B5
:10C210001060F0BD006600400060004070B54FF651
:10C22000FF7305681A46002425F0020505600568BD
:10C2300045F00105056000E0521E4568ED0701D19B
:10C24000002AF9D14268D20748D04A784FF04075A9
:10C2500005EA02620D784FF4702642EA85728D7805
:10C2600006EA05452A43CD784FF4E00606EA05556F
:10C270002A434D896D1EC5F309052A43C2610A7917
:10C28000012A02682CD022F0800202604A79012A39
:10C29000026828D022F0400202608A79012A0268EE
:10C2A00024D022F020020260CA79012A026820D03C
:10C2B00022F0100202600A7A012A02681CD022F0E1
:10C2C00008020260497A0129016818D021F00401AE
:10C2D0000160016821F00101016014E000241BE00D
:10C2E00042F08002D1E742F04002D5E742F020025E
:10C2F000D9E742F01002DDE742F00802E1E741F041
:10C300000401E5E75B1E4168C90701D0002BF9D1A4
:10C310004068C00700D00124204670BD42690A432E
:10C320004261704700EB11300268C1F384130121B0
:10C3300099400A430260704710B500EB0113D3F82F
:10C34000B04114F004041472D3F8B04134D0E408BE
:10C35000C2F80440D3F8B04104F002045472D3F898
:10C36000B44104F00F049472D3F8B441240AD47495
:10C37000D3F8B841D472D3F8B841240A1473D3F86F
:10C38000B841240C5473D3F8B841240E9473D3F8F5
:10C39000BC41D473D3F8BC41240A1474D3F8BC4113
:10C3A000240C5474D3F8BC311B0E937439B1016959
:10C3B00041F02001016110BD640D1460CAE7C1683D
:10C3C00041F02001C16010BD30B5024600209368E5
:10C3D0005B0108D49068000101D5012003E090685A
:10C3E000C00041D5022002EB0012D2F8803103F0E8
:10C3F0000103C2F880310B7AABB3D2F880414D68AB
:10C400001C434B7A43EAC5031C43C2F8804100BF7A
:10C41000D2F8843123F00F03C2F88431D2F884318A
:10C420008C7A2343C2F88431CB7A8C7B0D7B43EA30
:10C4300004634C7B240444EA05242343C2F8883176
:10C44000CB7B8C7C43EA04634C7C097C240444EA67
:10C4500001210B43C2F88C31D2F8801141F0010167
:10C46000C2F8801130BD01E00320FBE7D2F8803133
:10C470004C7A23430C8843EA4453C2F88031C7E71F
:10C4800008480068C0010BD507480068C00707D0FE
:10C49000054880380068002802DA04490120087045
:10C4A00070470000FCED00E0800E00E0A8000020D6
:10C4B0004FF06042D36F002BFCD0036BD367D36F78
:10C4C000002BFCD0C07840EA0120A2F87C00704725
:10C4D0004FF06041CA6F002AFCD081F87C007047A1
:10C4E00001498870704700001800002010B5252011
:10C4F000FFF7BEFC2620FFF7BBFCBDE81040342050
:10C50000FFF7B6BC014948707047000018000020D2
:10C5100010B52520FFF7BDFC2620FFF7BAFCBDE8CB
:10C5200010403420FFF7B5BCF0B5184D2B6883439D
:10C530002B602E1D336883433360331D1C68844396
:10C540001C601C1D27688743276011B1012907D192
:10C5500003E029680143296002E03168014331604A
:10C5600052B1012A0ED0022A05D11968014319607F
:10C57000216801432160F0BD1968014319602168F9
:10C580008143F7E719688143F1E7000000040140A7
:10C590000149086070470000140401400649096819
:10C5A000064A0142126802EA000202D00AB10120E2
:10C5B000704700207047000014040140000401404F
:10C5C00000B5034600F008F85B1E012802D1002BDD
:10C5D000F8D1042000BD000008490020CA68D20735
:10C5E00001D001207047CA68D20601D503207047E8
:10C5F000C9684907FBD502207047000000200240AF
:10C6000000B5034600F008F85B1E012802D1002B9C
:10C61000F8D1042000BD000008490020CA6CD207F0
:10C6200001D001207047CA6CD20601D503207047A3
:10C63000C96C4907FBD5022070470000002002406A
:10C64000054901EB90110A6800F01F030120984092
:10C6500002430A6070470000002002400748016959
:10C6600041F08001016106490988B1F5007F03D9D5
:10C67000016D41F08001016570470000002002401B
:10C68000E0F7FF1F70B505461D481E4C4FF470269D
:10C690000088B0F5007F02D91B48854215D230468C
:10C6A000FFF78EFF00280FD1206940F002002061C3
:10C6B0006561206940F0400020613046FFF780FF4F
:10C6C000216921F00201216170BD3046FFF798FF1A
:10C6D0000028F9D1206D40F0020020656565E06911
:10C6E000800700D56561206D40F040002065304630
:10C6F000FFF786FF216D21F00201216570BD00006A
:10C70000E0F7FF1F00200240FFFF0708094801690A
:10C71000094A0B06094901D542604160084B1B8854
:10C72000B3F5007F04D9036D1B0601D54264416453
:10C73000704700000020024023016745AB89EFCD20
:10C74000E0F7FF1FF0B505461748184C0E46008865
:10C750004FF47027B0F5007F02D91548854211D2F9
:10C760003846FFF72DFF00280BD1206940F001006B
:10C7700020612E603846FFF723FF216921F0010177
:10C780002161F0BD3846FFF73BFF0028F9D1206D4D
:10C7900040F0010020652E603846FFF731FF216D23
:10C7A00021F001012165F0BDE0F7FF1F00200240EC
:10C7B000FFFF070830B5124A104B45F255551C468D
:10C7C0001560D568641E05F0010502D0002DF8D172
:10C7D00000E04DB95160D1685B1E01F0020102D04A
:10C7E0000029F8D102E009B1002030BDC0F30B00F0
:10C7F00090604AF6AA201060012030BDFFFF0F00B4
:10C800000030004002494AF6AA2008607047000044
:10C810000030004002494CF6CC40086070470000F0
:10C8200000300040F8B50020ADF800000A20FFF706
:10C83000A9FB40F6E441484340F6FF75B0FBF5F034
:10C840001749184C484343F2C82190FBF1F020806F
:10C85000208800F52F7020800B20FFF793FB40F617
:10C86000E4414843B0FBF5F04FF4FA51484340F639
:10C87000E44690FBF6F0E0800D20FFF783FB69466D
:10C88000FDF7DAFFBDF8000031464843B0FBF5F094
:10C8900080B241F27C514843B0FBF6F06080F8BDB5
:10C8A00068B90100FC0000200148007870470000D2
:10C8B00007000020416170470161704710B58A0789
:10C8C000140F0F23A340124AA040042906D29168F6
:10C8D0009943916091680143916010BD082906D287
:10C8E000D1689943D160D1680143D16010BD0C2952
:10C8F00006D211699943116111690143116110BD9B
:10C9000051699943516151690143516110BD000062
:10C9100000000140F0B501F00F04CD0602D5042A55
:10C9200018D01443002501225FF00F0702FA05F624
:10C930001E421AD006684FEA850C07FA0CFE26EA5A
:10C940000E0604FA0CFE4EEA060E282908D04829E5
:10C9500008D008E0C26B44F003041A43C263E1E765
:10C96000436100E00361C0F800E06D1CADB2082D2A
:10C97000DCD3082502FA05F61E4216D046684FEAB7
:10C98000850EAEF1200E07FA0EFC26EA0C0604FA1C
:10C990000EFC4CEA060C282902D0482902D002E0FD
:10C9A000436100E00361C0F804C06D1CADB2102DFE
:10C9B000E0D3F0BD8068084000D00120704700003F
:10C9C0001FB540F2047000F0A5FC174C204602F0A1
:10C9D00087F91620ADF8000000211448ADF80210C8
:10C9E000ADF80410007B4FF47A7205280FD2DFE80F
:10C9F00000F00E0306090C0040F2145207E04FF459
:10CA0000966204E040F24C4201E040F21A424FF4D8
:10CA10008070ADF80C008DF80E1002926946204629
:10CA200002F0A4F91FBD000000100040C80900205A
:10CA300003494878FF2801D1002048707047000062
:10CA4000000000200EB5802200B109B110460AE0B6
:10CA500001780129FAD101A900F034F8042801D0A5
:10CA6000002000E01020DDE9011203B000BD70B528
:10CA70000D46040003D012B92078012801D080208F
:10CA800070BD204600F052FE28B12946204600F035
:10CA900044F8002070BD812070BD10B500F0C4FDC9
:10CAA00010B10178022901D0802010BD4188A1F584
:10CAB0007F42FF3A03D000F037F8002010BD8120FC
:10CAC00010BD000010B504468089002824D060897C
:10CAD00004EB800000690860606840B1607802285B
:10CAE00005D10021204601F069F801F057F804F162
:10CAF0000C0000BFD0E85F1F491E8AB2C0E8512F6A
:10CB00000029F7D16089401C80B26081E1898842A8
:10CB100001D100206081042010BD10B501F04EF855
:10CB2000BDE8104001F03AB810B5002101F046F818
:10CB3000BDE8104001F032B870B520211B48FDF768
:10CB400078FD1B4C112219492046FEF703FA1748BD
:10CB5000FDF7C0FC002511280DD020211348FDF75A
:10CB600068FD1248FDF7B6FC82B210492046FEF778
:10CB700004FA104805701048FEF7FDF90F4CC0B2DA
:10CB80000128A07400D9A5740D48FEF7F4F92073AC
:10CB90000420E0720B48FEF7EEF9C0B2A072143820
:10CBA000832801D32320A07270BD0000B81A002092
:10CBB00000B003086C00002000E00308C809002052
:10CBC00000C0030800B80308002000F09FFA00F03E
:10CBD000E5F84FF47A74204600F0D4F84FF410656D
:10CBE000284600F023FB284600F02EFB0128FAD14E
:10CBF00006218002FFF7DEFDFFF704FEFFF70AFEC5
:10CC0000FEF746FB00F0DCF8A246264C264E274DE8
:10CC1000274FDFF8A0904FF00008504600F0B2F820
:10CC200094F84800401CC0B284F848001E2804D97B
:10CC30001E2084F8480084F84080307808B1401EF7
:10CC40003070A87C40B9687C012805D10121A97405
:10CC500000221948FEF7BCF9387801281DD187F861
:10CC6000008020211548FDF7E4FC112213494846B5
:10CC7000FEF770F9112212491048FFF744FA60B12B
:10CC80000F48FDF727FC112807D10D48FDF722FCBE
:10CC900082B20B494846FEF770F9FFF7B3FD00F08A
:10CCA00097F9BAE7681A002018000020C809002088
:10CCB0006D00002000B0030800E00308AC00002075
:10CCC000B81A002000F01F020121914040098000A5
:10CCD00000F1E020C0F8801170470000F0B5234B50
:10CCE0000646002518680F462C46C0F30220072888
:10CCF0001AD01868C0F30220062817D01868C0F3AD
:10CD0000022005280DD01868C0F30220042810D096
:10CD10001868C0F3022003280ED04FF4A06000F082
:10CD200027F802252C4608E0042406E00125032408
:10CD300003E00325012400E00425C5F10400874039
:10CD4000C4F104010F20C8401040384306F1E0212F
:10CD5000000181F8000406F01F01012088407109DC
:10CD6000890001F1E021C1F80001F0BD0CED00E007
:10CD70000249084302490860704700000000FA05B4
:10CD80000CED00E0EFF3058109B182207047DFF878
:10CD900008C000DF70470000A1E40008EFF3058041
:10CDA00008B182207047EFF31480C00703D0DFF88A
:10CDB0000CC000DF704701F07DBB0000B5E4000847
:10CDC00088B0EFF3058010B1822008B07047EFF310
:10CDD000148010F00301134806D001291BD002294A
:10CDE00011D0032919D113E008A981F3098800782B
:10CDF000C0070BD05FF0020080F31488BFF34F8FA1
:10CE0000BFF36F8F09E00078C00706D10320F3E776
:10CE10000078C00701D0FF20D7E7DFF80CC000DFA3
:10CE2000D3E700009CFE000825E50008EFF305802D
:10CE300008B100207047DFF808C000DF704700002D
:10CE40006DE50008EFF3058212B1012201F014BD77
:10CE50000022DFF808C000DF7047000079E8000812
:10CE6000EFF305820AB100207047EFF31482D20776
:10CE700002D1044A52781AB1DFF80CC000DF7047C3
:10CE800001F090BB84000020A5E50008EFF30582C7
:10CE900012B1012201F01CBD0022DFF808C000DF42
:10CEA00070470000D1E8000810B530B1006800F00C
:10CEB00027F8102800D1202010BD802010BD20B1FF
:10CEC00029B10068002200F027B880207047862032
:10CED00070470000EFF305820AB100207047EFF3BE
:10CEE0001482D20702D1044A52781AB1DFF80CC07A
:10CEF00000DF704701F077BB84000020E7E5000801
:10CF0000EFF305820AB1FFF79DBDDFF808C000DF2F
:10CF1000704700000BE60008EFF305830BB1FFF745
:10CF2000A6BDDFF808C000DF7047000045E6000836
:10CF3000EFF305820AB100207047EFF31482D207A5
:10CF400002D1044A52781AB1DFF80CC000DF7047F2
:10CF500001F093BB840000207BE60008EFF305811D
:10CF600009B1FFF79ABDDFF808C000DF7047000085
:10CF70009FE60008EFF3058212B14FF0FF307047D3
:10CF8000DFF804C000DF7047C7E60008EFF3058252
:10CF90000AB100207047EFF31482D20702D1044A8D
:10CFA00052781AB1DFF80CC000DF704701F0A4BB63
:10CFB00084000020F9E60008DFF80CC000DFDFF88D
:10CFC0000CC000DFFEE7000065E7000881E700080D
:10CFD000EFF3058008B182207047DFF808C000DF5A
:10CFE00070470000B9E70008DFF804C000DF7047B1
:10CFF000C3E70008EFF305830BB100207047EFF3A0
:10D000001483DB0702D1044B5B781BB1DFF80CC043
:10D0100000DF704701F0E2BB84000020DDE700087C
:10D02000EFF305820AB182207047DFF808C000DF05
:10D030007047000015E80008094C4FF0FF352946FD
:10D040002068FFF75DFF02460846102AF7D1FFF778
:10D05000CBFF0028F3D0024608469047EFE70000D8
:10D0600080000020FEE7FEE7074801684FF0E0205F
:10D07000416100218161072101610448016841F09B
:10D080007F4101604017704798FE000820ED00E0E6
:10D090007047000002480068C0F3806070470000DD
:10D0A00004ED00E04FF0E020806902490968081AA9
:10D0B0007047000098FE0008124A10B55168124BE4
:10D0C0001940D36A0C2823F0005317D2DFE800F090
:10D0D00006060606160916091010101041EA8031DE
:10D0E0000CE020F0040041EA803040F0805105E07F
:10D0F00020F00C0041EA803143F000535160D362CC
:10D1000010BD000000100240FF3FFFEF70B537A5D3
:10D1100088B02ECD8DE82E0035A20446D2E900124B
:10D12000CDE9041232A20020D2E90012CDE90612A4
:10D13000324A5168324BC1F3810119B1012901D042
:10D14000022901D019462BE0516801F480352D49A0
:10D15000B5F5803F0AD1D56A15F0804F00D02A4B33
:10D16000556805F40035B5F5003F00D10B46516810
:10D170005568C1F383412D0101D541F01001556877
:10D180006D0001D541F020010F2901D2891C06E074
:10D19000A1F10F052F2D01D8491C00E03F21594373
:10D1A0005368C3F303131DF8035021FA05F35568C0
:10D1B00004AEC5F302255268755D23FA05F5C2F386
:10D1C000C22206AEB25C23FA02F244B1012C08D0AE
:10D1D000022C08D0032C00D1104608B070BD0846C0
:10D1E000FBE71846F9E72846F7E7000000000000D3
:10D1F00000000000010203040607080900100240B5
:10D2000000127A0000093D00006CDC02064A02EBC5
:10D210009011096800F01F0201209040014201D0E6
:10D22000012070470020704700100240054901EBC3
:10D2300090110A6800F01F030120984002430A6021
:10D24000704700000010024070B500234FF40066E4
:10D250002F4D1C46B0421ED005DC58B310280BD011
:10D26000182852D145E0B0F5106F3FD000F57F602F
:10D27000B0F5804F49D12DE01120FFF7C7FF5B1CAF
:10D2800008B9B342F8D111203BE03046FFF7BEFFAA
:10D290005B1C28B106E06FF07C4540F60106F4E720
:10D2A000AB42F2D130462CE00120FFF7AFFF5B1C10
:10D2B00018B104E04FF4A065F6E7AB42F4D10120C9
:10D2C0001FE03046FFF7A2FF5B1C0028EAD1AB420B
:10D2D000F7D1E7E743F21106F3E73046FFF796FF91
:10D2E0005B1C0028DED1AB42F7D1DBE740F601162C
:10D2F000F3E71920FFF78AFF5B1C08B9AB42F8D1AE
:10D300001920FFF783FF00B10124204670BD000003
:10D31000FFFF0F00054901EB90110A6800F01F03A1
:10D320000120984002430A6070470000001002404C
:10D33000054901EB90110A6800F01F030120984095
:10D3400082430A607047000000100240054901EB6B
:10D3500090110A6800F01F030120984002430A6000
:10D36000704700000010024010B540210B48FDF747
:10D3700082F90A4C3E20112220700C20607008496E
:10D38000A01CFDF711F913212046FDF745FDE074BF
:10D390002046BDE810401421FEF73CBADC0B00200B
:10D3A000B81A002050E8001F31B10B6840E8003285
:10D3B000002AF7D108467047BFF32F8FFAE710B560
:10D3C00068B161B10B3121F00302016844680B1AA6
:10D3D0001B1B934205D2084609680029F5D100209D
:10D3E00010BD210007D021180368C1E90032016097
:10D3F00001F1080010BD4260083010BD70B50D4647
:10D40000002812D04FF6FF71084C884204D22268DF
:10D410000146104600F000FC20684570044800F00A
:10D42000DDF8BDE8704000F005BD70BD8C00002047
:10D43000BC5500200F4810B50D4942680E480B68D6
:10D440000068934204D00A60CB88421E1A448A8046
:10D450008A8880B282420AD100200860054800F024
:10D46000BDF80146BDE81040024800F0F9BB10BD10
:10D47000A0000020BC5500209C00002070B5194D74
:10D48000E86800282CD0A88A401EA882002621E047
:10D49000A06838B161684160606810B1A1688160BE
:10D4A0006660A6600F482146183800F0D9FBA08AB4
:10D4B000A8826078042804D10B49E08A09880844CE
:10D4C000A08201206070E068E860E06808B1056152
:10D4D000E6602661A88A002802D1EC68002CD7D12A
:10D4E00070BD0000D45500209C00002070B50400E1
:10D4F0000FD00D4DA17801262868827891420CD971
:10D5000000F0CAFB286846702046BDE8704000F075
:10D5100091BC064800F062F8F7E766702146BDE866
:10D520007040024800F09CBB8C000020BC550020DD
:10D530000321FFF763BF000010B50446008B0843CA
:10D5400020836278618B062A18D0052A19D10842F7
:10D5500017D001EA0002628388432083204600F04E
:10D56000D5FB01206070628B0821204600F0C6FBCD
:10D570002146BDE81040034800F072BB31EA0002CA
:10D58000EAD010BDBC550020814202D342688A42D5
:10D5900001D80120704702680A60BFF35F8F50E82E
:10D5A000003F0A689A42F6D140E80012002AF2D100
:10D5B0000020704768B161B10022083902E00246DC
:10D5C000006830B18842FAD12AB1006810600020AA
:10D5D00070470120704700214160F8E7014640682C
:10D5E00042684A600B780022022B05D0012B03D041
:10D5F000032B01D04260704743680BB199604260D1
:10D60000826070470649074B48681B6882789B78A0
:10D610009A4202D142684A60704700207047000079
:10D62000BC5500208C000020810700D000207047EE
:10D6300070B5044600201546207001226270A1706A
:10D6400084F824106060A060E06020612062A08205
:10D65000E0822083608384F82500E08C18B90548B7
:10D66000FFF7A0FEE06229462046BDE8704000F0CA
:10D670001DB80000781E002008B1082901D2012041
:10D6800070470144091F002201600A604260104691
:10D690007047000003480021016003490988C180E8
:10D6A00070470000A000002090FE000870B5C28CFA
:10D6B0001C4D930802D12A88C2F38D03C26A02EB83
:10D6C0008302540700D5121F4FF0807442E9021400
:10D6D00000242646B2F1400242F82460641C0E2C5D
:10D6E000FAD3C4691462826201632968C90014D53F
:10D6F000112B12D94FF0FF31103B11EB53014FF0BA
:10D70000CC3305D042F8043C42F8083D491EF9D11B
:10D71000C16A121F8A4200D91360C06A02490160BF
:10D7200070BD00008CFE0008A52E5AE2C1898089D8
:10D73000081A704701220270002242708270426013
:10D7400002814281103982818908C18170470000BD
:10D750002DE9F041044640680E464FF0000804F100
:10D760000C05E8B36078012701283ED0022813D0C9
:10D7700003285CD10846FFF715FE050057D0204668
:10D78000FFF72CFF0446294600F0B2FA67702046E6
:10D7900000F0BCFA214621E02046FFF71FFF0646B5
:10D7A000002100F0A5FA2189F06904EB81010861EC
:10D7B000D5E85F0F401C81B2C5E8501F0028F7D1A3
:10D7C0002089401C80B22081E189884201D1A4F8DF
:10D7D00008807770304600F099FA3146174800E02B
:10D7E0000CE0BDE8F04100F03BBA2046FFF7F6FE42
:10D7F00004463246102100F081FAC7E7A089E1898A
:10D80000884216D2208904EB80000661D5E85F0FBC
:10D81000401C81B2C5E8501F0028F7D12089401C68
:10D8200080B22081E189884201D1A4F80880BDE856
:10D83000F081BDE8F0410320FFF714BCBC55002087
:10D8400070B5164642680D4612B1417801290BD0D9
:10D850008189C4890023A14224D19EB11D4C216835
:10D8600092B100F0FDF916E0FFF7B8FE04462A4633
:10D87000102100F043FA204600F048FA2046FFF756
:10D8800035FE25E0012070BD416021684B602168B4
:10D8900088600221417020680821C5613046FFF789
:10D8A000ADFDEFE7018900EB81010D6100F10C0195
:10D8B000D1E85F2F521C94B2C1E8524F002AF7D131
:10D8C0000189491C89B20181C289914200D1038139
:10D8D000002070BD8C00002070B50446808915467C
:10D8E0000026C0B3608904EB80000069086060898D
:10D8F000401C80B26081E189884200D16681606805
:10D9000010B1607802280BD014F10C04D4E85F0F3A
:10D91000401E81B2C4E8501F0028F7D1002070BD1E
:10D920002046FFF75BFE0546002100F0E1F9218962
:10D93000E86904EB810108612089401C80B22081E4
:10D94000E189884200D12681284600F0DFF9284687
:10D95000FFF7CCFDE2E7FFE73DB10B4862680168E5
:10D960002AB1204600F07CF908E0012070BD61601A
:10D9700001684E60006884600120607008212846BC
:10D98000FFF73CFDF1E700008C000020002814D0D8
:10D99000411C13D00C4A4FF6FE7190420CD800EB9C
:10D9A0004002C2EBC0120948036803EBC202521ED8
:10D9B000B2FBF3F0884204D9084670474FF6FF7077
:10D9C000704780B27047000000093D00A8FE0008C3
:10D9D0002DE9F0410446408820B1314DA1682A6804
:10D9E000914202D0FF20BDE8F081401E0004000CEF
:10D9F000608053D12968086AA04209D1E0680862B2
:10DA000008E0C268A24202D1E268C26002E01046A9
:10DA10000028F6D191F824000A6A06E053681BB189
:10DA20009B78834200D91846D268002AF6D18870C4
:10DA3000DFF870806168012611B32046FFF7CEFD44
:10DA40000746002100F054F9384600F05FF966807F
:10DA5000A760386AE0603C622968D8F804008A78D8
:10DA60008078824201D3384616E00E4800F0F8F87C
:10DA700039460C4800F0F4F8286846707E700AE0D9
:10DA8000D8F804108A782968824207D9054800F03E
:10DA9000E7F8286846700020FFF728FD0020A2E77D
:10DAA0008C000020BC55002070B51C4D0E4604466D
:10DAB0004188286861B1A268824210D1A1F57F40F7
:10DAC000FF3803D0491C6180002070BDFF2070BD6D
:10DAD000A060016AE160046201206080F4E776B131
:10DAE00091788078814203D29070A06800F0DEF8CF
:10DAF000606830B12046296800F0B2F808E00120E3
:10DB000070BD2868606029680020486028688460CB
:10DB100009213046FFF772FCF1E700008C0000207D
:10DB200070B51B48012102685170006800F0B4F81C
:10DB3000184D6C7818E000BF05EBC4014868027806
:10DB4000EAB1012A20D000F013F9E878641C84427D
:10DB500000D100240F48801CD0E84F1F491EC9B2D5
:10DB6000C0E8421F002AF7D1A8780028E4D16C70E1
:10DB70000948FFF733FDBDE8704000F05BB9098943
:10DB800089B2FFF7D9FCE0E78968FFF7E1FDDCE740
:10DB90008C00002080540020BC55002005480178EE
:10DBA00011B101214170704703494FF08050086066
:10DBB000704700009400002004ED00E0F0B4154D23
:10DBC000AB1CEE784FEA0507D3E84F2FB24202D1E3
:10DBD000BFF32F8F11E0521CD4B2C3E8424F002A8A
:10DBE000F2D100BFD7E84F2F541CB44200D100241B
:10DBF000E4B2C7E8434F002BF4D1EB78934205D948
:10DC000005EBC202C2E90101F0BC7047F0BC022082
:10DC1000FFF728BA80540020104A10B5D368ABB182
:10DC200013469B8A03E08CB12246A48A2344D4681D
:10DC30008B42F8D3C460D0600261C46804B1206133
:10DC4000591A8182908A401A908210BD0024C460C3
:10DC5000D060C91A02619182848210BDD45500201F
:10DC600030B502780023022A03D0012A01D0032A0A
:10DC700000D101238C7800E01046426812B19578FB
:10DC8000A542F9D24A6041601BB102B1916088603F
:10DC900030BD0020FBE7000003494A6842600022D3
:10DCA0008260486070470000BC55002010B5836852
:10DCB00004462BB9607801280ED1084B03E09B681D
:10DCC00018780028FBD0204600F034F82146BDE843
:10DCD00010401846FFF7C4BF10BD0000BC5500201F
:10DCE00090F82510806A09B1603070472030704785
:10DCF00010B50C46FFF7F4FF046010BD70B5154673
:10DD00000C46FFF7EDFFC0E9004570BD10B5016995
:10DD100000290ED0C268CA60C36800223BB18B8A5A
:10DD2000848A23448B82C3681961C26000E08A82BE
:10DD3000026110BD816839B142684A6041680029BA
:10DD400001D0806888607047054906E04A688242D1
:10DD500002D140684860704711460029F6D17047EB
:10DD6000BC550020022202700022426041807047B0
:10DD700010B5416881B1FFF731FC0446FFF7C6FFDB
:10DD80000120607001462046FFF7B2FF2146BDE842
:10DD900010400348FFF764BF4188491C418010BD13
:10DDA000BC55002010B5416861B1FFF717FC04466F
:10DDB0000121FFF79DFF2046FFF7A8FF2046FFF750
:10DDC00095FB02E04188491C4180002010BD000005
:10DDD00010B50C46418819B1491E4180002010BD84
:10DDE00034B10A4A4368116823B1FFF739FF07E0ED
:10DDF000012010BD416013680021596011688860DE
:10DE000007212046FFF7FAFAF2E700008C00002015
:10DE100006480068D0E90A10814203D3006804492B
:10DE2000884202D00120FFF71DB970478C00002006
:10DE3000A52E5AE20749022248604270064A12782B
:10DE4000002A05D006C98A4202D0C078FEF740BB3E
:10DE5000704700008C000020A800002070B5FEF77D
:10DE60000FFB00200446204A204902E042F82040EF
:10DE7000401C0B889842F9D31D48342201881D4864
:10DE8000FEF714F81C48008880B240F000421B489E
:10DE900001681B48FEF70AF81A48082201881A4848
:10DEA0000068FEF703F8194DFF20194AE870EC846A
:10DEB00000212846FFF7BCFB16480421017044608E
:10DEC00015480170C46004618482144815490560D6
:10DED000022068701248047044700978C170BDE86F
:10DEE0007040FFF7D7BB00004455002088FE0008B3
:10DEF000B0FE0008F81A00208CFE0008B4FE0008EE
:10DF0000781E0020D8FE00087800002088550020E8
:10DF100067D00008BC550020D45500208C0000209C
:10DF200080540020BCFE00081B4810B5016841F475
:10DF30007F01016000684FF07F4101EA002016492F
:10DF4000C0431439B0FA80F00968C0F10800C1F389
:10DF50000221814200D3481C0F49091F0B686FF052
:10DF60008072824063F317020A60FFF77DF80B4965
:10DF7000002808600EDB00F1E021FF2281F8002478
:10DF800000F01F02012191404009800000F1E020D3
:10DF9000C0F8001110BD000020ED00E09800002046
:10DFA0000C4810B50268012151700068FFF774FE3B
:10DFB000FFF740FA08480168491C0160FFF75EFA64
:10DFC00000F0B6FC0548FFF709FBBDE81040FFF77D
:10DFD00031BF00008C0000209C000020BC550020B8
:10DFE000002805D0810702D10178002900D0002047
:10DFF0007047000030B50B4C0023626805E095685F
:10E000008D4204D813461268491B002AF7D10260DA
:10E01000816012B19568691A91600BB1186030BDCA
:10E02000606030BD840000200D4B0022596803E081
:10E03000814204D00A4609680029F9D104E019B1E7
:10E04000016822B1116003E04FF0FF307047596062
:10E05000016819B18A6880681044886000207047A0
:10E06000840000202DE9F0411E46174680460D46EB
:10E0700011F0FF0F00D14D1C1848FFF793F9041E53
:10E0800016D0280AE762E084E9B242462046E661FB
:10E09000FFF7CEFA01251248124905E000EB850290
:10E0A00052F8042C32B16D1C0A889542F6D9002032
:10E0B000BDE8F081002DFAD000EB850040F8044C5B
:10E0C0000948E570007818B101212046FEF7F0F903
:10E0D0002046FFF70BFA2846EAE70000F81A00206E
:10E0E0004455002088FE0008A80000202DE9F05FBC
:10E0F000584DDFF85891DFF8588129684FF0010A30
:10E10000002618B1CA78AB46824243D14E70FCF764
:10E1100074F829688862FFF77BFE2868046A1FE0AC
:10E120006068C0B12046FFF759FA07460021FFF7A3
:10E13000DFFD3846FFF7EAFD87F801A0394646487B
:10E14000FFF78EFDE168A4F802A0A760386AE060DE
:10E150003C620C4604E0E0686680A660E660044627
:10E16000002CDDD12868C27808EB820141F8046CEC
:10E17000C16A3A48FFF708FA2868C66299F80010A1
:10E1800011B10021FEF794F935482968FFF7FCF931
:10E190002E6056E03349098888420CD808EB800885
:10E1A00058F8045C3DB12846FFF7C4FD2846FFF748
:10E1B000ADFD2C6A22E0FF20BDE8F09F6068C0B191
:10E1C0002046FFF70BFA07460021FFF791FD38467E
:10E1D000FFF79CFD87F801A039461F48FFF740FD77
:10E1E000E168A4F802A0A760386AE0603C620C46CF
:10E1F00004E0E0686680A660E6600446002CDDD19D
:10E2000048F8046C1548E96AFFF7BEF9EE6299F820
:10E21000000018B100212846FEF74AF929461048A7
:10E22000FFF7B2F90C48DBF8001040688B78827871
:10E230009A4209D981F801A00748DBF80010FFF7DE
:10E240000FFD0020FFF752F90020B5E7A8000020DD
:10E25000445500208C000020BC550020781E002072
:10E26000F81A002088FE000870B5FFF7CBF904000B
:10E270000CD0074D07482968FFF7F2FC29680120F8
:10E2800048702046BDE87040FFF7D4BD70BD000067
:10E290008C000020BC55002070B51A4D80B11A4A80
:10E2A000128890421FD8194A02EB800050F8044CA3
:10E2B000CCB1A17084F824102868A04205D014E0E5
:10E2C00028688170286880F8241011484068807898
:10E2D000884215D90E482968FFF7C2FC2968012039
:10E2E000487000200AE0FF2070BD2046FFF7DEFCEA
:10E2F0006078012804D10648FFF770F9FFF7F6F8B7
:10E30000002070BD8C00002088FE000844550020CD
:10E31000BC55002002480068002800D0C078704733
:10E320008C0000202DE9F04140212DED028B514859
:10E33000FCF7A1F94F4C3E20207004206070712042
:10E34000A0704D480188090AE17001882171418857
:10E35000090A61714188A1718188090AE171818886
:10E360002172C188090A6172C088A0724348454E73
:10E37000A4F505780088010AE172207340480088FE
:10E38000010A6173A0737078E073B0782074F0783C
:10E39000607498F81200A07440213B48FEF70AFB15
:10E3A000002865D00020394D95F8401041EA40071B
:10E3B000FCF7B0FE3649C0009FED378B097853EC6F
:10E3C000182B40EA810007433248317A007847EA47
:10E3D000001040EA411004F8140F98F80B00607028
:10E3E000287AA0702879E070E888010A21716071AC
:10E3F000288A010AA171E0716869010E2172010C7D
:10E400006172010AA172E072286A010E2173010C87
:10E410006173010AA173E073A88F010A217460740B
:10E4200095ED0C0B51EC100B01F066F901F036F98B
:10E43000010AA174E07495ED0A0B53EC182B51EC12
:10E44000100B01F059F901F029F9010A21756075E5
:10E4500095F83800A0752B210648FCF7DDFCE07527
:10E460002C21BDEC028B0348BDE8F041FDF7D2B989
:10E47000012098E7DC0B0020FC0000202000002099
:10E48000220000202C010020000C0140681A00200E
:10E490006C00002024000020000000000000594013
:10E4A00010B5002804D0FFF771FAFFF741F84020BB
:10E4B00010BD000010B5134C207860B91248400719
:10E4C00005D1124801681048FFF7D6F808B1852039
:10E4D00010BDFFF7C3FC0E49FF2009688870207843
:10E4E00058B900210B4800F07EF80B490860002164
:10E4F0000A4800F001F90A49086001202070002054
:10E50000607010BD84000020883A0020B8FE00082A
:10E510008C000020D0FE000880000020C0FE000813
:10E520007C00002070B50F4D687808B1002070BDE8
:10E530000D4C206890F824100020FFF7ADFE2068F5
:10E54000C178FF2903D1816A203181F3098861688C
:10E5500011B9606000202060FFF7E6FC01206870C0
:10E56000E4E70000840000208C00002070B5FEF776
:10E5700099FD0446FEF78EFD0849094E0D686D1C95
:10E5800048B1FEF78FFDA04200D204463068401C1F
:10E5900005FB004070BD3068FAE7000098FE0008F7
:10E5A0009C00002070B504000BD0216849B162685E
:10E5B0003AB1A06828B1D0E9005010B10DB12B7864
:10E5C0000BB1002070BDD21C22F0030251430C316C
:10E5D000FDF76CFC20888000103081B22846FFF7E0
:10E5E000A9F8A06870BD10B5040005D0216819B164
:10E5F000606808B102780AB1002010BD89001031AE
:10E6000089B2FFF797F8606810BD3EB504000D466B
:10E610004FF0800012D0217801290FD12846FFF752
:10E62000B5F90246204601A9FFF756F9012801D0A5
:10E63000102003E00DB1402000E00020DDE90112D0
:10E6400003B030BD70B50E460400154602D02078E8
:10E65000012801D0802070BD1046FFF797F90246CF
:10E6600031462046FFF7ECF8012801D0002070BDAC
:10E670000DB1C12070BD812070BD10B5002807D03C
:10E68000046824B1207810B9B1F5803F01DB002087
:10E6900010BD89B22046FFF765FB204610BD10B5BE
:10E6A000FEF7C2FF10B10178022901D0802010BD11
:10E6B0004188A1F57F42FF3A03D0FFF773FB0020AA
:10E6C00010BD812010BD70B50D46FEF7ADFF0400F2
:10E6D0004FF0FF300DD0217802290AD12846FFF7EC
:10E6E00055F901462046FFF773FB012802D06088E8
:10E6F000401C70BD002070BD70B50E46040029D0CE
:10E70000206838B3606810F1030F23DB032821DC95
:10E71000E16829B11048FEF752FE05001AD000E06A
:10E7200000256068E168001D40EA012133462A4661
:10E730002068FFF797FC40B1084901EB80000849C9
:10E7400050F8040C826A516370BD1DB1294602481D
:10E75000FEF730FF002070BD883A002044550020AD
:10E76000B9CF000810B5FFF7D5FD002804D0034944
:10E7700001EB800050F8040C10BD0000445500204F
:10E7800010B5FFF72DFC18B1C18C19B1C46A02E0B5
:10E79000802010BD0024C078FFF7A8FCFF2806D019
:10E7A0001CB121460348FEF705FF002010BD812063
:10E7B00010BD0000883A002010B5FFF755FD00207D
:10E7C00010BD10B5FEF730FF20B141690A6801693C
:10E7D000104610BD0020014610BD000010B503001A
:10E7E0000CD0186850B15868002808D009B1012928
:10E7F00004D1074C24680CB104790CB1002010BD81
:10E8000000240460012404714171C0E9042310BD97
:10E810007C00002070B50E46FEF706FF040016D0FF
:10E82000BEB1144A00214FF47A7310681268401E7A
:10E8300041F1FF35E6FB030529460023FBF7CAFD3E
:10E840000546207901280CD0022808D103E0802059
:10E8500070BD862070BD2046FFF7E6FB20B1812009
:10E8600070BD02202071E56029462046FFF7C2FBFB
:10E87000002070BDA8FE000870B50D46002806D027
:10E88000D0E9004010B10CB112B10DB1002070BD43
:10E89000FEF788FD060017D1B5B10C486168002964
:10E8A000016803D02046FFF7DBF907E061600268EA
:10E8B0000021516000688460032060702846FFF7E3
:10E8C00065F80821FEF79AFD304670BD8C000020E7
:10E8D00070B5164648B1D0E9004534B12DB128468F
:10E8E000FEF752FE18B1862070BD802070BD6068B2
:10E8F000E0B16078032819D136B129462046FFF7E8
:10E900005DF9FFF74BF911E02846FEF74BFD0500D6
:10E910000CD02046FEF762FE04462946FFF7E8F9D0
:10E920002046FFF7F3F92046FEF7E0FD002070BD1A
:10E930002DE9F041134E7468002C1CD0A068124FD2
:10E94000401E4FF00108A06012E025462468746064
:10E95000002229463868FEF78AF810B10420FEF735
:10E9600081FB6879012808D085F80480002C02D04A
:10E97000A0680028E9D0BDE8F0812846E968FFF7E3
:10E9800039FBF3E7840000208000002029480021A3
:10E99000026842F480320260C3140268491C12F417
:10E9A000003F01D19942F8D10168890300D4FEE704
:10E9B000C16941F08051C1611F490A6842F4404277
:10E9C0000A604268426042684260426842F4806283
:10E9D0004260426822F440324260426842F440326F
:10E9E00042604268154B1A4042604268144B1A4319
:10E9F0004260026842F08072026002689201FCD5B7
:10EA00000A6842F480320A604A68D203FCD50A6878
:10EA100042F400320A604A689203FCD5416821F052
:10EA200003014160416841F002014160416809070A
:10EA3000FCD570470010024000700040FFFFC3B7D4
:10EA400000003408016841F0800101607047000057
:10EA500030B5724B724C41B301295ED002297DD092
:10EA600003297CD1016A21F480510162C16921F43A
:10EA70004071C161016A156841EA05310162016AAC
:10EA800021F400510162016AD58841EA0531016231
:10EA9000984201D0A04262D1416821F48041416096
:10EAA0004168528941EA821177E0016A21F001014F
:10EAB0000162816921F003018161016A15682943BE
:10EAC0000162016A21F002010162016AD5882943CD
:10EAD0000162984201D0A04260D1016A21F0040194
:10EAE0000162016A938819430162016A21F00801F9
:10EAF0000162016A138919430162416821F480713E
:10EB000041604168538919434160416821F40071B3
:10EB100041604168928911433FE0016A21F0100190
:10EB20000162816921F440718161016A156841EADD
:10EB300005110162016A21F020010162016AD58894
:10EB400041EA05110162984201D0A04226D1016A32
:10EB500021F040010162016A938801E01FE01DE09D
:10EB600041EA03110162016A21F080010162016A38
:10EB7000138941EA03110162416821F48061416017
:10EB80004168538941EA83014160416821F4006191
:10EB900041604168928941EA8201416030BD016A69
:10EBA00021F480710162C16921F00301C161016A30
:10EBB000156841EA05210162016A21F400710162D0
:10EBC000016AD58841EA05210162984201D0A0423C
:10EBD000E4D1016A21F480610162016A938841EA0B
:10EBE00003210162016A21F400610162016A138953
:10EBF00041EA03210162416821F48051416041688A
:10EC0000538941EA03114160416821F40051416098
:10EC10004168928941EA0211BFE70000002C0140DF
:10EC20000034014071B1012913D002291AD00329FF
:10EC300007D1C16921F4E041C161C16941EA022102
:10EC4000C1617047816921F070018161816911435F
:10EC500006E0816921F4E0418161816941EA022194
:10EC600081617047C16921F07001C161C1691143BF
:10EC7000E6E739B1012907D0022907D0032900D1DD
:10EC8000026470474263704782637047C263704793
:10EC900071B1012913D002291AD0032907D1C16902
:10ECA00021F40061C161C16941EA0221C16170477B
:10ECB000816921F0080181618169114306E0816960
:10ECC00021F400618161816941EA0221816170471B
:10ECD000C16921F00801C161C1691143E6E7000083
:10ECE0001B4A10B5811A1415904229D00DDCB0F1E1
:10ECF000804F14D0174940181CD0A0421DD0B0F549
:10ED0000006F23D140F2034409E0A1421BD0B1F5CA
:10ED10008E3F0CD0B1F5923F18D140F20D34204611
:10ED2000FEF714FB2046BDE81040FEF701BB40F2A1
:10ED30000B34F4E740F20144F1E740F20244EEE71D
:10ED400040F20444EBE740F20544E8E710BD000060
:10ED50000010004000FCFFBF016821F001010160CC
:10ED60007047016841F001010160704730B50A88C1
:10ED700082621C4A1C4B90420DD0B0F1804F0AD0E9
:10ED80001A4CA04207D01A4CA04204D0194CA04201
:10ED900001D098420BD1046824F070040460046828
:10EDA0004D882C43046004688D882C4304608C6873
:10EDB000C462114CA0420CD0104CA0420DD004688B
:10EDC00024F44074046004688D892C4304609042EC
:10EDD00001D0984201D1897B0163416941F0010171
:10EDE000416130BD002C014000340140000400406E
:10EDF00000080040000C00400010004000140040DB
:10EE0000C2688A43C2607047C2680A43C2607047E2
:10EE100002698A4302617047C26800690A40084279
:10EE200002D00AB1012070470020704770B5134B23
:10EE300004460D460020E11A1A159C421BD005DC41
:10EE40000F49611817D0914208D114E0914212D0B5
:10EE5000B1F56C4F02D10320FEF758F900EB5500D5
:10EE6000B0FBF5F14FF6F07201EA020001F00F017C
:10EE70000843A06070BD0220EEE70000004C004097
:10EE800000BCFFBF4068C0F308007047C1F3080131
:10EE900041607047134B10B5C21A1915984213D030
:10EEA00007DC114A80180CD088421AD140F2124473
:10EEB0000FE08A420BD0B2F56C4F12D140F20E3403
:10EEC00007E040F2114404E040F2134401E040F254
:10EED00014442046FEF73AFA2046BDE81040FEF7FB
:10EEE00027BA10BD004C004000BCFFBFC16841F410
:10EEF0000051C160704700EB9110006801F01F02E3
:10EF000001219140084000D00120704710B5C1F3A5
:10EF10008912835801F01F040121A1400B43835043
:10EF200010BD10B5C1F38912835800EB915001F068
:10EF30001F04012202FA04F400682340C1F30441D3
:10EF40008A40104202D00BB1012010BD002010BD3C
:10EF5000C26822F4C062C260C2680A43C2607047DD
:10EF6000C26822F004020A43C2607047026922F4B8
:10EF70004052026102690A4302617047C26822F08E
:10EF800008020A43C2607047C26822F48052C2601D
:10EF9000C2680A43C26070471CB5DFF86891DFF8A9
:10EFA00068814FF0010B00BF99F8490001281AD081
:10EFB000DFF858A100260227AAF80460FBF76EFCD0
:10EFC0007F1EFFB2FAD2BAF804005146A0F15A02ED
:10EFD000142A2AD800226D1CEDB20192022D31D3E1
:10EFE00000258E702EE098F80F10404611B1484A67
:10EFF00012788AB14549097A012903D0002188F89D
:10F0000010100DE04349097E41B9414909780129B1
:10F0100004D880F80FB001E0012901D188F810B0C0
:10F020004FF47A70FDF7AEFEBEE70F280AD2019AC0
:10F030000025521CD2B20192022A03D3002201926F
:10F0400081F802B05746DFF8C8A0AAF80800C82027
:10F05000FDF798FE0020F8805FF00306FBF71EFC2A
:10F06000761EF6B2FAD2F8883E46A0F17801192948
:10F0700008D80021641CE4B20091022C0FD30024B4
:10F08000F4700CE00F280AD200990024491CC9B280
:10F090000091022903D30021009186F803B0AAF859
:10F0A0000A005746C820FDF76DFE98F80F1040463D
:10F0B00009B13A78AAB1B178012906D0F1780129CD
:10F0C00003D0002188F810100FE01249097E51B9D1
:10F0D0003978012907D8817C012904D180F80FB043
:10F0E00001E0012901D188F810B00B48007801280F
:10F0F0009AD1B07810B1FBF7B5FD55E7FBF7CEFD1F
:10F1000052E70000681A0020C80900202C010020E6
:10F1100018000020AC090020000000204FF4FA760F
:10F120003046FBF7EBFD2A4C40F293674FF4D16871
:10F1300040F2A96900253046FDF724FEA0880B287F
:10F140003ED2DFE800F03E060F12181A1F252729CD
:10F150002E00E570207878BB9023F122222140F226
:10F16000816027E02123F12209E02423F1222221DA
:10F1700040F283601EE0262300E02723F0222221B4
:10F18000384617E0C123FA22222140F2C46011E080
:10F19000362302E0372300E03B233322222140467E
:10F1A00008E00C4890F84900012806D007233022D7
:10F1B00022214846FCF708FE03E00923DD22F7E799
:10F1C000A580A088401CA080FDF702FFB3E70000E7
:10F1D0006C000020681A00206C4C2046FBF7CBFE28
:10F1E000012804D1002211462046FBF7F1FEDFF88A
:10F1F000A481674E41F68A3700254FF001094FF48C
:10F20000007BA8F10C044FF47A7A00BFFDF70AFBEB
:10F21000A079401CC0B2A071142803D9A571E57073
:10F22000257165713088B8421FD984F803906179DF
:10F230004846012900D1207188F8015098F8001043
:10F24000404601290CD18278511C8170052A07D3D0
:10F250000570457088F8025001214FA0FCF70AFBA9
:10F2600059465148FDF728FB32E0308841F65831C5
:10F2700088422DD2A571E078012808D184F8059044
:10F280002079012803D1C1024748FDF713FB88F814
:10F29000025098F80000414650B37088B0F5616F95
:10F2A00012D2C878421C88F803200A280CD9012100
:10F2B0003EA0FCF7DFFA40F6B830FDF763FD4FF4EF
:10F2C00000613948FDF7F6FA59463748FDF7F2FA7A
:10F2D000607820B1401E10F0FF00607017D0A07859
:10F2E00000284CD0401E10F0FF00A07035D046E042
:10F2F0004878421C4A700328E6D381F800904D708C
:10F3000088F80250012132A0FCF7B4FADCE70121B1
:10F3100033A0FCF7AFFA54465046FDF733FD2046C4
:10F32000FDF730FD2046FDF72DFDFBF785FD20465E
:10F33000FDF728FD2046FDF725FD2046FDF722FDBF
:10F34000BFF34F8F2E4801682E4A01F4E06111434C
:10F350000160BFF34F8F00BFFDE701212AA0FCF73A
:10F3600089FA5046FDF70EFD5046FDF70BFD50465D
:10F37000FDF708FD4FF400610B48FDF79BFA50467E
:10F38000FDF700FDFDF724FE40E7000000F0030854
:10F39000FC00002024000020434F204E47554F4ED4
:10F3A000204E474F41490000000C01404E47554F49
:10F3B0004E2050494E2044414E4720594555202D5E
:10F3C0003E205441542054484945542042490000AD
:10F3D0004D4154204E47554F4E204E474F41490016
:10F3E0003C3C3C3C3C3C2D20454332312050572096
:10F3F0005245534554202D3E3E3E3E3E3E000000C9
:10F400000CED00E00400FA053C3C3C3C3C3C2D206B
:10F4100042415454455259204F4646202D3E3E3ECF
:10F420003E3E3E004FF0FF37224C3E464FF4007800
:10F4300000253146E068FDF763FD627812B1012ACC
:10F440000ED109E010280BD1C8B22070FCF7D4FB14
:10F450000A260120607003E0102804D0402807D05D
:10F46000FDF7B6FDE5E7C8B22070FCF7C5FBE0E7A5
:10F470001149A0888A4681460D544FF47A7120695B
:10F48000FDF7E0FC06000DD0C14500D9C146A6F845
:10F4900000904A465146B01CFBF786F83146206979
:10F4A000FDF70DFD03483E4624304580A58065707C
:10F4B000BFE7000038000020DC090020DFF874916D
:10F4C0005D4F4FF47A7B4FF0010A0026A9F1240525
:10F4D00059462869FDF7E8FC202802D0402827D0AB
:10F4E0005CE00C4631F8020B4654A0783E281AD155
:10F4F0002188A01C491EFBF78FFC01462288601C56
:10F50000135C8B4207D116542088801E81B2E01C08
:10F51000FCF764FA03E0012148A0FCF7ABF989F895
:10F5200001A089F8006021462869FDF7AFFC35E0AD
:10F53000B9F802104C46491C89B2A9F8021099F892
:10F54000000010B96078012805D0288981421ED3B7
:10F55000B42830D032E0B8F1030F02D0B8F1040F74
:10F5600003D100210320FCF759FB608878280ED3D3
:10F570006680FBF761FC2079401CC0B22071052831
:10F5800001D984F800A01C212B48FBF774F860888F
:10F590000A2803D91C212848FBF76DF8FDF784F9E8
:10F5A0008046387C012810D0B8F1030F24D0B8F180
:10F5B000040F21D024E04FF4617028816680FBF7AE
:10F5C0003BFC2079401C2071DDE7B87C012809D084
:10F5D000F87C012808D0B8F1030F07D0B8F1040F68
:10F5E00004D007E0032102E0042100E00021032011
:10F5F000FCF714FB6E811AE000210320FCF70EFBE0
:10F6000017480078012812D16889401C80B26881AF
:10F61000B0F5967F0BD36E8101211248FCF72AF9D1
:10F620004FF4FA60FDF7AEFB0A20FCF759FFFDF737
:10F63000CFFC4DE75C000020AC0900207E7E7E7E82
:10F640007E7E7E7E7E7E7E7E7E7E7E7E4552524F9A
:10F650005220434845434B2053554D212100000083
:10F6600024000020ECFE00080B4C00254FF47A76B5
:10F67000E088401C80B2E080142805D9E580FDF7C1
:10F6800073FE3046FDF77EFBFEF74CFE3046FDF77D
:10F6900079FBFDF79DFCEBE7380000204FEA1153A2
:10F6A000A3F58063D3F11E03A8BFD3F1200C08DBC0
:10F6B0004FF0004242EAC12252EA505232FA03F0BD
:10F6C000704709420BD4102BC4BF0020704703F5CC
:10F6D000787CBCF1FF3F05D04FF0FF3070474FF012
:10F6E0000000704770B500F0B1F800BF4992248067
:10F6F00000207047F0E70000DFF848C170B51CEA51
:10F70000111E1EBF1CEA13159EEA0C0F95EA0C0F82
:10F7100000F06F8081EA030423EA4C134EEAD47EA2
:10F7200021EA4C1141F4801143F48013AE44A1FB53
:10F73000024CA0FB0365AEF17F7E361955EB0C053C
:10F74000A1FB034C4CF10003A0FB021C16EB0C06C2
:10F75000654153F10003094218BF46F0010613F456
:10F76000007F0BD14FEA03314FEA0530340341EA01
:10F77000155140EA16506FF003020AE04FEAC32128
:10F780004FEAC520F40241EA555140EA56506FF065
:10F79000020202EB2E4201EB025585EACE710AD03D
:10F7A0005FEA440C18BF24F0004450F1000041F11E
:10F7B000000120EAD47040F2FE7C624500D270BDA8
:10F7C000A84214BF4FF080444FF04044002E08BFC1
:10F7D0000024BEF1806FA8BFA1F1C041BDE8704018
:10F7E00080F282804FF0000001F1C04101F0004141
:10F7F00070479EEA0C0F0CEA131518BF95EA0C0F20
:10F8000006D04FF0000081EA030E0EF0004170BDFB
:10F8100000F01CF88900013E00F007B800F009B8BC
:10F820004FEA430C5FEA5C5C08D081EA030100F018
:10F830005BB84FEA410C5FEA5C5CF6D14FF0000028
:10F84000014970470000FF070000F87F0EF1020E2B
:10F850002EF0030E5EF8046B364205D4012A43EB0A
:10F86000030515F5001F12D8012841EB010C1CF50A
:10F87000001F0CD80ED14FEAD17C15F5001F0CEB00
:10F880004C0C0CF1020C08BF4CEBD37C04E04FF0A5
:10F89000080C01E04FEAD37C0CEB4C0526FA05F688
:10F8A00006F00706B6F1040C06D20EEB860CBDE896
:10F8B00070404CF0010C6047DFE80CF0090B0202CD
:10F8C0004FF000414FF00000A1F5002170BD194636
:10F8D0001046012851EB010418BFD4F5001484BF71
:10F8E000002001F0004170BD0808A0F500114FEAAA
:10F8F000310170474FF04070E1EE100A7047000090
:10F90000C5BD0008CC000020C5AB0008E400002005
:10F91000D9F1000800000000010000000004000010
:10F9200099EF000800000000010000000001000045
:10F9300064000020000200007801002005000000A3
:10F94000020200003000002025F400080000000042
:10F95000010000000000000069F60008000000003F
:10F960000100000000000000BDF4000800000000DD
:10F970000100000000040000005EBCE2613FDD8386
:10F98000C29C7E20A3FD1F419DC3217FFCA2401E7F
:10F990005F01E3BD3E6082DC237D9FC1421CFEA06F
:10F9A000E1BF5D0380DE3C62BEE0025CDF81633D5F
:10F9B0007C22C09E1D43A1FF4618FAA427799BC54F
:10F9C00084DA3866E5BB5907DB856739BAE406583F
:10F9D0001947A5FB7826C49A653BD987045AB8E62F
:10F9E000A7F91B45C6987A24F8A6441A99C7257B1F
:10F9F0003A6486D85B05E7B98CD2306EEDB3510F0F
:10FA00004E10F2AC2F7193CD114FADF3702ECC92FE
:10FA1000D38D6F31B2EC0E50AFF1134DCE90722CEE
:10FA20006D33D18F0C52B0EE326C8ED0530DEFB1DE
:10FA3000F0AE4C1291CF2D73CA947628ABF51749CE
:10FA40000856B4EA6937D58B5709EBB536688AD4BE
:10FA500095CB2977F4AA4816E9B7550B88D6346AAE
:10FA60002B7597C94A14F6A8742AC896154BA9F79E
:10FA7000B6E80A54D7896B3500000000B71DC104F1
:10FA80006E3B8209D926430DDC7604136B6BC517D8
:10FA9000B24D861A0550471EB8ED08260FF0C92250
:10FAA000D6D68A2F61CB4B2B649B0C35D386CD31B8
:10FAB0000AA08E3CBDBD4F3870DB114CC7C6D04884
:10FAC0001EE09345A9FD5241ACAD155F1BB0D45B60
:10FAD000C2969756758B5652C836196A7F2BD86EC8
