:020000040800F2
:10A00000D86000208DA3000895A3000897A300083E
:10A0100099A300089BA300089DA30008000000006E
:10A020000000000000000000000000005DA2000829
:10A03000A1A300080000000015A3000879A30008F0
:10A04000A7A30008A7A30008A7A30008A7A30008C8
:10A05000A7A30008A7A30008A7A30008A7A30008B8
:10A06000A7A30008A7A30008A7A30008A7A30008A8
:10A07000A7A30008A7A30008A7A30008A7A3000898
:10A08000A7A30008A7A30008A7A30008A7A3000888
:10A09000A7A30008A7A30008A7A30008A7A3000878
:10A0A000A7A30008A7A30008A7A30008A7A3000868
:10A0B000A7A30008A7A30008A7A30008A7A3000858
:10A0C000A7A30008A7A30008A7A30008A7A3000848
:10A0D000A7A3000891BF0008A7A30008A7A3000832
:10A0E000A7A30008A7A30008A7A30008A7A3000828
:10A0F000A7A30008A7A30008A7A30008A7A3000818
:10A10000A7A30008A7A30008A7A30008A7A3000807
:10A11000A7A30008A7A30008D1BE0008A7A30008B2
:10A12000A7A30008A7A30008A7A30008A7A30008E7
:10A1300000F002F800F03CF80AA090E8000C82441D
:10A140008344AAF10107DA4501D100F031F8AFF2FA
:10A15000090EBAE80F0013F0010F18BFFB1A43F005
:10A16000010318474853000068530000103A24BF09
:10A1700078C878C1FAD8520724BF30C830C144BF6C
:10A1800004680C60704700000023002400250026AE
:10A19000103A28BF78C1FBD8520728BF30C148BF4A
:10A1A0000B6070471FB505F08FF81FBD10B510BDCF
:10A1B00000F0D0FA1146FFF7F5FF0FB400F00CF8ED
:10A1C0000FBC02F0D5FD00F07CF903B4FFF7EEFF01
:10A1D00003BC00F0B9FA000004B002F061FE0448CC
:10A1E000002102F055FF02F06DFE00F06AF9000058
:10A1F0009CF4000880F309887047EFF309807047EA
:10A20000684680F3098804480078C00714BF02201C
:10A21000032080F3148870475CF40008DFF818C04E
:10A22000EFF305831B0618BF6047EFF31483DB07CA
:10A2300008BF604700DF7047ADD50008DFF818C0E1
:10A24000EFF305831B0618BF6047EFF31483DB07AA
:10A2500008BF604700DF704791D70008EFF309801F
:10A26000816911F8021CE1BB90E80F1010B5E047BE
:10A27000BDE81040EFF3098C8CE80700214B93E810
:10A280000600914208BF704741B91EF0100F16D169
:10A290001D49086820F00100086010E01EF0100F52
:10A2A00006BF2CED108A0120002081F825002CE942
:10A2B000F00FC1F828C00CB403F0AEFE0CBC1A605D
:10A2C000D2F828C0BCE8F00F92F8250000280EBF95
:10A2D0006FF0020E6FF0120EBCEC108A8CF309883E
:10A2E000704710B5094A1268914209D8084C54F8D1
:10A2F000214090E80F10A047EFF3098C8CE80F0085
:10A3000010BD00009000002034EF00E0A0A700087E
:10A31000A0A7000810B503F007FDBDE81040154BDD
:10A3200093E80600914208BF7047EFF3098C1EF0D6
:10A33000100F06BF2CED108A0120002081F82500A7
:10A340002CE9F00FC1F828C00CB403F065FE0CBC7A
:10A350001A60D2F828C0BCE8F00F92F82500002857
:10A360000EBF6FF0020E6FF0120EBCEC108A8CF371
:10A37000098870479000002010B503F015FFCCE766
:10A3800010B502F019FF03F00FFFC6E70948804738
:10A3900009480047FEE7FEE7FEE7FEE7FEE7FEE7C7
:10A3A000FEE7FEE7FEE7FEE704480549054A064BDF
:10A3B0007047000075BE000831A10008D858002081
:10A3C000D8600020D85C0020D85C0020004870478E
:10A3D0007458002053EA020C00F069802DE9F04B1C
:10A3E0004FF00006002B1FBFB3FA83F503FA05F404
:10A3F00024FA05F65E4012BF1643B2FA82F502FA5D
:10A4000005F4C5F120051EBF22FA05FC44EA0C0440
:10A41000203556EA044C4FEA144418BF641C4FF030
:10A4200000084FF00009904271EB030C39D300296A
:10A4300019BFB1FA81F701FA07F6B0FA80F700FA0E
:10A4400007F6C7F120071EBF20FA07FC46EA0C06F4
:10A450002037B6FBF4FCA7EB0507103F07F01F0BF6
:10A46000CBF120060CFA0BFB2CFA06F644BFB346E0
:10A470000026202FA4BF5E464FF0000B5BEA060CBF
:10A4800008BF4FF0010B19EB0B09ABFB027C48EB4B
:10A490000608C01B06FB02CC0BFB03CC71EB0C01C6
:10A4A000C1E70B46024641464846BDE8F08B13B56E
:10A4B0004FF000004FF00001AFF30080BDE81C40FA
:10A4C000704710B50446AFF300802046BDE8104049
:10A4D000FFF77BBE40EA010310B59B070FD1042AAA
:10A4E0000DD310C808C9121F9C42F8D020BA19BA5F
:10A4F000884201D9012010BD4FF0FF3010BD1AB1C4
:10A50000D30703D0521C07E0002010BD10F8013B18
:10A5100011F8014B1B1B07D110F8013B11F8014B3F
:10A520001B1B01D1921EF1D1184610BD40EA010358
:10A5300070B59B072ED14FF00136042A2AD308C8E4
:10A5400010C99D1B9D43121F15EAC61517D0D8B21E
:10A55000E1B2401A50EA056110D198B2A1B2401A96
:10A5600050EA05410AD123F07F4024F07F41401A90
:10A5700050EA052102D1180EA0EB146070BDA34271
:10A58000DBD018BA21BA884201D9012070BD4FF042
:10A59000FF3070BD0AB9002070BD10F8013B11F802
:10A5A000014B63B1A3420AD1521E08D010F8013BFF
:10A5B00011F8014B1BB1A34201D1521EEDD1181B62
:10A5C00070BD032A40F2308010F0030C00F01580BB
:10A5D00011F8013BBCF1020F624498BF11F801CBA6
:10A5E00000F8013B38BF11F8013BA2F1040298BF0B
:10A5F00000F801CB38BF00F8013B11F0030300F075
:10A600002580083AC0F0088051F8043B083A51F818
:10A6100004CBA0E80810F5E7121D5CBF51F8043B1D
:10A6200040F8043BAFF30080D20724BF11F8013B90
:10A6300011F801CB48BF11F8012B24BF00F8013BF2
:10A6400000F801CB48BF00F8012B704710B5203A45
:10A65000C0F00B80B1E81850203AA0E81850B1E8DB
:10A660001850A0E81850BFF4F5AF5FEA027C24BF91
:10A67000B1E81850A0E8185044BF18C918C0BDE888
:10A6800010405FEA827C24BF51F8043B40F8043B51
:10A6900008BF7047D20728BF31F8023B48BF11F806
:10A6A000012B28BF20F8023B48BF00F8012B704760
:10A6B0004FF000020429C0F0128010F0030C00F0EB
:10A6C0001E80CCF1040CBCF1020F18BF00F8012B66
:10A6D000A8BF20F8022BA1EB0C0100F010B85FEA34
:10A6E000C17C24BF00F8012B00F8012B48BF00F803
:10A6F000012B70477047704770474FF0000200B55C
:10A70000134694469646203922BFA0E80C50A0E894
:10A710000C50B1F12001BFF4F7AF090728BFA0E842
:10A720000C5048BF0CC05DF804EB890028BF40F80E
:10A73000042B08BF704748BF20F8022B11F0804F50
:10A7400018BF00F8012B704701491820ABBEFEE787
:10A75000260002007546FFF739FEAE460500694641
:10A76000534620F00700854618B020B5FFF71CFEC1
:10A77000BDE820404FF000064FF000074FF0000802
:10A780004FF0000B21F00701AC46ACE8C009ACE883
:10A79000C009ACE8C009ACE8C0098D4670477047F5
:10A7A0000000000010B502F041FA012800D110BDF0
:10A7B000362002F0F1FA0121064804F0F9FA0548C2
:10A7C00004F0A0FA4FF40061034802F06FF900BFF3
:10A7D000EDE70000001000400008014010B502F055
:10A7E00025FA012800D110BD01221146362002F0C1
:10A7F000DFFA0121034804F0DFFA024804F087FA87
:10A8000000BFF0E70010004010B50246002004E051
:10A8100012F8013B4340034CE05C0B1EA1F1010127
:10A82000F6D110BD24F3000810B501F0E7FD10BD0E
:10A8300038B5052412A0006800904FF481711148CA
:10A84000FFF736FF01F0E8FE01F096FE00BF0D496C
:10A85000684601F0FDFE0B480078552801D1002024
:10A8600038BD01F089FE07480078552804D0201E25
:10A87000A4F101018CB2EAD16FF00D00F0E7000005
:10A88000550000005214002000B502460023104677
:10A8900001F028FF0346184600BD000070B50546CC
:10A8A0000E4614462B480078401C2A49087008467A
:10A8B0000078012847D1252000280BDB00F01F027B
:10A8C00001219140244A430942F82310BFF34F8FDE
:10A8D000BFF36F8F00BF01F0F7FF40F2053001F0CA
:10A8E00057FF4FF4417001F053FF40F2023001F086
:10A8F0004FFF284601F072FF28B101F059FF2520D3
:10A9000001F006FC70BD3146284601F0FFFF01F062
:10A910004FFF252001F0FCFBACB14FF47A7002F040
:10A92000B3FA00BFBFF34F8F0C48006800F4E0603B
:10A930000B490843001D09490860BFF34F8F00BF52
:10A9400000BF00BFFDE703480078401E01490870C2
:10A9500000BFD7E70000002080E100E00CED00E040
:10A960000000FA0510B540F2046002F08FFD40F2DD
:10A97000046002F08BFD40F2046002F087FD40F2BB
:10A98000046002F083FD40F2026002F07FFD0423C8
:10A9900003221021164802F08DF80421144802F019
:10A9A00087F8022303221021114802F083F80221C4
:10A9B0000F4802F07DF80123032210210C4802F019
:10A9C00079F801210A4802F073F8082303221021C4
:10A9D000074802F06FF80821054802F069F84FF4C3
:10A9E000006303221021034802F064F810BD000048
:10A9F00000100140000801402DE9F043044607AD76
:10AA000095E8E0104FF0000801F00109204669F3D5
:10AA10005F0002F0010940EA890003F0010940EA01
:10AA2000C90005F0010940EA091006F0010940EAF1
:10AA3000491007F0010940EA89100CF0010940EAC9
:10AA4000C9184FFA88F0BDE8F083014601F02000F4
:10AA500008B1012070470020FCE7014601F04000EA
:10AA600008B1012070470020FCE7014601F0080012
:10AA700008B1012070470020FCE7014601F01000FA
:10AA800008B1012070470020FCE7F0B589B0054609
:10AA900000F038F804460CB1012000E0002000B1BD
:10AAA0002DE000200122CDE900020290034611466C
:10AAB0000390FFF7A1FF064605A80090F0B200231F
:10AAC0001A46194600F054F804460CB1012000E083
:10AAD000002000B113E09DF81500401CC7B205A886
:10AAE000C05D00F0020018B16FF00E0009B0F0BDBB
:10AAF0001CB906982860079868600020F6E76FF098
:10AB00000E00F3E71FB50020039018A00068019025
:10AB10000920039002AB03AA0121022000F0B4FE39
:10AB200004460CB1012000E0002000B11AE002A8A8
:10AB300001AB012268210090042000F022FF0446AE
:10AB40000CB1012000E0002000B10BE002A90220BE
:10AB500000F0F4FDF12803D16FF00E0004B010BD39
:10AB60000020FBE76FF00E00F8E7000001D10000C5
:10AB70002DE9FF4F85B014469946129E002500200E
:10AB8000009082460027FF20307000207070402C1B
:10AB900004DD6FF00C0009B0BDE8F08F059800F0FF
:10ABA00082F88046B8F1000F01D0012000E00020BB
:10ABB00000B175E029466A1CD5B201AA0598505427
:10ABC00001222846691CCDB201A90A540598FFF755
:10ABD00054FF012805D129466A1CD5B201AA06985E
:10ABE00050542846691CCDB201A90C54002C3FD00A
:10ABF000402C02D10820009007E02046E11704EB2A
:10AC00005171C910491CC9B200910098401EA4EBB3
:10AC1000C00000F0FF0ABAF1000F06D0012000FAD0
:10AC20000AF0401E4FFA80FB01E04FF0FF3B009816
:10AC3000012811DD002708E019F807202846691CC3
:10AC4000CDB201A90A54781C47B20098401EB84200
:10AC5000F2DC012002F018F9BAF1000F08D019F85F
:10AC6000070000EA0B0029466A1CD5B201AA50541D
:10AC7000324601A9284600F053FE8046B8F1000F85
:10AC800001D0012000E0002000B109E0314604209D
:10AC900000F054FD10B16FF00E007CE700207AE761
:10ACA0006FF00E0077E7014601F0040008B10020C4
:10ACB00070476FF00E00FBE72DE9F05F80460E460F
:10ACC00017461C460A9D4FF0F1092046E11704EB98
:10ACD0009171C1F38F0A2846E91705EB9171C1F311
:10ACE0008F0B282E0DD12046E11704EB9171C1F393
:10ACF0008F0A5B4652463946404600F0E7F88146E7
:10AD000006E05B4652463946404600F056F881461A
:10AD10004846BDE8F09F2DE9FF4706460F46154619
:10AD20009846DDF8309000242146641C0DF801603F
:10AD300023222146641C0DF801203046FFF785FED2
:10AD4000012808D10DEB0400396801607968416081
:10AD500004F10800C4B24FF6FF7000EA4515304612
:10AD6000FFF783FE30B9EAB22046611CCCB20DF881
:10AD700000200BE0EAB22046611CCCB20DF80020A6
:10AD80002A0A2046611CCCB20DF800202046611C26
:10AD9000CCB20DF800804A466946204600F0C0FD5E
:10ADA0004946042000F0CAFC212804D16FF00E00AF
:10ADB00004B0BDE8F0870020FAE72DE9F04FA5B018
:10ADC0000746884615461E464FF002094FF0000A16
:10ADD0004FF0000B2846E91705EBD1614911491CDA
:10ADE0001FFA81FA3046F11706EBD161C1F34F1B10
:10ADF000012F01D14FF00A0900241AE002A80090A7
:10AE000004EB0B0082B21F2300214846FFF783FFAB
:10AE100018B1F12025B0BDE8F08F08EBC4108022F6
:10AE20000DF10B01FFF7CDFB142002F02DF8601C93
:10AE300084B25445E2DB0020ECE72DE9FF410746F0
:10AE4000884615461E4600242146641C0DF80170F4
:10AE500020222146641C0DF801203846FFF7F5FD3D
:10AE600001280AD10DEB0400D8F800100160D8F8D1
:10AE70000410416004F10800C4B23846FFF7F5FD44
:10AE800030B9EAB22046611CCCB20DF800200BE0CC
:10AE9000EAB22046611CCCB20DF800202A0A2046F6
:10AEA000611CCCB20DF8002032466946204600F005
:10AEB00037FD3146042000F041FCF12804D16FF049
:10AEC0000E0004B0BDE8F0810020FAE72DE9FF474D
:10AED00005460F46904699464FF0020A00244E461A
:10AEE0000DB9F6B208E0012D02D14FF00A0A03E0D5
:10AEF000F12004B0BDE8F087002414E0301986B2D8
:10AF00006B46324600215046FFF797FF08B1F1200B
:10AF1000EFE707EB8400DDF803100160142001F077
:10AF2000B3FF601C84B24445E8DB0020E1E710B5C4
:10AF30000446204600F0E6FC2146042000F0FEFB1B
:10AF400010B16FF00E0010BD0020FCE72DE9F04FAE
:10AF50008BB005460E4614461F4604200A9040A0BA
:10AF6000006801902046E11704EB9171C1F38F094D
:10AF7000A019C11700EB9171C1F38F0A2046E117A8
:10AF800004EB91718910A4EB810101F0FF0BA01972
:10AF9000C11700EB91718910A0EB8101C1F104018F
:10AFA00001F0FF084DB909F0FF008DF8060002AA74
:10AFB00001A9032000F0B4FC11E0012D0FD10A20FB
:10AFC0008DF8040009F0FF008DF806004FEA192003
:10AFD0008DF8070002AA01A9042000F0A1FC9DF849
:10AFE0000800802803D0F1200BB0BDE8F08F5A464E
:10AFF0000DF10B013846FFF7E4FA149880F800B021
:10B000004DB90AF0FF008DF8060002AA01A903203D
:10B0100000F086FC11E0012D0FD10A208DF804000C
:10B020000AF0FF008DF806004FEA1A208DF807009D
:10B0300002AA01A9042000F073FC9DF808008028F2
:10B0400001D0F120D0E7C8F1070002AA81184246DA
:10B05000381DFFF7B6FA159880F800800020C3E786
:10B06000022000002DE9F04387B007460E46144643
:10B070001D462846E91705EB9171C1F38F0920465B
:10B08000E11704EB91718910491C1FFA81F805A89A
:10B0900006A903AB2A46CDE9001021463846FFF742
:10B0A00055FF9DF81810494270189DF8182003A903
:10B0B000FFF787FA30199DF8142004A9FFF781FAE9
:10B0C0009DF81800404231184B464246384600F081
:10B0D0006DF818B1F12007B0BDE8F0830020FAE761
:10B0E0002DE9F047C0B00746884615469946489E68
:10B0F00000244FF0040A2146641C0DF8017021223F
:10B100002146641C0DF801203846FFF79EFC0128FB
:10B110000AD10DEB0400D8F800100160D8F8041033
:10B12000416004F10800C4B23846FFF79EFC30B914
:10B13000EAB22046611CCCB20DF800200BE0EAB266
:10B140002046611CCCB20DF800202A0A2046611C62
:10B15000CCB20DF800200DEB040052464946FFF733
:10B1600030FA04EB0A00C4B23846FFF776FC28B97F
:10B1700032466946204600F0D3FB0AE03246694673
:10B18000204600F0CDFB142001F07EFE3046FFF794
:10B19000CEFE3146042000F0D1FAF12804D16FF040
:10B1A0000E0040B0BDE8F0870020FAE72DE9F04737
:10B1B0008AB006460F4690461C464FF0020900250D
:10B1C000AA460EB9E4B208E0012E02D14FF00A09F6
:10B1D00003E0F1200AB0BDE8F087254614E002A89C
:10B1E00007EB85032A46002100904846FFF778FFC9
:10B1F00008B1F120EEE70AF104001FFA80FA1420EA
:10B2000001F042FE681C85B204EB0800A842E6DCAF
:10B210000020DFE7F8B505460E46012700207F2312
:10B22000194A442100900120FFF746FDD0B10020CB
:10B230007F23154A44210090FFF73EFD88B100208E
:10B240007F23114A20210090FFF736FD48B10020EE
:10B250007F230D4A20210090FFF72EFD08B1012029
:10B26000F8BD00270023324629463846FFF7FAFE8C
:10B2700004460CB1012000E0002000B101E00020F4
:10B28000EEE70120ECE700005415002010B54FF464
:10B29000106002F063F800BF4FF4106002F06EF827
:10B2A0000128F9D10621800201F090FB01F0C2FBD8
:10B2B00001F0C8FB10BD10B500F0A2FC00F080FB4F
:10B2C00000F002F810BD000010B5FFF74BFB074877
:10B2D0004078012800D110BD00F07EFE01F084FC12
:10B2E0000221032000F0ACFD00BFF4E704000020C1
:10B2F000014605290ED2DFE801F0030507090B001E
:10B30000002070470020FCE70020FAE70020F8E763
:10B310000020F6E72220F4E710B5DA48407910B1B2
:10B32000012864D137E0D748007990B9D648008821
:10B3300010B1022808D103E0002000F0CBF907E0AB
:10B34000002000F0C7F903E0002000F0A7F900BFDB
:10B3500020E0CC488079012803D1002000F0BAF920
:10B3600018E0C948008820B1022806D004280CD172
:10B3700007E0002000F0AEF90BE0002000F0AAF991
:10B3800007E0002000F0A6F903E0002000F086F9B5
:10B3900000BF00BF2BE0BD480088082825D2DFE8A9
:10B3A00000F004080C1014181C20002000F092F982
:10B3B0001BE0002000F072F917E0002000F08AF98D
:10B3C00013E0002000F06AF90FE0002000F082F99D
:10B3D0000BE0002000F062F907E0002000F07AF9AD
:10B3E00003E0002000F05AF900BF00BF00BF00BF1B
:10B3F000A448007868B301282FD1A4480088082801
:10B4000025D2DFE800F004080C1014181C200120DD
:10B4100000F060F91BE0012000F040F917E0012086
:10B4200000F058F913E0012000F038F90FE0012096
:10B4300000F050F90BE0012000F030F907E00120A6
:10B4400000F048F903E0012000F028F900BF00BF38
:10B4500003E0012000F03EF900BF00BF8C480078F7
:10B4600040B1012802D0022834D107E0022000F0C8
:10B4700015F92FE0022000F02DF92BE08348008819
:10B48000082825D2DFE800F004080C1014181C204E
:10B49000022000F01FF91BE0022000F0FFF817E087
:10B4A000022000F017F913E0022000F0F7F80FE097
:10B4B000022000F00FF90BE0022000F0EFF807E0A7
:10B4C000022000F007F903E0022000F0E7F800BFD7
:10B4D00000BF00BF00BF6F480078002877D06C48DD
:10B4E0004078072874D2DFE800F00407233F4D6856
:10B4F0008600FFF757F9A0E06748008830B10128BF
:10B5000007D0022808D003280FD108E0FFF766F91A
:10B510000CE0FFF763F909E0FFF760F906E0FFF7D9
:10B5200041F900205A49487000E000BF00BF84E0A4
:10B530005948008830B1012807D0022808D00328D4
:10B540000FD108E0FFF74AF90CE0FFF72BF909E00B
:10B55000FFF744F906E0FFF725F900204C49487051
:10B5600000E000BF00BF68E047480088072190FB6B
:10B57000F1F201FB120010B9FFF730F901E0FFF71B
:10B5800011F95AE04048008830B1022807D0042859
:10B5900008D006280CD108E0FFF720F90BE0FFF7F0
:10B5A0001DF908E0FFF71AF905E0FFF717F902E0C7
:10B5B000FFF7F8F800BF00BF3FE03748008840B110
:10B5C000012809D002280AD0032811D10AE035E069
:10B5D00032E0FFF703F90CE0FFF700F909E0FFF7AD
:10B5E000FDF806E0FFF7DEF800202949487000E08A
:10B5F00000BF00BF21E028480088062819D2DFE8F4
:10B6000000F00306090C0F12FFF7E8F812E0FFF74D
:10B61000C9F80FE0FFF7E2F80CE0FFF7C3F809E024
:10B62000FFF7DCF806E0FFF7BDF800201849487086
:10B6300000E000BF00BF00E000BF00BF134800886B
:10B64000401C1249088014480088401C1249088098
:10B650000D480088401C0C49088008460088462890
:10B6600001DD0020088009480088072802DD00204D
:10B670000649088008480088072802DD002006499E
:10B68000088010BDB0000020420000203E000020D5
:10B690003C000020040000204000002010B50446BB
:10B6A00024B1012C07D0022C0FD109E00421084855
:10B6B00001F0FCF90AE00221054801F0F7F905E084
:10B6C0000821034801F0F2F900E000BF00BF10BDFF
:10B6D0000010014010B5044624B1012C07D0022C03
:10B6E0000FD109E00421084801F0E2F90AE0022143
:10B6F000054801F0DDF905E00821034801F0D8F91B
:10B7000000E000BF00BF10BD0010014038B5044686
:10B7100004A0006800902146684600F099FF0020D0
:10B7200038BD0000550000001FB5002003906B4697
:10B7300003AA0021022000F0A7F81FBD02460878E6
:10B74000212801D123207047082A61D008DC012A72
:10B7500013D0022A17D0042A24D0072A6BD14CE038
:10B76000092A60D00A2A64D0552A64D1087855285D
:10B7700001D10020E7E72120E5E7087808B900209B
:10B78000E1E72120DFE7087820B1822804D0832870
:10B7900006D103E00020D6E72120D4E72120D2E71C
:10B7A0002120D0E708788038112824D2DFE800F083
:10B7B00009232323232311131517191B1D1F2123CD
:10B7C0000F00487808B10020BDE72120BBE700202A
:10B7D000B9E72120B7E72120B5E72120B3E72120F1
:10B7E000B1E72120AFE72120ADE72120ABE7212001
:10B7F000A9E72120A7E72120A5E7087810B1822832
:10B8000004D101E000209EE721209CE721209AE757
:10B81000087810B1822804D101E0002093E72120AC
:10B8200091E721208FE7087808B900208BE72120D5
:10B8300089E7212087E7012085E7000010B5002473
:10B840004FF481710F48FEF733FF00F095FE00BF03
:10B850000C48FFF75BFF0B480078552801D100200A
:10B8600010BD00F089FE0A2001F00EFB05480078AB
:10B87000552804D02046611C8CB20528E8DB262020
:10B88000EEE70000E01500202DE9FC4105460E46DC
:10B8900017461C464FF481711948FEF709FF1848F6
:10B8A000FFF734FF16480078552801D0FFF7C6FF90
:10B8B00021202070002060703046FFF719FD4FFAFC
:10B8C00080F8B8F1000F01D0012000E0002000B1A5
:10B8D00013E002208DF800008DF801508DF8026011
:10B8E0006A1E39460DF10300FEF76BFE21466846DD
:10B8F00000F0AEFE0020BDE8FC812220FBE7000046
:10B90000E015002038B5044604A0006800902146E8
:10B91000684600F09DFE002038BD000004000000D5
:10B9200070B5C2B004460E4615462120287000208E
:10B930006870012C03DBFF2C01DC012000E00020FB
:10B9400010B9272042B070BD04208DF804008DF896
:10B950000540224631460DF10600FEF732FE29462B
:10B9600001A800F075FE29460420FFF7E7FE30B17C
:10B970002878872801D12820E4E72120E2E7002069
:10B98000E0E72DE9F041C2B004460D4616461F46D9
:10B99000DDF8208109208DF804008DF805408DF830
:10B9A00006508DF80760A21E394602A8FEF709FE70
:10B9B000414601A800F04CFE002042B0BDE8F081F5
:10B9C00010B50121084801F035FB08490860002145
:10B9D000074801F05DFB074908600846006800B9A8
:10B9E00010BD00BFFCE700003CF40008640000202C
:10B9F0002CF400086000002010B50F4802F0C6FDCE
:10BA00000D4802F0B3FD4FF400410C4801F04EF830
:10BA100000200B49087004210A4801F047F84FF450
:10BA2000FA6001F031FA0421064801F041F800F013
:10BA30005FF80349087010BD00380040000801405D
:10BA400050000020001401402DE9F04180460E46D0
:10BA500015461F46FF2D01DDFF2000E02846054664
:10BA6000002409E0315D404600F00AF83855052011
:10BA700001F00AFA601CC4B2AC42F3DBBDE8F0810D
:10BA80002DE9F04106460F4601F052FA04461648E9
:10BA900000884CF250314843144909884CF2503226
:10BAA000514300EB214500BF0221304602F09AFDD0
:10BAB00020B901F03DFA001BA842F5D339463046C3
:10BAC00002F062FD00BF0121304602F08BFD20B97B
:10BAD00001F02EFA001BA842F5D3304602F050FDCB
:10BAE000C0B2BDE8F081000054F4000856F400082C
:10BAF00010B5FEF799FEFEF79BFE08B1002010BDC1
:10BB00000120FCE770B505460E46002404E0285DE0
:10BB100000F006F8601C84B2B442F8DB70BD00008F
:10BB200010B504462146024800F00AFA10BD000094
:10BB30000038014070B506460C464FF47A710C4847
:10BB4000006801F001FA054605B970BDB4F5807FC3
:10BB500001DD4FF480742C8022463146A81CFEF78C
:10BB600030FD29460248006801F02BFA00BFECE7DF
:10BB70002400002010B540F2026001F087FC40F282
:10BB80000E6001F083FC4FF40073032218211A4861
:10BB900000F090FF4FF4806303220421164800F068
:10BBA00089FF164803F06EF94FF4E131134803F0B2
:10BBB00017F90021114803F0EAF900210F4803F0BA
:10BBC00006FA00210D4803F0F2F904210B4803F0B6
:10BBD000E6F90821094803F0F2F9084803F09AF958
:10BBE00000221146252001F0E3F840F20531034818
:10BBF00003F0A4F910BD0000000801400038014026
:10BC000010B501F09BF800211D4801F0E5F91D4930
:10BC1000086000211C4801F0A5F91C49086008468D
:10BC2000006800B910BD0021194801F09BF91949BD
:10BC300008600846006800B9F4E70021164801F0E2
:10BC400027FA164908600846006800B9EAE70021AB
:10BC5000134801F01DFA134908600846006800B94E
:10BC6000E0E70021104801F013FA10490860084687
:10BC7000006800B9D6E7FFF77DFF00BFD2E70000FC
:10BC8000D4F200080C000020DCF2000818000020AC
:10BC9000E8F2000824000020F4F200082C00002044
:10BCA00004F300083000002014F3000834000020E2
:10BCB0002DE9F04104460F460026002520783E2855
:10BCC00018D16678012E04D0022E06D0032E0FD193
:10BCD00007E0A01C00F0ACFA0BE0A01C01F020FC77
:10BCE00007E000202E490870A01C00F0F5FA00E0E3
:10BCF00000BF52E00F222BA12046FEF717FCD8B957
:10BD00003E202C49087048704F2088704B20C87026
:10BD100004212848FEF778FD0546264805710521CF
:10BD2000FFF708FF40F6B83001F0AEF801221146E7
:10BD30002148FEF7B3FD30E0082220A12046FEF79F
:10BD4000F5FB90B93E201B4908704870562088705A
:10BD50006E20C87004211748FEF756FD05461548A9
:10BD600005710521FFF7E6FE17E0062216A1204621
:10BD7000FEF7DCFB88B900BFBFF34F8F14480068A3
:10BD800000F4E06013490843001D11490860BFF347
:10BD90004F8F00BF00BF00BFFDE7BDE8F08100008E
:10BDA00071000020474F544F5F424F4F545F4D4F3B
:10BDB000444500000811002000F80308564552537E
:10BDC000494F4E3F000000005245424F4F54000083
:10BDD0000CED00E00000FA0570B506460C464FF485
:10BDE0007A710C48006801F0AFF8054605B970BDDE
:10BDF000B4F5807F01DD4FF480742C8022463146FB
:10BE0000A81CFEF7DEFB29460248006801F0D9F8BD
:10BE100000BFECE71800002007490A880988491C80
:10BE2000054B19800549885419460988FF2902DD08
:10BE300000211A46118070472800002008100020B9
:10BE400030B1012805D0022804D003280BD104E02A
:10BE500009E008E0054A117005E00022044B1A8051
:10BE6000024A517000BF00BF704700003C00002034
:10BE70004000002010B51248006840F470001049DE
:10BE800008601048006840F001000E49086000207A
:10BE90004860C862084600680B49084009490860C4
:10BEA0004FF41F0088600846006820F48020086076
:10BEB00002F0B6FE054802498039086010BD000056
:10BEC00088ED00E000100240FFFFF6FE00A0000831
:10BED00010B501210E4802F077FFB8B101210C48DE
:10BEE00002F06EFF0B48007840B94FF400610A4839
:10BEF00000F0DCFD01200749087007E04FF4006105
:10BF0000054800F0D5FD00200249087010BD000072
:10BF100000100040450000200008014010B5044614
:10BF2000FFF702FC0A2000F0AFFF2046FEF7ADFD50
:10BF300008B9012010BDFFF7F7FB0020FAE7000069
:10BF40002DE9F04104460D4600F0F2FF06460E488A
:10BF500000884CF2503148430C4909884CF2503269
:10BF6000514300EB214700BF0721204602F0D7FFD5
:10BF700020B900F0DDFF801BB842F5D329462046EA
:10BF800002F07BFFBDE8F08154F4000856F400088D
:10BF900010B50A490A4802F0DEFF70B1084802F005
:10BFA00067FF084908700848006830B10022084659
:10BFB00001780548006801F031F810BD050305005F
:10BFC000003801403B0000200C00002010B5044662
:10BFD000FFF7A2F910BD000010B5002201210948A9
:10BFE00001F08AF8084908600846006840B19621C7
:10BFF0000548006801F096F8044604B110BD00BF82
:10C0000000BFFBE724F40008480000200FB410B57F
:10C0100086B0002002900390049005903748006895
:10C02000019000243648007820B9A01E06B010BC4C
:10C030005DF814FBC82000F027FF50213148FEF7BF
:10C0400037FB0F221CA92F48FEF7BBFA0F211CA8B3
:10C0500000F0B0F804462B48C4732B220CA9103012
:10C06000FEF7AFFA2B210CA800F0A4F804462548EF
:10C0700080F83B402C99C1632D990164BDF8B8103C
:10C08000A0F8441012303099416331998163BDF8B2
:10C09000C810818741F288311B48006800F0ECFF2E
:10C0A0001A48FFF73BFF18B30822184901A8FEF70A
:10C0B00011FA90B115480168019140680290502131
:10C0C0001048FFF7A7F898B1FFF796FC0E480068F4
:10C0D00000F0C6FF4FF0FF30A8E7FFF725FBFFF7A2
:10C0E0008BFC0948006800F0BBFF4FF0FF309DE774
:10C0F0000548006800F0B4FF002097E740F400080E
:10C10000500000200213002064000020A011002035
:10C1100000280DDB00BF00BF00F01F02012191408D
:10C120004209920002F1E022C2F8001100BF00BFF4
:10C13000704710B5002A06DA22F00042D21D22F024
:10C140000703102203E0D21C22F003030C2213B1D8
:10C150009C188C4201D9012010BD02440144836027
:10C16000C0E90021C91AD018884202D810600246DE
:10C17000F9E70020106010BD05490978002905D0B5
:10C1800000684FF6FF71DFF80CC000DF7047000059
:10C1900089000020B1DC000804490978002903D097
:10C1A0000068DFF80CC000DF704700008900002045
:10C1B000D9DB000810B502460B460024002103E03D
:10C1C000505C0444481C81B29942F9DBE0B210BDD6
:10C1D00008480068C0010BD507480068C00707D0B1
:10C1E000054880380068002802DA044901200870F8
:10C1F00070470000FCED00E0800E00E0AC00002085
:10C200004FF06042D36F002BFCD0036BD367D36F2A
:10C21000002BFCD0C07840EA0120A2F87C007047D7
:10C220004FF06041CA6F002AFCD081F87C00704753
:10C2300010B50446207800F00100234908702078EA
:10C24000C0F3400048712078C0F3800088712078E6
:10C25000C0F3C000C8712078C0F300104870207887
:10C26000C0F3401088702078C0F38010C870207828
:10C27000C0090871607881F8B800A07881F8B90029
:10C280001248007891F8B81088420AD00E4890F809
:10C29000B8000E4908700846017800220C48FEF7E5
:10C2A000FDFA0A484078084991F8B91088420AD046
:10C2B000054890F8B90005494870084641780022C1
:10C2C0000448FEF7EBFA10BDB00000200400002087
:10C2D00000E8030800E00308F0B5A9B004462078A0
:10C2E00000F00F0042490872207801114048417265
:10C2F000607900232279190641EA122115061A46AF
:10C300000B4642EA05011843E3780022120442EA90
:10C31000134241EA03411043A3780022120242EA89
:10C32000136541EA032240EA050160780023C5B2A3
:10C3300003EA03002A4301432D48C0E904212C22CB
:10C3400004F108011830FEF73CF9102204F1340121
:10C3500027485830FEF735F925498831626C0A6163
:10C36000A26C4A61B4F84C000883D4F84E200A62EB
:10C37000D4F852204A62B4F8560008851C48007A66
:10C38000012808D100210220FFF75AFD06210320D1
:10C39000FFF756FD0BE01648007A022807D102216C
:10C3A0000846FFF74DFD05210320FFF749FD104822
:10C3B000407A012819D10E48D0E904320D48D0E95D
:10C3C00000105940504001430FD1A02208491831B4
:10C3D0006846FEF73BF9064808300FC8FFF716FE1F
:10C3E00018B90021044802F0A1F829B0F0BD0000FE
:10C3F000B000002058000020A011002000B587B038
:10C4000040F2036001F042F84FF4C06001F03EF8E2
:10C410004FF4805303221021294800F04BFB4FF4C6
:10C42000204303221821264800F044FB4FF48043A8
:10C4300003220421224800F03DFB4FF480512048A4
:10C4400000F036FB40F2056001F020F804230322DF
:10C4500010211C4800F02EFB04211A4800F028FB94
:10C4600040F2026001F012F80121174800F074FB5D
:10C470004FF4004303221021144800F01BFB4FF43B
:10C480000041124800F014FB40F20E7000F0FEFF75
:10C49000002001904FF482700090002002900590DF
:10C4A0004FF400700390202006900020049069460D
:10C4B000074802F09FF8064802F05DF807B000BD9B
:10C4C000000C01400014014000023000000801404F
:10C4D0000038004010B504464FF480712348FEF741
:10C4E000E7F84FF48051224800F0E0FA022000F013
:10C4F000CBFC02211F48FFF7C3FAFF211D48FFF7BD
:10C50000BFFA2070207855280CD100206070FF21E0
:10C510001848FFF7B5FAA070FF211648FFF7B0FAE8
:10C52000E0701CE02078FF280CD100206070FF2113
:10C530001048FFF7A5FAA070FF210E48FFF7A0FAF8
:10C54000E0700CE0FF210B48FFF79AFA607060780A
:10C5500028B16278A31C05490648FFF775FA4FF425
:10C560008051034800F0A4FA10BD000052130020CF
:10C57000000C01400038004010B54FF480510F48C6
:10C5800000F096FA012000F07FFC4FF480510B4838
:10C5900000F08CFA022000F077FC00F09BF84FF4DA
:10C5A0008051064800F084FA032000F06DFC00F092
:10C5B00033F80A2000F068FC10BD0000000C0140B8
:10C5C00070B50024052500BF4FF48051104800F0DD
:10C5D0006DFA022000F058FC03210E48FFF750FAD4
:10C5E000044604F008040A2000F04EFC082C04D095
:10C5F000281EA5F101014DB2E6D14FF48051044847
:10C6000000F056FA002D01DC012070BD0020FCE78F
:10C61000000C01400038004010B54FF400410B48B9
:10C6200000F046FA012000F02FFC4FF400410748CB
:10C6300000F03CFA012000F027FC4FF400410348D1
:10C6400000F036FA0A2000F01FFC10BD000801407F
:10C6500070B505460C46284600F00CF8FFF7B0FF11
:10C6600018B1FD202070012070BD2046FFF732FF79
:10C670000020F9E710B504464FF480711248FEF728
:10C6800017F84FF48051114800F010FA022000F022
:10C69000FBFB00210E48FFF7F3F92078552804D161
:10C6A00055210B48FFF7ECF907E06078801CC2B217
:10C6B000054B21460648FFF7C7F94FF48051034860
:10C6C00000F0F6F910BD000052130020000C0140EC
:10C6D0000038004010B501210148FFF7D1F910BD25
:10C6E0000038004001460868704700B50346012243
:10C6F00000BF00F00BF802465B1E012A01D1002B9F
:10C70000F7D1012A00D10422104600BD00200A49B9
:10C71000C96801F0010109B101200CE00649C968AE
:10C7200001F0100109B1032005E00349C96801F0D7
:10C73000040101B1022070470020024000B5034609
:10C74000012200BF00F00CF802465B1E012A01D155
:10C75000002BF7D1012A00D10422104600BD0000B1
:10C7600000200A49C96C01F0010109B101200CE067
:10C770000649C96C01F0100109B1032005E0034925
:10C78000C96C01F0040101B1022070470020024091
:10C79000064A02EB9011096800F01F0301229A403B
:10C7A0001143024B03EB90121160704700200240CE
:10C7B0000848006940F08000064908610648008882
:10C7C000B0F5007F04D90846006D40F08000086590
:10C7D0007047000000200240E0F7FF1F30B505461B
:10C7E00036480088B0F5007F48D9354885421ED2CA
:10C7F0004FF47020FFF779FF0446002C5BD13148DD
:10C80000006940F002002F4908610846456100694F
:10C8100040F0400008614FF47020FFF766FF0446C7
:10C820002848006920F002002649086143E04FF4DF
:10C830007020FFF783FF0446002C3CD12148006D97
:10C8400040F002001F49086508464565C06900F0D0
:10C85000020008B1084645611A48006D40F04000EA
:10C86000184908654FF47020FFF768FF0446154823
:10C87000006D20F00200134908651CE04FF47020A1
:10C88000FFF733FF0446B4B90E48006940F00200D8
:10C890000C49086108464561006940F040000861A4
:10C8A0004FF47020FFF721FF04460648006920F08E
:10C8B000020004490861204630BD0000E0F7FF1F78
:10C8C000FFFF0708002002400C48006900F08000CC
:10C8D00020B10B48094948600A4848600A48008866
:10C8E000B0F5007F09D90548006D00F0800020B147
:10C8F00003480249486403484864704700200240E6
:10C9000023016745AB89EFCDE0F7FF1F70B5044603
:10C910000D4600262A480088B0F5007F35D9294801
:10C92000844219D24FF47020FFF7DFFE0646002E36
:10C9300043D12548006940F0010023490861256082
:10C940004FF47020FFF7D1FE06461F48006920F023
:10C9500001001D49086130E04FF47020FFF7EEFE42
:10C96000064656BB1848006D40F0010016490865A0
:10C9700025604FF47020FFF7E1FE06461248006D77
:10C9800020F001001049086517E04FF47020FFF710
:10C99000ACFE06468EB90C48006940F001000A4919
:10C9A000086125604FF47020FFF79FFE0646064899
:10C9B000006920F0010004490861304670BD0000A4
:10C9C000E0F7FF1FFFFF07080020024030B50246D6
:10C9D0000B46164C002145F25550154D286000BFFE
:10C9E0001348C06800F00101601E041E01D0002938
:10C9F000F6D109B1002030BD0D4843600B4C00BF9B
:10CA00000B48C06800F00201601E041E01D000291E
:10CA1000F6D109B10020EEE7C2F30B00044DA86087
:10CA20004AF6AA2028600120E5E70000FFFF0F007A
:10CA3000003000404AF6AA20014908607047000013
:10CA4000003000404CF6CC400149086070470000BF
:10CA50000030004000200549087008460078022890
:10CA600001DD0020704701480078FBE7440000200A
:10CA70000D480078062813D2DFE800F012030609FB
:10CA80000C0F40F2145070474FF49660FBE740F2F1
:10CA90004C40F8E740F21A40F5E74FF47A70F2E7BD
:10CAA0004FF47A70EFE70000040000204161704706
:10CAB00001617047F0B50C4616460025002204F0CF
:10CAC0000F0504F0100747B1042E05D145F003050A
:10CAD000C76B1F43C76300E03543002118E00127FF
:10CAE0008F401F4097B102684FEA810C0F2707FA69
:10CAF0000CF7BA438F0005FA07F73A43282C01D107
:10CB0000436102E0482C00D1036102604F1CB9B2BE
:10CB10000829E4D308211CE001278F401F40B7B14A
:10CB20004268A1F108074FEA870C0F2707FA0CF7B4
:10CB3000BA43A1F10807BF0005FA07F73A43282CCA
:10CB400001D1436102E0482C00D1036142604F1CD7
:10CB5000B9B21029E0D3F0BDF0B50A460023002495
:10CB60000021002500F00046B6F1004F02D11D4E15
:10CB7000F16901E01B4E7168C0F3034583B200F414
:10CB80004016B6F5401F08D121F07061154E766849
:10CB900026F07066134F7E6012E000F48016B6F542
:10CBA000801F06D1032606FA05F4A14341F0706107
:10CBB00006E0460D360103FA06F6B14341F0706116
:10CBC00022B1460D360103FA06F6314300F0004665
:10CBD000B6F1004F02D1034EF16101E0014E7160E8
:10CBE000F0BD0000000001401FB540F2047000F0ED
:10CBF0004DFC0D4802F018F81620ADF8000000209A
:10CC0000ADF80200ADF80400FFF732FF02904FF4D8
:10CC10008070ADF80C0000208DF80E0069460248C7
:10CC200002F07AF81FBD00000010004010B5054862
:10CC30000078FF2802D1FFF70DFF10BD01480078F2
:10CC4000FBE70000440000200EB5802200B109B1CE
:10CC500010460AE001780129FAD101A900F034F860
:10CC6000042801D0002000E01020DDE9011203B00B
:10CC700000BD70B50D46040003D012B9207801281C
:10CC800001D0802070BD204600F054FE28B1294616
:10CC9000204600F044F8002070BD812070BD10B522
:10CCA00000F0C6FD10B10178022901D0802010BD2E
:10CCB0004188A1F57F42FF3A03D000F037F8002009
:10CCC00010BD812010BD000010B5044680890028E9
:10CCD00024D0608904EB800000690860606840B17E
:10CCE0006078022805D10021204601F06BF801F0A0
:10CCF00059F804F10C0000BFD0E85F1F491E8AB24A
:10CD0000C0E8512F0029F7D16089401C80B26081B2
:10CD1000E189884201D100206081042010BD10B556
:10CD200001F050F8BDE8104001F03CB810B500210A
:10CD300001F048F8BDE8104001F034B810B50848DB
:10CD4000FDF7A2FD074908700748FDF79DFD05495D
:10CD500048700648FDF798FD0249486010BD000084
:10CD600000E803080400002000E0030800D80308DE
:10CD700000BF002000F034FA00F092F8FEF786FAC7
:10CD8000FEF799FA00F09EF800BFFFF753FE64200B
:10CD900000F07AF8F9E7000000F01F02012191404D
:10CDA000024A431142F823107047000080E100E07E
:10CDB0002DE9F04103460D46164600240027A04603
:10CDC0002A48006800F4E060B0F5E06F03D100BFCE
:10CDD0004FF0040830E02548006800F4E060B0F54A
:10CDE000C06F03D101274FF0030825E01F480068FA
:10CDF00000F4E060B0F5A06F02D10227B8461BE056
:10CE00001A48006800F4E060B0F5806F03D1032792
:10CE10004FF0010810E01548006800F4E060B0F53C
:10CE2000407F03D104274FF0000805E04FF4A060D5
:10CE300000F020F80227B846C7F1040005FA00F414
:10CE4000C8F104010F20C8403040044324010848C1
:10CE5000C45403F01F01012088405911890001F1D9
:10CE6000E021C1F80001BDE8F08100000CED00E018
:10CE700000E400E002490143024A116070470000EB
:10CE80000000FA050CED00E0EFF3058109B1822006
:10CE90007047DFF808C000DF7047000027E6000891
:10CEA000EFF3058008B182207047EFF31480C007CC
:10CEB00003D0DFF80CC000DF704701F0BDBB0000FD
:10CEC00039E6000888B0EFF3058010B1822008B081
:10CED0007047EFF3148010F00301134806D00129C6
:10CEE0001BD0022911D0032919D113E008A981F31D
:10CEF00009880078C0070BD05FF0020080F3148827
:10CF0000BFF34F8FBFF36F8F09E00078C00706D1E2
:10CF10000320F3E70078C00701D0FF20D7E7DFF850
:10CF20000CC000DFD3E700005CF40008A9E60008AD
:10CF3000EFF3058008B100207047DFF808C000DF7C
:10CF400070470000F1E60008EFF3058212B10122FC
:10CF500001F054BD0022DFF808C000DF7047000078
:10CF6000FDE90008EFF305820AB100207047EFF3F6
:10CF70001482D20702D1044A52781AB1DFF80CC0E9
:10CF800000DF704701F0D0BB8800002029E70008CF
:10CF9000EFF3058212B1012201F05CBD0022DFF83F
:10CFA00008C000DF7047000055EA000810B530B136
:10CFB000006800F027F8102800D1202010BD802044
:10CFC00010BD20B129B10068002200F027B88020F0
:10CFD0007047862070470000EFF305820AB10020F9
:10CFE0007047EFF31482D20702D1044A52781AB183
:10CFF000DFF80CC000DF704701F0B7BB88000020ED
:10D000006BE70008EFF305820AB1FFF71DBEDFF8FA
:10D0100008C000DF704700008FE70008EFF30583CA
:10D020000BB1FFF726BEDFF808C000DF7047000035
:10D03000C9E70008EFF305820AB100207047EFF35B
:10D040001482D20702D1044A52781AB1DFF80CC018
:10D0500000DF704701F0D3BB88000020FFE7000825
:10D06000EFF3058109B1FFF71ABEDFF808C000DF52
:10D070007047000023E80008EFF3058212B14FF07B
:10D08000FF307047DFF804C000DF70474BE800084E
:10D09000EFF305820AB100207047EFF31482D20744
:10D0A00002D1044A52781AB1DFF80CC000DF704791
:10D0B00001F0E4BB880000207DE80008DFF80CC028
:10D0C00000DFDFF80CC000DFFEE70000E9E8000841
:10D0D00005E90008EFF3058008B182207047DFF80A
:10D0E00008C000DF704700003DE90008DFF804C019
:10D0F00000DF704747E90008EFF305830BB100201C
:10D100007047EFF31483DB0702D1044B5B781BB14C
:10D11000DFF80CC000DF704701F022BC880000205F
:10D1200061E90008EFF305820AB182207047DFF859
:10D1300008C000DF7047000099E90008094C4FF073
:10D14000FF3529462068FFF75DFF02460846102A92
:10D15000F7D1FFF7CBFF0028F3D0024608469047EF
:10D16000EFE7000078000020012806D0022805D053
:10D17000032804D0042804D102E003E002E001E027
:10D1800000E000BF00BF00BFFEE700BFFEE70000F9
:10D19000074801684FF0E0204161002181610721CB
:10D1A00001610448016841F07F4101604017704708
:10D1B00058F4000820ED00E07047000002480068C5
:10D1C000C0F380607047000004ED00E04FF0E02005
:10D1D000806902490968081A7047000058F400087D
:10D1E0002DE9F04F8CB0074600200A904AA090E845
:10D1F000004CC068CDE905BECDF810A007900FF235
:10D200001C1ADAE9000ACDE9020A0FF2101ADAE96B
:10D21000000ACDE9000A44484068C0F381000B9041
:10D220000B9820B1012804D002283FD103E03F4AE7
:10D230003EE03E4A3CE03C48406800F4803CBCF59F
:10D24000803F12D13848C06A00F08048B8F1000F22
:10D2500001D1364C00E0364C3348406800F40039C8
:10D26000B9F5003F02D1334C00E0324C2E48406803
:10D27000C0F383412C48406800F0006008B141F0E1
:10D2800010012948406800F0804008B141F02001B9
:10D290000F2901D2891C06E00F2903D33E2901D8AA
:10D2A000491C00E03F2104FB01F201E01F4A00BFDE
:10D2B00000BF1D484068C0F3031504A8465D22FA6C
:10D2C00006F319484068C0F3022502A8465D23FA18
:10D2D00006F0099014484068C0F3C2251DF80560A7
:10D2E00023FA06F0089037B1012F06D0022F06D09E
:10D2F000032F0AD106E00A9208E00A9306E0099893
:10D300000A9003E008980A9000E000BF00BF0A9866
:10D310000CB0BDE8F08F000000000000000000002D
:10D3200001020304060708090010024000127A00F7
:10D33000006CDC0200093D000146074A02EB911037
:10D34000006801F01F0301229A40104008B101203B
:10D3500070470020FCE7000000100240064A02EB84
:10D360009011096800F01F0301229A401143024BFB
:10D3700003EB90121160704700100240F0B50646B2
:10D38000002400270025B6F5006F1FD005DC86B30A
:10D39000102E0BD0182E72D160E0B6F5106F4BD066
:10D3A000A6F540501038002869D133E004E0112080
:10D3B000FFF7C2FF0546641C15B9B4F5006FF6D13E
:10D3C0001120FFF7B9FF00B1012759E005E040F651
:10D3D0000100FFF7B1FF0546641C1DB96FF07C40EA
:10D3E0008442F4D140F60100FFF7A6FF00B1012707
:10D3F00046E0FFE704E00120FFF79EFF0546641CBE
:10D4000015B9B4F5A06FF6D10120FFF795FF00B173
:10D41000012735E005E043F21100FFF78DFF0546D7
:10D42000641C15B918488442F5D143F21100FFF786
:10D4300083FF00B1012723E005E040F60110FFF76C
:10D440007BFF0546641C15B90F488442F5D140F6B0
:10D450000110FFF771FF00B1012711E004E019206E
:10D46000FFF76AFF0546641C15B907488442F6D1E8
:10D470001920FFF761FF00B1012701E0FFE700BFBE
:10D4800000BF3846F0BD0000FFFF0F00064A02EB68
:10D490009011096800F01F0301229A401143024BCA
:10D4A00003EB90121160704700100240064A02EB35
:10D4B0009011096800F01F0301229A409143024B2A
:10D4C00003EB90121160704700100240064A02EB15
:10D4D0009011096800F01F0301229A401143024B8A
:10D4E00003EB901211607047001002401FB500243A
:10D4F000002000900190029003903E208DF80000E3
:10D5000002208DF8010002216846FDF77DF90446EE
:10D510008DF8024003216846FEF70CFB1FBD00009A
:10D520007FB5044600252078012811D160780006D7
:10D53000A17840EA0140E17840EA012021790843DE
:10D54000184948600846002241681748FDF7A6F9C7
:10D55000002000900190029003903E208DF8000082
:10D560000A208DF801000F484068000E8DF8020077
:10D570000C484068000C8DF803000A488088000AB7
:10D580008DF80400074800798DF8050006216846EB
:10D59000FDF73AF905468DF8065007216846FEF773
:10D5A000C9FA7FBD0400002000D8030850E8001F1E
:10D5B00031B10B6840E80032002AF7D108467047C5
:10D5C000BFF32F8FFAE710B568B161B10B3121F0CD
:10D5D0000302016844680B1A1B1B934205D20846DC
:10D5E00009680029F5D1002010BD210007D02118BD
:10D5F0000368C1E90032016001F1080010BD42601A
:10D60000083010BD70B50D46002812D04FF6FF71DE
:10D61000084C884204D222680146104600F000FC03
:10D6200020684570044800F0DDF8BDE8704000F067
:10D6300005BD70BD90000020445800200F4810B573
:10D640000D4942680E480B680068934204D00A6096
:10D65000CB88421E1A448A808A8880B282420AD1CC
:10D6600000200860054800F0BDF80146BDE8104004
:10D67000024800F0F9BB10BDA4000020445800206F
:10D68000A000002070B5194DE86800282CD0A88AA9
:10D69000401EA882002621E0A06838B16168416080
:10D6A000606810B1A16881606660A6600F4821467D
:10D6B000183800F0D9FBA08AA8826078042804D129
:10D6C0000B49E08A09880844A08201206070E06864
:10D6D000E860E06808B10561E6602661A88A002874
:10D6E00002D1EC68002CD7D170BD00005C5800203E
:10D6F000A000002070B504000FD00D4DA1780126C8
:10D700002868827891420CD900F0CAFB28684670DC
:10D710002046BDE8704000F091BC064800F062F879
:10D72000F7E766702146BDE87040024800F09CBBF8
:10D7300090000020445800200321FFF763BF000041
:10D7400010B50446008B084320836278618B062A5B
:10D7500018D0052A19D1084217D001EA00026283C5
:10D7600088432083204600F0D5FB01206070628B47
:10D770000821204600F0C6FB2146BDE810400348C2
:10D7800000F072BB31EA0002EAD010BD445800201C
:10D79000814202D342688A4201D801207047026860
:10D7A0000A60BFF35F8F50E8003F0A689A42F6D1E3
:10D7B00040E80012002AF2D10020704768B161B140
:10D7C0000022083902E00246006830B18842FAD1EE
:10D7D0002AB10068106000207047012070470021C6
:10D7E0004160F8E70146406842684A600B780022D1
:10D7F000022B05D0012B03D0032B01D042607047D0
:10D8000043680BB199604260826070470649074BDC
:10D8100048681B6882789B789A4202D142684A60C5
:10D8200070470020704700004458002090000020FE
:10D83000810700D00020704770B5044600201546CF
:10D84000207001226270A17084F824106060A060D2
:10D85000E06020612062A082E0822083608384F8FF
:10D860002500E08C18B90548FFF7A0FEE0622946C4
:10D870002046BDE8704000F01DB8000030190020BF
:10D8800008B1082901D2012070470144091F002274
:10D8900001600A60426010467047000003480021A2
:10D8A000016003490988C18070470000A40000207E
:10D8B0004CF4000870B5C28C1C4D930802D12A8824
:10D8C000C2F38D03C26A02EB8302540700D5121F14
:10D8D0004FF0807442E9021400242646B2F140025F
:10D8E00042F82460641C0E2CFAD3C469146282626C
:10D8F00001632968C90014D5112B12D94FF0FF31EB
:10D90000103B11EB53014FF0CC3305D042F8043CEF
:10D9100042F8083D491EF9D1C16A121F8A4200D956
:10D920001360C06A0249016070BD000048F400083D
:10D93000A52E5AE2C1898089081A70470122027017
:10D9400000224270827042600281428110398281DD
:10D950008908C181704700002DE9F0410446406804
:10D960000E464FF0000804F10C05E8B3607801277B
:10D9700001283ED0022813D003285CD10846FFF7C7
:10D9800015FE050057D02046FFF72CFF0446294618
:10D9900000F0B2FA6770204600F0BCFA214621E0A0
:10D9A0002046FFF71FFF0646002100F0A5FA218957
:10D9B000F06904EB81010861D5E85F0F401C81B27A
:10D9C000C5E8501F0028F7D12089401C80B2208173
:10D9D000E189884201D1A4F808807770304600F0D0
:10D9E00099FA3146174800E00CE0BDE8F04100F03C
:10D9F0003BBA2046FFF7F6FE04463246102100F0FF
:10DA000081FAC7E7A089E189884216D2208904EB10
:10DA100080000661D5E85F0F401C81B2C5E8501F49
:10DA20000028F7D12089401C80B22081E1898842FA
:10DA300001D1A4F80880BDE8F081BDE8F0410320E1
:10DA4000FFF792BB4458002070B5164642680D4659
:10DA500012B1417801290BD08189C4890023A142E8
:10DA600024D19EB11D4C216892B100F0FDF916E061
:10DA7000FFF7B8FE04462A46102100F043FA20467C
:10DA800000F048FA2046FFF735FE25E0012070BD82
:10DA9000416021684B6021688860022141702068E4
:10DAA0000821C5613046FFF7ADFDEFE7018900EBC6
:10DAB00081010D6100F10C01D1E85F2F521C94B27D
:10DAC000C1E8524F002AF7D10189491C89B201816E
:10DAD000C289914200D10381002070BD90000020D6
:10DAE00070B50446808915460026C0B3608904EBF2
:10DAF0008000006908606089401C80B26081E18913
:10DB0000884200D16681606810B1607802280BD02D
:10DB100014F10C04D4E85F0F401E81B2C4E8501F1A
:10DB20000028F7D1002070BD2046FFF75BFE0546B8
:10DB3000002100F0E1F92189E86904EB8101086125
:10DB40002089401C80B22081E189884200D1268151
:10DB5000284600F0DFF92846FFF7CCFDE2E7FFE7B3
:10DB60003DB10B48626801682AB1204600F07CF99B
:10DB700008E0012070BD616001684E60006884604B
:10DB80000120607008212846FFF73CFDF1E7000006
:10DB900090000020002814D0411C13D00C4A4FF6EE
:10DBA000FE7190420CD800EB4002C2EBC012094853
:10DBB000036803EBC202521EB2FBF3F0884204D9A1
:10DBC000084670474FF6FF70704780B270470000FC
:10DBD00000093D0068F400082DE9F0410446408842
:10DBE00020B1314DA1682A68914202D0FF20BDE8E2
:10DBF000F081401E0004000C608053D12968086A3F
:10DC0000A04209D1E068086208E0C268A24202D1DD
:10DC1000E268C26002E010460028F6D191F82400C4
:10DC20000A6A06E053681BB19B78834200D9184604
:10DC3000D268002AF6D18870DFF87080616801260A
:10DC400011B32046FFF7CEFD0746002100F054F93E
:10DC5000384600F05FF96680A760386AE0603C6291
:10DC60002968D8F804008A788078824201D338463F
:10DC700016E00E4800F0F8F839460C4800F0F4F8C9
:10DC8000286846707E700AE0D8F804108A782968FF
:10DC9000824207D9054800F0E7F82868467000205E
:10DCA000FFF728FD0020A2E7900000204458002044
:10DCB00070B51C4D0E4604464188286861B1A268C3
:10DCC000824210D1A1F57F40FF3803D0491C61800A
:10DCD000002070BDFF2070BDA060016AE160046299
:10DCE00001206080F4E776B191788078814203D298
:10DCF0009070A06800F0DEF8606830B120462968B6
:10DD000000F0B2F808E0012070BD28686060296862
:10DD1000002048602868846009213046FFF772FCC3
:10DD2000F1E700009000002070B51B480121026857
:10DD30005170006800F0B4F8184D6C7818E000BF1E
:10DD400005EBC40148680278EAB1012A20D000F04E
:10DD500013F9E878641C844200D100240F48801C29
:10DD6000D0E84F1F491EC9B2C0E8421F002AF7D1B0
:10DD7000A8780028E4D16C700948FFF733FDBDE8AE
:10DD8000704000F05BB9098989B2FFF7D9FCE0E780
:10DD90008968FFF7E1FDDCE7900000206052002079
:10DDA000445800200548017811B1012141707047A5
:10DDB00003494FF080500860704700009800002031
:10DDC00004ED00E0F0B4154DAB1CEE784FEA05070A
:10DDD000D3E84F2FB24202D1BFF32F8F11E0521C74
:10DDE000D4B2C3E8424F002AF2D100BFD7E84F2F88
:10DDF000541CB44200D10024E4B2C7E8434F002BC6
:10DE0000F4D1EB78934205D905EBC202C2E90101D6
:10DE1000F0BC7047F0BC0220FFF7A6B960520020AA
:10DE2000104A10B5D368ABB113469B8A03E08CB19E
:10DE30002246A48A2344D4688B42F8D3C460D060BD
:10DE40000261C46804B12061591A8182908A401A23
:10DE5000908210BD0024C460D060C91A0261918212
:10DE6000848210BD5C58002030B502780023022A5D
:10DE700003D0012A01D0032A00D101238C7800E0CD
:10DE80001046426812B19578A542F9D24A604160C5
:10DE90001BB102B19160886030BD0020FBE700003B
:10DEA00003494A684260002282604860704700006F
:10DEB0004458002010B5836804462BB960780128C7
:10DEC0000ED1084B03E09B6818780028FBD0204651
:10DED00000F034F82146BDE810401846FFF7C4BFF3
:10DEE00010BD00004458002090F82510806A09B148
:10DEF000603070472030704710B50C46FFF7F4FFD4
:10DF0000046010BD70B515460C46FFF7EDFFC0E983
:10DF1000004570BD10B5016900290ED0C268CA6005
:10DF2000C36800223BB18B8A848A23448B82C368F6
:10DF30001961C26000E08A82026110BD816839B156
:10DF400042684A604168002901D080688860704753
:10DF5000054906E04A68824202D14068486070473D
:10DF600011460029F6D17047445800200222027061
:10DF7000002242604180704710B5416881B1FFF7CF
:10DF800031FC0446FFF7C6FF0120607001462046C1
:10DF9000FFF7B2FF2146BDE810400348FFF764BF1A
:10DFA0004188491C418010BD4458002010B541688B
:10DFB00061B1FFF717FC04460121FFF79DFF2046E2
:10DFC000FFF7A8FF2046FFF795FB02E04188491CB8
:10DFD0004180002010BD000010B50C46418819B1E9
:10DFE000491E4180002010BD34B10A4A43681168BF
:10DFF00023B1FFF739FF07E0012010BD416013682E
:10E00000002159601168886007212046FFF7FAFA5D
:10E01000F2E700009000002006480068D0E90A10EE
:10E02000814203D300680449884202D00120FFF7EF
:10E030009BB8704790000020A52E5AE207490222A3
:10E0400048604270064A1278002A05D006C98A4202
:10E0500002D0C078FEF7E4B87047000090000020BE
:10E06000AC00002070B5FEF7B3F800200446204A4B
:10E07000204902E042F82040401C0B889842F9D326
:10E080001D48342201881D48FEF753F81C480088BB
:10E0900080B240F000421B4801681B48FEF749F877
:10E0A0001A48082201881A480068FEF742F8194DFC
:10E0B000FF20194AE870EC8400212846FFF7BCFBDA
:10E0C000164804210170446015480170C460046161
:10E0D0008482144815490560022068701248047053
:10E0E00044700978C170BDE87040FFF7D7BB0000ED
:10E0F0002453002044F4000870F40008E8160020BF
:10E1000048F4000874F400083019002098F400085E
:10E1100080000020105800208BD1000844580020B7
:10E120005C58002090000020605200207CF4000821
:10E130001B4810B5016841F47F01016000684FF091
:10E140007F4101EA00201649C0431439B0FA80F03B
:10E150000968C0F10800C1F30221814200D3481CC4
:10E160000F49091F0B686FF08072824063F317023A
:10E170000A60FFF70DF80B49002808600EDB00F17C
:10E18000E021FF2281F8002400F01F0201219140CC
:10E190004009800000F1E020C0F8001110BD00002F
:10E1A00020ED00E09C0000200C4810B50268012121
:10E1B00051700068FFF774FEFFF740FA08480168E5
:10E1C000491C0160FFF75EFA00F074FC0548FFF798
:10E1D00009FBBDE81040FFF731BF000090000020B0
:10E1E000A000002044580020002805D0810702D15B
:10E1F0000178002900D000207047000030B50B4C9A
:10E200000023626805E095688D4204D813461268C1
:10E21000491B002AF7D10260816012B19568691A22
:10E2200091600BB1186030BD606030BD8800002087
:10E230000D4B0022596803E0814204D00A46096868
:10E240000029F9D104E019B1016822B1116003E09D
:10E250004FF0FF3070475960016819B18A688068D3
:10E260001044886000207047880000202DE9F041AC
:10E270001E46174680460D4611F0FF0F00D14D1C7B
:10E280001848FFF793F9041E16D0280AE762E084C5
:10E29000E9B242462046E661FFF7CEFA0125124870
:10E2A000124905E000EB850252F8042C32B16D1CD6
:10E2B0000A889542F6D90020BDE8F081002DFAD0F9
:10E2C00000EB850040F8044C0948E570007818B16F
:10E2D00001212046FDF794FF2046FFF70BFA284660
:10E2E000EAE70000E81600202453002044F4000868
:10E2F000AC0000202DE9F05F584DDFF85891DFF8B1
:10E30000588129684FF0010A002618B1CA78AB4637
:10E31000824243D14E70FBF770FF29688862FFF795
:10E320007BFE2868046A1FE06068C0B12046FFF7E2
:10E3300059FA07460021FFF7DFFD3846FFF7EAFDEF
:10E3400087F801A039464648FFF78EFDE168A4F83A
:10E3500002A0A760386AE0603C620C4604E0E06816
:10E360006680A660E6600446002CDDD12868C2788D
:10E3700008EB820141F8046CC16A3A48FFF708FAD9
:10E380002868C66299F8001011B10021FDF738FF26
:10E3900035482968FFF7FCF92E6056E033490988B3
:10E3A00088420CD808EB800858F8045C3DB1284638
:10E3B000FFF7C4FD2846FFF7ADFD2C6A22E0FF20E1
:10E3C000BDE8F09F6068C0B12046FFF70BFA074632
:10E3D0000021FFF791FD3846FFF79CFD87F801A06B
:10E3E00039461F48FFF740FDE168A4F802A0A76086
:10E3F000386AE0603C620C4604E0E0686680A66033
:10E40000E6600446002CDDD148F8046C1548E96A42
:10E41000FFF7BEF9EE6299F8000018B10021284616
:10E42000FDF7EEFE29461048FFF7B2F90C48DBF87D
:10E43000001040688B7882789A4209D981F801A04F
:10E440000748DBF80010FFF70FFD0020FFF752F937
:10E450000020B5E7AC0000202453002090000020ED
:10E460004458002030190020E816002044F4000829
:10E4700070B5FFF7CBF904000CD0074D07482968A9
:10E48000FFF7F2FC2968012048702046BDE8704083
:10E49000FFF7D4BD70BD000090000020445800205C
:10E4A00070B51A4D80B11A4A128890421FD8194A85
:10E4B00002EB800050F8044CCCB1A17084F8241019
:10E4C0002868A04205D014E028688170286880F888
:10E4D0002410114840688078884215D90E48296870
:10E4E000FFF7C2FC29680120487000200AE0FF20E5
:10E4F00070BD2046FFF7DEFC6078012804D1064895
:10E50000FFF770F9FFF7F6F8002070BD90000020CB
:10E5100044F40008245300204458002002480068B6
:10E52000002800D0C0787047900000207FB50446D6
:10E530000D460026002000900190029003903E209E
:10E540008DF800008DF801502068CDF80200606859
:10E55000CDF806000A216846FCF756F906468DF804
:10E560000A600B216846FDF7E5FA7FBD016821F0DE
:10E57000400101607047016841F04001016070474F
:10E580000146C86880B27047C160704710B5044644
:10E590001348204470B1B0F5806F14D0B0F5784FB7
:10E5A0001AD14FF44370FEF791FF4FF44370FEF71A
:10E5B0007DFF12E040F20E40FEF788FF40F20E4071
:10E5C000FEF774FF09E040F20F40FEF77FFF40F2D4
:10E5D0000F40FEF76BFF00E000BF00BF10BD000062
:10E5E00000C8FFBF02469068084008B1012070478C
:10E5F0000020FCE702460020106800F441500B6840
:10E6000018434B6818438B681843CB6818430B6951
:10E6100018434B6918438B6918431060D36923F47E
:10E620000063D361704710B5002804D0FFF7B2FA39
:10E63000FFF782F8402010BD10B5134C207860B968
:10E640001248400705D1124801681048FFF718F931
:10E6500008B1852010BDFFF705FD0E49FF200968B0
:10E660008870207858B900210B4800F07EF80B49DB
:10E67000086000210A4800F001F90A4908600120F9
:10E6800020700020607010BD880000204025002010
:10E6900078F400089000002090F400087800002032
:10E6A00080F400087400002070B50F4D687808B140
:10E6B000002070BD0D4C206890F824100020FFF75A
:10E6C000EFFE2068C178FF2903D1816A203181F3F0
:10E6D0000988616811B9606000202060FFF728FD9B
:10E6E00001206870E4E7000088000020900000200E
:10E6F00070B5FEF76BFD0446FEF760FD0849094E54
:10E700000D686D1C48B1FEF761FDA04200D20446C1
:10E710003068401C05FB004070BD3068FAE700001F
:10E7200058F40008A000002070B504000BD0216848
:10E7300049B162683AB1A06828B1D0E9005010B17F
:10E740000DB12B780BB1002070BDD21C22F003025A
:10E7500051430C31FDF7EDFC20888000103081B270
:10E760002846FFF7EBF8A06870BD10B5040005D08F
:10E77000216819B1606808B102780AB1002010BDA3
:10E780008900103189B2FFF7D9F8606810BD3EB535
:10E7900004000D464FF0800012D0217801290FD1DE
:10E7A0002846FFF7F7F90246204601A9FFF798F936
:10E7B000012801D0102003E00DB1402000E000202E
:10E7C000DDE9011203B030BD70B50E4604001546F8
:10E7D00002D02078012801D0802070BD1046FFF7BC
:10E7E000D9F9024631462046FFF72EF9012801D01B
:10E7F000002070BD0DB1C12070BD812070BD10B56D
:10E80000002807D0046824B1207810B9B1F5803F02
:10E8100001DB002010BD89B22046FFF7A7FB204690
:10E8200010BD10B5FFF704F810B10178022901D02E
:10E83000802010BD4188A1F57F42FF3A03D0FFF749
:10E84000B5FB002010BD812010BD70B50D46FEF750
:10E85000EFFF04004FF0FF300DD0217802290AD1DC
:10E860002846FFF797F901462046FFF7B5FB012838
:10E8700002D06088401C70BD002070BD70B50E468F
:10E88000040029D0206838B3606810F1030F23DB3F
:10E89000032821DCE16829B11048FEF794FE050049
:10E8A0001AD000E000256068E168001D40EA0121FF
:10E8B00033462A462068FFF7D9FC40B1084901EBEE
:10E8C0008000084950F8040C826A516370BD1DB184
:10E8D00029460248FEF772FF002070BD4025002047
:10E8E00024530020BDD0000810B5FFF717FE002804
:10E8F00004D0034901EB800050F8040C10BD000067
:10E900002453002010B5FFF76FFC18B1C18C19B16A
:10E91000C46A02E0802010BD0024C078FFF7EAFC42
:10E92000FF2806D01CB121460348FEF747FF002010
:10E9300010BD812010BD00004025002010B5FFF75C
:10E9400097FD002010BD10B5FEF772FF20B14169A0
:10E950000A680169104610BD0020014610BD000084
:10E9600010B503000CD0186850B15868002808D0C2
:10E9700009B1012904D1074C24680CB104790CB108
:10E98000002010BD00240460012404714171C0E91D
:10E99000042310BD7400002070B50E46FEF748FF3A
:10E9A000040016D0BEB1144A00214FF47A731068E7
:10E9B0001268401E41F1FF35E6FB0305294600239E
:10E9C000FBF708FD0546207901280CD0022808D164
:10E9D00003E0802070BD862070BD2046FFF728FC34
:10E9E00020B1812070BD02202071E56029462046BB
:10E9F000FFF704FC002070BD68F4000870B50D46F8
:10EA0000002806D0D0E9004010B10CB112B10DB110
:10EA1000002070BDFEF7CAFD060017D1B5B10C4845
:10EA200061680029016803D02046FFF71DFA07E05E
:10EA3000616002680021516000688460032060709A
:10EA40002846FFF7A7F80821FEF7DCFD304670BD29
:10EA50009000002070B5164648B1D0E9004534B1A9
:10EA60002DB12846FEF794FE18B1862070BD802097
:10EA700070BD6068E0B16078032819D136B12946CD
:10EA80002046FFF79FF9FFF78DF911E02846FEF7C2
:10EA90008DFD05000CD02046FEF7A4FE0446294655
:10EAA000FFF72AFA2046FFF735FA2046FEF722FE46
:10EAB000002070BD2DE9F041134E7468002C1CD06D
:10EAC000A068124F401E4FF00108A06012E02546DA
:10EAD00024687460002229463868FEF7CAF810B12D
:10EAE0000420FEF741FB6879012808D085F80480EE
:10EAF000002C02D0A0680028E9D0BDE8F0812846AB
:10EB0000E968FFF77BFBF3E788000020780000202E
:10EB1000002000213E4A126842F480323C4B1A60C9
:10EB200000BF401C3A4A126802F4003111B9B0F536
:10EB3000006FF6D1364A126802F400320AB900BFFB
:10EB4000FEE7334AD26942F08052314BDA61314AF2
:10EB5000126842F440422F4B1A602D4A52682C4BE7
:10EB60005A601A4652685A601A46526842F48062E5
:10EB70005A601A46526822F440325A601A46526865
:10EB800042F440325A601A465268234B1A40204BD6
:10EB90005A601A465268214B1A431D4B5A601A4656
:10EBA000126842F080721A6000BF194A126802F0BF
:10EBB0000072002AF9D0174A126842F48032154BCD
:10EBC0001A6000BF134A526802F48032002AF9D05A
:10EBD000104A126842F400320E4B1A6000BF0D4A10
:10EBE000526802F40032002AF9D0094A526822F031
:10EBF0000302074B5A601A46526842F002025A60FA
:10EC000000BF034A526802F00802002AF9D0704798
:10EC10000010024000700040FFFFC3B7000034083E
:10EC200010B5FFF775FF10BD10B504463349601AE3
:10EC30008C4244D00CDCB4F1804F1CD030482044CE
:10EC400010B3B0F5806F28D0B0F5006F52D12DE031
:10EC5000B0F5806F3CD0B0F58E3F03D0B0F5923F59
:10EC600048D13EE040F20B30FEF730FC40F20B3072
:10EC7000FEF71CFC3FE04FF48060FEF727FC4FF4EA
:10EC80008060FEF713FC36E040F20140FEF71EFC08
:10EC900040F20140FEF70AFC2DE040F20240FEF790
:10ECA00015FC40F20240FEF701FC24E040F2034074
:10ECB000FEF70CFC40F20340FEF7F8FB1BE040F2CD
:10ECC0000440FEF703FC40F20440FEF7EFFB12E0C5
:10ECD00040F20540FEF7FAFB40F20540FEF7E6FB86
:10ECE00009E040F20D30FEF7F1FB40F20D30FEF787
:10ECF000DDFB00E000BF00BF10BD000000100040C1
:10ED000000FCFFBF016821F001010160704701684C
:10ED100041F00101016070470A8882621D4A9042F9
:10ED20000ED0B0F1804F0BD01B4A904208D01B4A46
:10ED3000904205D01A4A904202D01A4A90420BD112
:10ED4000026822F07002026002684B881A43026077
:10ED500002688B881A4302608A68C262124A904233
:10ED60000AD0124A904207D0026822F44072026030
:10ED700002688B891A430260064A904202D0094A0F
:10ED8000904201D18A7B0263426942F001024261F2
:10ED900070470000002C01400004004000080040C3
:10EDA000000C0040003401400010004000140040FE
:10EDB000C2688A43C2607047C2680A43C260704733
:10EDC00002698A43026170470246D06800EA010383
:10EDD0001069084010B10BB1012070470020FCE71A
:10EDE0002DE9F04704460D460027B846B9460026EF
:10EDF0001D49601A8C421CD006DC1C48204470B1AE
:10EE0000B0F5806F1FD10FE0B0F5806F16D0B0F570
:10EE10006C4F18D10320FEF7E3F9074614E00220F7
:10EE2000FEF7DEF907460FE00220FEF7D9F90746A4
:10EE30000AE00220FEF7D4F9074605E00220FEF7BB
:10EE4000CFF9074600E000BF00BF07EB5500B0FB5D
:10EE5000F5F64FF6F07006EA000806F00F0948EAEA
:10EE60000900A060BDE8F087004C004000BCFFBF77
:10EE700001464868C0F308007047C1F308024260C9
:10EE80007047000010B504462049601A8C4228D013
:10EE900006DC1F48204490B1B0F5806F33D117E0F5
:10EEA000B0F5806F26D0B0F56C4F2CD140F20E300B
:10EEB000FEF70CFB40F20E30FEF7F8FA24E040F2C9
:10EEC0001140FEF703FB40F21140FEF7EFFA1BE0A2
:10EED00040F21240FEF7FAFA40F21240FEF7E6FA6C
:10EEE00012E040F21340FEF7F1FA40F21340FEF751
:10EEF000DDFA09E040F21440FEF7E8FA40F214406F
:10EF0000FEF7D4FA00E000BF00BF10BD004C004087
:10EF100000BCFFBFC16841F40051C160704710B52B
:10EF2000024602EB9110006801F01F040123A34088
:10EF3000184008B1012010BD0020FCE710B5C1F356
:10EF40008912825801F01F040123A3401A43C1F320
:10EF50008913C25010BD70B5024600230024C1F3CE
:10EF60008910105801F01F060125B54000EA05037D
:10EF700002EB91500068C1F304460125B54000EA58
:10EF8000050414B10BB1012070BD0020FCE7C2687C
:10EF900022F4C062C260C2680A43C26070470A4677
:10EFA0000021C16821F004011143C160704702696A
:10EFB00022F44052026102690A43026170470A4624
:10EFC0000021C16821F008011143C1607047C26887
:10EFD00022F48052C260C2680A43C26070470000D7
:10EFE000FCF786FD4F49087000BF4E48007800BB13
:10EFF0004D4800780C2810DC4B480078401C4A49EA
:10F000000870087800EBD0714910A0EB410139B9C4
:10F01000FCF76EFD4349087002E00F20424908707A
:10F020004FF47A70FDF730FFFDF704FDFEF752F85C
:10F03000DBE74FF0FF313D480068FEF71DF83C4824
:10F04000FCF76CFF002849D0394800790023384983
:10F05000CA78190641EA122114061A460B4642EAFA
:10F06000040140EA0302324883780020000440EAA9
:10F07000134041EA034110432D4A53780022120203
:10F0800042EA136441EA032240EA04012848007876
:10F0900000231B40024319432648C0E900212648AB
:10F0A000007850B94FF4FA70FDF7EEFE1F48006883
:10F0B000FDF7D6FFFDF7BEFC97E700201E4908705C
:10F0C00001210220FCF7BCFE00201C4908721C49EB
:10F0D000087001211648FFF729FA02E001201649BD
:10F0E00008701648007A68B915480078401C144921
:10F0F000087008460078062807DB00200870FEF735
:10F10000F5F902E000200E4908704FF4FA70FDF79F
:10F11000BBFE06480068FDF7A3FFFDF78BFCFDF77B
:10F12000D9FF62E75000002070000020640000203A
:10F13000A01100205800002072000020B000002024
:10F14000710000200EB54FF0FF3400BF21461F486C
:10F150000068FDF757FF8DE807001D48007810B1E3
:10F1600001282FD10EE0009810280AD119490198E2
:10F17000087008460078FCF74FFE6424012014490B
:10F1800008701FE00098102807D1124901980870F4
:10F1900008460078FCF740FED8E70098402810D1D8
:10F1A00000200D490D4A128888540C4801880A48ED
:10F1B000FCF712FE00200949088005490870441E2A
:10F1C000C4E700BF00BFFDF785FFBFE70C000020CC
:10F1D0003A000020390000200810002028000020FC
:10F1E0000EB500BF4FF47A710C480068FDF7DEFEE3
:10F1F0008DE80700009820280CD1019C2188A01CD4
:10F20000FCF780FCC820FDF73FFE2146034800685C
:10F21000FDF7BEFEFDF75EFFE4E7000024000020DE
:10F220000EB500BF4FF47A7124480068FDF7BEFEAA
:10F230008DE80700009820282BD1019C002122880E
:10F24000A01C8154A0783E2816D12088411EA01C05
:10F25000FBF7DAFA05462088401EA11C085CA8428C
:10F2600009D100222088401E0A542088801E81B2C5
:10F27000E01CFCF71DFD00BF01211148FDF716FC45
:10F2800000201049087021460C480068FDF780FEF8
:10F2900011E0009840280ED10A480078401C094926
:10F2A0000870084600783C2805DD00200870012120
:10F2B0000348FDF7FDFBFDF70DFFB3E71800002045
:10F2C00000100140380000204FF04070E1EE100ABD
:10F2D00070470000000100007001002005000000E0
:10F2E00002010000100000200500000002010000E3
:10F2F0001C00002045F10008000000000100000093
:10F30000E8070000E1F10008000000000100000033
:10F310000008000021F200080000000001000000C9
:10F3200000080000005EBCE2613FDD83C29C7E20DD
:10F33000A3FD1F419DC3217FFCA2401E5F01E3BDD1
:10F340003E6082DC237D9FC1421CFEA0E1BF5D03C5
:10F3500080DE3C62BEE0025CDF81633D7C22C09EB9
:10F360001D43A1FF4618FAA427799BC584DA3866A5
:10F37000E5BB5907DB856739BAE406581947A5FB91
:10F380007826C49A653BD987045AB8E6A7F91B4585
:10F39000C6987A24F8A6441A99C7257B3A6486D879
:10F3A0005B05E7B98CD2306EEDB3510F4E10F2AC65
:10F3B0002F7193CD114FADF3702ECC92D38D6F3151
:10F3C000B2EC0E50AFF1134DCE90722C6D33D18F45
:10F3D0000C52B0EE326C8ED0530DEFB1F0AE4C1239
:10F3E00091CF2D73CA947628ABF517490856B4EA25
:10F3F0006937D58B5709EBB536688AD495CB297711
:10F40000F4AA4816E9B7550B88D6346A2B7597C904
:10F410004A14F6A8742AC896154BA9F7B6E80A54F8
:10F42000D7896B35CDBF000888110020E1EF0008B7
:10F43000000000000100000000080000680000203B
:10F44000200000000B00000000040901050001007D
:10F45000000E270778000000BFD401000100000063
:10F460000200010052000400E80300000000000058
:10F4700048020000100C0000202D000018000000C1
:10F480003DD100080200000001000000C80000009B
:10F4900004000000505300200000000071CD00085F
:10F4A000000000000100000000040000CCF400088F
:10F4B00000000020B00000006CA100087CF50008EE
:10F4C000B00000202860000088A1000800000000B3
:10F4D0000000000000000000000000008005002087
:10F4E000A405002000000000C40A0020E80A002053
:10F4F000000000000000000000000000000000000C
:10F5000000000000000000000000000000000000FB
:10F51000FF000000000000000000000000000000EC
:10F5200000000000000000000000000000000000DB
:10F5300000000000000000000000000000000000CB
:10F5400000000000000000000000000000000000BB
:10F5500000000000000000000000000000000000AB
:10F56000000000000000000000000000000000009B
:0CF570000000000000000000000000008F
:040000050800A1311D
:00000001FF
