:020000040800F2
:10A00000004F002049A30008D9B6000869A900083C
:10A01000D5B60008B5A40008E3CA00080000000097
:10A0200000000000000000000000000019A200086D
:10A03000D5A5000800000000D1A2000835A3000843
:10A0400063A3000863A3000863A3000863A30008D8
:10A0500063A3000863A3000863A3000863A30008C8
:10A0600063A3000863A3000863A3000863A30008B8
:10A0700063A3000863A3000863A3000863A30008A8
:10A0800063A3000863A3000863A3000863A3000898
:10A0900063A3000863A3000863A3000863A3000888
:10A0A00063A3000863A3000863A3000863A3000878
:10A0B00031C7000863A3000863A3000863A3000876
:10A0C00063A3000863A3000863A3000863A3000858
:10A0D00063A30008E5C8000863A3000863A30008A1
:10A0E00063A3000863A3000863A3000863A3000838
:10A0F00063A3000863A3000863A3000863A3000828
:10A1000000000000000000000000000063A3000841
:10A1100063A3000863A3000863A3000863A3000807
:10A1200063A3000863A3000863A3000863A30008F7
:10A1300063A3000863A30008000000000000000003
:10A1400063A3000863A3000863A3000800000000E5
:10A1500000000000000000000000000000000000FF
:10A16000000000000000000063A3000863A30008D3
:10A1700063A30008000000000000000000000000D1
:10A180000000000063A30008DFF820D000F07EF993
:10A19000AFF3008003F064F90021034803F058FA9C
:10A1A00003F070F9FEE700006CF00008004F00209B
:10A1B00080F309887047EFF309807047684680F3A1
:10A1C000098804480078C00714BF0220032080F3E8
:10A1D000148870472CF00008DFF818C0EFF30583EF
:10A1E0001B0618BF6047EFF31483DB0708BF604707
:10A1F00000DF704761D80008DFF818C0EFF305836F
:10A200001B0618BF6047EFF31483DB0708BF6047E6
:10A2100000DF704745DA0008EFF30980816911F823
:10A22000021CE1BB90E80F1010B5E047BDE81040FC
:10A23000EFF3098C8CE80700214B93E8060091426C
:10A2400008BF704741B91EF0100F16D11D490868AC
:10A2500020F00100086010E01EF0100F06BF2CED8A
:10A26000108A0120002081F825002CE9F00FC1F8A8
:10A2700028C00CB403F082FF0CBC1A60D2F828C0CE
:10A28000BCE8F00F92F8250000280EBF6FF0020E18
:10A290006FF0120EBCEC108A8CF30988704710B571
:10A2A000094A1268914209D8084C54F8214090E8B4
:10A2B0000F10A047EFF3098C8CE80F0010BD0000D1
:10A2C000B400002034EF00E0B0A40008B0A40008FF
:10A2D00010B503F0DBFDBDE81040154B93E8060018
:10A2E000914208BF7047EFF3098C1EF0100F06BFB4
:10A2F0002CED108A0120002081F825002CE9F00FB8
:10A30000C1F828C00CB403F039FF0CBC1A60D2F8B5
:10A3100028C0BCE8F00F92F8250000280EBF6FF0AF
:10A32000020E6FF0120EBCEC108A8CF30988704795
:10A33000B400002010B503F0E9FFCCE710B503F03E
:10A340001BFA03F0E3FFC6E70648804706480047CC
:10A35000FEE7FEE7FEE7FEE7FEE7FEE7FEE7FEE7D5
:10A36000FEE7FEE7A9C6000889A100082DE9F05F15
:10A370000546002092469B46884606468146402474
:10A380001BE0284641464746224600F06FF85346F8
:10A390005A46C01A914110D311461846224600F081
:10A3A00056F82D1A67EB01084F462246012000217E
:10A3B00000F04DF817EB00094E41201EA4F10104F6
:10A3C000DFDC484631462A464346BDE8F09F40EA76
:10A3D00001039B0703D009E008C9121F08C0042A23
:10A3E000FAD203E011F8013B00F8013B521EF9D20A
:10A3F0007047D2B201E000F8012B491EFBD2704732
:10A400000022F6E710B513460A4604461946FFF740
:10A41000F0FF204610BD30B504460020034600E0A2
:10A420005B1C934203D2E05CCD5C401BF8D030BD96
:10A4300030B505460020034600E05B1C934205D280
:10A44000EC5CC85C201A01D1002CF6D130BD202A6A
:10A4500004DB203A00FA02F1002070479140C2F17B
:10A46000200320FA03F3194390407047202A04DBAD
:10A47000203A21FA02F00021704721FA02F3D0407D
:10A48000C2F120029140084319467047064C074D1F
:10A4900006E0E06840F0010394E8070098471034B4
:10A4A000AC42F6D3FFF774FE7CF000089CF0000885
:10A4B0000000000000BFFEE710B502F017FF012802
:10A4C00000D110BD1C2000280BDB00F01F02012171
:10A4D00091400D4A430942F82310BFF34F8FBFF359
:10A4E0006F8F00BF00220121880702F055F900217B
:10A4F0004FF0804002F033F94FF400614FF090408C
:10A5000000F02DFA00BFDCE780E100E010B502F0BA
:10A51000EDFE012800D110BD1C2000280DDB00BF7E
:10A5200000BF00F01F02012191404209920002F198
:10A53000E022C2F8001100BF00BF00BF0122114697
:10A54000900702F029F90121880702F008F900BFFD
:10A55000E1E7000010B50246002004E012F8013BDC
:10A560004340034CE05C0B1EA1F10101F6D110BD8C
:10A570000CEF000810B502F0C7FC10BD38B505247B
:10A5800012A0006800904FF481711148FFF738FF66
:10A5900002F0F4FD02F0A2FD00BF0D49684602F092
:10A5A0000AFE0B480078552801D1002038BD02F082
:10A5B00095FD07480078552804D0201EA4F101011C
:10A5C0008CB2EAD16FF00D00F0E7000055000000FA
:10A5D0002813002000BFFEE70149C8607047000053
:10A5E0000020024030B5044604254FF4302000F02E
:10A5F00095F80546042D16D10C48006940F002007C
:10A600000A49086108464461006940F04000086159
:10A610004FF4302000F082F805460448006920F02D
:10A62000020002490861284630BD000000200240B7
:10A6300004200B49C96801F0010109B101200EE0B5
:10A640000749C96801F0100109B1022007E0044977
:10A65000C96801F0040109B1032000E0042070473B
:10A66000002002400348006940F080000149086171
:10A67000704700000020024078B506460C460425CD
:10A68000002000904FF4302000F048F80546042DDB
:10A6900024D11348006940F0010011490861348059
:10A6A0004FF4302000F03AF80546042D10D1B01CCC
:10A6B0000090200C009908804FF4302000F02EF814
:10A6C00005460748006920F001000549086105E0DA
:10A6D0000348006920F0010001490861284678BD5F
:10A6E0000020024000B502460023104602F0AEFDF5
:10A6F0000346184600BD00000548006900F08000D0
:10A7000020B104480249486003484860704700008F
:10A710000020024023016745AB89EFCD00B502461A
:10A720000423FFF785FF034603E0FFF781FF03469D
:10A73000521E012B01D1002AF7D102B90523184678
:10A7400000BD00002DE9F04105460E4614460427E1
:10A750004FF43020FFF7E2FF0746042F01D0BDE899
:10A76000F081252000280BDB00F01F020121914021
:10A770001D4A430942F82310BFF34F8FBFF36F8F79
:10A7800000BF3420FFF728FFFFF7B6FF2846FFF78A
:10A7900029FF042805D0FFF765FF252002F044FAC1
:10A7A000DDE731462846FFF767FFFFF75BFF25200F
:10A7B00002F03AFAACB14FF47A7002F045FE00BFF5
:10A7C000BFF34F8F0948006800F4E0600849084370
:10A7D000001D06490860BFF34F8F00BF00BF00BFD8
:10A7E000FDE700BFBBE7000080E100E00CED00E00A
:10A7F0000000FA05F0B50A460021002400250023D8
:10A8000000BF3FE0012606FA01F4166806EA0405D7
:10A81000A54236D11679012E02D01679022E18D112
:10A8200086684FEA410C032707FA0CF7BE4386609F
:10A8300056794F00BE4087683E4386608688012770
:10A840008F40BE438680878896798E40B6B2374364
:10A85000878006684FEA410C032707FA0CF7BE43CE
:10A86000066016794F00BE4007683E430660C36825
:10A870004F000326BE40B343D6794F00BE4033435A
:10A88000C360491C1029BDD3F0BD00001CB50121D7
:10A890004FF4202001F07CF801208DF80400002006
:10A8A0008DF8060001208DF8070003208DF80500C3
:10A8B0000420009069461748FFF79CFF04211548C3
:10A8C00000F04FF80220009069461248FFF792FF0F
:10A8D0000221104800F045F80120009069460D481B
:10A8E000FFF788FF01210B4800F03BF8082000909B
:10A8F00069460848FFF77EFF0821064800F031F856
:10A900004FF40060009069464FF09040FFF772FFEF
:10A910001CBD000000080048F0B5002300244D07CE
:10A92000ED0E02FA05F3CE1000F1200555F8265081
:10A930004E07F70E0F26BE40B543CF1000F120069C
:10A9400046F82750CE1000F1200555F8265045EA6C
:10A950000304CE1000F1200545F82640F0BD018526
:10A96000704781617047000000BFBFF34F8F0748F9
:10A97000006800F4E06006490843001D03490860D0
:10A98000BFF34F8F00BF00BF00BFFDE70CED00E03D
:10A990000000FA052DE9F043044607AD95E8E01004
:10A9A0004FF0000801F00109204669F35F0002F052
:10A9B000010940EA890003F0010940EAC90005F0F5
:10A9C000010940EA091006F0010940EA491007F0C0
:10A9D000010940EA89100CF0010940EAC9184FFA50
:10A9E00088F0BDE8F083014601F0200008B10120A5
:10A9F00070470020FCE7014601F0400008B101204B
:10AA000070470020FCE7014601F0080008B1012072
:10AA100070470020FCE7014601F0100008B101205A
:10AA200070470020FCE7F0B589B0054600F038F823
:10AA300004460CB1012000E0002000B12DE0002010
:10AA40000122CDE900020290034611460390FFF770
:10AA5000A1FF064605A80090F0B200231A46194649
:10AA600000F054F804460CB1012000E0002000B1D1
:10AA700013E09DF81500401CC7B205A8C05D00F0AA
:10AA8000020018B16FF00E0009B0F0BD1CB90698B5
:10AA90002860079868600020F6E76FF00E00F3E783
:10AAA0001FB50020039018A00068019009200390B2
:10AAB00002AB03AA0121022000F0CEFE04460CB135
:10AAC000012000E0002000B11AE002A801AB012241
:10AAD00068210090042000F03CFF04460CB10120E6
:10AAE00000E0002000B10BE002A9022000F00EFE01
:10AAF000F12803D16FF00E0004B010BD0020FBE779
:10AB00006FF00E00F8E7000001D100002DE9FF4FC3
:10AB100085B014469946129E00250020009082467A
:10AB20000027FF20307000207070402C04DD6FF093
:10AB30000C0009B0BDE8F08F059800F082F880465F
:10AB4000B8F1000F01D0012000E0002000B175E055
:10AB500029466A1CD5B201AA0598505401222846FC
:10AB6000691CCDB201A90A540598FFF754FF0128CA
:10AB700005D129466A1CD5B201AA06985054284628
:10AB8000691CCDB201A90C54002C3FD0402C02D13D
:10AB90000820009007E02046E11704EB5171C9102E
:10ABA000491CC9B200910098401EA4EBC00000F0FF
:10ABB000FF0ABAF1000F06D0012000FA0AF0401E89
:10ABC0004FFA80FB01E04FF0FF3B0098012811DDB8
:10ABD000002708E019F807202846691CCDB201A912
:10ABE0000A54781C47B20098401EB842F2DC01209B
:10ABF00002F02AFCBAF1000F08D019F8070000EAA9
:10AC00000B0029466A1CD5B201AA5054324601A94C
:10AC1000284600F06DFE8046B8F1000F01D00120FB
:10AC200000E0002000B109E03146042000F06EFD94
:10AC300010B16FF00E007CE700207AE76FF00E0095
:10AC400077E7014601F0040008B1002070476FF07B
:10AC50000E00FBE72DE9F05F80460E4617461C46C6
:10AC60000A9D4FF0F1092046E11704EB9171C1F301
:10AC70008F0A2846E91705EB9171C1F38F0B282E37
:10AC80000DD12046E11704EB9171C1F38F0A5B46A9
:10AC900052463946404600F0E7F8814606E05B46FA
:10ACA00052463946404600F056F881464846BDE8CF
:10ACB000F09F2DE9FF4706460F4615469846DDF8FA
:10ACC000309000242146641C0DF8016023222146A7
:10ACD000641C0DF801203046FFF785FE012808D1DD
:10ACE0000DEB0400396801607968416004F10800E7
:10ACF000C4B24FF6FF7000EA45153046FFF783FEF9
:10AD000030B9EAB22046611CCCB20DF800200BE04D
:10AD1000EAB22046611CCCB20DF800202A0A204677
:10AD2000611CCCB20DF800202046611CCCB20DF89D
:10AD300000804A466946204600F0DAFD4946042074
:10AD400000F0E4FC212804D16FF00E0004B0BDE84F
:10AD5000F0870020FAE72DE9F04FA5B007468846B6
:10AD600015461E464FF002094FF0000A4FF0000B47
:10AD70002846E91705EBD1614911491C1FFA81FAF0
:10AD80003046F11706EBD161C1F34F1B012F01D102
:10AD90004FF00A0900241AE002A8009004EB0B000F
:10ADA00082B21F2300214846FFF783FF18B1F1202C
:10ADB00025B0BDE8F08F08EBC41080220DF10B0127
:10ADC000FFF705FB142002F03FFB601C84B25445E2
:10ADD000E2DB0020ECE72DE9FF41074688461546F7
:10ADE0001E4600242146641C0DF8017020222146D5
:10ADF000641C0DF801203846FFF7F5FD01280AD143
:10AE00000DEB0400D8F800100160D8F80410416080
:10AE100004F10800C4B23846FFF7F5FD30B9EAB2D4
:10AE20002046611CCCB20DF800200BE0EAB22046AF
:10AE3000611CCCB20DF800202A0A2046611CCCB25D
:10AE40000DF8002032466946204600F051FD31469B
:10AE5000042000F05BFCF12804D16FF00E0004B078
:10AE6000BDE8F0810020FAE72DE9FF4705460F46CF
:10AE7000904699464FF0020A00244E460DB9F6B2AC
:10AE800008E0012D02D14FF00A0A03E0F12004B0DE
:10AE9000BDE8F087002414E0301986B26B463246D4
:10AEA00000215046FFF797FF08B1F120EFE707EBCD
:10AEB0008400DDF803100160142002F0C5FA601C64
:10AEC00084B24445E8DB0020E1E710B504462046A3
:10AED00000F000FD2146042000F018FC10B16FF0D6
:10AEE0000E0010BD0020FCE72DE9F04F8BB00546A9
:10AEF0000E4614461F4604200A9040A000680190A8
:10AF00002046E11704EB9171C1F38F09A019C11715
:10AF100000EB9171C1F38F0A2046E11704EB9171A8
:10AF20008910A4EB810101F0FF0BA019C11700EB00
:10AF300091718910A0EB8101C1F1040101F0FF08BA
:10AF40004DB909F0FF008DF8060002AA01A90320FF
:10AF500000F0CEFC11E0012D0FD10A208DF8040085
:10AF600009F0FF008DF806004FEA19208DF8070060
:10AF700002AA01A9042000F0BBFC9DF8080080286B
:10AF800003D0F1200BB0BDE8F08F5A460DF10B0154
:10AF90003846FFF71CFA149880F800B04DB90AF053
:10AFA000FF008DF8060002AA01A9032000F0A0FC12
:10AFB00011E0012D0FD10A208DF804000AF0FF00E6
:10AFC0008DF806004FEA1A208DF8070002AA01A9A1
:10AFD000042000F08DFC9DF80800802801D0F120AD
:10AFE000D0E7C8F1070002AA81184246381DFFF7D2
:10AFF000EEF9159880F800800020C3E702200000D9
:10B000002DE9F04387B007460E4614461D462846F4
:10B01000E91705EB9171C1F38F092046E11704EBA5
:10B0200091718910491C1FFA81F805A806A903AB84
:10B030002A46CDE9001021463846FFF755FF9DF816
:10B040001810494270189DF8182003A9FFF7BFF99E
:10B0500030199DF8142004A9FFF7B9F99DF81800DC
:10B06000404231184B464246384600F06DF818B160
:10B07000F12007B0BDE8F0830020FAE72DE9F047A2
:10B08000C0B00746884615469946489E00244FF0B2
:10B09000040A2146641C0DF8017021222146641C1B
:10B0A0000DF801203846FFF79EFC01280AD10DEB70
:10B0B0000400D8F800100160D8F80410416004F1D1
:10B0C0000800C4B23846FFF79EFC30B9EAB2204609
:10B0D000611CCCB20DF800200BE0EAB22046611CE6
:10B0E000CCB20DF800202A0A2046611CCCB20DF823
:10B0F00000200DEB040052464946FFF768F904EBC7
:10B100000A00C4B23846FFF776FC28B932466946D1
:10B11000204600F0EDFB0AE032466946204600F08A
:10B12000E7FB142002F090F93046FFF7CEFE3146DF
:10B13000042000F0EBFAF12804D16FF00E0040B0CB
:10B14000BDE8F0870020FAE72DE9F0478AB006460F
:10B150000F4690461C464FF002090025AA460EB93C
:10B16000E4B208E0012E02D14FF00A0903E0F12019
:10B170000AB0BDE8F087254614E002A807EB850376
:10B180002A46002100904846FFF778FF08B1F120D9
:10B19000EEE70AF104001FFA80FA142002F054F9D5
:10B1A000681C85B204EB0800A842E6DC0020DFE75B
:10B1B000F8B505460E46012700207F23194A442191
:10B1C00000900120FFF746FDD0B100207F23154AF3
:10B1D00044210090FFF73EFD88B100207F23114AF3
:10B1E00020210090FFF736FD48B100207F230D4A53
:10B1F00020210090FFF72EFD08B10120F8BD0027A7
:10B200000023324629463846FFF7FAFE04460CB1C1
:10B21000012000E0002000B101E00020EEE7012065
:10B22000ECE700002A1400204CF6CC4001490860ED
:10B2300070470000003000404AF6AA20014908602B
:10B24000704700000030004001494860704700002E
:10B250000030004001498860704700000030004025
:10B2600010B545F2555000F00DF80620FFF7ECFF41
:10B270004FF48060FFF7EEFFFFF7DEFFFFF7D4FF2C
:10B2800010BD000001490860704700000030004018
:10B2900010B501F06DF800F07FFE00F001F810BD70
:10B2A00010B5FFF7F3FA07484078012800D110BD28
:10B2B00001F01EFC01F0FAFF0221032001F0DAF98F
:10B2C00000BFF4E724000020014605290ED2DFE884
:10B2D00001F0030507090B00002070470020FCE780
:10B2E0000020FAE70020F8E70020F6E72220F4E744
:10B2F00010B5DA48407910B1012864D137E0D74859
:10B30000007990B9D648008810B1022808D103E02E
:10B31000002000F0C7F907E0002000F0C3F903E0C7
:10B32000002000F0A7F900BF20E0CC488079012878
:10B3300003D1002000F0B6F918E0C948008820B118
:10B34000022806D004280CD107E0002000F0AAF95A
:10B350000BE0002000F0A6F907E0002000F0A2F9C1
:10B3600003E0002000F086F900BF00BF2BE0BD48DD
:10B370000088082825D2DFE800F004080C10141813
:10B380001C20002000F08EF91BE0002000F072F974
:10B3900017E0002000F086F913E0002000F06AF9C1
:10B3A0000FE0002000F07EF90BE0002000F062F9D1
:10B3B00007E0002000F076F903E0002000F05AF9E1
:10B3C00000BF00BF00BF00BFA448007868B30128D9
:10B3D0002FD1A4480088082825D2DFE800F004080F
:10B3E0000C1014181C20012000F05CF91BE0012057
:10B3F00000F040F917E0012000F054F913E00120BB
:10B4000000F038F90FE0012000F04CF90BE00120CA
:10B4100000F030F907E0012000F044F903E00120DA
:10B4200000F028F900BF00BF03E0012000F03AF966
:10B4300000BF00BF8C48007840B1012802D002282C
:10B4400034D107E0022000F02DF92FE0022000F0B7
:10B4500011F92BE083480088082825D2DFE800F0A6
:10B4600004080C1014181C20022000F01BF91BE02B
:10B47000022000F0FFF817E0022000F013F913E0BB
:10B48000022000F0F7F80FE0022000F00BF90BE0CB
:10B49000022000F0EFF807E0022000F003F903E0DB
:10B4A000022000F0E7F800BF00BF00BF00BF6F48F8
:10B4B0000078002877D06C484078072874D2DFE8FD
:10B4C00000F00407233F4D688600FEF7F5FFA0E07B
:10B4D0006748008830B1012807D0022808D0032827
:10B4E0000FD108E0FFF712F80CE0FFF70FF809E0C2
:10B4F000FFF70CF806E0FEF7DFFF00205A4948701E
:10B5000000E000BF00BF84E05948008830B1012846
:10B5100007D0022808D003280FD108E0FEF7F6FF75
:10B520000CE0FEF7C9FF09E0FEF7F0FF06E0FEF7CA
:10B53000C3FF00204C49487000E000BF00BF68E036
:10B5400047480088072190FBF1F201FB120010B977
:10B55000FEF7DCFF01E0FEF7AFFF5AE0404800884D
:10B5600030B1022807D0042808D006280CD108E002
:10B57000FEF7CCFF0BE0FEF7C9FF08E0FEF7C6FFC1
:10B5800005E0FEF7C3FF02E0FEF796FF00BF00BF35
:10B590003FE03748008840B1012809D002280AD08E
:10B5A000032811D10AE035E032E0FEF7AFFF0CE0EE
:10B5B000FEF7ACFF09E0FEF7A9FF06E0FEF77CFF0F
:10B5C00000202949487000E000BF00BF21E0284862
:10B5D0000088062819D2DFE800F00306090C0F12D4
:10B5E000FEF794FF12E0FEF767FF0FE0FEF78EFF15
:10B5F0000CE0FEF761FF09E0FEF788FF06E0FEF7CA
:10B600005BFF00201849487000E000BF00BF00E069
:10B6100000BF00BF13480088401C1249088014482E
:10B620000088401C124908800D480088401C0C49C5
:10B63000088008460088462801DD00200880094867
:10B640000088072802DD0020064908800848008895
:10B65000072802DD00200649088010BD38010020BF
:10B66000620000205E0000205C000020240000201A
:10B670006000002020B1012806D002280CD107E08C
:10B680000421074A116008E00221054A116004E024
:10B690000821034A116000E000BF00BF70470000AE
:10B6A0001808004820B1012806D002280CD107E074
:10B6B0000421074A118008E00221054A118004E0B4
:10B6C0000821034A118000E000BF00BF704700005E
:10B6D0002808004800BFFEE700BFFEE738B5044673
:10B6E00004A0006800902146684601F064FD002037
:10B6F00038BD0000550000001FB5002003906B46C8
:10B7000003AA0021022000F0A7F81FBD0246087816
:10B71000212801D123207047082A61D008DC012AA2
:10B7200013D0022A17D0042A24D0072A6BD14CE068
:10B73000092A60D00A2A64D0552A64D1087855288D
:10B7400001D10020E7E72120E5E7087808B90020CB
:10B75000E1E72120DFE7087820B1822804D08328A0
:10B7600006D103E00020D6E72120D4E72120D2E74C
:10B770002120D0E708788038112824D2DFE800F0B3
:10B7800009232323232311131517191B1D1F2123FD
:10B790000F00487808B10020BDE72120BBE700205A
:10B7A000B9E72120B7E72120B5E72120B3E7212021
:10B7B000B1E72120AFE72120ADE72120ABE7212031
:10B7C000A9E72120A7E72120A5E7087810B1822862
:10B7D00004D101E000209EE721209CE721209AE788
:10B7E000087810B1822804D101E0002093E72120DD
:10B7F00091E721208FE7087808B900208BE7212006
:10B8000089E7212087E7012085E7000010B50024A3
:10B810004FF481710F48FEF7F3FD01F05FFC00BFAC
:10B820000C48FFF75BFF0B480078552801D100203A
:10B8300010BD01F053FC0A2001F006FE0548007817
:10B84000552804D02046611C8CB20528E8DB262050
:10B85000EEE70000B61400202DE9FC4105460E4637
:10B8600017461C464FF481711948FEF7C9FD184868
:10B87000FFF734FF16480078552801D0FFF7C6FFC0
:10B8800021202070002060703046FFF71DFD4FFA28
:10B8900080F8B8F1000F01D0012000E0002000B1D5
:10B8A00013E002208DF800008DF801508DF8026041
:10B8B0006A1E39460DF10300FEF789FD21466846F0
:10B8C00001F079FC0020BDE8FC812220FBE70000AC
:10B8D000B614002038B5044604A000680090214644
:10B8E000684601F068FC002038BD0000040000003C
:10B8F00070B5C2B004460E461546212028700020BF
:10B900006870012C03DBFF2C01DC012000E000202B
:10B9100010B9272042B070BD04208DF804008DF8C6
:10B920000540224631460DF10600FEF750FD29463E
:10B9300001A801F040FC29460420FFF7E7FE30B1E2
:10B940002878872801D12820E4E72120E2E7002099
:10B95000E0E72DE9F041C2B004460D4616461F4609
:10B96000DDF8208109208DF804008DF805408DF860
:10B9700006508DF80760A21E394602A8FEF727FD83
:10B98000414601A801F017FC002042B0BDE8F0815B
:10B9900029B1064A52690243044B5A6104E0034A42
:10B9A00052698243014B5A61704700000010024007
:10B9B00029B1064AD2690243044BDA6104E0034A22
:10B9C000D2698243014BDA617047000000100240E7
:10B9D00029B1064A12690243044B1A6104E0034A82
:10B9E00012698243014B1A61704700000010024047
:10B9F00029B1064A92690243044B9A6104E0034A62
:10BA000092698243014B9A61704700000010024026
:10BA100029B1064AD2680243044BDA6004E0034AC3
:10BA2000D2688243014BDA60704700000010024088
:10BA30002DE9F0430022002600279446002500212E
:10BA400000230024DFF83C85D8F8048008F00C02BD
:10BA500022B1042A07D0082A30D109E0DFF828856E
:10BA6000C0F800802FE0DFF82085C0F800802AE0D1
:10BA7000DFF81085D8F8048008F47016DFF8048524
:10BA8000D8F8048008F480374FF0020808EB964697
:10BA900027B9DFF8F88406FB08F10DE0DFF8E4844D
:10BAA000D8F82C8008F00F0808F1010CDFF8D884D2
:10BAB000B8FBFCF808FB06F1016004E0DFF8C8847D
:10BAC000C0F8008000BF00BFDFF8B884D8F8048059
:10BAD00008F0F0021209DFF8B88418F80240D0F834
:10BAE000008028FA04F8C0F80480DFF89884D8F8B9
:10BAF000048008F4E062120ADFF8948418F8025017
:10BB0000D0F8048028FA05F8C0F80880DFF87484BB
:10BB1000D8F8048008F46052D20ADFF8748418F868
:10BB20000230D0F8048028FA03F8C0F80C80DFF85F
:10BB30005484D8F82C8008F4F872120902F00F0827
:10BB4000DFF8509439F8185002F01008B8F1000FDF
:10BB500005D025B1B1FBF5F8C0F8108003E0D0F8AE
:10BB60000080C0F81080DFF81C84D8F82C8008F41E
:10BB70007852520A02F00F08DFF8189439F818507A
:10BB800002F01008B8F1000F05D025B1B1FBF5F8AF
:10BB9000C0F8148003E0D0F80080C0F81480DFF80B
:10BBA000E483D8F8308008F01008B8F1100F04D002
:10BBB000DFF8D483C0F8188003E0D0F80080C0F824
:10BBC0001880DFF8C083D8F8308008F02008B8F17A
:10BBD000200F04D0DFF8B083C0F81C8003E0D0F859
:10BBE0000080C0F81C80DFF89C83D8F8308008F013
:10BBF0004008B8F1400F04D0DFF88C83C0F82080F3
:10BC000003E0D0F80080C0F82080DFF87883D8F80F
:10BC1000308008F48078B8F5807F0AD1D0F80080B1
:10BC2000884506D1A34204D14FEA4108C0F82480D8
:10BC300003E0D0F80C80C0F82480DFF84883D8F8FF
:10BC4000308008F48058B8F5805F0AD1D0F80080C1
:10BC5000884506D1A34204D14FEA4108C0F82880A4
:10BC600003E0D0F80C80C0F82880DFF81883D8F8FB
:10BC7000308008F40078B8F5007F0AD1D0F8008051
:10BC8000884506D1A34204D14FEA4108C0F82C8070
:10BC900003E0D0F80C80C0F82C80DFF8E882D8F8F8
:10BCA000308008F48068B8F5806F0AD1D0F8008041
:10BCB000884506D1A34204D14FEA4108C0F84C8020
:10BCC00003E0D0F80C80C0F84C80DFF8B882D8F8D8
:10BCD000308008F40068B8F5006F0AD1D0F8008011
:10BCE000884506D1A34204D14FEA4108C0F85080EC
:10BCF00003E0D0F80C80C0F85080DFF88882D8F8D4
:10BD0000308008F40058B8F5005F0AD1D0F8008000
:10BD1000884506D1A34204D14FEA4108C0F85480B7
:10BD200003E0D0F80C80C0F85080DFF85882D8F8D3
:10BD3000308008F40048B8F5004F0AD1D0F80080F0
:10BD4000884506D1A34204D14FEA4108C0F8588083
:10BD500003E0D0F80C80C0F85880DFF82882D8F8CB
:10BD6000308008F00308B8F1000F04D1D0F80C803F
:10BD7000C0F8388028E0DFF80C82D8F8308008F06E
:10BD80000308B8F1010F04D1D0F80080C0F8388062
:10BD90001AE0DFF8F081D8F8308008F00308B8F135
:10BDA000020F04D14FF40048C0F838800CE0DFF8EF
:10BDB000D481D8F8308008F00308B8F1030F03D11C
:10BDC000DFF8C481C0F83880DFF8B881D8F8308057
:10BDD00008F44038B8F1000F04D1D0F80880C0F85A
:10BDE0003C8028E0DFF89C81D8F8308008F44038A7
:10BDF000B8F5803F04D1D0F80080C0F83C801AE04C
:10BE0000DFF88081D8F8308008F44038B8F5003F7A
:10BE100004D14FF40048C0F83C800CE0DFF86481A6
:10BE2000D8F8308008F44038B8F5403F03D1DFF847
:10BE30005881C0F83C80DFF84C81D8F8308008F495
:10BE40004028B8F1000F04D1D0F80880C0F8408035
:10BE500028E0DFF83081D8F8308008F44028B8F5C1
:10BE6000802F04D1D0F80080C0F840801AE0DFF8BD
:10BE70001481D8F8308008F44028B8F5002F04D198
:10BE80004FF40048C0F840800CE0DFF8F880D8F8A4
:10BE9000308008F44028B8F5402F03D1DFF8E8805F
:10BEA000C0F84080DFF8DC80D8F8308008F4401813
:10BEB000B8F1000F04D1D0F80880C0F8448028E021
:10BEC000DFF8C080D8F8308008F44018B8F5801F3B
:10BED00004D1D0F80080C0F844801AE0DFF8A480D4
:10BEE000D8F8308008F44018B8F5001F04D14FF49A
:10BEF0000048C0F844800CE0DFF88880D8F8308033
:10BF000008F44018B8F5401F03D1DFF87C80C0F872
:10BF10004480DFF87080D8F8308008F44008B8F129
:10BF2000000F04D1D0F80880C0F8488028E0DFF87E
:10BF30005480D8F8308008F44008B8F5800F04D158
:10BF4000D0F80080C0F848801AE0DFF83880D8F8D0
:10BF5000308008F44008B8F5000F04D14FF40048D1
:10BF6000C0F848800CE0DFF81C80D8F8308008F476
:10BF70004008B8F5400F03D1DFF80C80C0F84880C6
:10BF8000BDE8F0830010024000127A0000093D0075
:10BF90006C0000207C00002010B50121084801F051
:10BFA00029FB084908600021074801F051FB0749B7
:10BFB00008600846006800B910BD00BFFCE700003B
:10BFC000B4EE000814000020A4EE000810000020C9
:10BFD00010B5104800F030F800210E4800F020F8AD
:10BFE0004FF400414FF09040FEF7B9FC00200A49A1
:10BFF000087004210948FEF7B2FC4FF4FA6001F022
:10C0000023FA04210548FEF7ACFC00F010F90249C0
:10C01000087010BD0038004000000020000C0048EF
:10C0200021B1028842F04002028004E002884FF60B
:10C03000BF731A400280704710B504461848844206
:10C0400008D101218014FFF7E3FC0021A014FFF7C1
:10C05000DFFC23E01348844208D101210014FFF7DC
:10C06000B7FC00212014FFF7B3FC17E00E48844210
:10C0700008D10121C013FFF7ABFC0021E013FFF74B
:10C08000A7FC0BE00948844208D10121C803FFF74F
:10C09000BFFC00214FF40040FFF7BAFC10BD0000C8
:10C0A0000030014000380040003C0040003C0140AE
:10C0B0000246002013890B400BB1012000E0002054
:10C0C000704730B500224B88B3F5827F19D10288C2
:10C0D00002F44152CB880C8923434C898D892C432F
:10C0E000CD892C4323430C884D882C4323431A438A
:10C0F000028082884FF2FF031A408B881A438280A5
:10C1000018E082884FF2FF031A408B881A4382801E
:10C11000028802F44152CB880C8923434C898D89D3
:10C120002C43CD892C4323430C884D882C43234337
:10C130001A430280838B4FF2FF74234083830B8A60
:10C14000038230BD014600220A460C321078704747
:10C1500082884EF6FF731A40828082880A4382806A
:10C160007047002202460C32117070472DE9F041F1
:10C1700080460E4615461F46FF2D01DDFF2000E0DC
:10C1800028460546002409E0315D404600F00AF8E3
:10C190003855052001F058F9601CC4B2AC42F3DBFD
:10C1A000BDE8F0812DE9F04106460F4601F0A0F907
:10C1B0000446154800884CF2503148431349098819
:10C1C0004CF25032514300EB214500BF0221304672
:10C1D000FFF76EFF20B901F08BF9001BA842F5D3E1
:10C1E00039463046FFF7BDFF00BF01213046FFF75B
:10C1F0005FFF20B901F07CF9001BA842F5D330465F
:10C20000FFF7A0FFBDE8F08124F0000826F0000849
:10C210000021018041804FF4E06181800021C180D4
:10C22000018141818181C18107210182704710B55F
:10C23000FEF7A0F9FEF7A2F908B1002010BD012019
:10C24000FCE770B505460E46002404E0285D00F0CA
:10C2500005F8601C84B2B442F8DB70BD10B504462A
:10C260002146024800F016FB10BD000000380140D6
:10C2700070B506460C464FF47A710C48006801F020
:10C2800043F9054605B970BDB4F5807F01DD4FF473
:10C2900080742C8022463146A81CFEF798F8294667
:10C2A0000248006801F06DF900BFECE7440000208F
:10C2B00000B589B001214804FFF76AFB0121480459
:10C2C000FFF766FB01218803FFF792FB02208DF840
:10C2D000200000208DF822008DF8230003208DF827
:10C2E00021004FF40070079007A94FF09040FEF72F
:10C2F00081FA07220921C806FEF70EFB4FF4806081
:10C30000079007A94FF09040FEF774FA07220A2120
:10C310004FF09040FEF700FB01A800F0D6FB4FF471
:10C32000E130019001A9104800F050FB01220F49B3
:10C330000D4800F02EFB01210B4800F0F1FA2520FA
:10C3400000280DDB00BF00BF00F01F02012191405B
:10C350004209920002F1E022C2F8001100BF00BFC2
:10C3600000BF09B000BD0000003801400501050014
:10C3700010B501F043F800211D4801F00DF91D49E9
:10C38000086000211C4801F0CDF81C4908600846EF
:10C39000006800B910BD0021194801F0C3F819491F
:10C3A00008600846006800B9F4E70021164801F06B
:10C3B0004FF9164908600846006800B9EAE700210D
:10C3C000134801F045F9134908600846006800B9B0
:10C3D000E0E70021104801F03BF9104908600846E9
:10C3E000006800B9D6E7FFF763FF00BFD2E700009F
:10C3F000BCEE00082C000020C4EE0008380000202D
:10C40000D0EE000844000020DCEE00084C000020C4
:10C41000ECEE000850000020FCEE00085400002064
:10C420002DE9F04104460F460026002520783E28DD
:10C4300018D16678012E04D0022E06D0032E0FD11B
:10C4400007E0A01C00F072FC0BE0A01C01F0C2F998
:10C4500007E000202E490870A01C00F0BBFC00E0A3
:10C4600000BF52E00F222BA12046FDF7E1FFD8B913
:10C470003E202C49087048704F2088704B20C870AF
:10C4800004212848FEF766F805462648057105216F
:10C49000FFF7EEFE40F6B83000F0D6FF012211465D
:10C4A0002148FEF74FF930E0082220A12046FDF791
:10C4B000BFFF90B93E201B49087048705620887015
:10C4C0006E20C87004211748FEF744F80546154849
:10C4D00005710521FFF7CCFE17E0062216A12046C4
:10C4E000FDF7A6FF88B900BFBFF34F8F144800685F
:10C4F00000F4E06013490843001D11490860BFF3D0
:10C500004F8F00BF00BF00BFFDE7BDE8F081000016
:10C5100021000020474F544F5F424F4F545F4D4F13
:10C52000444500009011002000F80308564552537E
:10C53000494F4E3F000000005245424F4F5400000B
:10C540000CED00E00000FA0570B506460C464FF40D
:10C550007A710C48006800F0D7FF054605B970BD38
:10C56000B4F5807F01DD4FF480742C802246314683
:10C57000A81CFDF72CFF29460248006801F001F8CD
:10C5800000BFECE73800002007490A880988491CE9
:10C59000054B19800549885419460988FF2902DD91
:10C5A00000211A461180704748000020901000209A
:10C5B0000CB50020019000902C48006840F48030B9
:10C5C0002A49086000BF2948006800F40030009044
:10C5D0000198401C0190009818B90198B0F5A04F3F
:10C5E000F1D12248006800F4003010B10120009021
:10C5F00001E0002000900098012836D112201C494B
:10C6000008601A4840681949486008464068486010
:10C610000846406840F4806048600846406820F45E
:10C620007C1048600846406840F4E81048600846BE
:10C63000006840F08070086000BF0C48006800F09F
:10C6400000700028F9D00948406820F0030007492D
:10C6500048600846406840F00200486000BF034858
:10C66000406800F00C000828F9D10CBD0010024011
:10C670000020024030B1012805D0022804D0032850
:10C680000BD104E009E008E0054A117005E0002242
:10C69000044B1A80024A517000BF00BF704700006F
:10C6A0005C0000206000002010B51B48006840F4CA
:10C6B0007000194908601948006840F001001749E6
:10C6C0000860084640681649084014494860084612
:10C6D000006814490840114908600846006820F4C1
:10C6E000802008600846406820F4FE004860084644
:10C6F000C06A20F00F00C8620846006B0A49084073
:10C700000649086300208860FFF752FF0748024986
:10C710008039086010BD000088ED00E00010024084
:10C720000CC07FF8FFFFF6FECCFC00FF00A0000865
:10C7300010B50121880700F01EF858B101218807C3
:10C7400000F009F84FF09040808A80F400604FF0CC
:10C750009041888210BDCA4392B20261704721B1F4
:10C76000028842F00102028004E002884FF6FE7364
:10C770001A400280704730B5024600200023002492
:10C78000156905EA0103D56805EA010413B10CB186
:10C79000012000E0002030BD10B51AB1C3680B4382
:10C7A000C36004E0C368CC43A4B22340C36010BD9F
:10C7B000002202881E4B98420ED01E4B98420BD08E
:10C7C000B0F1804F08D01C4B984205D01B4B9842CB
:10C7D00002D01B4B984204D14FF68F731A404B88FE
:10C7E0001A43184B984207D0174B984204D04FF683
:10C7F000FF431A400B891A4302804B68C3620B88BF
:10C8000003850B4B98420ED00A4B98420BD00F4B2E
:10C81000984208D00E4B984205D00E4B984202D059
:10C82000074B984201D14B8903860123436170472E
:10C83000002C01400034014000040040000800408A
:10C840000050014000100040001400400040014032
:10C85000004401400048014021B1028842F0040236
:10C86000028004E002884FF6FB731A400280704792
:10C8700010B50446FEF740FF0A2000F0E5FD204613
:10C88000FEF7D1F808B9012010BDFEF735FF0020F2
:10C89000FAE700002DE9F04104460D4600F028FEBD
:10C8A00006460E4800884CF2503148430C4909882E
:10C8B0004CF25032514300EB214700BF802120460B
:10C8C00000F039F820B900F013FE801BB842F5D310
:10C8D0002946204600F0F5F8BDE8F08124F0000874
:10C8E00026F0000810B50A490A4800F02DF870B18A
:10C8F000084800F0E1F8084908700848006830B1BD
:10C900000022084601780548006800F067FE10BD67
:10C9100005010500003801405B0000202C000020CC
:10C9200021B1026842F00102026003E0026822F0D5
:10C9300001020260704702460020D3690B400BB130
:10C94000012000E00020704770B502460B4600242D
:10C95000002100250020C3F30725D9B2012606FADD
:10C9600001F1012D02D11668314006E0022D02D1FD
:10C970005668314001E0966831401C0C012606FAE9
:10C9800004F4D669344011B10CB1012000E000205C
:10C9900070BDF0B50346002400260025002018468F
:10C9A000C1F30724CEB2012707FA06F5022C01D104
:10C9B000001D02E0032C00D108301AB107682F4394
:10C9C000076002E00768AF430760F0BD2DE9F04162
:10C9D00098B004460D460027B8460026206820F08F
:10C9E00001002060666826F44056A8680643666029
:10C9F000266841F20C608643E96868680843296943
:10CA0000084306432660A66826F440766869064314
:10CA1000A66001A8FFF70CF82348844202D1DDF894
:10CA20003C8013E02148844202D1DDF840800DE0D3
:10CA30001F48844202D1DDF8448007E01D4884424B
:10CA400002D1DDF8488001E0DDF84C80206800F478
:10CA5000004060B14FEA48002968B0FBF1F74FEAA7
:10CA600048002968B0FBF1F201FB120607E02868D4
:10CA7000B8FBF0F72868B8FBF0F100FB11862868D6
:10CA8000B6EB500F00D37F1C206800F4004038B193
:10CA9000C7F342064FF6F07107EA010040EA0607C5
:10CAA000A78118B0BDE8F081003801400044004083
:10CAB00000480040004C00400146888CC0F308004C
:10CAC0007047C1F30802028570474FF416510160A8
:10CAD000002141608160C1600C2101610021416140
:10CAE000704700BFFEE710B50446FEF701FC10BD1D
:10CAF00010B500220121094800F0DEFD0849086058
:10CB00000846006840B196210548006800F0EAFD3B
:10CB1000044604B110BD00BF00BFFBE70CF00008E5
:10CB2000680000200FB410B586B00020029003907A
:10CB3000049005903748006801900024364800783A
:10CB400020B9A01E06B010BC5DF814FBC82000F090
:10CB50007BFC50213148FDF753FC0F221CA92F48C4
:10CB6000FDF735FC0F211CA800F0A1F804462B4866
:10CB7000C4732B220CA91030FDF729FC2B210CA823
:10CB800000F095F80446254880F83B402C99C16395
:10CB90002D990164BDF8B810A0F8441012303099F6
:10CBA000416331998163BDF8C810818741F28831B2
:10CBB0001B48006800F040FD1A48FFF759FE18B303
:10CBC0000822184901A8FDF726FC90B11548016814
:10CBD00001914068029050211048FEF7E9FA98B19F
:10CBE000FFF7F6F90E48006800F01AFD4FF0FF302D
:10CBF000A8E7FEF781FDFFF7EBF90948006800F0B0
:10CC00000FFD4FF0FF309DE70548006800F008FD7C
:10CC1000002097E7B8EE000800000020E4000020A4
:10CC200014000020D400002000280DDB00BF00BF4E
:10CC300000F01F02012191404209920002F1E0221E
:10CC4000C2F8001100BF00BF704702E008C8121F01
:10CC500008C1002AFAD170477047002001E001C1E5
:10CC6000121F002AFBD1704710B5002A06DA22F005
:10CC70000042D21D22F00703102203E0D21C22F052
:10CC800003030C2213B19C188C4201D9012010BD62
:10CC9000024401448360C0E90021C91AD0188842C7
:10CCA00002D810600246F9E70020106010BD10B5F0
:10CCB00002460B460024002103E0505C0444481C5B
:10CCC00081B29942F9DBE0B210BD0000084800686B
:10CCD000C0010BD507480068C00707D00548803859
:10CCE0000068002802DA044901200870704700003B
:10CCF000FCED00E0800E00E0C80000204FF0604234
:10CD0000D36F002BFCD0036BD367D36F002BFCD009
:10CD1000C07840EA0120A2F87C0070474FF06041E3
:10CD2000CA6F002AFCD081F87C00704710B5044619
:10CD3000207800F00100234908702078C0F34000FB
:10CD400048712078C0F3800088712078C0F3C0005B
:10CD5000C8712078C0F3001048702078C0F34010EC
:10CD600088702078C0F38010C8702078C0090871DE
:10CD7000607881F8B800A07881F8B900124800788E
:10CD800091F8B81088420AD00E4890F8B8000E49C1
:10CD900008700846017800220C48FDF7D3FC0A48C9
:10CDA0004078084991F8B91088420AD0054890F8AF
:10CDB000B900054948700846417800220448FDF74B
:10CDC000C1FC10BD380100202400002000E0030851
:10CDD00000E8030870B5D4B00446207800F00F00D6
:10CDE0004649087220780111444841726079002355
:10CDF0002279190641EA122115061A460B4642EA23
:10CE0000050140EA0302E3780020000440EA1345EC
:10CE100041EA034042EA0501A3780022120242EAF5
:10CE200013621D020B4640EA05011A436078002395
:10CE30001B4001431A433148C0E904122C2204F17B
:10CE400008011830FDF7C3FA102204F134012B4811
:10CE50005830FDF7BCFA29498831626C0A61A26C2E
:10CE60004A61B4F84C000883D4F84E200A62D4F822
:10CE700052204A62B4F8560008852048007A0128FA
:10CE800008D100210220FFF7F5FB06210320FFF760
:10CE9000F1FB0BE01948007A022807D1022108466D
:10CEA000FFF7E8FB05210320FFF7E4FB1348407A76
:10CEB000012821D111481249D0E9043203C9584050
:10CEC0005140084318D10D48007A8DF8A000AF22D8
:10CED0000A4909310DF1A100FDF779FAA0222CA928
:10CEE0006846FDF774FA28A80FC8FFF71BFE18B9AB
:10CEF0000021044801F0CCFB54B070BD3801002083
:10CF000008000020D400002000B587B04748FFF794
:10CF100093F801214FF4B010FEF73AFD0121880388
:10CF2000FEF746FD02208DF8040000208DF8060073
:10CF300003208DF8050000208DF807004FF4005005
:10CF4000009069463A48FDF755FC05220D21384806
:10CF5000FDF7E2FC4FF48040009069463448FDF74D
:10CF600049FC05220E213248FDF7D6FC4FF4004063
:10CF7000009069462E48FDF73DFC05220F212C4804
:10CF8000FDF7CAFC01208DF8040000208DF8060092
:10CF900001208DF8070003208DF805004FF4805024
:10CFA000009069462248FDF725FC4FF48051204847
:10CFB000FDF7D7FC0420009069461E48FDF71AFCD7
:10CFC00004211C48FDF7CDFC4FF400400090694659
:10CFD0004FF09040FDF70EFC4FF400414FF09040B1
:10CFE000FDF7BFFC02A8FFF713F94FF48270ADF80C
:10CFF0000A002820ADF814004FF40070ADF81200BC
:10D000000220ADF80E000120ADF8100002A907487B
:10D01000FFF757F84FF480510448FFF799F80121C2
:10D020000248FEF7FDFF07B000BD000000380040D9
:10D0300000040048000C004810B504464FF480710D
:10D040002348FDF7DDF94FF480512248FDF787FCB6
:10D05000022000F0F9F902211F48FFF7A3F8FF2191
:10D060001D48FFF79FF82070207855280CD100202C
:10D070006070FF211848FFF795F8A070FF2116484F
:10D08000FFF790F8E0701CE02078FF280CD100201A
:10D090006070FF211048FFF785F8A070FF210E484F
:10D0A000FFF780F8E0700CE0FF210B48FFF77AF8FB
:10D0B0006070607828B16278A31C05490648FFF7C4
:10D0C00055F84FF480510348FDF74BFC10BD0000AC
:10D0D00028120020000400480038004010B54FF42A
:10D0E00080510F48FDF73DFC012000F0ADF94FF4F1
:10D0F00080510B48FDF733FC022000F0A5F900F049
:10D100009DF84FF480510648FDF72BFC032000F0FA
:10D110009BF900F033F80A2000F096F910BD0000EA
:10D120000004004870B50024052500BF4FF480516D
:10D130001048FDF714FC022000F086F903210E4888
:10D14000FFF730F8044604F008040A2000F07CF9E8
:10D15000082C04D0281EA5F101014DB2E6D14FF4F0
:10D1600080510448FDF7FDFB002D01DC012070BD5E
:10D170000020FCE7000400480038004010B54FF4E0
:10D1800000414FF09040FDF7ECFB012000F05CF90E
:10D190004FF400414FF09040FDF7E1FB012000F01B
:10D1A00053F94FF400414FF09040FDF7DAFB0A20AD
:10D1B00000F04AF910BD70B505460C46284600F04F
:10D1C0000DF8FFF7AFFF18B1FD202070012070BDF2
:10D1D0002046FFF731FF0020F9E7000010B50446B4
:10D1E0004FF480711248FDF70BF94FF4805111484C
:10D1F000FDF7B5FB022000F027F900210E48FEF7ED
:10D20000D1FF2078552804D155210B48FEF7CAFFDD
:10D2100007E06078801CC2B2054B21460648FEF745
:10D22000A5FF4FF480510348FDF79BFB10BD0000A4
:10D2300028120020000400480038004010B50121E9
:10D240000148FEF7AFFF10BD0038004001460868F6
:10D250007047000000200549087008460078022841
:10D2600001DD0020704701480078FBE764000020E2
:10D270000D480078062813D2DFE800F012030609F3
:10D280000C0F40F2145070474FF49660FBE740F2E9
:10D290004C40F8E740F21A40F5E74FF47A70F2E7B5
:10D2A0004FF47A70EFE70000240000200EB5012152
:10D2B0000846FEF77DFBFFF7DBFF01900D20ADF880
:10D2C00000000020ADF808001020ADF8020069460B
:10D2D0008006FFF76DFA00214FF08040FFF7BCFA9F
:10D2E00001218807FFF737FA0EBD000010B5054889
:10D2F0000078FF2802D1FFF7ADFF10BD014800788C
:10D30000FBE70000640000200EB5802200B109B1E7
:10D3100010460AE001780129FAD101A900F034F899
:10D32000042801D0002000E01020DDE9011203B044
:10D3300000BD70B50D46040003D012B92078012855
:10D3400001D0802070BD204600F04EFC28B1294657
:10D35000204600F044F8002070BD812070BD10B55B
:10D3600000F0C0FB10B10178022901D0802010BD6F
:10D370004188A1F57F42FF3A03D000F037F8002042
:10D3800010BD812010BD000010B504468089002822
:10D3900024D0608904EB800000690860606840B1B7
:10D3A0006078022805D10021204600F0BDFD00F084
:10D3B000ABFD04F10C0000BFD0E85F1F491E8AB22C
:10D3C000C0E8512F0029F7D16089401C80B26081EC
:10D3D000E189884201D100206081042010BD10B590
:10D3E00000F0A2FDBDE8104000F08EBD10B5002198
:10D3F00000F09AFDBDE8104000F086BD10B5084869
:10D40000FDF770F9074908700748FDF76BF9054902
:10D4100048700648FDF766F90249486010BD0000F3
:10D4200000E003082400002000E8030800D80308F7
:10D4300010B500F015F8FDF713FFFDF729FF00F018
:10D4400021F8002010BD0000EFF3058109B1822012
:10D450007047DFF808C000DF70470000D1E6000821
:10D46000EFF3058008B182207047EFF31480C00706
:10D4700003D0DFF80CC000DF704701F033B90000C3
:10D48000E5E6000888B0EFF3058010B1822008B00F
:10D490007047EFF3148010F00301134806D0012900
:10D4A0001BD0022911D0032919D113E008A981F357
:10D4B00009880078C0070BD05FF0020080F3148861
:10D4C000BFF34F8FBFF36F8F09E00078C00706D11D
:10D4D0000320F3E70078C00701D0FF20D7E7DFF88B
:10D4E0000CC000DFD3E700002CF0000855E700086F
:10D4F000EFF3058008B100207047DFF808C000DFB7
:10D50000704700009DE70008EFF3058212B1012289
:10D5100001F0CABA0022DFF808C000DF704700003F
:10D52000A9EA0008EFF305820AB100207047EFF383
:10D530001482D20702D1044A52781AB1DFF80CC023
:10D5400000DF704701F046B9AC000020D5E70008C5
:10D55000EFF3058212B1012201F0D2BA0022DFF806
:10D5600008C000DF7047000001EB000810B530B1C3
:10D57000006800F027F8102800D1202010BD80207E
:10D5800010BD20B129B10068002200F027B880202A
:10D590007047862070470000EFF305820AB1002033
:10D5A0007047EFF31482D20702D1044A52781AB1BD
:10D5B000DFF80CC000DF704701F02DB9AC0000208F
:10D5C00017E80008EFF305820AB1FFF79DBEDFF808
:10D5D00008C000DF704700003BE80008EFF3058358
:10D5E0000BB1FFF7A6BEDFF808C000DF70470000F0
:10D5F00075E80008EFF305820AB100207047EFF3E9
:10D600001482D20702D1044A52781AB1DFF80CC052
:10D6100000DF704701F049B9AC000020ABE800081A
:10D62000EFF3058109B1FFF79ABEDFF808C000DF0C
:10D6300070470000CFE80008EFF3058212B14FF009
:10D64000FF307047DFF804C000DF7047F7E80008DC
:10D65000EFF305820AB100207047EFF31482D2077E
:10D6600002D1044A52781AB1DFF80CC000DF7047CB
:10D6700001F05AB9AC00002029E90008DFF80CC01D
:10D6800000DFDFF80CC000DFFEE7000095E90008CE
:10D69000B1E90008EFF3058008B182207047DFF898
:10D6A00008C000DF70470000E9E90008DFF804C0A7
:10D6B00000DF7047F3E90008EFF305830BB10020AA
:10D6C0007047EFF31483DB0702D1044B5B781BB187
:10D6D000DFF80CC000DF704701F098B9AC00002003
:10D6E0000DEA0008EFF305820AB182207047DFF8E7
:10D6F00008C000DF7047000045EA0008094C4FF001
:10D70000FF3529462068FFF75DFF02460846102ACC
:10D71000F7D1FFF7CBFF0028F3D002460846904729
:10D72000EFE70000A0000020012806D0022805D065
:10D73000032804D0042804D102E003E002E001E061
:10D7400000E000BF00BF00BFFEE700BFFEE7000033
:10D75000074801684FF0E020416100218161072105
:10D7600001610448016841F07F4101604017704742
:10D7700028F0000820ED00E0704700000248006833
:10D78000C0F380607047000004ED00E04FF0E0203F
:10D79000806902490968081A7047000028F00008EB
:10D7A0001FB50024002000900190029003903E20BD
:10D7B0008DF8000002208DF8010002216846FCF778
:10D7C000C9FE04468DF8024003216846FEF750FD6D
:10D7D0001FBD00007FB5044600252078012811D127
:10D7E00060780006A17840EA0140E17840EA012033
:10D7F00021790843184948600846002241681748C3
:10D80000FCF7A0FF002000900190029003903E20C2
:10D810008DF800000A208DF801000F484068000EC6
:10D820008DF802000C484068000C8DF803000A488F
:10D830008088000A8DF80400074800798DF80500FB
:10D8400006216846FCF786FE05468DF8065007213E
:10D850006846FEF70DFD7FBD2400002000D80308B8
:10D8600050E8001F31B10B6840E80032002AF7D1C0
:10D8700008467047BFF32F8FFAE710B568B161B162
:10D880000B3121F00302016844680B1A1B1B934201
:10D8900005D2084609680029F5D1002010BD2100F5
:10D8A00007D021180368C1E90032016001F10800C6
:10D8B00010BD4260083010BD70B50D46002812D072
:10D8C0004FF6FF71084C884204D222680146104688
:10D8D00000F058FB20684570044800F0DDF8BDE812
:10D8E000704000F05DBC70BDB4000020CC4A002048
:10D8F0000F4810B50D4942680E480B680068934206
:10D9000004D00A60CB88421E1A448A808A8880B27A
:10D9100082420AD100200860054800F0BDF80146A7
:10D92000BDE81040024800F051BB10BDCC00002003
:10D93000CC4A0020C400002070B5194DE8680028CA
:10D940002CD0A88A401EA882002621E0A06838B109
:10D9500061684160606810B1A16881606660A6601E
:10D960000F482146183800F031FBA08AA882607861
:10D97000042804D10B49E08A09880844A0820120C8
:10D980006070E068E860E06808B10561E660266103
:10D99000A88A002802D1EC68002CD7D170BD000005
:10D9A000E44A0020C400002070B504000FD00D4DE3
:10D9B000A17801262868827891420CD900F022FBD8
:10D9C000286846702046BDE8704000F0E9BB064874
:10D9D00000F062F8F7E766702146BDE87040024843
:10D9E00000F0F4BAB4000020CC4A00200321FFF775
:10D9F00063BF000010B50446008B084320836278A3
:10DA0000618B062A18D0052A19D1084217D001EADD
:10DA10000002628388432083204600F02DFB012012
:10DA20006070628B0821204600F01EFB2146BDE895
:10DA30001040034800F0CABA31EA0002EAD010BD33
:10DA4000CC4A0020814202D342688A4201D8012098
:10DA5000704702680A60BFF35F8F50E8003F0A68B2
:10DA60009A42F6D140E80012002AF2D10020704715
:10DA700068B161B10022083902E00246006830B1A5
:10DA80008842FAD12AB10068106000207047012056
:10DA9000704700214160F8E70146406842684A60EB
:10DAA0000B780022022B05D0012B03D0032B01D0D1
:10DAB0004260704743680BB1996042608260704772
:10DAC0000649074B48681B6882789B789A4202D1C6
:10DAD00042684A607047002070470000CC4A00202E
:10DAE000B4000020810700D00020704770B50446C4
:10DAF00000201546207001226270A17084F8241065
:10DB00006060A060E06020612062A082E0822083EB
:10DB1000608384F82500E08C18B90548FFF7A0FE63
:10DB2000E06229462046BDE8704000F01DB80000C4
:10DB30000018002008B1082901D2012070470144D3
:10DB4000091F002201600A60426010467047000011
:10DB500003480021016003490988C1807047000023
:10DB6000CC0000201CF0000870B5C28C1C4D93083E
:10DB700002D12A88C2F38D03C26A02EB83025407E2
:10DB800000D5121F4FF0807442E90214002426468B
:10DB9000B2F1400242F82460641C0E2CFAD3C4692E
:10DBA0001462826201632968C90014D5112B12D94D
:10DBB0004FF0FF31103B11EB53014FF0CC3305D048
:10DBC00042F8043C42F8083D491EF9D1C16A121FCF
:10DBD0008A4200D91360C06A0249016070BD00002A
:10DBE00018F00008A52E5AE2C1898089081A7047EA
:10DBF00001220270002242708270426002814281E2
:10DC0000103982818908C181704700002DE9F041F7
:10DC1000044640680E464FF0000804F10C05E8B3D6
:10DC20006078012701283ED0022813D003285CD158
:10DC30000846FFF715FE050057D02046FFF72CFFDA
:10DC40000446294600F00AFA6770204600F014FAEC
:10DC5000214621E02046FFF71FFF0646002100F085
:10DC6000FDF92189F06904EB81010861D5E85F0FB6
:10DC7000401C81B2C5E8501F0028F7D12089401C04
:10DC800080B22081E189884201D1A4F808807770B0
:10DC9000304600F0F1F93146174800E00CE0BDE8ED
:10DCA000F04100F093B92046FFF7F6FE04463246F5
:10DCB000102100F0D9F9C7E7A089E189884216D27E
:10DCC000208904EB80000661D5E85F0F401C81B21B
:10DCD000C5E8501F0028F7D12089401C80B2208160
:10DCE000E189884201D1A4F80880BDE8F081BDE84F
:10DCF000F0410320FFF718BDCC4A002070B516464E
:10DD000042680D4612B1417801290BD08189C4893E
:10DD10000023A14224D19EB11D4C216892B100F094
:10DD200055F916E0FFF7B8FE04462A46102100F028
:10DD30009BF9204600F0A0F92046FFF735FE25E0CC
:10DD4000012070BD416021684B602168886002211C
:10DD5000417020680821C5613046FFF7ADFDEFE74F
:10DD6000018900EB81010D6100F10C01D1E85F2F09
:10DD7000521C94B2C1E8524F002AF7D10189491CC4
:10DD800089B20181C289914200D10381002070BD16
:10DD9000B400002070B50446808915460026C0B343
:10DDA000608904EB8000006908606089401C80B2D3
:10DDB0006081E189884200D16681606810B1607835
:10DDC00002280BD014F10C04D4E85F0F401E81B27E
:10DDD000C4E8501F0028F7D1002070BD2046FFF78F
:10DDE0005BFE0546002100F039F92189E86904EB62
:10DDF000810108612089401C80B22081E18988422C
:10DE000000D12681284600F037F92846FFF7CCFDDF
:10DE1000E2E7FFE73DB10B48626801682AB120469E
:10DE200000F0D4F808E0012070BD616001684E6028
:10DE3000006884600120607008212846FFF73CFDDF
:10DE4000F1E70000B4000020002814D0411C13D0DA
:10DE50000C4A4FF6FE7190420CD800EB4002C2EB28
:10DE6000C0120948036803EBC202521EB2FBF3F072
:10DE7000884204D9084670474FF6FF70704780B259
:10DE80007047000000093D0038F0000870B51B48DD
:10DE9000012102685170006800F0B4F8184D6C78E8
:10DEA00018E000BF05EBC40148680278EAB1012A16
:10DEB00020D000F013F9E878641C844200D10024DB
:10DEC0000F48801CD0E84F1F491EC9B2C0E8421F4E
:10DED000002AF7D1A8780028E4D16C700948FFF730
:10DEE000DBFDBDE8704000F05BB9098989B2FFF73E
:10DEF00081FDE0E78968FFF789FEDCE7B4000020D8
:10DF000088490020CC4A00200548017811B1012140
:10DF10004170704703494FF080500860704700001F
:10DF2000BC00002004ED00E0F0B4154DAB1CEE7811
:10DF30004FEA0507D3E84F2FB24202D1BFF32F8F2C
:10DF400011E0521CD4B2C3E8424F002AF2D100BF04
:10DF5000D7E84F2F541CB44200D10024E4B2C7E8E4
:10DF6000434F002BF4D1EB78934205D905EBC20265
:10DF7000C2E90101F0BC7047F0BC0220FFF7D4BB3E
:10DF800088490020104A10B5D368ABB113469B8A6C
:10DF900003E08CB12246A48A2344D4688B42F8D390
:10DFA000C460D0600261C46804B12061591A8182E2
:10DFB000908A401A908210BD0024C460D060C91AB3
:10DFC00002619182848210BDE44A002030B502785B
:10DFD0000023022A03D0012A01D0032A00D1012301
:10DFE0008C7800E01046426812B19578A542F9D2CB
:10DFF0004A6041601BB102B19160886030BD002071
:10E00000FBE7000003494A684260002282604860E2
:10E0100070470000CC4A002010B5836804462BB935
:10E02000607801280ED1084B03E09B68187800281F
:10E03000FBD0204600F034F82146BDE810401846D9
:10E04000FFF7C4BF10BD0000CC4A002090F8251097
:10E05000806A09B1603070472030704710B50C46B7
:10E06000FFF7F4FF046010BD70B515460C46FFF7CE
:10E07000EDFFC0E9004570BD10B5016900290ED063
:10E08000C268CA60C36800223BB18B8A848A234479
:10E090008B82C3681961C26000E08A82026110BD90
:10E0A000816839B142684A604168002901D08068BE
:10E0B00088607047054906E04A68824202D140689C
:10E0C0004860704711460029F6D17047CC4A0020BD
:10E0D00002220270002242604180704710B5416800
:10E0E00081B1FFF7D9FC0446FFF7C6FF012060703D
:10E0F00001462046FFF7B2FF2146BDE81040034825
:10E10000FFF764BF4188491C418010BDCC4A002004
:10E1100010B5416861B1FFF7BFFC04460121FFF76C
:10E120009DFF2046FFF7A8FF2046FFF73DFC02E0D9
:10E130004188491C4180002010BD000010B50C46EC
:10E14000418819B1491E4180002010BD34B10A4AEE
:10E150004368116823B1FFF739FF07E0012010BDC4
:10E1600041601368002159601168886007212046CA
:10E17000FFF7A2FBF2E70000B400002006480068A9
:10E18000D0E90A10814203D300680449884202D0D2
:10E190000120FFF7C9BA7047B4000020A52E5AE24B
:10E1A0000749022248604270064A1278002A05D0C8
:10E1B00006C98A4202D0C078FEF7B0BD70470000A1
:10E1C000B4000020C800002070B5FEF77FFD0020DD
:10E1D0000446204A204902E042F82040401C0B88B7
:10E1E0009842F9D31D48342201881D48FEF73CFDB2
:10E1F0001C48008880B240F000421B4801681B4860
:10E20000FEF732FD1A48082201881A480068FEF716
:10E210002BFD194DFF20194AE870EC840021284697
:10E22000FFF764FC16480421017044601548017032
:10E23000C460046184821448154905600220687036
:10E240001248047044700978C170BDE87040FFF74F
:10E250007FBC00004C4A002014F0000840F0000889
:10E26000B815002018F0000844F00008001800203D
:10E2700068F00008A8000020984A00204BD700084A
:10E28000CC4A0020E44A0020B40000208849002045
:10E290004CF000081B4810B5016841F47F01016093
:10E2A00000684FF07F4101EA00201649C04314394D
:10E2B000B0FA80F00968C0F10800C1F30221814280
:10E2C00000D3481C0F49091F0B686FF08072824011
:10E2D00063F317020A60FFF73BFA0B490028086056
:10E2E0000EDB00F1E021FF2281F8002400F01F0284
:10E2F000012191404009800000F1E020C0F80011A8
:10E3000010BD000020ED00E0C00000200C4810B55A
:10E310000268012151700068FFF774FEFFF7E8FA08
:10E3200008480168491C0160FFF706FB00F018FC73
:10E330000548FFF7B1FBBDE81040FFF731BF000013
:10E34000B4000020C4000020CC4A0020002805D0E2
:10E35000810702D10178002900D000207047000019
:10E3600030B50B4C0023626805E095688D4204D8F7
:10E3700013461268491B002AF7D10260816012B16E
:10E380009568691A91600BB1186030BD606030BD4E
:10E39000AC0000200D4B0022596803E0814204D0FC
:10E3A0000A4609680029F9D104E019B1016822B1CF
:10E3B000116003E04FF0FF3070475960016819B1F8
:10E3C0008A6880681044886000207047AC00002094
:10E3D0002DE9F0411E46174680460D4611F0FF0F0D
:10E3E00000D14D1C1848FFF73BFA041E16D0280A2E
:10E3F000E762E084E9B242462046E661FFF776FB39
:10E4000001251248124905E000EB850252F8042C60
:10E4100032B16D1C0A889542F6D90020BDE8F08122
:10E42000002DFAD000EB850040F8044C0948E57057
:10E43000007818B101212046FEF760FC2046FFF766
:10E44000B3FA2846EAE70000B81500204C4A00203D
:10E4500014F00008C80000202DE9F05F584DDFF8E7
:10E460005891DFF8588129684FF0010A002618B149
:10E47000CA78AB46824243D14E70FBF79CFE2968B6
:10E480008862FFF77BFE2868046A1FE06068C0B1FD
:10E490002046FFF701FB07460021FFF7DFFD384666
:10E4A000FFF7EAFD87F801A039464648FFF78EFDE1
:10E4B000E168A4F802A0A760386AE0603C620C46FC
:10E4C00004E0E0686680A660E6600446002CDDD1CA
:10E4D0002868C27808EB820141F8046CC16A3A48A6
:10E4E000FFF7B0FA2868C66299F8001011B1002150
:10E4F000FEF704FC35482968FFF7A4FA2E6056E0C1
:10E500003349098888420CD808EB800858F8045C25
:10E510003DB12846FFF7C4FD2846FFF7ADFD2C6A44
:10E5200022E0FF20BDE8F09F6068C0B12046FFF701
:10E53000B3FA07460021FFF791FD3846FFF79CFD2F
:10E5400087F801A039461F48FFF740FDE168A4F8AD
:10E5500002A0A760386AE0603C620C4604E0E06814
:10E560006680A660E6600446002CDDD148F8046CA5
:10E570001548E96AFFF766FAEE6299F8000018B1EB
:10E5800000212846FEF7BAFB29461048FFF75AFA41
:10E590000C48DBF8001040688B7882789A4209D9E1
:10E5A00081F801A00748DBF80010FFF70FFD0020FD
:10E5B000FFF7FAF90020B5E7C80000204C4A002018
:10E5C000B4000020CC4A002000180020B81500201C
:10E5D00014F0000870B5FFF773FA04000CD0074D73
:10E5E00007482968FFF7F2FC296801204870204697
:10E5F000BDE87040FFF7D4BD70BD0000B40000203E
:10E60000CC4A002070B51A4D80B11A4A1288904247
:10E610001FD8194A02EB800050F8044CCCB1A1700D
:10E6200084F824102868A04205D014E0286881707E
:10E63000286880F82410114840688078884215D9ED
:10E640000E482968FFF7C2FC2968012048700020A5
:10E650000AE0FF2070BD2046FFF7DEFC607801284D
:10E6600004D10648FFF718FAFFF79EF9002070BDA5
:10E67000B400002014F000084C4A0020CC4A0020CE
:10E6800002480068002800D0C0787047B40000201D
:10E690007FB504460D4600260020009001900290B0
:10E6A00003903E208DF800008DF801502068CDF8D1
:10E6B00002006068CDF806000A216846FBF74AFFB1
:10E6C00006468DF80A600B216846FDF7D1FD7FBD37
:10E6D00010B5002804D0FFF7B7FBFFF787F94020FB
:10E6E00010BD000010B5134C207860B912484007E7
:10E6F00005D1124801681048FFF71CFA08B18520BF
:10E7000010BDFFF761FD0E49FF2009688870207871
:10E7100058B900210B4800F07EF80B490860002131
:10E720000A4800F001F90A49086001202070002021
:10E73000607010BDAC000020101E002048F00008E2
:10E74000B400002060F00008A000002050F0000895
:10E750009C00002070B50F4D687808B1002070BD96
:10E760000D4C206890F824100020FFF74BFF206824
:10E77000C178FF2903D1816A203181F3098861685A
:10E7800011B9606000202060FFF784FD01206870EF
:10E79000E4E70000AC000020B400002070B5FEF7F4
:10E7A000F5FF0446FEF7EAFF0849094E0D686D1CA7
:10E7B00048B1FEF7EBFFA04200D204463068401C8F
:10E7C00005FB004070BD3068FAE7000028F0000843
:10E7D000C400002070B504000BD0216849B1626804
:10E7E0003AB1A06828B1D0E9005010B10DB12B7832
:10E7F0000BB1002070BDD21C22F0030251430C313A
:10E80000FEF732FA20888000103081B22846FFF7E8
:10E81000EFF9A06870BD10B5040005D0216819B1EA
:10E82000606808B102780AB1002010BD890010317B
:10E8300089B2FFF7DDF9606810BD3EB504000D46F2
:10E840004FF0800012D0217801290FD12846FFF720
:10E85000FBFA0246204601A9FFF79CFA012801D0E5
:10E86000102003E00DB1402000E00020DDE901129E
:10E8700003B030BD70B50E460400154602D02078B6
:10E88000012801D0802070BD1046FFF7DDFA024656
:10E8900031462046FFF732FA012801D0002070BD32
:10E8A0000DB1C12070BD812070BD10B5002807D00A
:10E8B000046824B1207810B9B1F5803F01DB002055
:10E8C00010BD89B22046FFF703FC204610BD10B5ED
:10E8D000FFF708F910B10178022901D0802010BD9E
:10E8E0004188A1F57F42FF3A03D0FFF711FC0020D9
:10E8F00010BD812010BD70B50D46FFF7F3F8040080
:10E900004FF0FF300DD0217802290AD12846FFF7B9
:10E910009BFA01462046FFF711FC012802D06088CF
:10E92000401C70BD002070BD70B50E46040029D09B
:10E93000206838B3606810F1030F23DB032821DC63
:10E94000E16829B11048FEF798FF05001AD000E0F1
:10E9500000256068E168001D40EA012133462A462F
:10E960002068FFF735FD40B1084901EB80000849F8
:10E9700050F8040C826A516370BD1DB129460248EB
:10E98000FFF776F8002070BD101E00204C4A0020D2
:10E990007DD6000810B5FFF773FE002804D00349A8
:10E9A00001EB800050F8040C10BD00004C4A002020
:10E9B00010B5FFF7CBFC18B1C18C19B1C46A02E0E5
:10E9C000802010BD0024C078FFF746FDFF2806D048
:10E9D0001CB121460348FFF74BF8002010BD8120F1
:10E9E00010BD0000101E002010B5FFF7F3FD002041
:10E9F00010BD10B5FFF776F820B141690A680169CA
:10EA0000104610BD0020014610BD000010B50300E7
:10EA10000CD0186850B15868002808D009B10129F5
:10EA200004D1074C24680CB104790CB1002010BD4E
:10EA300000240460012404714171C0E9042310BD65
:10EA40009C00002070B50E46FFF74CF8040016D06D
:10EA5000BEB1144A00214FF47A7310681268401E48
:10EA600041F1FF35E6FB030529460023FBF77EFC59
:10EA70000546207901280CD0022808D103E0802027
:10EA800070BD862070BD2046FFF784FC20B1812038
:10EA900070BD02202071E56029462046FFF760FC2A
:10EAA000002070BD38F0000870B50D46002806D073
:10EAB000D0E9004010B10CB112B10DB1002070BD11
:10EAC000FEF7CEFE060017D1B5B10C4861680029EB
:10EAD000016803D02046FFF779FA07E06160026819
:10EAE0000021516000688460032060702846FFF7B1
:10EAF000ABF90821FEF7E0FE304670BDB4000020FF
:10EB000070B5164648B1D0E9004534B12DB128465C
:10EB1000FEF798FF18B1862070BD802070BD606838
:10EB2000E0B16078032819D136B129462046FFF7B5
:10EB3000FBF9FFF7E9F911E02846FEF791FE050021
:10EB40000CD02046FEF7A8FF04462946FFF786FAB8
:10EB50002046FFF791FA2046FEF726FF002070BD01
:10EB60002DE9F041134E7468002C1CD0A068124FA0
:10EB7000401E4FF00108A06012E025462468746032
:10EB8000002229463868FEF7D4FB10B10420FEF7B6
:10EB9000CBFD6879012808D085F80480002C02D0CC
:10EBA000A0680028E9D0BDE8F0812846E968FFF7B1
:10EBB000D7FBF3E7AC000020A0000020FDF737FBF7
:10EBC0004F49087000BF4E48007800BB4D480078A0
:10EBD0000C2810DC4B480078401C4A490870087823
:10EBE00000EBD0714910A0EB410139B9FDF71FFBD3
:10EBF0004349087002E00F20424908704FF47A70D0
:10EC0000FEF722FCFCF718FBFEF744FDDBE74FF0B4
:10EC1000FF313D480068FEF70FFD3C48FDF728FE38
:10EC2000002849D03948007900233849CA781906A4
:10EC300041EA122114061A460B4642EA040140EA50
:10EC40000302324883780020000440EA134041EA7E
:10EC5000034110432D4A53780022120242EA136402
:10EC600041EA032240EA04012848007800231B40BF
:10EC7000024319432648C0E900212648007850B9CC
:10EC80004FF4FA70FEF7E0FB1F480068FEF7C8FC7F
:10EC9000FCF7D2FA97E700201E49087001210220F4
:10ECA000FDF7E8FC00201C4908721C49087001218E
:10ECB0001648FFF7EDFC02E00120164908701648DF
:10ECC000007A68B915480078401C14490870084655
:10ECD0000078062807DB00200870FEF761FD02E0DF
:10ECE00000200E4908704FF4FA70FEF7ADFB06489D
:10ECF0000068FEF795FCFCF79FFAFEF7CBFC62E795
:10ED0000000000202000002014000020D40000207B
:10ED100008000020220000203801002021000020EF
:10ED20000EB54FF0FF3400BF21461F480068FEF7C4
:10ED300049FC8DE807001D48007810B101282FD14B
:10ED40000EE0009810280AD1194901980870084669
:10ED50000078FDF719FC64240120144908701FE0B5
:10ED60000098102807D112490198087008460078C9
:10ED7000FDF70AFCD8E70098402810D100200D4983
:10ED80000D4A128888540C4801880A48FDF7DCFBBC
:10ED900000200949088005490870441EC4E700BFE7
:10EDA00000BFFEF777FCBFE72C0000205A000020D0
:10EDB0005900002090100020480000200EB500BF30
:10EDC0004FF47A710C480068FEF7D0FB8DE807001D
:10EDD000009820280CD1019C2188A01CFDF731FA55
:10EDE000C820FEF731FB214603480068FEF7B0FB60
:10EDF000FEF750FCE4E70000440000200EB500BF21
:10EE00004FF47A7124480068FEF7B0FB8DE80700E4
:10EE1000009820282AD1019C00212288A01C81541E
:10EE2000A0783E2816D12088411EA01CFBF792FB3B
:10EE300005462088401EA11C085CA84209D100227A
:10EE40002088401E0A542088801E81B2E01CFDF7F5
:10EE5000E7FA00BF0120114908800020104908701E
:10EE600021460D480068FEF773FB11E0009840282A
:10EE70000ED10B480078401C0949087008460078FC
:10EE80003C2805DD00200870012004491039086085
:10EE9000FEF700FCB4E70000380000202808004816
:10EEA00058000020BDEB0008000000000100000039
:10EEB00000080000180000202000000000010000F1
:10EEC000F8010020050000000201000030000020D1
:10EED00005000000020100003C00002021ED0008B8
:10EEE0000000000001000000E8070000BDED000880
:10EEF000000000000100000000080000FDED000817
:10EF0000000000000100000000080000005EBCE2FC
:10EF1000613FDD83C29C7E20A3FD1F419DC3217FF5
:10EF2000FCA2401E5F01E3BD3E6082DC237D9FC1E9
:10EF3000421CFEA0E1BF5D0380DE3C62BEE0025CDD
:10EF4000DF81633D7C22C09E1D43A1FF4618FAA4C9
:10EF500027799BC584DA3866E5BB5907DB856739B5
:10EF6000BAE406581947A5FB7826C49A653BD987A9
:10EF7000045AB8E6A7F91B45C6987A24F8A6441A9D
:10EF800099C7257B3A6486D85B05E7B98CD2306E89
:10EF9000EDB3510F4E10F2AC2F7193CD114FADF375
:10EFA000702ECC92D38D6F31B2EC0E50AFF1134D69
:10EFB000CE90722C6D33D18F0C52B0EE326C8ED05D
:10EFC000530DEFB1F0AE4C1291CF2D73CA94762849
:10EFD000ABF517490856B4EA6937D58B5709EBB535
:10EFE00036688AD495CB2977F4AA4816E9B7550B29
:10EFF00088D6346A2B7597C94A14F6A8742AC8961D
:10F00000154BA9F7B6E80A54D7896B35E7CA00084B
:10F01000101200200B000000000209010500010091
:10F0200000A24A04480000003F190100010000004E
:10F030000200010052000400E8030000000000008C
:10F040004802000010060000782B000018000000A5
:10F05000FDD6000802000000010000009001000041
:10F0600004000000784A00200000000031D40008AD
:10F070000000000001000000900100009CF000086A
:10F0800000000020D40000004ACC000870F1000805
:10F09000D40000202C4E00005ACC000800000000D4
:10F0A0000000000000000000000000000000000060
:10F0B0000000000000000000000000000000000050
:10F0C0000000000000000000000000000806002012
:10F0D0002C060020000000004C0B0020700B0020CC
:10F0E0000000000000000000000000000000000020
:10F0F0000000000000000000000000000000000010
:10F10000FF000000000000000000000001020304F6
:10F1100001020304060708090100020004000600BA
:10F1200008000A000C0010002000400080000001D0
:10F1300000000000000000000000000000000000CF
:10F1400000000000000000000000000000000000BF
:10F1500000000000000000000000000000000000AF
:10F16000000000000000000000000000000000009F
:040000050800A189C5
:00000001FF
